{
	"contracts/SwapUniswap.sol": {
		"SwapUniswap": {
			"abi": [
				{
					"inputs": [
						{
							"internalType": "contract ISwapRouter",
							"name": "_swapRouter",
							"type": "address"
						},
						{
							"internalType": "address",
							"name": "_dai",
							"type": "address"
						},
						{
							"internalType": "address",
							"name": "_usdt",
							"type": "address"
						},
						{
							"internalType": "address",
							"name": "_usdc",
							"type": "address"
						}
					],
					"stateMutability": "nonpayable",
					"type": "constructor"
				},
				{
					"inputs": [],
					"name": "DAI",
					"outputs": [
						{
							"internalType": "address",
							"name": "",
							"type": "address"
						}
					],
					"stateMutability": "view",
					"type": "function"
				},
				{
					"inputs": [],
					"name": "USDC",
					"outputs": [
						{
							"internalType": "address",
							"name": "",
							"type": "address"
						}
					],
					"stateMutability": "view",
					"type": "function"
				},
				{
					"inputs": [],
					"name": "USDT",
					"outputs": [
						{
							"internalType": "address",
							"name": "",
							"type": "address"
						}
					],
					"stateMutability": "view",
					"type": "function"
				},
				{
					"inputs": [],
					"name": "WETH9",
					"outputs": [
						{
							"internalType": "address",
							"name": "",
							"type": "address"
						}
					],
					"stateMutability": "view",
					"type": "function"
				},
				{
					"inputs": [],
					"name": "poolFee",
					"outputs": [
						{
							"internalType": "uint24",
							"name": "",
							"type": "uint24"
						}
					],
					"stateMutability": "view",
					"type": "function"
				},
				{
					"inputs": [
						{
							"internalType": "uint256",
							"name": "amountIn",
							"type": "uint256"
						}
					],
					"name": "swapExactInputMultihop",
					"outputs": [
						{
							"internalType": "uint256",
							"name": "amountOut",
							"type": "uint256"
						}
					],
					"stateMutability": "nonpayable",
					"type": "function"
				},
				{
					"inputs": [
						{
							"internalType": "uint256",
							"name": "amountOut",
							"type": "uint256"
						},
						{
							"internalType": "uint256",
							"name": "amountInMaximum",
							"type": "uint256"
						}
					],
					"name": "swapExactOutputMultihop",
					"outputs": [
						{
							"internalType": "uint256",
							"name": "amountIn",
							"type": "uint256"
						}
					],
					"stateMutability": "nonpayable",
					"type": "function"
				},
				{
					"inputs": [],
					"name": "swapRouter",
					"outputs": [
						{
							"internalType": "contract ISwapRouter",
							"name": "",
							"type": "address"
						}
					],
					"stateMutability": "view",
					"type": "function"
				}
			],
			"devdoc": {
				"kind": "dev",
				"methods": {
					"swapExactInputMultihop(uint256)": {
						"details": "The calling address must approve this contract to spend at least `amountIn` worth of its DAI for this function to succeed.",
						"params": {
							"amountIn": "The amount of DAI to be swapped."
						},
						"returns": {
							"amountOut": "The amount of WETH9 received after the swap."
						}
					},
					"swapExactOutputMultihop(uint256,uint256)": {
						"details": "The calling address must approve this contract to spend its DAI for this function to succeed. As the amount of input DAI is variable, the calling address will need to approve for a slightly higher amount, anticipating some variance.",
						"params": {
							"amountInMaximum": "The maximum amount of DAI willing to be swapped for the specified amountOut of WETH9.",
							"amountOut": "The desired amount of WETH9."
						},
						"returns": {
							"amountIn": "The amountIn of DAI actually spent to receive the desired amountOut."
						}
					}
				},
				"version": 1
			},
			"evm": {
				"assembly": "    /* \"contracts/SwapUniswap.sol\":205:4001  contract SwapUniswap {... */\n  mstore(0x40, 0x0100)\n    /* \"contracts/SwapUniswap.sol\":562:753  constructor(ISwapRouter _swapRouter, address _dai, address _usdt, address _usdc) {... */\n  callvalue\n  dup1\n  iszero\n  tag_1\n  jumpi\n  0x00\n  dup1\n  revert\ntag_1:\n  pop\n  mload(0x40)\n  sub(codesize, bytecodeSize)\n  dup1\n  bytecodeSize\n  dup4\n  codecopy\n  dup2\n  dup2\n  add\n  0x40\n  mstore\n  dup2\n  add\n  swap1\n  tag_2\n  swap2\n  swap1\n  tag_3\n  jump\t// in\ntag_2:\n    /* \"contracts/SwapUniswap.sol\":667:678  _swapRouter */\n  dup4\n    /* \"contracts/SwapUniswap.sol\":654:678  swapRouter = _swapRouter */\n  0xffffffffffffffffffffffffffffffffffffffff\n  and\n  0x80\n  dup2\n  0xffffffffffffffffffffffffffffffffffffffff\n  and\n  dup2\n  mstore\n  pop\n  pop\n    /* \"contracts/SwapUniswap.sol\":695:699  _dai */\n  dup3\n    /* \"contracts/SwapUniswap.sol\":689:699  DAI = _dai */\n  0xffffffffffffffffffffffffffffffffffffffff\n  and\n  0xa0\n  dup2\n  0xffffffffffffffffffffffffffffffffffffffff\n  and\n  dup2\n  mstore\n  pop\n  pop\n    /* \"contracts/SwapUniswap.sol\":717:722  _usdt */\n  dup2\n    /* \"contracts/SwapUniswap.sol\":710:722  USDT = _usdt */\n  0xffffffffffffffffffffffffffffffffffffffff\n  and\n  0xc0\n  dup2\n  0xffffffffffffffffffffffffffffffffffffffff\n  and\n  dup2\n  mstore\n  pop\n  pop\n    /* \"contracts/SwapUniswap.sol\":740:745  _usdc */\n  dup1\n    /* \"contracts/SwapUniswap.sol\":733:745  USDC = _usdc */\n  0xffffffffffffffffffffffffffffffffffffffff\n  and\n  0xe0\n  dup2\n  0xffffffffffffffffffffffffffffffffffffffff\n  and\n  dup2\n  mstore\n  pop\n  pop\n    /* \"contracts/SwapUniswap.sol\":562:753  constructor(ISwapRouter _swapRouter, address _dai, address _usdt, address _usdc) {... */\n  pop\n  pop\n  pop\n  pop\n    /* \"contracts/SwapUniswap.sol\":205:4001  contract SwapUniswap {... */\n  jump(tag_6)\n    /* \"#utility.yul\":88:205   */\ntag_8:\n    /* \"#utility.yul\":197:198   */\n  0x00\n    /* \"#utility.yul\":194:195   */\n  dup1\n    /* \"#utility.yul\":187:199   */\n  revert\n    /* \"#utility.yul\":334:460   */\ntag_10:\n    /* \"#utility.yul\":371:378   */\n  0x00\n    /* \"#utility.yul\":411:453   */\n  0xffffffffffffffffffffffffffffffffffffffff\n    /* \"#utility.yul\":404:409   */\n  dup3\n    /* \"#utility.yul\":400:454   */\n  and\n    /* \"#utility.yul\":389:454   */\n  swap1\n  pop\n    /* \"#utility.yul\":334:460   */\n  swap2\n  swap1\n  pop\n  jump\t// out\n    /* \"#utility.yul\":466:562   */\ntag_11:\n    /* \"#utility.yul\":503:510   */\n  0x00\n    /* \"#utility.yul\":532:556   */\n  tag_23\n    /* \"#utility.yul\":550:555   */\n  dup3\n    /* \"#utility.yul\":532:556   */\n  tag_10\n  jump\t// in\ntag_23:\n    /* \"#utility.yul\":521:556   */\n  swap1\n  pop\n    /* \"#utility.yul\":466:562   */\n  swap2\n  swap1\n  pop\n  jump\t// out\n    /* \"#utility.yul\":568:683   */\ntag_12:\n    /* \"#utility.yul\":624:631   */\n  0x00\n    /* \"#utility.yul\":653:677   */\n  tag_25\n    /* \"#utility.yul\":671:676   */\n  dup3\n    /* \"#utility.yul\":653:677   */\n  tag_11\n  jump\t// in\ntag_25:\n    /* \"#utility.yul\":642:677   */\n  swap1\n  pop\n    /* \"#utility.yul\":568:683   */\n  swap2\n  swap1\n  pop\n  jump\t// out\n    /* \"#utility.yul\":689:849   */\ntag_13:\n    /* \"#utility.yul\":781:824   */\n  tag_27\n    /* \"#utility.yul\":818:823   */\n  dup2\n    /* \"#utility.yul\":781:824   */\n  tag_12\n  jump\t// in\ntag_27:\n    /* \"#utility.yul\":774:779   */\n  dup2\n    /* \"#utility.yul\":771:825   */\n  eq\n    /* \"#utility.yul\":761:843   */\n  tag_28\n  jumpi\n    /* \"#utility.yul\":839:840   */\n  0x00\n    /* \"#utility.yul\":836:837   */\n  dup1\n    /* \"#utility.yul\":829:841   */\n  revert\n    /* \"#utility.yul\":761:843   */\ntag_28:\n    /* \"#utility.yul\":689:849   */\n  pop\n  jump\t// out\n    /* \"#utility.yul\":855:1036   */\ntag_14:\n    /* \"#utility.yul\":931:936   */\n  0x00\n    /* \"#utility.yul\":962:968   */\n  dup2\n    /* \"#utility.yul\":956:969   */\n  mload\n    /* \"#utility.yul\":947:969   */\n  swap1\n  pop\n    /* \"#utility.yul\":978:1030   */\n  tag_30\n    /* \"#utility.yul\":1024:1029   */\n  dup2\n    /* \"#utility.yul\":978:1030   */\n  tag_13\n  jump\t// in\ntag_30:\n    /* \"#utility.yul\":855:1036   */\n  swap3\n  swap2\n  pop\n  pop\n  jump\t// out\n    /* \"#utility.yul\":1042:1164   */\ntag_15:\n    /* \"#utility.yul\":1115:1139   */\n  tag_32\n    /* \"#utility.yul\":1133:1138   */\n  dup2\n    /* \"#utility.yul\":1115:1139   */\n  tag_11\n  jump\t// in\ntag_32:\n    /* \"#utility.yul\":1108:1113   */\n  dup2\n    /* \"#utility.yul\":1105:1140   */\n  eq\n    /* \"#utility.yul\":1095:1158   */\n  tag_33\n  jumpi\n    /* \"#utility.yul\":1154:1155   */\n  0x00\n    /* \"#utility.yul\":1151:1152   */\n  dup1\n    /* \"#utility.yul\":1144:1156   */\n  revert\n    /* \"#utility.yul\":1095:1158   */\ntag_33:\n    /* \"#utility.yul\":1042:1164   */\n  pop\n  jump\t// out\n    /* \"#utility.yul\":1170:1313   */\ntag_16:\n    /* \"#utility.yul\":1227:1232   */\n  0x00\n    /* \"#utility.yul\":1258:1264   */\n  dup2\n    /* \"#utility.yul\":1252:1265   */\n  mload\n    /* \"#utility.yul\":1243:1265   */\n  swap1\n  pop\n    /* \"#utility.yul\":1274:1307   */\n  tag_35\n    /* \"#utility.yul\":1301:1306   */\n  dup2\n    /* \"#utility.yul\":1274:1307   */\n  tag_15\n  jump\t// in\ntag_35:\n    /* \"#utility.yul\":1170:1313   */\n  swap3\n  swap2\n  pop\n  pop\n  jump\t// out\n    /* \"#utility.yul\":1319:2177   */\ntag_3:\n    /* \"#utility.yul\":1435:1441   */\n  0x00\n    /* \"#utility.yul\":1443:1449   */\n  dup1\n    /* \"#utility.yul\":1451:1457   */\n  0x00\n    /* \"#utility.yul\":1459:1465   */\n  dup1\n    /* \"#utility.yul\":1508:1511   */\n  0x80\n    /* \"#utility.yul\":1496:1505   */\n  dup6\n    /* \"#utility.yul\":1487:1494   */\n  dup8\n    /* \"#utility.yul\":1483:1506   */\n  sub\n    /* \"#utility.yul\":1479:1512   */\n  slt\n    /* \"#utility.yul\":1476:1596   */\n  iszero\n  tag_37\n  jumpi\n    /* \"#utility.yul\":1515:1594   */\n  tag_38\n  tag_8\n  jump\t// in\ntag_38:\n    /* \"#utility.yul\":1476:1596   */\ntag_37:\n    /* \"#utility.yul\":1635:1636   */\n  0x00\n    /* \"#utility.yul\":1660:1743   */\n  tag_39\n    /* \"#utility.yul\":1735:1742   */\n  dup8\n    /* \"#utility.yul\":1726:1732   */\n  dup3\n    /* \"#utility.yul\":1715:1724   */\n  dup9\n    /* \"#utility.yul\":1711:1733   */\n  add\n    /* \"#utility.yul\":1660:1743   */\n  tag_14\n  jump\t// in\ntag_39:\n    /* \"#utility.yul\":1650:1743   */\n  swap5\n  pop\n    /* \"#utility.yul\":1606:1753   */\n  pop\n    /* \"#utility.yul\":1792:1794   */\n  0x20\n    /* \"#utility.yul\":1818:1882   */\n  tag_40\n    /* \"#utility.yul\":1874:1881   */\n  dup8\n    /* \"#utility.yul\":1865:1871   */\n  dup3\n    /* \"#utility.yul\":1854:1863   */\n  dup9\n    /* \"#utility.yul\":1850:1872   */\n  add\n    /* \"#utility.yul\":1818:1882   */\n  tag_16\n  jump\t// in\ntag_40:\n    /* \"#utility.yul\":1808:1882   */\n  swap4\n  pop\n    /* \"#utility.yul\":1763:1892   */\n  pop\n    /* \"#utility.yul\":1931:1933   */\n  0x40\n    /* \"#utility.yul\":1957:2021   */\n  tag_41\n    /* \"#utility.yul\":2013:2020   */\n  dup8\n    /* \"#utility.yul\":2004:2010   */\n  dup3\n    /* \"#utility.yul\":1993:2002   */\n  dup9\n    /* \"#utility.yul\":1989:2011   */\n  add\n    /* \"#utility.yul\":1957:2021   */\n  tag_16\n  jump\t// in\ntag_41:\n    /* \"#utility.yul\":1947:2021   */\n  swap3\n  pop\n    /* \"#utility.yul\":1902:2031   */\n  pop\n    /* \"#utility.yul\":2070:2072   */\n  0x60\n    /* \"#utility.yul\":2096:2160   */\n  tag_42\n    /* \"#utility.yul\":2152:2159   */\n  dup8\n    /* \"#utility.yul\":2143:2149   */\n  dup3\n    /* \"#utility.yul\":2132:2141   */\n  dup9\n    /* \"#utility.yul\":2128:2150   */\n  add\n    /* \"#utility.yul\":2096:2160   */\n  tag_16\n  jump\t// in\ntag_42:\n    /* \"#utility.yul\":2086:2160   */\n  swap2\n  pop\n    /* \"#utility.yul\":2041:2170   */\n  pop\n    /* \"#utility.yul\":1319:2177   */\n  swap3\n  swap6\n  swap2\n  swap5\n  pop\n  swap3\n  pop\n  jump\t// out\n    /* \"contracts/SwapUniswap.sol\":205:4001  contract SwapUniswap {... */\ntag_6:\n  mload(0x80)\n  mload(0xa0)\n  mload(0xc0)\n  mload(0xe0)\n  codecopy(0x00, dataOffset(sub_0), dataSize(sub_0))\n  0x00\n  assignImmutable(\"0x571dd8aeb083ba31171345d7ed78dcdb2e0ef1ded5d63247b288b600c1eb6c39\")\n  0x00\n  assignImmutable(\"0x278a4539603a9bc8a72d7a368fe14ebf88ae5f0870def96c5eca03adb0b084ba\")\n  0x00\n  assignImmutable(\"0x6bee8a6b07414df6f08314df38bdc731f007a634b960783bee7b774fa18ce7ee\")\n  0x00\n  assignImmutable(\"0x747491254fc29a61c3f0f8ca603d468b83f8d0af60d3a86e8b935f39643493bc\")\n  return(0x00, dataSize(sub_0))\nstop\n\nsub_0: assembly {\n        /* \"contracts/SwapUniswap.sol\":205:4001  contract SwapUniswap {... */\n      mstore(0x40, 0x80)\n      callvalue\n      dup1\n      iszero\n      tag_1\n      jumpi\n      0x00\n      dup1\n      revert\n    tag_1:\n      pop\n      jumpi(tag_2, lt(calldatasize, 0x04))\n      shr(0xe0, calldataload(0x00))\n      dup1\n      0xc31c9c07\n      gt\n      tag_11\n      jumpi\n      dup1\n      0xc31c9c07\n      eq\n      tag_7\n      jumpi\n      dup1\n      0xc54e44eb\n      eq\n      tag_8\n      jumpi\n      dup1\n      0xe0bab4c4\n      eq\n      tag_9\n      jumpi\n      dup1\n      0xedd83557\n      eq\n      tag_10\n      jumpi\n      jump(tag_2)\n    tag_11:\n      dup1\n      0x089fe6aa\n      eq\n      tag_3\n      jumpi\n      dup1\n      0x3b85cf6a\n      eq\n      tag_4\n      jumpi\n      dup1\n      0x4aa4a4fc\n      eq\n      tag_5\n      jumpi\n      dup1\n      0x89a30271\n      eq\n      tag_6\n      jumpi\n    tag_2:\n      0x00\n      dup1\n      revert\n        /* \"contracts/SwapUniswap.sol\":516:553  uint24 public constant poolFee = 3000 */\n    tag_3:\n      tag_12\n      tag_13\n      jump\t// in\n    tag_12:\n      mload(0x40)\n      tag_14\n      swap2\n      swap1\n      tag_15\n      jump\t// in\n    tag_14:\n      mload(0x40)\n      dup1\n      swap2\n      sub\n      swap1\n      return\n        /* \"contracts/SwapUniswap.sol\":2879:3998  function swapExactOutputMultihop(... */\n    tag_4:\n      tag_16\n      0x04\n      dup1\n      calldatasize\n      sub\n      dup2\n      add\n      swap1\n      tag_17\n      swap2\n      swap1\n      tag_18\n      jump\t// in\n    tag_17:\n      tag_19\n      jump\t// in\n    tag_16:\n      mload(0x40)\n      tag_20\n      swap2\n      swap1\n      tag_21\n      jump\t// in\n    tag_20:\n      mload(0x40)\n      dup1\n      swap2\n      sub\n      swap1\n      return\n        /* \"contracts/SwapUniswap.sol\":430:504  address public constant WETH9 = 0xC02aaA39b223FE8D0A0e5C4F27eAD9083C756Cc2 */\n    tag_5:\n      tag_22\n      tag_23\n      jump\t// in\n    tag_22:\n      mload(0x40)\n      tag_24\n      swap2\n      swap1\n      tag_25\n      jump\t// in\n    tag_24:\n      mload(0x40)\n      dup1\n      swap2\n      sub\n      swap1\n      return\n        /* \"contracts/SwapUniswap.sol\":394:423  address public immutable USDC */\n    tag_6:\n      tag_26\n      tag_27\n      jump\t// in\n    tag_26:\n      mload(0x40)\n      tag_28\n      swap2\n      swap1\n      tag_25\n      jump\t// in\n    tag_28:\n      mload(0x40)\n      dup1\n      swap2\n      sub\n      swap1\n      return\n        /* \"contracts/SwapUniswap.sol\":233:272  ISwapRouter public immutable swapRouter */\n    tag_7:\n      tag_29\n      tag_30\n      jump\t// in\n    tag_29:\n      mload(0x40)\n      tag_31\n      swap2\n      swap1\n      tag_32\n      jump\t// in\n    tag_31:\n      mload(0x40)\n      dup1\n      swap2\n      sub\n      swap1\n      return\n        /* \"contracts/SwapUniswap.sol\":358:387  address public immutable USDT */\n    tag_8:\n      tag_33\n      tag_34\n      jump\t// in\n    tag_33:\n      mload(0x40)\n      tag_35\n      swap2\n      swap1\n      tag_25\n      jump\t// in\n    tag_35:\n      mload(0x40)\n      dup1\n      swap2\n      sub\n      swap1\n      return\n        /* \"contracts/SwapUniswap.sol\":323:351  address public immutable DAI */\n    tag_9:\n      tag_36\n      tag_37\n      jump\t// in\n    tag_36:\n      mload(0x40)\n      tag_38\n      swap2\n      swap1\n      tag_25\n      jump\t// in\n    tag_38:\n      mload(0x40)\n      dup1\n      swap2\n      sub\n      swap1\n      return\n        /* \"contracts/SwapUniswap.sol\":1268:2008  function swapExactInputMultihop(... */\n    tag_10:\n      tag_39\n      0x04\n      dup1\n      calldatasize\n      sub\n      dup2\n      add\n      swap1\n      tag_40\n      swap2\n      swap1\n      tag_41\n      jump\t// in\n    tag_40:\n      tag_42\n      jump\t// in\n    tag_39:\n      mload(0x40)\n      tag_43\n      swap2\n      swap1\n      tag_21\n      jump\t// in\n    tag_43:\n      mload(0x40)\n      dup1\n      swap2\n      sub\n      swap1\n      return\n        /* \"contracts/SwapUniswap.sol\":516:553  uint24 public constant poolFee = 3000 */\n    tag_13:\n        /* \"contracts/SwapUniswap.sol\":549:553  3000 */\n      0x0bb8\n        /* \"contracts/SwapUniswap.sol\":516:553  uint24 public constant poolFee = 3000 */\n      dup2\n      jump\t// out\n        /* \"contracts/SwapUniswap.sol\":2879:3998  function swapExactOutputMultihop(... */\n    tag_19:\n        /* \"contracts/SwapUniswap.sol\":2999:3015  uint256 amountIn */\n      0x00\n        /* \"contracts/SwapUniswap.sol\":3028:3171  TransferHelper.safeTransferFrom(... */\n      tag_45\n        /* \"contracts/SwapUniswap.sol\":3074:3077  DAI */\n      immutable(\"0x6bee8a6b07414df6f08314df38bdc731f007a634b960783bee7b774fa18ce7ee\")\n        /* \"contracts/SwapUniswap.sol\":3092:3102  msg.sender */\n      caller\n        /* \"contracts/SwapUniswap.sol\":3125:3129  this */\n      address\n        /* \"contracts/SwapUniswap.sol\":3145:3160  amountInMaximum */\n      dup6\n        /* \"contracts/SwapUniswap.sol\":3028:3059  TransferHelper.safeTransferFrom */\n      tag_46\n        /* \"contracts/SwapUniswap.sol\":3028:3171  TransferHelper.safeTransferFrom(... */\n      jump\t// in\n    tag_45:\n        /* \"contracts/SwapUniswap.sol\":3182:3251  TransferHelper.safeApprove(DAI, address(swapRouter), amountInMaximum) */\n      tag_47\n        /* \"contracts/SwapUniswap.sol\":3209:3212  DAI */\n      immutable(\"0x6bee8a6b07414df6f08314df38bdc731f007a634b960783bee7b774fa18ce7ee\")\n        /* \"contracts/SwapUniswap.sol\":3222:3232  swapRouter */\n      immutable(\"0x747491254fc29a61c3f0f8ca603d468b83f8d0af60d3a86e8b935f39643493bc\")\n        /* \"contracts/SwapUniswap.sol\":3235:3250  amountInMaximum */\n      dup5\n        /* \"contracts/SwapUniswap.sol\":3182:3208  TransferHelper.safeApprove */\n      tag_48\n        /* \"contracts/SwapUniswap.sol\":3182:3251  TransferHelper.safeApprove(DAI, address(swapRouter), amountInMaximum) */\n      jump\t// in\n    tag_47:\n        /* \"contracts/SwapUniswap.sol\":3264:3307  ISwapRouter.ExactOutputParams memory params */\n      0x00\n        /* \"contracts/SwapUniswap.sol\":3310:3621  ISwapRouter... */\n      mload(0x40)\n      dup1\n      0xa0\n      add\n      0x40\n      mstore\n      dup1\n        /* \"contracts/SwapUniswap.sol\":462:504  0xC02aaA39b223FE8D0A0e5C4F27eAD9083C756Cc2 */\n      0xc02aaa39b223fe8d0a0e5c4f27ead9083c756cc2\n        /* \"contracts/SwapUniswap.sol\":549:553  3000 */\n      0x0bb8\n        /* \"contracts/SwapUniswap.sol\":3412:3416  USDC */\n      immutable(\"0x571dd8aeb083ba31171345d7ed78dcdb2e0ef1ded5d63247b288b600c1eb6c39\")\n        /* \"contracts/SwapUniswap.sol\":549:553  3000 */\n      0x0bb8\n        /* \"contracts/SwapUniswap.sol\":3427:3430  DAI */\n      immutable(\"0x6bee8a6b07414df6f08314df38bdc731f007a634b960783bee7b774fa18ce7ee\")\n        /* \"contracts/SwapUniswap.sol\":3379:3431  abi.encodePacked(WETH9, poolFee, USDC, poolFee, DAI) */\n      add(0x20, mload(0x40))\n      tag_49\n      swap6\n      swap5\n      swap4\n      swap3\n      swap2\n      swap1\n      tag_50\n      jump\t// in\n    tag_49:\n      mload(0x40)\n      0x20\n      dup2\n      dup4\n      sub\n      sub\n      dup2\n      mstore\n      swap1\n      0x40\n      mstore\n        /* \"contracts/SwapUniswap.sol\":3310:3621  ISwapRouter... */\n      dup2\n      mstore\n      0x20\n      add\n        /* \"contracts/SwapUniswap.sol\":3461:3471  msg.sender */\n      caller\n        /* \"contracts/SwapUniswap.sol\":3310:3621  ISwapRouter... */\n      0xffffffffffffffffffffffffffffffffffffffff\n      and\n      dup2\n      mstore\n      0x20\n      add\n        /* \"contracts/SwapUniswap.sol\":3500:3515  block.timestamp */\n      timestamp\n        /* \"contracts/SwapUniswap.sol\":3310:3621  ISwapRouter... */\n      dup2\n      mstore\n      0x20\n      add\n        /* \"contracts/SwapUniswap.sol\":3545:3554  amountOut */\n      dup6\n        /* \"contracts/SwapUniswap.sol\":3310:3621  ISwapRouter... */\n      dup2\n      mstore\n      0x20\n      add\n        /* \"contracts/SwapUniswap.sol\":3590:3605  amountInMaximum */\n      dup5\n        /* \"contracts/SwapUniswap.sol\":3310:3621  ISwapRouter... */\n      dup2\n      mstore\n      pop\n        /* \"contracts/SwapUniswap.sol\":3264:3621  ISwapRouter.ExactOutputParams memory params = ISwapRouter... */\n      swap1\n      pop\n        /* \"contracts/SwapUniswap.sol\":3645:3655  swapRouter */\n      immutable(\"0x747491254fc29a61c3f0f8ca603d468b83f8d0af60d3a86e8b935f39643493bc\")\n        /* \"contracts/SwapUniswap.sol\":3645:3667  swapRouter.exactOutput */\n      0xffffffffffffffffffffffffffffffffffffffff\n      and\n      0xf28c0498\n        /* \"contracts/SwapUniswap.sol\":3668:3674  params */\n      dup3\n        /* \"contracts/SwapUniswap.sol\":3645:3675  swapRouter.exactOutput(params) */\n      mload(0x40)\n      dup3\n      0xffffffff\n      and\n      0xe0\n      shl\n      dup2\n      mstore\n      0x04\n      add\n      tag_51\n      swap2\n      swap1\n      tag_52\n      jump\t// in\n    tag_51:\n      0x20\n      mload(0x40)\n      dup1\n      dup4\n      sub\n      dup2\n      0x00\n      dup8\n      gas\n      call\n      iszero\n      dup1\n      iszero\n      tag_54\n      jumpi\n      returndatasize\n      0x00\n      dup1\n      returndatacopy\n      revert(0x00, returndatasize)\n    tag_54:\n      pop\n      pop\n      pop\n      pop\n      mload(0x40)\n      returndatasize\n      not(0x1f)\n      0x1f\n      dup3\n      add\n      and\n      dup3\n      add\n      dup1\n      0x40\n      mstore\n      pop\n      dup2\n      add\n      swap1\n      tag_55\n      swap2\n      swap1\n      tag_56\n      jump\t// in\n    tag_55:\n        /* \"contracts/SwapUniswap.sol\":3634:3675  amountIn = swapRouter.exactOutput(params) */\n      swap2\n      pop\n        /* \"contracts/SwapUniswap.sol\":3703:3718  amountInMaximum */\n      dup3\n        /* \"contracts/SwapUniswap.sol\":3692:3700  amountIn */\n      dup3\n        /* \"contracts/SwapUniswap.sol\":3692:3718  amountIn < amountInMaximum */\n      lt\n        /* \"contracts/SwapUniswap.sol\":3688:3991  if (amountIn < amountInMaximum) {... */\n      iszero\n      tag_57\n      jumpi\n        /* \"contracts/SwapUniswap.sol\":3735:3790  TransferHelper.safeApprove(DAI, address(swapRouter), 0) */\n      tag_58\n        /* \"contracts/SwapUniswap.sol\":3762:3765  DAI */\n      immutable(\"0x6bee8a6b07414df6f08314df38bdc731f007a634b960783bee7b774fa18ce7ee\")\n        /* \"contracts/SwapUniswap.sol\":3775:3785  swapRouter */\n      immutable(\"0x747491254fc29a61c3f0f8ca603d468b83f8d0af60d3a86e8b935f39643493bc\")\n        /* \"contracts/SwapUniswap.sol\":3788:3789  0 */\n      0x00\n        /* \"contracts/SwapUniswap.sol\":3735:3761  TransferHelper.safeApprove */\n      tag_48\n        /* \"contracts/SwapUniswap.sol\":3735:3790  TransferHelper.safeApprove(DAI, address(swapRouter), 0) */\n      jump\t// in\n    tag_58:\n        /* \"contracts/SwapUniswap.sol\":3805:3979  TransferHelper.safeTransferFrom(... */\n      tag_59\n        /* \"contracts/SwapUniswap.sol\":3855:3858  DAI */\n      immutable(\"0x6bee8a6b07414df6f08314df38bdc731f007a634b960783bee7b774fa18ce7ee\")\n        /* \"contracts/SwapUniswap.sol\":3885:3889  this */\n      address\n        /* \"contracts/SwapUniswap.sol\":3909:3919  msg.sender */\n      caller\n        /* \"contracts/SwapUniswap.sol\":3956:3964  amountIn */\n      dup6\n        /* \"contracts/SwapUniswap.sol\":3938:3953  amountInMaximum */\n      dup8\n        /* \"contracts/SwapUniswap.sol\":3938:3964  amountInMaximum - amountIn */\n      tag_60\n      swap2\n      swap1\n      tag_61\n      jump\t// in\n    tag_60:\n        /* \"contracts/SwapUniswap.sol\":3805:3836  TransferHelper.safeTransferFrom */\n      tag_46\n        /* \"contracts/SwapUniswap.sol\":3805:3979  TransferHelper.safeTransferFrom(... */\n      jump\t// in\n    tag_59:\n        /* \"contracts/SwapUniswap.sol\":3688:3991  if (amountIn < amountInMaximum) {... */\n    tag_57:\n        /* \"contracts/SwapUniswap.sol\":3017:3998  {... */\n      pop\n        /* \"contracts/SwapUniswap.sol\":2879:3998  function swapExactOutputMultihop(... */\n      swap3\n      swap2\n      pop\n      pop\n      jump\t// out\n        /* \"contracts/SwapUniswap.sol\":430:504  address public constant WETH9 = 0xC02aaA39b223FE8D0A0e5C4F27eAD9083C756Cc2 */\n    tag_23:\n        /* \"contracts/SwapUniswap.sol\":462:504  0xC02aaA39b223FE8D0A0e5C4F27eAD9083C756Cc2 */\n      0xc02aaa39b223fe8d0a0e5c4f27ead9083c756cc2\n        /* \"contracts/SwapUniswap.sol\":430:504  address public constant WETH9 = 0xC02aaA39b223FE8D0A0e5C4F27eAD9083C756Cc2 */\n      dup2\n      jump\t// out\n        /* \"contracts/SwapUniswap.sol\":394:423  address public immutable USDC */\n    tag_27:\n      immutable(\"0x571dd8aeb083ba31171345d7ed78dcdb2e0ef1ded5d63247b288b600c1eb6c39\")\n      dup2\n      jump\t// out\n        /* \"contracts/SwapUniswap.sol\":233:272  ISwapRouter public immutable swapRouter */\n    tag_30:\n      immutable(\"0x747491254fc29a61c3f0f8ca603d468b83f8d0af60d3a86e8b935f39643493bc\")\n      dup2\n      jump\t// out\n        /* \"contracts/SwapUniswap.sol\":358:387  address public immutable USDT */\n    tag_34:\n      immutable(\"0x278a4539603a9bc8a72d7a368fe14ebf88ae5f0870def96c5eca03adb0b084ba\")\n      dup2\n      jump\t// out\n        /* \"contracts/SwapUniswap.sol\":323:351  address public immutable DAI */\n    tag_37:\n      immutable(\"0x6bee8a6b07414df6f08314df38bdc731f007a634b960783bee7b774fa18ce7ee\")\n      dup2\n      jump\t// out\n        /* \"contracts/SwapUniswap.sol\":1268:2008  function swapExactInputMultihop(... */\n    tag_42:\n        /* \"contracts/SwapUniswap.sol\":1352:1369  uint256 amountOut */\n      0x00\n        /* \"contracts/SwapUniswap.sol\":1382:1518  TransferHelper.safeTransferFrom(... */\n      tag_63\n        /* \"contracts/SwapUniswap.sol\":1428:1431  DAI */\n      immutable(\"0x6bee8a6b07414df6f08314df38bdc731f007a634b960783bee7b774fa18ce7ee\")\n        /* \"contracts/SwapUniswap.sol\":1446:1456  msg.sender */\n      caller\n        /* \"contracts/SwapUniswap.sol\":1479:1483  this */\n      address\n        /* \"contracts/SwapUniswap.sol\":1499:1507  amountIn */\n      dup6\n        /* \"contracts/SwapUniswap.sol\":1382:1413  TransferHelper.safeTransferFrom */\n      tag_46\n        /* \"contracts/SwapUniswap.sol\":1382:1518  TransferHelper.safeTransferFrom(... */\n      jump\t// in\n    tag_63:\n        /* \"contracts/SwapUniswap.sol\":1531:1593  TransferHelper.safeApprove(DAI, address(swapRouter), amountIn) */\n      tag_64\n        /* \"contracts/SwapUniswap.sol\":1558:1561  DAI */\n      immutable(\"0x6bee8a6b07414df6f08314df38bdc731f007a634b960783bee7b774fa18ce7ee\")\n        /* \"contracts/SwapUniswap.sol\":1571:1581  swapRouter */\n      immutable(\"0x747491254fc29a61c3f0f8ca603d468b83f8d0af60d3a86e8b935f39643493bc\")\n        /* \"contracts/SwapUniswap.sol\":1584:1592  amountIn */\n      dup5\n        /* \"contracts/SwapUniswap.sol\":1531:1557  TransferHelper.safeApprove */\n      tag_48\n        /* \"contracts/SwapUniswap.sol\":1531:1593  TransferHelper.safeApprove(DAI, address(swapRouter), amountIn) */\n      jump\t// in\n    tag_64:\n        /* \"contracts/SwapUniswap.sol\":1606:1648  ISwapRouter.ExactInputParams memory params */\n      0x00\n        /* \"contracts/SwapUniswap.sol\":1651:1946  ISwapRouter... */\n      mload(0x40)\n      dup1\n      0xa0\n      add\n      0x40\n      mstore\n      dup1\n        /* \"contracts/SwapUniswap.sol\":1736:1739  DAI */\n      immutable(\"0x6bee8a6b07414df6f08314df38bdc731f007a634b960783bee7b774fa18ce7ee\")\n        /* \"contracts/SwapUniswap.sol\":549:553  3000 */\n      0x0bb8\n        /* \"contracts/SwapUniswap.sol\":1750:1754  USDC */\n      immutable(\"0x571dd8aeb083ba31171345d7ed78dcdb2e0ef1ded5d63247b288b600c1eb6c39\")\n        /* \"contracts/SwapUniswap.sol\":549:553  3000 */\n      0x0bb8\n        /* \"contracts/SwapUniswap.sol\":462:504  0xC02aaA39b223FE8D0A0e5C4F27eAD9083C756Cc2 */\n      0xc02aaa39b223fe8d0a0e5c4f27ead9083c756cc2\n        /* \"contracts/SwapUniswap.sol\":1719:1771  abi.encodePacked(DAI, poolFee, USDC, poolFee, WETH9) */\n      add(0x20, mload(0x40))\n      tag_65\n      swap6\n      swap5\n      swap4\n      swap3\n      swap2\n      swap1\n      tag_50\n      jump\t// in\n    tag_65:\n      mload(0x40)\n      0x20\n      dup2\n      dup4\n      sub\n      sub\n      dup2\n      mstore\n      swap1\n      0x40\n      mstore\n        /* \"contracts/SwapUniswap.sol\":1651:1946  ISwapRouter... */\n      dup2\n      mstore\n      0x20\n      add\n        /* \"contracts/SwapUniswap.sol\":1801:1811  msg.sender */\n      caller\n        /* \"contracts/SwapUniswap.sol\":1651:1946  ISwapRouter... */\n      0xffffffffffffffffffffffffffffffffffffffff\n      and\n      dup2\n      mstore\n      0x20\n      add\n        /* \"contracts/SwapUniswap.sol\":1840:1855  block.timestamp */\n      timestamp\n        /* \"contracts/SwapUniswap.sol\":1651:1946  ISwapRouter... */\n      dup2\n      mstore\n      0x20\n      add\n        /* \"contracts/SwapUniswap.sol\":1884:1892  amountIn */\n      dup5\n        /* \"contracts/SwapUniswap.sol\":1651:1946  ISwapRouter... */\n      dup2\n      mstore\n      0x20\n      add\n        /* \"contracts/SwapUniswap.sol\":1929:1930  0 */\n      0x00\n        /* \"contracts/SwapUniswap.sol\":1651:1946  ISwapRouter... */\n      dup2\n      mstore\n      pop\n        /* \"contracts/SwapUniswap.sol\":1606:1946  ISwapRouter.ExactInputParams memory params = ISwapRouter... */\n      swap1\n      pop\n        /* \"contracts/SwapUniswap.sol\":1971:1981  swapRouter */\n      immutable(\"0x747491254fc29a61c3f0f8ca603d468b83f8d0af60d3a86e8b935f39643493bc\")\n        /* \"contracts/SwapUniswap.sol\":1971:1992  swapRouter.exactInput */\n      0xffffffffffffffffffffffffffffffffffffffff\n      and\n      0xc04b8d59\n        /* \"contracts/SwapUniswap.sol\":1993:1999  params */\n      dup3\n        /* \"contracts/SwapUniswap.sol\":1971:2000  swapRouter.exactInput(params) */\n      mload(0x40)\n      dup3\n      0xffffffff\n      and\n      0xe0\n      shl\n      dup2\n      mstore\n      0x04\n      add\n      tag_66\n      swap2\n      swap1\n      tag_67\n      jump\t// in\n    tag_66:\n      0x20\n      mload(0x40)\n      dup1\n      dup4\n      sub\n      dup2\n      0x00\n      dup8\n      gas\n      call\n      iszero\n      dup1\n      iszero\n      tag_69\n      jumpi\n      returndatasize\n      0x00\n      dup1\n      returndatacopy\n      revert(0x00, returndatasize)\n    tag_69:\n      pop\n      pop\n      pop\n      pop\n      mload(0x40)\n      returndatasize\n      not(0x1f)\n      0x1f\n      dup3\n      add\n      and\n      dup3\n      add\n      dup1\n      0x40\n      mstore\n      pop\n      dup2\n      add\n      swap1\n      tag_70\n      swap2\n      swap1\n      tag_56\n      jump\t// in\n    tag_70:\n        /* \"contracts/SwapUniswap.sol\":1959:2000  amountOut = swapRouter.exactInput(params) */\n      swap2\n      pop\n        /* \"contracts/SwapUniswap.sol\":1371:2008  {... */\n      pop\n        /* \"contracts/SwapUniswap.sol\":1268:2008  function swapExactInputMultihop(... */\n      swap2\n      swap1\n      pop\n      jump\t// out\n        /* \"@uniswap/v3-periphery/contracts/libraries/TransferHelper.sol\":561:919  function safeTransferFrom(... */\n    tag_46:\n        /* \"@uniswap/v3-periphery/contracts/libraries/TransferHelper.sol\":701:713  bool success */\n      0x00\n        /* \"@uniswap/v3-periphery/contracts/libraries/TransferHelper.sol\":715:732  bytes memory data */\n      dup1\n        /* \"@uniswap/v3-periphery/contracts/libraries/TransferHelper.sol\":748:753  token */\n      dup6\n        /* \"@uniswap/v3-periphery/contracts/libraries/TransferHelper.sol\":748:758  token.call */\n      0xffffffffffffffffffffffffffffffffffffffff\n      and\n        /* \"@uniswap/v3-periphery/contracts/libraries/TransferHelper.sol\":782:810  IERC20.transferFrom.selector */\n      shl(0xe0, 0x23b872dd)\n        /* \"@uniswap/v3-periphery/contracts/libraries/TransferHelper.sol\":812:816  from */\n      dup7\n        /* \"@uniswap/v3-periphery/contracts/libraries/TransferHelper.sol\":818:820  to */\n      dup7\n        /* \"@uniswap/v3-periphery/contracts/libraries/TransferHelper.sol\":822:827  value */\n      dup7\n        /* \"@uniswap/v3-periphery/contracts/libraries/TransferHelper.sol\":759:828  abi.encodeWithSelector(IERC20.transferFrom.selector, from, to, value) */\n      add(0x24, mload(0x40))\n      tag_72\n      swap4\n      swap3\n      swap2\n      swap1\n      tag_73\n      jump\t// in\n    tag_72:\n      mload(0x40)\n      0x20\n      dup2\n      dup4\n      sub\n      sub\n      dup2\n      mstore\n      swap1\n      0x40\n      mstore\n      swap1\n      not(0xffffffffffffffffffffffffffffffffffffffffffffffffffffffff)\n      and\n      0x20\n      dup3\n      add\n      dup1\n      mload\n      0xffffffffffffffffffffffffffffffffffffffffffffffffffffffff\n      dup4\n      dup2\n      dup4\n      and\n      or\n      dup4\n      mstore\n      pop\n      pop\n      pop\n      pop\n        /* \"@uniswap/v3-periphery/contracts/libraries/TransferHelper.sol\":748:829  token.call(abi.encodeWithSelector(IERC20.transferFrom.selector, from, to, value)) */\n      mload(0x40)\n      tag_74\n      swap2\n      swap1\n      tag_75\n      jump\t// in\n    tag_74:\n      0x00\n      mload(0x40)\n      dup1\n      dup4\n      sub\n      dup2\n      0x00\n      dup7\n      gas\n      call\n      swap2\n      pop\n      pop\n      returndatasize\n      dup1\n      0x00\n      dup2\n      eq\n      tag_78\n      jumpi\n      mload(0x40)\n      swap2\n      pop\n      and(add(returndatasize, 0x3f), not(0x1f))\n      dup3\n      add\n      0x40\n      mstore\n      returndatasize\n      dup3\n      mstore\n      returndatasize\n      0x00\n      0x20\n      dup5\n      add\n      returndatacopy\n      jump(tag_77)\n    tag_78:\n      0x60\n      swap2\n      pop\n    tag_77:\n      pop\n        /* \"@uniswap/v3-periphery/contracts/libraries/TransferHelper.sol\":700:829  (bool success, bytes memory data) =... */\n      swap2\n      pop\n      swap2\n      pop\n        /* \"@uniswap/v3-periphery/contracts/libraries/TransferHelper.sol\":847:854  success */\n      dup2\n        /* \"@uniswap/v3-periphery/contracts/libraries/TransferHelper.sol\":847:904  success && (data.length == 0 || abi.decode(data, (bool))) */\n      dup1\n      iszero\n      tag_79\n      jumpi\n      pop\n        /* \"@uniswap/v3-periphery/contracts/libraries/TransferHelper.sol\":874:875  0 */\n      0x00\n        /* \"@uniswap/v3-periphery/contracts/libraries/TransferHelper.sol\":859:863  data */\n      dup2\n        /* \"@uniswap/v3-periphery/contracts/libraries/TransferHelper.sol\":859:870  data.length */\n      mload\n        /* \"@uniswap/v3-periphery/contracts/libraries/TransferHelper.sol\":859:875  data.length == 0 */\n      eq\n        /* \"@uniswap/v3-periphery/contracts/libraries/TransferHelper.sol\":859:903  data.length == 0 || abi.decode(data, (bool)) */\n      dup1\n      tag_80\n      jumpi\n      pop\n        /* \"@uniswap/v3-periphery/contracts/libraries/TransferHelper.sol\":890:894  data */\n      dup1\n        /* \"@uniswap/v3-periphery/contracts/libraries/TransferHelper.sol\":879:903  abi.decode(data, (bool)) */\n      dup1\n      0x20\n      add\n      swap1\n      mload\n      dup2\n      add\n      swap1\n      tag_81\n      swap2\n      swap1\n      tag_82\n      jump\t// in\n    tag_81:\n        /* \"@uniswap/v3-periphery/contracts/libraries/TransferHelper.sol\":859:903  data.length == 0 || abi.decode(data, (bool)) */\n    tag_80:\n        /* \"@uniswap/v3-periphery/contracts/libraries/TransferHelper.sol\":847:904  success && (data.length == 0 || abi.decode(data, (bool))) */\n    tag_79:\n        /* \"@uniswap/v3-periphery/contracts/libraries/TransferHelper.sol\":839:912  require(success && (data.length == 0 || abi.decode(data, (bool))), 'STF') */\n      tag_83\n      jumpi\n      mload(0x40)\n      0x08c379a000000000000000000000000000000000000000000000000000000000\n      dup2\n      mstore\n      0x04\n      add\n      tag_84\n      swap1\n      tag_85\n      jump\t// in\n    tag_84:\n      mload(0x40)\n      dup1\n      swap2\n      sub\n      swap1\n      revert\n    tag_83:\n        /* \"@uniswap/v3-periphery/contracts/libraries/TransferHelper.sol\":690:919  {... */\n      pop\n      pop\n        /* \"@uniswap/v3-periphery/contracts/libraries/TransferHelper.sol\":561:919  function safeTransferFrom(... */\n      pop\n      pop\n      pop\n      pop\n      jump\t// out\n        /* \"@uniswap/v3-periphery/contracts/libraries/TransferHelper.sol\":1873:2180  function safeApprove(... */\n    tag_48:\n        /* \"@uniswap/v3-periphery/contracts/libraries/TransferHelper.sol\":1986:1998  bool success */\n      0x00\n        /* \"@uniswap/v3-periphery/contracts/libraries/TransferHelper.sol\":2000:2017  bytes memory data */\n      dup1\n        /* \"@uniswap/v3-periphery/contracts/libraries/TransferHelper.sol\":2021:2026  token */\n      dup5\n        /* \"@uniswap/v3-periphery/contracts/libraries/TransferHelper.sol\":2021:2031  token.call */\n      0xffffffffffffffffffffffffffffffffffffffff\n      and\n        /* \"@uniswap/v3-periphery/contracts/libraries/TransferHelper.sol\":2055:2078  IERC20.approve.selector */\n      shl(0xe0, 0x095ea7b3)\n        /* \"@uniswap/v3-periphery/contracts/libraries/TransferHelper.sol\":2080:2082  to */\n      dup6\n        /* \"@uniswap/v3-periphery/contracts/libraries/TransferHelper.sol\":2084:2089  value */\n      dup6\n        /* \"@uniswap/v3-periphery/contracts/libraries/TransferHelper.sol\":2032:2090  abi.encodeWithSelector(IERC20.approve.selector, to, value) */\n      add(0x24, mload(0x40))\n      tag_87\n      swap3\n      swap2\n      swap1\n      tag_88\n      jump\t// in\n    tag_87:\n      mload(0x40)\n      0x20\n      dup2\n      dup4\n      sub\n      sub\n      dup2\n      mstore\n      swap1\n      0x40\n      mstore\n      swap1\n      not(0xffffffffffffffffffffffffffffffffffffffffffffffffffffffff)\n      and\n      0x20\n      dup3\n      add\n      dup1\n      mload\n      0xffffffffffffffffffffffffffffffffffffffffffffffffffffffff\n      dup4\n      dup2\n      dup4\n      and\n      or\n      dup4\n      mstore\n      pop\n      pop\n      pop\n      pop\n        /* \"@uniswap/v3-periphery/contracts/libraries/TransferHelper.sol\":2021:2091  token.call(abi.encodeWithSelector(IERC20.approve.selector, to, value)) */\n      mload(0x40)\n      tag_89\n      swap2\n      swap1\n      tag_75\n      jump\t// in\n    tag_89:\n      0x00\n      mload(0x40)\n      dup1\n      dup4\n      sub\n      dup2\n      0x00\n      dup7\n      gas\n      call\n      swap2\n      pop\n      pop\n      returndatasize\n      dup1\n      0x00\n      dup2\n      eq\n      tag_92\n      jumpi\n      mload(0x40)\n      swap2\n      pop\n      and(add(returndatasize, 0x3f), not(0x1f))\n      dup3\n      add\n      0x40\n      mstore\n      returndatasize\n      dup3\n      mstore\n      returndatasize\n      0x00\n      0x20\n      dup5\n      add\n      returndatacopy\n      jump(tag_91)\n    tag_92:\n      0x60\n      swap2\n      pop\n    tag_91:\n      pop\n        /* \"@uniswap/v3-periphery/contracts/libraries/TransferHelper.sol\":1985:2091  (bool success, bytes memory data) = token.call(abi.encodeWithSelector(IERC20.approve.selector, to, value)) */\n      swap2\n      pop\n      swap2\n      pop\n        /* \"@uniswap/v3-periphery/contracts/libraries/TransferHelper.sol\":2109:2116  success */\n      dup2\n        /* \"@uniswap/v3-periphery/contracts/libraries/TransferHelper.sol\":2109:2166  success && (data.length == 0 || abi.decode(data, (bool))) */\n      dup1\n      iszero\n      tag_93\n      jumpi\n      pop\n        /* \"@uniswap/v3-periphery/contracts/libraries/TransferHelper.sol\":2136:2137  0 */\n      0x00\n        /* \"@uniswap/v3-periphery/contracts/libraries/TransferHelper.sol\":2121:2125  data */\n      dup2\n        /* \"@uniswap/v3-periphery/contracts/libraries/TransferHelper.sol\":2121:2132  data.length */\n      mload\n        /* \"@uniswap/v3-periphery/contracts/libraries/TransferHelper.sol\":2121:2137  data.length == 0 */\n      eq\n        /* \"@uniswap/v3-periphery/contracts/libraries/TransferHelper.sol\":2121:2165  data.length == 0 || abi.decode(data, (bool)) */\n      dup1\n      tag_94\n      jumpi\n      pop\n        /* \"@uniswap/v3-periphery/contracts/libraries/TransferHelper.sol\":2152:2156  data */\n      dup1\n        /* \"@uniswap/v3-periphery/contracts/libraries/TransferHelper.sol\":2141:2165  abi.decode(data, (bool)) */\n      dup1\n      0x20\n      add\n      swap1\n      mload\n      dup2\n      add\n      swap1\n      tag_95\n      swap2\n      swap1\n      tag_82\n      jump\t// in\n    tag_95:\n        /* \"@uniswap/v3-periphery/contracts/libraries/TransferHelper.sol\":2121:2165  data.length == 0 || abi.decode(data, (bool)) */\n    tag_94:\n        /* \"@uniswap/v3-periphery/contracts/libraries/TransferHelper.sol\":2109:2166  success && (data.length == 0 || abi.decode(data, (bool))) */\n    tag_93:\n        /* \"@uniswap/v3-periphery/contracts/libraries/TransferHelper.sol\":2101:2173  require(success && (data.length == 0 || abi.decode(data, (bool))), 'SA') */\n      tag_96\n      jumpi\n      mload(0x40)\n      0x08c379a000000000000000000000000000000000000000000000000000000000\n      dup2\n      mstore\n      0x04\n      add\n      tag_97\n      swap1\n      tag_98\n      jump\t// in\n    tag_97:\n      mload(0x40)\n      dup1\n      swap2\n      sub\n      swap1\n      revert\n    tag_96:\n        /* \"@uniswap/v3-periphery/contracts/libraries/TransferHelper.sol\":1975:2180  {... */\n      pop\n      pop\n        /* \"@uniswap/v3-periphery/contracts/libraries/TransferHelper.sol\":1873:2180  function safeApprove(... */\n      pop\n      pop\n      pop\n      jump\t// out\n        /* \"#utility.yul\":7:98   */\n    tag_99:\n        /* \"#utility.yul\":43:50   */\n      0x00\n        /* \"#utility.yul\":83:91   */\n      0xffffff\n        /* \"#utility.yul\":76:81   */\n      dup3\n        /* \"#utility.yul\":72:92   */\n      and\n        /* \"#utility.yul\":61:92   */\n      swap1\n      pop\n        /* \"#utility.yul\":7:98   */\n      swap2\n      swap1\n      pop\n      jump\t// out\n        /* \"#utility.yul\":104:219   */\n    tag_100:\n        /* \"#utility.yul\":189:212   */\n      tag_147\n        /* \"#utility.yul\":206:211   */\n      dup2\n        /* \"#utility.yul\":189:212   */\n      tag_99\n      jump\t// in\n    tag_147:\n        /* \"#utility.yul\":184:187   */\n      dup3\n        /* \"#utility.yul\":177:213   */\n      mstore\n        /* \"#utility.yul\":104:219   */\n      pop\n      pop\n      jump\t// out\n        /* \"#utility.yul\":225:443   */\n    tag_15:\n        /* \"#utility.yul\":316:320   */\n      0x00\n        /* \"#utility.yul\":354:356   */\n      0x20\n        /* \"#utility.yul\":343:352   */\n      dup3\n        /* \"#utility.yul\":339:357   */\n      add\n        /* \"#utility.yul\":331:357   */\n      swap1\n      pop\n        /* \"#utility.yul\":367:436   */\n      tag_149\n        /* \"#utility.yul\":433:434   */\n      0x00\n        /* \"#utility.yul\":422:431   */\n      dup4\n        /* \"#utility.yul\":418:435   */\n      add\n        /* \"#utility.yul\":409:415   */\n      dup5\n        /* \"#utility.yul\":367:436   */\n      tag_100\n      jump\t// in\n    tag_149:\n        /* \"#utility.yul\":225:443   */\n      swap3\n      swap2\n      pop\n      pop\n      jump\t// out\n        /* \"#utility.yul\":530:647   */\n    tag_102:\n        /* \"#utility.yul\":639:640   */\n      0x00\n        /* \"#utility.yul\":636:637   */\n      dup1\n        /* \"#utility.yul\":629:641   */\n      revert\n        /* \"#utility.yul\":776:853   */\n    tag_104:\n        /* \"#utility.yul\":813:820   */\n      0x00\n        /* \"#utility.yul\":842:847   */\n      dup2\n        /* \"#utility.yul\":831:847   */\n      swap1\n      pop\n        /* \"#utility.yul\":776:853   */\n      swap2\n      swap1\n      pop\n      jump\t// out\n        /* \"#utility.yul\":859:981   */\n    tag_105:\n        /* \"#utility.yul\":932:956   */\n      tag_155\n        /* \"#utility.yul\":950:955   */\n      dup2\n        /* \"#utility.yul\":932:956   */\n      tag_104\n      jump\t// in\n    tag_155:\n        /* \"#utility.yul\":925:930   */\n      dup2\n        /* \"#utility.yul\":922:957   */\n      eq\n        /* \"#utility.yul\":912:975   */\n      tag_156\n      jumpi\n        /* \"#utility.yul\":971:972   */\n      0x00\n        /* \"#utility.yul\":968:969   */\n      dup1\n        /* \"#utility.yul\":961:973   */\n      revert\n        /* \"#utility.yul\":912:975   */\n    tag_156:\n        /* \"#utility.yul\":859:981   */\n      pop\n      jump\t// out\n        /* \"#utility.yul\":987:1126   */\n    tag_106:\n        /* \"#utility.yul\":1033:1038   */\n      0x00\n        /* \"#utility.yul\":1071:1077   */\n      dup2\n        /* \"#utility.yul\":1058:1078   */\n      calldataload\n        /* \"#utility.yul\":1049:1078   */\n      swap1\n      pop\n        /* \"#utility.yul\":1087:1120   */\n      tag_158\n        /* \"#utility.yul\":1114:1119   */\n      dup2\n        /* \"#utility.yul\":1087:1120   */\n      tag_105\n      jump\t// in\n    tag_158:\n        /* \"#utility.yul\":987:1126   */\n      swap3\n      swap2\n      pop\n      pop\n      jump\t// out\n        /* \"#utility.yul\":1132:1606   */\n    tag_18:\n        /* \"#utility.yul\":1200:1206   */\n      0x00\n        /* \"#utility.yul\":1208:1214   */\n      dup1\n        /* \"#utility.yul\":1257:1259   */\n      0x40\n        /* \"#utility.yul\":1245:1254   */\n      dup4\n        /* \"#utility.yul\":1236:1243   */\n      dup6\n        /* \"#utility.yul\":1232:1255   */\n      sub\n        /* \"#utility.yul\":1228:1260   */\n      slt\n        /* \"#utility.yul\":1225:1344   */\n      iszero\n      tag_160\n      jumpi\n        /* \"#utility.yul\":1263:1342   */\n      tag_161\n      tag_102\n      jump\t// in\n    tag_161:\n        /* \"#utility.yul\":1225:1344   */\n    tag_160:\n        /* \"#utility.yul\":1383:1384   */\n      0x00\n        /* \"#utility.yul\":1408:1461   */\n      tag_162\n        /* \"#utility.yul\":1453:1460   */\n      dup6\n        /* \"#utility.yul\":1444:1450   */\n      dup3\n        /* \"#utility.yul\":1433:1442   */\n      dup7\n        /* \"#utility.yul\":1429:1451   */\n      add\n        /* \"#utility.yul\":1408:1461   */\n      tag_106\n      jump\t// in\n    tag_162:\n        /* \"#utility.yul\":1398:1461   */\n      swap3\n      pop\n        /* \"#utility.yul\":1354:1471   */\n      pop\n        /* \"#utility.yul\":1510:1512   */\n      0x20\n        /* \"#utility.yul\":1536:1589   */\n      tag_163\n        /* \"#utility.yul\":1581:1588   */\n      dup6\n        /* \"#utility.yul\":1572:1578   */\n      dup3\n        /* \"#utility.yul\":1561:1570   */\n      dup7\n        /* \"#utility.yul\":1557:1579   */\n      add\n        /* \"#utility.yul\":1536:1589   */\n      tag_106\n      jump\t// in\n    tag_163:\n        /* \"#utility.yul\":1526:1589   */\n      swap2\n      pop\n        /* \"#utility.yul\":1481:1599   */\n      pop\n        /* \"#utility.yul\":1132:1606   */\n      swap3\n      pop\n      swap3\n      swap1\n      pop\n      jump\t// out\n        /* \"#utility.yul\":1612:1730   */\n    tag_107:\n        /* \"#utility.yul\":1699:1723   */\n      tag_165\n        /* \"#utility.yul\":1717:1722   */\n      dup2\n        /* \"#utility.yul\":1699:1723   */\n      tag_104\n      jump\t// in\n    tag_165:\n        /* \"#utility.yul\":1694:1697   */\n      dup3\n        /* \"#utility.yul\":1687:1724   */\n      mstore\n        /* \"#utility.yul\":1612:1730   */\n      pop\n      pop\n      jump\t// out\n        /* \"#utility.yul\":1736:1958   */\n    tag_21:\n        /* \"#utility.yul\":1829:1833   */\n      0x00\n        /* \"#utility.yul\":1867:1869   */\n      0x20\n        /* \"#utility.yul\":1856:1865   */\n      dup3\n        /* \"#utility.yul\":1852:1870   */\n      add\n        /* \"#utility.yul\":1844:1870   */\n      swap1\n      pop\n        /* \"#utility.yul\":1880:1951   */\n      tag_167\n        /* \"#utility.yul\":1948:1949   */\n      0x00\n        /* \"#utility.yul\":1937:1946   */\n      dup4\n        /* \"#utility.yul\":1933:1950   */\n      add\n        /* \"#utility.yul\":1924:1930   */\n      dup5\n        /* \"#utility.yul\":1880:1951   */\n      tag_107\n      jump\t// in\n    tag_167:\n        /* \"#utility.yul\":1736:1958   */\n      swap3\n      swap2\n      pop\n      pop\n      jump\t// out\n        /* \"#utility.yul\":1964:2090   */\n    tag_108:\n        /* \"#utility.yul\":2001:2008   */\n      0x00\n        /* \"#utility.yul\":2041:2083   */\n      0xffffffffffffffffffffffffffffffffffffffff\n        /* \"#utility.yul\":2034:2039   */\n      dup3\n        /* \"#utility.yul\":2030:2084   */\n      and\n        /* \"#utility.yul\":2019:2084   */\n      swap1\n      pop\n        /* \"#utility.yul\":1964:2090   */\n      swap2\n      swap1\n      pop\n      jump\t// out\n        /* \"#utility.yul\":2096:2192   */\n    tag_109:\n        /* \"#utility.yul\":2133:2140   */\n      0x00\n        /* \"#utility.yul\":2162:2186   */\n      tag_170\n        /* \"#utility.yul\":2180:2185   */\n      dup3\n        /* \"#utility.yul\":2162:2186   */\n      tag_108\n      jump\t// in\n    tag_170:\n        /* \"#utility.yul\":2151:2186   */\n      swap1\n      pop\n        /* \"#utility.yul\":2096:2192   */\n      swap2\n      swap1\n      pop\n      jump\t// out\n        /* \"#utility.yul\":2198:2316   */\n    tag_110:\n        /* \"#utility.yul\":2285:2309   */\n      tag_172\n        /* \"#utility.yul\":2303:2308   */\n      dup2\n        /* \"#utility.yul\":2285:2309   */\n      tag_109\n      jump\t// in\n    tag_172:\n        /* \"#utility.yul\":2280:2283   */\n      dup3\n        /* \"#utility.yul\":2273:2310   */\n      mstore\n        /* \"#utility.yul\":2198:2316   */\n      pop\n      pop\n      jump\t// out\n        /* \"#utility.yul\":2322:2544   */\n    tag_25:\n        /* \"#utility.yul\":2415:2419   */\n      0x00\n        /* \"#utility.yul\":2453:2455   */\n      0x20\n        /* \"#utility.yul\":2442:2451   */\n      dup3\n        /* \"#utility.yul\":2438:2456   */\n      add\n        /* \"#utility.yul\":2430:2456   */\n      swap1\n      pop\n        /* \"#utility.yul\":2466:2537   */\n      tag_174\n        /* \"#utility.yul\":2534:2535   */\n      0x00\n        /* \"#utility.yul\":2523:2532   */\n      dup4\n        /* \"#utility.yul\":2519:2536   */\n      add\n        /* \"#utility.yul\":2510:2516   */\n      dup5\n        /* \"#utility.yul\":2466:2537   */\n      tag_110\n      jump\t// in\n    tag_174:\n        /* \"#utility.yul\":2322:2544   */\n      swap3\n      swap2\n      pop\n      pop\n      jump\t// out\n        /* \"#utility.yul\":2550:2610   */\n    tag_111:\n        /* \"#utility.yul\":2578:2581   */\n      0x00\n        /* \"#utility.yul\":2599:2604   */\n      dup2\n        /* \"#utility.yul\":2592:2604   */\n      swap1\n      pop\n        /* \"#utility.yul\":2550:2610   */\n      swap2\n      swap1\n      pop\n      jump\t// out\n        /* \"#utility.yul\":2616:2758   */\n    tag_112:\n        /* \"#utility.yul\":2666:2675   */\n      0x00\n        /* \"#utility.yul\":2699:2752   */\n      tag_177\n        /* \"#utility.yul\":2717:2751   */\n      tag_178\n        /* \"#utility.yul\":2726:2750   */\n      tag_179\n        /* \"#utility.yul\":2744:2749   */\n      dup5\n        /* \"#utility.yul\":2726:2750   */\n      tag_108\n      jump\t// in\n    tag_179:\n        /* \"#utility.yul\":2717:2751   */\n      tag_111\n      jump\t// in\n    tag_178:\n        /* \"#utility.yul\":2699:2752   */\n      tag_108\n      jump\t// in\n    tag_177:\n        /* \"#utility.yul\":2686:2752   */\n      swap1\n      pop\n        /* \"#utility.yul\":2616:2758   */\n      swap2\n      swap1\n      pop\n      jump\t// out\n        /* \"#utility.yul\":2764:2890   */\n    tag_113:\n        /* \"#utility.yul\":2814:2823   */\n      0x00\n        /* \"#utility.yul\":2847:2884   */\n      tag_181\n        /* \"#utility.yul\":2878:2883   */\n      dup3\n        /* \"#utility.yul\":2847:2884   */\n      tag_112\n      jump\t// in\n    tag_181:\n        /* \"#utility.yul\":2834:2884   */\n      swap1\n      pop\n        /* \"#utility.yul\":2764:2890   */\n      swap2\n      swap1\n      pop\n      jump\t// out\n        /* \"#utility.yul\":2896:3041   */\n    tag_114:\n        /* \"#utility.yul\":2965:2974   */\n      0x00\n        /* \"#utility.yul\":2998:3035   */\n      tag_183\n        /* \"#utility.yul\":3029:3034   */\n      dup3\n        /* \"#utility.yul\":2998:3035   */\n      tag_113\n      jump\t// in\n    tag_183:\n        /* \"#utility.yul\":2985:3035   */\n      swap1\n      pop\n        /* \"#utility.yul\":2896:3041   */\n      swap2\n      swap1\n      pop\n      jump\t// out\n        /* \"#utility.yul\":3047:3216   */\n    tag_115:\n        /* \"#utility.yul\":3153:3209   */\n      tag_185\n        /* \"#utility.yul\":3203:3208   */\n      dup2\n        /* \"#utility.yul\":3153:3209   */\n      tag_114\n      jump\t// in\n    tag_185:\n        /* \"#utility.yul\":3148:3151   */\n      dup3\n        /* \"#utility.yul\":3141:3210   */\n      mstore\n        /* \"#utility.yul\":3047:3216   */\n      pop\n      pop\n      jump\t// out\n        /* \"#utility.yul\":3222:3482   */\n    tag_32:\n        /* \"#utility.yul\":3334:3338   */\n      0x00\n        /* \"#utility.yul\":3372:3374   */\n      0x20\n        /* \"#utility.yul\":3361:3370   */\n      dup3\n        /* \"#utility.yul\":3357:3375   */\n      add\n        /* \"#utility.yul\":3349:3375   */\n      swap1\n      pop\n        /* \"#utility.yul\":3385:3475   */\n      tag_187\n        /* \"#utility.yul\":3472:3473   */\n      0x00\n        /* \"#utility.yul\":3461:3470   */\n      dup4\n        /* \"#utility.yul\":3457:3474   */\n      add\n        /* \"#utility.yul\":3448:3454   */\n      dup5\n        /* \"#utility.yul\":3385:3475   */\n      tag_115\n      jump\t// in\n    tag_187:\n        /* \"#utility.yul\":3222:3482   */\n      swap3\n      swap2\n      pop\n      pop\n      jump\t// out\n        /* \"#utility.yul\":3488:3817   */\n    tag_41:\n        /* \"#utility.yul\":3547:3553   */\n      0x00\n        /* \"#utility.yul\":3596:3598   */\n      0x20\n        /* \"#utility.yul\":3584:3593   */\n      dup3\n        /* \"#utility.yul\":3575:3582   */\n      dup5\n        /* \"#utility.yul\":3571:3594   */\n      sub\n        /* \"#utility.yul\":3567:3599   */\n      slt\n        /* \"#utility.yul\":3564:3683   */\n      iszero\n      tag_189\n      jumpi\n        /* \"#utility.yul\":3602:3681   */\n      tag_190\n      tag_102\n      jump\t// in\n    tag_190:\n        /* \"#utility.yul\":3564:3683   */\n    tag_189:\n        /* \"#utility.yul\":3722:3723   */\n      0x00\n        /* \"#utility.yul\":3747:3800   */\n      tag_191\n        /* \"#utility.yul\":3792:3799   */\n      dup5\n        /* \"#utility.yul\":3783:3789   */\n      dup3\n        /* \"#utility.yul\":3772:3781   */\n      dup6\n        /* \"#utility.yul\":3768:3790   */\n      add\n        /* \"#utility.yul\":3747:3800   */\n      tag_106\n      jump\t// in\n    tag_191:\n        /* \"#utility.yul\":3737:3800   */\n      swap2\n      pop\n        /* \"#utility.yul\":3693:3810   */\n      pop\n        /* \"#utility.yul\":3488:3817   */\n      swap3\n      swap2\n      pop\n      pop\n      jump\t// out\n        /* \"#utility.yul\":3823:3917   */\n    tag_116:\n        /* \"#utility.yul\":3856:3864   */\n      0x00\n        /* \"#utility.yul\":3904:3909   */\n      dup2\n        /* \"#utility.yul\":3900:3902   */\n      0x60\n        /* \"#utility.yul\":3896:3910   */\n      shl\n        /* \"#utility.yul\":3875:3910   */\n      swap1\n      pop\n        /* \"#utility.yul\":3823:3917   */\n      swap2\n      swap1\n      pop\n      jump\t// out\n        /* \"#utility.yul\":3923:4017   */\n    tag_117:\n        /* \"#utility.yul\":3962:3969   */\n      0x00\n        /* \"#utility.yul\":3991:4011   */\n      tag_194\n        /* \"#utility.yul\":4005:4010   */\n      dup3\n        /* \"#utility.yul\":3991:4011   */\n      tag_116\n      jump\t// in\n    tag_194:\n        /* \"#utility.yul\":3980:4011   */\n      swap1\n      pop\n        /* \"#utility.yul\":3923:4017   */\n      swap2\n      swap1\n      pop\n      jump\t// out\n        /* \"#utility.yul\":4023:4123   */\n    tag_118:\n        /* \"#utility.yul\":4062:4069   */\n      0x00\n        /* \"#utility.yul\":4091:4117   */\n      tag_196\n        /* \"#utility.yul\":4111:4116   */\n      dup3\n        /* \"#utility.yul\":4091:4117   */\n      tag_117\n      jump\t// in\n    tag_196:\n        /* \"#utility.yul\":4080:4117   */\n      swap1\n      pop\n        /* \"#utility.yul\":4023:4123   */\n      swap2\n      swap1\n      pop\n      jump\t// out\n        /* \"#utility.yul\":4129:4286   */\n    tag_119:\n        /* \"#utility.yul\":4234:4279   */\n      tag_198\n        /* \"#utility.yul\":4254:4278   */\n      tag_199\n        /* \"#utility.yul\":4272:4277   */\n      dup3\n        /* \"#utility.yul\":4254:4278   */\n      tag_109\n      jump\t// in\n    tag_199:\n        /* \"#utility.yul\":4234:4279   */\n      tag_118\n      jump\t// in\n    tag_198:\n        /* \"#utility.yul\":4229:4232   */\n      dup3\n        /* \"#utility.yul\":4222:4280   */\n      mstore\n        /* \"#utility.yul\":4129:4286   */\n      pop\n      pop\n      jump\t// out\n        /* \"#utility.yul\":4292:4388   */\n    tag_120:\n        /* \"#utility.yul\":4326:4334   */\n      0x00\n        /* \"#utility.yul\":4375:4380   */\n      dup2\n        /* \"#utility.yul\":4370:4373   */\n      0xe8\n        /* \"#utility.yul\":4366:4381   */\n      shl\n        /* \"#utility.yul\":4345:4381   */\n      swap1\n      pop\n        /* \"#utility.yul\":4292:4388   */\n      swap2\n      swap1\n      pop\n      jump\t// out\n        /* \"#utility.yul\":4394:4488   */\n    tag_121:\n        /* \"#utility.yul\":4432:4439   */\n      0x00\n        /* \"#utility.yul\":4461:4482   */\n      tag_202\n        /* \"#utility.yul\":4476:4481   */\n      dup3\n        /* \"#utility.yul\":4461:4482   */\n      tag_120\n      jump\t// in\n    tag_202:\n        /* \"#utility.yul\":4450:4482   */\n      swap1\n      pop\n        /* \"#utility.yul\":4394:4488   */\n      swap2\n      swap1\n      pop\n      jump\t// out\n        /* \"#utility.yul\":4494:4647   */\n    tag_122:\n        /* \"#utility.yul\":4597:4640   */\n      tag_204\n        /* \"#utility.yul\":4616:4639   */\n      tag_205\n        /* \"#utility.yul\":4633:4638   */\n      dup3\n        /* \"#utility.yul\":4616:4639   */\n      tag_99\n      jump\t// in\n    tag_205:\n        /* \"#utility.yul\":4597:4640   */\n      tag_121\n      jump\t// in\n    tag_204:\n        /* \"#utility.yul\":4592:4595   */\n      dup3\n        /* \"#utility.yul\":4585:4641   */\n      mstore\n        /* \"#utility.yul\":4494:4647   */\n      pop\n      pop\n      jump\t// out\n        /* \"#utility.yul\":4653:5463   */\n    tag_50:\n        /* \"#utility.yul\":4873:4876   */\n      0x00\n        /* \"#utility.yul\":4888:4963   */\n      tag_207\n        /* \"#utility.yul\":4959:4962   */\n      dup3\n        /* \"#utility.yul\":4950:4956   */\n      dup9\n        /* \"#utility.yul\":4888:4963   */\n      tag_119\n      jump\t// in\n    tag_207:\n        /* \"#utility.yul\":4988:4990   */\n      0x14\n        /* \"#utility.yul\":4983:4986   */\n      dup3\n        /* \"#utility.yul\":4979:4991   */\n      add\n        /* \"#utility.yul\":4972:4991   */\n      swap2\n      pop\n        /* \"#utility.yul\":5001:5074   */\n      tag_208\n        /* \"#utility.yul\":5070:5073   */\n      dup3\n        /* \"#utility.yul\":5061:5067   */\n      dup8\n        /* \"#utility.yul\":5001:5074   */\n      tag_122\n      jump\t// in\n    tag_208:\n        /* \"#utility.yul\":5099:5100   */\n      0x03\n        /* \"#utility.yul\":5094:5097   */\n      dup3\n        /* \"#utility.yul\":5090:5101   */\n      add\n        /* \"#utility.yul\":5083:5101   */\n      swap2\n      pop\n        /* \"#utility.yul\":5111:5186   */\n      tag_209\n        /* \"#utility.yul\":5182:5185   */\n      dup3\n        /* \"#utility.yul\":5173:5179   */\n      dup7\n        /* \"#utility.yul\":5111:5186   */\n      tag_119\n      jump\t// in\n    tag_209:\n        /* \"#utility.yul\":5211:5213   */\n      0x14\n        /* \"#utility.yul\":5206:5209   */\n      dup3\n        /* \"#utility.yul\":5202:5214   */\n      add\n        /* \"#utility.yul\":5195:5214   */\n      swap2\n      pop\n        /* \"#utility.yul\":5224:5297   */\n      tag_210\n        /* \"#utility.yul\":5293:5296   */\n      dup3\n        /* \"#utility.yul\":5284:5290   */\n      dup6\n        /* \"#utility.yul\":5224:5297   */\n      tag_122\n      jump\t// in\n    tag_210:\n        /* \"#utility.yul\":5322:5323   */\n      0x03\n        /* \"#utility.yul\":5317:5320   */\n      dup3\n        /* \"#utility.yul\":5313:5324   */\n      add\n        /* \"#utility.yul\":5306:5324   */\n      swap2\n      pop\n        /* \"#utility.yul\":5334:5409   */\n      tag_211\n        /* \"#utility.yul\":5405:5408   */\n      dup3\n        /* \"#utility.yul\":5396:5402   */\n      dup5\n        /* \"#utility.yul\":5334:5409   */\n      tag_119\n      jump\t// in\n    tag_211:\n        /* \"#utility.yul\":5434:5436   */\n      0x14\n        /* \"#utility.yul\":5429:5432   */\n      dup3\n        /* \"#utility.yul\":5425:5437   */\n      add\n        /* \"#utility.yul\":5418:5437   */\n      swap2\n      pop\n        /* \"#utility.yul\":5454:5457   */\n      dup2\n        /* \"#utility.yul\":5447:5457   */\n      swap1\n      pop\n        /* \"#utility.yul\":4653:5463   */\n      swap7\n      swap6\n      pop\n      pop\n      pop\n      pop\n      pop\n      pop\n      jump\t// out\n        /* \"#utility.yul\":5469:5567   */\n    tag_123:\n        /* \"#utility.yul\":5520:5526   */\n      0x00\n        /* \"#utility.yul\":5554:5559   */\n      dup2\n        /* \"#utility.yul\":5548:5560   */\n      mload\n        /* \"#utility.yul\":5538:5560   */\n      swap1\n      pop\n        /* \"#utility.yul\":5469:5567   */\n      swap2\n      swap1\n      pop\n      jump\t// out\n        /* \"#utility.yul\":5573:5731   */\n    tag_124:\n        /* \"#utility.yul\":5646:5657   */\n      0x00\n        /* \"#utility.yul\":5680:5686   */\n      dup3\n        /* \"#utility.yul\":5675:5678   */\n      dup3\n        /* \"#utility.yul\":5668:5687   */\n      mstore\n        /* \"#utility.yul\":5720:5724   */\n      0x20\n        /* \"#utility.yul\":5715:5718   */\n      dup3\n        /* \"#utility.yul\":5711:5725   */\n      add\n        /* \"#utility.yul\":5696:5725   */\n      swap1\n      pop\n        /* \"#utility.yul\":5573:5731   */\n      swap3\n      swap2\n      pop\n      pop\n      jump\t// out\n        /* \"#utility.yul\":5737:5876   */\n    tag_125:\n        /* \"#utility.yul\":5826:5832   */\n      dup3\n        /* \"#utility.yul\":5821:5824   */\n      dup2\n        /* \"#utility.yul\":5816:5819   */\n      dup4\n        /* \"#utility.yul\":5810:5833   */\n      mcopy\n        /* \"#utility.yul\":5867:5868   */\n      0x00\n        /* \"#utility.yul\":5858:5864   */\n      dup4\n        /* \"#utility.yul\":5853:5856   */\n      dup4\n        /* \"#utility.yul\":5849:5865   */\n      add\n        /* \"#utility.yul\":5842:5869   */\n      mstore\n        /* \"#utility.yul\":5737:5876   */\n      pop\n      pop\n      pop\n      jump\t// out\n        /* \"#utility.yul\":5882:5984   */\n    tag_126:\n        /* \"#utility.yul\":5923:5929   */\n      0x00\n        /* \"#utility.yul\":5974:5976   */\n      0x1f\n        /* \"#utility.yul\":5970:5977   */\n      not\n        /* \"#utility.yul\":5965:5967   */\n      0x1f\n        /* \"#utility.yul\":5958:5963   */\n      dup4\n        /* \"#utility.yul\":5954:5968   */\n      add\n        /* \"#utility.yul\":5950:5978   */\n      and\n        /* \"#utility.yul\":5940:5978   */\n      swap1\n      pop\n        /* \"#utility.yul\":5882:5984   */\n      swap2\n      swap1\n      pop\n      jump\t// out\n        /* \"#utility.yul\":5990:6343   */\n    tag_127:\n        /* \"#utility.yul\":6066:6069   */\n      0x00\n        /* \"#utility.yul\":6094:6132   */\n      tag_217\n        /* \"#utility.yul\":6126:6131   */\n      dup3\n        /* \"#utility.yul\":6094:6132   */\n      tag_123\n      jump\t// in\n    tag_217:\n        /* \"#utility.yul\":6148:6208   */\n      tag_218\n        /* \"#utility.yul\":6201:6207   */\n      dup2\n        /* \"#utility.yul\":6196:6199   */\n      dup6\n        /* \"#utility.yul\":6148:6208   */\n      tag_124\n      jump\t// in\n    tag_218:\n        /* \"#utility.yul\":6141:6208   */\n      swap4\n      pop\n        /* \"#utility.yul\":6217:6282   */\n      tag_219\n        /* \"#utility.yul\":6275:6281   */\n      dup2\n        /* \"#utility.yul\":6270:6273   */\n      dup6\n        /* \"#utility.yul\":6263:6267   */\n      0x20\n        /* \"#utility.yul\":6256:6261   */\n      dup7\n        /* \"#utility.yul\":6252:6268   */\n      add\n        /* \"#utility.yul\":6217:6282   */\n      tag_125\n      jump\t// in\n    tag_219:\n        /* \"#utility.yul\":6307:6336   */\n      tag_220\n        /* \"#utility.yul\":6329:6335   */\n      dup2\n        /* \"#utility.yul\":6307:6336   */\n      tag_126\n      jump\t// in\n    tag_220:\n        /* \"#utility.yul\":6302:6305   */\n      dup5\n        /* \"#utility.yul\":6298:6337   */\n      add\n        /* \"#utility.yul\":6291:6337   */\n      swap2\n      pop\n        /* \"#utility.yul\":6070:6343   */\n      pop\n        /* \"#utility.yul\":5990:6343   */\n      swap3\n      swap2\n      pop\n      pop\n      jump\t// out\n        /* \"#utility.yul\":6349:6457   */\n    tag_128:\n        /* \"#utility.yul\":6426:6450   */\n      tag_222\n        /* \"#utility.yul\":6444:6449   */\n      dup2\n        /* \"#utility.yul\":6426:6450   */\n      tag_109\n      jump\t// in\n    tag_222:\n        /* \"#utility.yul\":6421:6424   */\n      dup3\n        /* \"#utility.yul\":6414:6451   */\n      mstore\n        /* \"#utility.yul\":6349:6457   */\n      pop\n      pop\n      jump\t// out\n        /* \"#utility.yul\":6463:6571   */\n    tag_129:\n        /* \"#utility.yul\":6540:6564   */\n      tag_224\n        /* \"#utility.yul\":6558:6563   */\n      dup2\n        /* \"#utility.yul\":6540:6564   */\n      tag_104\n      jump\t// in\n    tag_224:\n        /* \"#utility.yul\":6535:6538   */\n      dup3\n        /* \"#utility.yul\":6528:6565   */\n      mstore\n        /* \"#utility.yul\":6463:6571   */\n      pop\n      pop\n      jump\t// out\n        /* \"#utility.yul\":6661:7830   */\n    tag_130:\n        /* \"#utility.yul\":6798:6801   */\n      0x00\n        /* \"#utility.yul\":6834:6838   */\n      0xa0\n        /* \"#utility.yul\":6829:6832   */\n      dup4\n        /* \"#utility.yul\":6825:6839   */\n      add\n        /* \"#utility.yul\":6921:6925   */\n      0x00\n        /* \"#utility.yul\":6914:6919   */\n      dup4\n        /* \"#utility.yul\":6910:6926   */\n      add\n        /* \"#utility.yul\":6904:6927   */\n      mload\n        /* \"#utility.yul\":6974:6977   */\n      dup5\n        /* \"#utility.yul\":6968:6972   */\n      dup3\n        /* \"#utility.yul\":6964:6978   */\n      sub\n        /* \"#utility.yul\":6957:6961   */\n      0x00\n        /* \"#utility.yul\":6952:6955   */\n      dup7\n        /* \"#utility.yul\":6948:6962   */\n      add\n        /* \"#utility.yul\":6941:6979   */\n      mstore\n        /* \"#utility.yul\":7000:7071   */\n      tag_226\n        /* \"#utility.yul\":7066:7070   */\n      dup3\n        /* \"#utility.yul\":7052:7064   */\n      dup3\n        /* \"#utility.yul\":7000:7071   */\n      tag_127\n      jump\t// in\n    tag_226:\n        /* \"#utility.yul\":6992:7071   */\n      swap2\n      pop\n        /* \"#utility.yul\":6849:7082   */\n      pop\n        /* \"#utility.yul\":7169:7173   */\n      0x20\n        /* \"#utility.yul\":7162:7167   */\n      dup4\n        /* \"#utility.yul\":7158:7174   */\n      add\n        /* \"#utility.yul\":7152:7175   */\n      mload\n        /* \"#utility.yul\":7188:7251   */\n      tag_227\n        /* \"#utility.yul\":7245:7249   */\n      0x20\n        /* \"#utility.yul\":7240:7243   */\n      dup7\n        /* \"#utility.yul\":7236:7250   */\n      add\n        /* \"#utility.yul\":7222:7234   */\n      dup3\n        /* \"#utility.yul\":7188:7251   */\n      tag_128\n      jump\t// in\n    tag_227:\n        /* \"#utility.yul\":7092:7261   */\n      pop\n        /* \"#utility.yul\":7347:7351   */\n      0x40\n        /* \"#utility.yul\":7340:7345   */\n      dup4\n        /* \"#utility.yul\":7336:7352   */\n      add\n        /* \"#utility.yul\":7330:7353   */\n      mload\n        /* \"#utility.yul\":7366:7429   */\n      tag_228\n        /* \"#utility.yul\":7423:7427   */\n      0x40\n        /* \"#utility.yul\":7418:7421   */\n      dup7\n        /* \"#utility.yul\":7414:7428   */\n      add\n        /* \"#utility.yul\":7400:7412   */\n      dup3\n        /* \"#utility.yul\":7366:7429   */\n      tag_129\n      jump\t// in\n    tag_228:\n        /* \"#utility.yul\":7271:7439   */\n      pop\n        /* \"#utility.yul\":7526:7530   */\n      0x60\n        /* \"#utility.yul\":7519:7524   */\n      dup4\n        /* \"#utility.yul\":7515:7531   */\n      add\n        /* \"#utility.yul\":7509:7532   */\n      mload\n        /* \"#utility.yul\":7545:7608   */\n      tag_229\n        /* \"#utility.yul\":7602:7606   */\n      0x60\n        /* \"#utility.yul\":7597:7600   */\n      dup7\n        /* \"#utility.yul\":7593:7607   */\n      add\n        /* \"#utility.yul\":7579:7591   */\n      dup3\n        /* \"#utility.yul\":7545:7608   */\n      tag_129\n      jump\t// in\n    tag_229:\n        /* \"#utility.yul\":7449:7618   */\n      pop\n        /* \"#utility.yul\":7711:7715   */\n      0x80\n        /* \"#utility.yul\":7704:7709   */\n      dup4\n        /* \"#utility.yul\":7700:7716   */\n      add\n        /* \"#utility.yul\":7694:7717   */\n      mload\n        /* \"#utility.yul\":7730:7793   */\n      tag_230\n        /* \"#utility.yul\":7787:7791   */\n      0x80\n        /* \"#utility.yul\":7782:7785   */\n      dup7\n        /* \"#utility.yul\":7778:7792   */\n      add\n        /* \"#utility.yul\":7764:7776   */\n      dup3\n        /* \"#utility.yul\":7730:7793   */\n      tag_129\n      jump\t// in\n    tag_230:\n        /* \"#utility.yul\":7628:7803   */\n      pop\n        /* \"#utility.yul\":7820:7824   */\n      dup1\n        /* \"#utility.yul\":7813:7824   */\n      swap2\n      pop\n        /* \"#utility.yul\":6803:7830   */\n      pop\n        /* \"#utility.yul\":6661:7830   */\n      swap3\n      swap2\n      pop\n      pop\n      jump\t// out\n        /* \"#utility.yul\":7836:8245   */\n    tag_52:\n        /* \"#utility.yul\":7997:8001   */\n      0x00\n        /* \"#utility.yul\":8035:8037   */\n      0x20\n        /* \"#utility.yul\":8024:8033   */\n      dup3\n        /* \"#utility.yul\":8020:8038   */\n      add\n        /* \"#utility.yul\":8012:8038   */\n      swap1\n      pop\n        /* \"#utility.yul\":8084:8093   */\n      dup2\n        /* \"#utility.yul\":8078:8082   */\n      dup2\n        /* \"#utility.yul\":8074:8094   */\n      sub\n        /* \"#utility.yul\":8070:8071   */\n      0x00\n        /* \"#utility.yul\":8059:8068   */\n      dup4\n        /* \"#utility.yul\":8055:8072   */\n      add\n        /* \"#utility.yul\":8048:8095   */\n      mstore\n        /* \"#utility.yul\":8112:8238   */\n      tag_232\n        /* \"#utility.yul\":8233:8237   */\n      dup2\n        /* \"#utility.yul\":8224:8230   */\n      dup5\n        /* \"#utility.yul\":8112:8238   */\n      tag_130\n      jump\t// in\n    tag_232:\n        /* \"#utility.yul\":8104:8238   */\n      swap1\n      pop\n        /* \"#utility.yul\":7836:8245   */\n      swap3\n      swap2\n      pop\n      pop\n      jump\t// out\n        /* \"#utility.yul\":8251:8394   */\n    tag_131:\n        /* \"#utility.yul\":8308:8313   */\n      0x00\n        /* \"#utility.yul\":8339:8345   */\n      dup2\n        /* \"#utility.yul\":8333:8346   */\n      mload\n        /* \"#utility.yul\":8324:8346   */\n      swap1\n      pop\n        /* \"#utility.yul\":8355:8388   */\n      tag_234\n        /* \"#utility.yul\":8382:8387   */\n      dup2\n        /* \"#utility.yul\":8355:8388   */\n      tag_105\n      jump\t// in\n    tag_234:\n        /* \"#utility.yul\":8251:8394   */\n      swap3\n      swap2\n      pop\n      pop\n      jump\t// out\n        /* \"#utility.yul\":8400:8751   */\n    tag_56:\n        /* \"#utility.yul\":8470:8476   */\n      0x00\n        /* \"#utility.yul\":8519:8521   */\n      0x20\n        /* \"#utility.yul\":8507:8516   */\n      dup3\n        /* \"#utility.yul\":8498:8505   */\n      dup5\n        /* \"#utility.yul\":8494:8517   */\n      sub\n        /* \"#utility.yul\":8490:8522   */\n      slt\n        /* \"#utility.yul\":8487:8606   */\n      iszero\n      tag_236\n      jumpi\n        /* \"#utility.yul\":8525:8604   */\n      tag_237\n      tag_102\n      jump\t// in\n    tag_237:\n        /* \"#utility.yul\":8487:8606   */\n    tag_236:\n        /* \"#utility.yul\":8645:8646   */\n      0x00\n        /* \"#utility.yul\":8670:8734   */\n      tag_238\n        /* \"#utility.yul\":8726:8733   */\n      dup5\n        /* \"#utility.yul\":8717:8723   */\n      dup3\n        /* \"#utility.yul\":8706:8715   */\n      dup6\n        /* \"#utility.yul\":8702:8724   */\n      add\n        /* \"#utility.yul\":8670:8734   */\n      tag_131\n      jump\t// in\n    tag_238:\n        /* \"#utility.yul\":8660:8734   */\n      swap2\n      pop\n        /* \"#utility.yul\":8616:8744   */\n      pop\n        /* \"#utility.yul\":8400:8751   */\n      swap3\n      swap2\n      pop\n      pop\n      jump\t// out\n        /* \"#utility.yul\":8757:8937   */\n    tag_132:\n        /* \"#utility.yul\":8805:8882   */\n      0x4e487b7100000000000000000000000000000000000000000000000000000000\n        /* \"#utility.yul\":8802:8803   */\n      0x00\n        /* \"#utility.yul\":8795:8883   */\n      mstore\n        /* \"#utility.yul\":8902:8906   */\n      0x11\n        /* \"#utility.yul\":8899:8900   */\n      0x04\n        /* \"#utility.yul\":8892:8907   */\n      mstore\n        /* \"#utility.yul\":8926:8930   */\n      0x24\n        /* \"#utility.yul\":8923:8924   */\n      0x00\n        /* \"#utility.yul\":8916:8931   */\n      revert\n        /* \"#utility.yul\":8943:9137   */\n    tag_61:\n        /* \"#utility.yul\":8983:8987   */\n      0x00\n        /* \"#utility.yul\":9003:9023   */\n      tag_241\n        /* \"#utility.yul\":9021:9022   */\n      dup3\n        /* \"#utility.yul\":9003:9023   */\n      tag_104\n      jump\t// in\n    tag_241:\n        /* \"#utility.yul\":8998:9023   */\n      swap2\n      pop\n        /* \"#utility.yul\":9037:9057   */\n      tag_242\n        /* \"#utility.yul\":9055:9056   */\n      dup4\n        /* \"#utility.yul\":9037:9057   */\n      tag_104\n      jump\t// in\n    tag_242:\n        /* \"#utility.yul\":9032:9057   */\n      swap3\n      pop\n        /* \"#utility.yul\":9081:9082   */\n      dup3\n        /* \"#utility.yul\":9078:9079   */\n      dup3\n        /* \"#utility.yul\":9074:9083   */\n      sub\n        /* \"#utility.yul\":9066:9083   */\n      swap1\n      pop\n        /* \"#utility.yul\":9105:9106   */\n      dup2\n        /* \"#utility.yul\":9099:9103   */\n      dup2\n        /* \"#utility.yul\":9096:9107   */\n      gt\n        /* \"#utility.yul\":9093:9130   */\n      iszero\n      tag_243\n      jumpi\n        /* \"#utility.yul\":9110:9128   */\n      tag_244\n      tag_132\n      jump\t// in\n    tag_244:\n        /* \"#utility.yul\":9093:9130   */\n    tag_243:\n        /* \"#utility.yul\":8943:9137   */\n      swap3\n      swap2\n      pop\n      pop\n      jump\t// out\n        /* \"#utility.yul\":9225:10392   */\n    tag_133:\n        /* \"#utility.yul\":9360:9363   */\n      0x00\n        /* \"#utility.yul\":9396:9400   */\n      0xa0\n        /* \"#utility.yul\":9391:9394   */\n      dup4\n        /* \"#utility.yul\":9387:9401   */\n      add\n        /* \"#utility.yul\":9483:9487   */\n      0x00\n        /* \"#utility.yul\":9476:9481   */\n      dup4\n        /* \"#utility.yul\":9472:9488   */\n      add\n        /* \"#utility.yul\":9466:9489   */\n      mload\n        /* \"#utility.yul\":9536:9539   */\n      dup5\n        /* \"#utility.yul\":9530:9534   */\n      dup3\n        /* \"#utility.yul\":9526:9540   */\n      sub\n        /* \"#utility.yul\":9519:9523   */\n      0x00\n        /* \"#utility.yul\":9514:9517   */\n      dup7\n        /* \"#utility.yul\":9510:9524   */\n      add\n        /* \"#utility.yul\":9503:9541   */\n      mstore\n        /* \"#utility.yul\":9562:9633   */\n      tag_246\n        /* \"#utility.yul\":9628:9632   */\n      dup3\n        /* \"#utility.yul\":9614:9626   */\n      dup3\n        /* \"#utility.yul\":9562:9633   */\n      tag_127\n      jump\t// in\n    tag_246:\n        /* \"#utility.yul\":9554:9633   */\n      swap2\n      pop\n        /* \"#utility.yul\":9411:9644   */\n      pop\n        /* \"#utility.yul\":9731:9735   */\n      0x20\n        /* \"#utility.yul\":9724:9729   */\n      dup4\n        /* \"#utility.yul\":9720:9736   */\n      add\n        /* \"#utility.yul\":9714:9737   */\n      mload\n        /* \"#utility.yul\":9750:9813   */\n      tag_247\n        /* \"#utility.yul\":9807:9811   */\n      0x20\n        /* \"#utility.yul\":9802:9805   */\n      dup7\n        /* \"#utility.yul\":9798:9812   */\n      add\n        /* \"#utility.yul\":9784:9796   */\n      dup3\n        /* \"#utility.yul\":9750:9813   */\n      tag_128\n      jump\t// in\n    tag_247:\n        /* \"#utility.yul\":9654:9823   */\n      pop\n        /* \"#utility.yul\":9909:9913   */\n      0x40\n        /* \"#utility.yul\":9902:9907   */\n      dup4\n        /* \"#utility.yul\":9898:9914   */\n      add\n        /* \"#utility.yul\":9892:9915   */\n      mload\n        /* \"#utility.yul\":9928:9991   */\n      tag_248\n        /* \"#utility.yul\":9985:9989   */\n      0x40\n        /* \"#utility.yul\":9980:9983   */\n      dup7\n        /* \"#utility.yul\":9976:9990   */\n      add\n        /* \"#utility.yul\":9962:9974   */\n      dup3\n        /* \"#utility.yul\":9928:9991   */\n      tag_129\n      jump\t// in\n    tag_248:\n        /* \"#utility.yul\":9833:10001   */\n      pop\n        /* \"#utility.yul\":10087:10091   */\n      0x60\n        /* \"#utility.yul\":10080:10085   */\n      dup4\n        /* \"#utility.yul\":10076:10092   */\n      add\n        /* \"#utility.yul\":10070:10093   */\n      mload\n        /* \"#utility.yul\":10106:10169   */\n      tag_249\n        /* \"#utility.yul\":10163:10167   */\n      0x60\n        /* \"#utility.yul\":10158:10161   */\n      dup7\n        /* \"#utility.yul\":10154:10168   */\n      add\n        /* \"#utility.yul\":10140:10152   */\n      dup3\n        /* \"#utility.yul\":10106:10169   */\n      tag_129\n      jump\t// in\n    tag_249:\n        /* \"#utility.yul\":10011:10179   */\n      pop\n        /* \"#utility.yul\":10273:10277   */\n      0x80\n        /* \"#utility.yul\":10266:10271   */\n      dup4\n        /* \"#utility.yul\":10262:10278   */\n      add\n        /* \"#utility.yul\":10256:10279   */\n      mload\n        /* \"#utility.yul\":10292:10355   */\n      tag_250\n        /* \"#utility.yul\":10349:10353   */\n      0x80\n        /* \"#utility.yul\":10344:10347   */\n      dup7\n        /* \"#utility.yul\":10340:10354   */\n      add\n        /* \"#utility.yul\":10326:10338   */\n      dup3\n        /* \"#utility.yul\":10292:10355   */\n      tag_129\n      jump\t// in\n    tag_250:\n        /* \"#utility.yul\":10189:10365   */\n      pop\n        /* \"#utility.yul\":10382:10386   */\n      dup1\n        /* \"#utility.yul\":10375:10386   */\n      swap2\n      pop\n        /* \"#utility.yul\":9365:10392   */\n      pop\n        /* \"#utility.yul\":9225:10392   */\n      swap3\n      swap2\n      pop\n      pop\n      jump\t// out\n        /* \"#utility.yul\":10398:10803   */\n    tag_67:\n        /* \"#utility.yul\":10557:10561   */\n      0x00\n        /* \"#utility.yul\":10595:10597   */\n      0x20\n        /* \"#utility.yul\":10584:10593   */\n      dup3\n        /* \"#utility.yul\":10580:10598   */\n      add\n        /* \"#utility.yul\":10572:10598   */\n      swap1\n      pop\n        /* \"#utility.yul\":10644:10653   */\n      dup2\n        /* \"#utility.yul\":10638:10642   */\n      dup2\n        /* \"#utility.yul\":10634:10654   */\n      sub\n        /* \"#utility.yul\":10630:10631   */\n      0x00\n        /* \"#utility.yul\":10619:10628   */\n      dup4\n        /* \"#utility.yul\":10615:10632   */\n      add\n        /* \"#utility.yul\":10608:10655   */\n      mstore\n        /* \"#utility.yul\":10672:10796   */\n      tag_252\n        /* \"#utility.yul\":10791:10795   */\n      dup2\n        /* \"#utility.yul\":10782:10788   */\n      dup5\n        /* \"#utility.yul\":10672:10796   */\n      tag_133\n      jump\t// in\n    tag_252:\n        /* \"#utility.yul\":10664:10796   */\n      swap1\n      pop\n        /* \"#utility.yul\":10398:10803   */\n      swap3\n      swap2\n      pop\n      pop\n      jump\t// out\n        /* \"#utility.yul\":10809:11251   */\n    tag_73:\n        /* \"#utility.yul\":10958:10962   */\n      0x00\n        /* \"#utility.yul\":10996:10998   */\n      0x60\n        /* \"#utility.yul\":10985:10994   */\n      dup3\n        /* \"#utility.yul\":10981:10999   */\n      add\n        /* \"#utility.yul\":10973:10999   */\n      swap1\n      pop\n        /* \"#utility.yul\":11009:11080   */\n      tag_254\n        /* \"#utility.yul\":11077:11078   */\n      0x00\n        /* \"#utility.yul\":11066:11075   */\n      dup4\n        /* \"#utility.yul\":11062:11079   */\n      add\n        /* \"#utility.yul\":11053:11059   */\n      dup7\n        /* \"#utility.yul\":11009:11080   */\n      tag_110\n      jump\t// in\n    tag_254:\n        /* \"#utility.yul\":11090:11162   */\n      tag_255\n        /* \"#utility.yul\":11158:11160   */\n      0x20\n        /* \"#utility.yul\":11147:11156   */\n      dup4\n        /* \"#utility.yul\":11143:11161   */\n      add\n        /* \"#utility.yul\":11134:11140   */\n      dup6\n        /* \"#utility.yul\":11090:11162   */\n      tag_110\n      jump\t// in\n    tag_255:\n        /* \"#utility.yul\":11172:11244   */\n      tag_256\n        /* \"#utility.yul\":11240:11242   */\n      0x40\n        /* \"#utility.yul\":11229:11238   */\n      dup4\n        /* \"#utility.yul\":11225:11243   */\n      add\n        /* \"#utility.yul\":11216:11222   */\n      dup5\n        /* \"#utility.yul\":11172:11244   */\n      tag_107\n      jump\t// in\n    tag_256:\n        /* \"#utility.yul\":10809:11251   */\n      swap5\n      swap4\n      pop\n      pop\n      pop\n      pop\n      jump\t// out\n        /* \"#utility.yul\":11257:11404   */\n    tag_134:\n        /* \"#utility.yul\":11358:11369   */\n      0x00\n        /* \"#utility.yul\":11395:11398   */\n      dup2\n        /* \"#utility.yul\":11380:11398   */\n      swap1\n      pop\n        /* \"#utility.yul\":11257:11404   */\n      swap3\n      swap2\n      pop\n      pop\n      jump\t// out\n        /* \"#utility.yul\":11410:11796   */\n    tag_135:\n        /* \"#utility.yul\":11514:11517   */\n      0x00\n        /* \"#utility.yul\":11542:11580   */\n      tag_259\n        /* \"#utility.yul\":11574:11579   */\n      dup3\n        /* \"#utility.yul\":11542:11580   */\n      tag_123\n      jump\t// in\n    tag_259:\n        /* \"#utility.yul\":11596:11684   */\n      tag_260\n        /* \"#utility.yul\":11677:11683   */\n      dup2\n        /* \"#utility.yul\":11672:11675   */\n      dup6\n        /* \"#utility.yul\":11596:11684   */\n      tag_134\n      jump\t// in\n    tag_260:\n        /* \"#utility.yul\":11589:11684   */\n      swap4\n      pop\n        /* \"#utility.yul\":11693:11758   */\n      tag_261\n        /* \"#utility.yul\":11751:11757   */\n      dup2\n        /* \"#utility.yul\":11746:11749   */\n      dup6\n        /* \"#utility.yul\":11739:11743   */\n      0x20\n        /* \"#utility.yul\":11732:11737   */\n      dup7\n        /* \"#utility.yul\":11728:11744   */\n      add\n        /* \"#utility.yul\":11693:11758   */\n      tag_125\n      jump\t// in\n    tag_261:\n        /* \"#utility.yul\":11783:11789   */\n      dup1\n        /* \"#utility.yul\":11778:11781   */\n      dup5\n        /* \"#utility.yul\":11774:11790   */\n      add\n        /* \"#utility.yul\":11767:11790   */\n      swap2\n      pop\n        /* \"#utility.yul\":11518:11796   */\n      pop\n        /* \"#utility.yul\":11410:11796   */\n      swap3\n      swap2\n      pop\n      pop\n      jump\t// out\n        /* \"#utility.yul\":11802:12073   */\n    tag_75:\n        /* \"#utility.yul\":11932:11935   */\n      0x00\n        /* \"#utility.yul\":11954:12047   */\n      tag_263\n        /* \"#utility.yul\":12043:12046   */\n      dup3\n        /* \"#utility.yul\":12034:12040   */\n      dup5\n        /* \"#utility.yul\":11954:12047   */\n      tag_135\n      jump\t// in\n    tag_263:\n        /* \"#utility.yul\":11947:12047   */\n      swap2\n      pop\n        /* \"#utility.yul\":12064:12067   */\n      dup2\n        /* \"#utility.yul\":12057:12067   */\n      swap1\n      pop\n        /* \"#utility.yul\":11802:12073   */\n      swap3\n      swap2\n      pop\n      pop\n      jump\t// out\n        /* \"#utility.yul\":12079:12169   */\n    tag_136:\n        /* \"#utility.yul\":12113:12120   */\n      0x00\n        /* \"#utility.yul\":12156:12161   */\n      dup2\n        /* \"#utility.yul\":12149:12162   */\n      iszero\n        /* \"#utility.yul\":12142:12163   */\n      iszero\n        /* \"#utility.yul\":12131:12163   */\n      swap1\n      pop\n        /* \"#utility.yul\":12079:12169   */\n      swap2\n      swap1\n      pop\n      jump\t// out\n        /* \"#utility.yul\":12175:12291   */\n    tag_137:\n        /* \"#utility.yul\":12245:12266   */\n      tag_266\n        /* \"#utility.yul\":12260:12265   */\n      dup2\n        /* \"#utility.yul\":12245:12266   */\n      tag_136\n      jump\t// in\n    tag_266:\n        /* \"#utility.yul\":12238:12243   */\n      dup2\n        /* \"#utility.yul\":12235:12267   */\n      eq\n        /* \"#utility.yul\":12225:12285   */\n      tag_267\n      jumpi\n        /* \"#utility.yul\":12281:12282   */\n      0x00\n        /* \"#utility.yul\":12278:12279   */\n      dup1\n        /* \"#utility.yul\":12271:12283   */\n      revert\n        /* \"#utility.yul\":12225:12285   */\n    tag_267:\n        /* \"#utility.yul\":12175:12291   */\n      pop\n      jump\t// out\n        /* \"#utility.yul\":12297:12434   */\n    tag_138:\n        /* \"#utility.yul\":12351:12356   */\n      0x00\n        /* \"#utility.yul\":12382:12388   */\n      dup2\n        /* \"#utility.yul\":12376:12389   */\n      mload\n        /* \"#utility.yul\":12367:12389   */\n      swap1\n      pop\n        /* \"#utility.yul\":12398:12428   */\n      tag_269\n        /* \"#utility.yul\":12422:12427   */\n      dup2\n        /* \"#utility.yul\":12398:12428   */\n      tag_137\n      jump\t// in\n    tag_269:\n        /* \"#utility.yul\":12297:12434   */\n      swap3\n      swap2\n      pop\n      pop\n      jump\t// out\n        /* \"#utility.yul\":12440:12785   */\n    tag_82:\n        /* \"#utility.yul\":12507:12513   */\n      0x00\n        /* \"#utility.yul\":12556:12558   */\n      0x20\n        /* \"#utility.yul\":12544:12553   */\n      dup3\n        /* \"#utility.yul\":12535:12542   */\n      dup5\n        /* \"#utility.yul\":12531:12554   */\n      sub\n        /* \"#utility.yul\":12527:12559   */\n      slt\n        /* \"#utility.yul\":12524:12643   */\n      iszero\n      tag_271\n      jumpi\n        /* \"#utility.yul\":12562:12641   */\n      tag_272\n      tag_102\n      jump\t// in\n    tag_272:\n        /* \"#utility.yul\":12524:12643   */\n    tag_271:\n        /* \"#utility.yul\":12682:12683   */\n      0x00\n        /* \"#utility.yul\":12707:12768   */\n      tag_273\n        /* \"#utility.yul\":12760:12767   */\n      dup5\n        /* \"#utility.yul\":12751:12757   */\n      dup3\n        /* \"#utility.yul\":12740:12749   */\n      dup6\n        /* \"#utility.yul\":12736:12758   */\n      add\n        /* \"#utility.yul\":12707:12768   */\n      tag_138\n      jump\t// in\n    tag_273:\n        /* \"#utility.yul\":12697:12768   */\n      swap2\n      pop\n        /* \"#utility.yul\":12653:12778   */\n      pop\n        /* \"#utility.yul\":12440:12785   */\n      swap3\n      swap2\n      pop\n      pop\n      jump\t// out\n        /* \"#utility.yul\":12791:12960   */\n    tag_139:\n        /* \"#utility.yul\":12875:12886   */\n      0x00\n        /* \"#utility.yul\":12909:12915   */\n      dup3\n        /* \"#utility.yul\":12904:12907   */\n      dup3\n        /* \"#utility.yul\":12897:12916   */\n      mstore\n        /* \"#utility.yul\":12949:12953   */\n      0x20\n        /* \"#utility.yul\":12944:12947   */\n      dup3\n        /* \"#utility.yul\":12940:12954   */\n      add\n        /* \"#utility.yul\":12925:12954   */\n      swap1\n      pop\n        /* \"#utility.yul\":12791:12960   */\n      swap3\n      swap2\n      pop\n      pop\n      jump\t// out\n        /* \"#utility.yul\":12966:13119   */\n    tag_140:\n        /* \"#utility.yul\":13106:13111   */\n      0x5354460000000000000000000000000000000000000000000000000000000000\n        /* \"#utility.yul\":13102:13103   */\n      0x00\n        /* \"#utility.yul\":13094:13100   */\n      dup3\n        /* \"#utility.yul\":13090:13104   */\n      add\n        /* \"#utility.yul\":13083:13112   */\n      mstore\n        /* \"#utility.yul\":12966:13119   */\n      pop\n      jump\t// out\n        /* \"#utility.yul\":13125:13490   */\n    tag_141:\n        /* \"#utility.yul\":13267:13270   */\n      0x00\n        /* \"#utility.yul\":13288:13354   */\n      tag_277\n        /* \"#utility.yul\":13352:13353   */\n      0x03\n        /* \"#utility.yul\":13347:13350   */\n      dup4\n        /* \"#utility.yul\":13288:13354   */\n      tag_139\n      jump\t// in\n    tag_277:\n        /* \"#utility.yul\":13281:13354   */\n      swap2\n      pop\n        /* \"#utility.yul\":13363:13456   */\n      tag_278\n        /* \"#utility.yul\":13452:13455   */\n      dup3\n        /* \"#utility.yul\":13363:13456   */\n      tag_140\n      jump\t// in\n    tag_278:\n        /* \"#utility.yul\":13481:13483   */\n      0x20\n        /* \"#utility.yul\":13476:13479   */\n      dup3\n        /* \"#utility.yul\":13472:13484   */\n      add\n        /* \"#utility.yul\":13465:13484   */\n      swap1\n      pop\n        /* \"#utility.yul\":13125:13490   */\n      swap2\n      swap1\n      pop\n      jump\t// out\n        /* \"#utility.yul\":13496:13915   */\n    tag_85:\n        /* \"#utility.yul\":13662:13666   */\n      0x00\n        /* \"#utility.yul\":13700:13702   */\n      0x20\n        /* \"#utility.yul\":13689:13698   */\n      dup3\n        /* \"#utility.yul\":13685:13703   */\n      add\n        /* \"#utility.yul\":13677:13703   */\n      swap1\n      pop\n        /* \"#utility.yul\":13749:13758   */\n      dup2\n        /* \"#utility.yul\":13743:13747   */\n      dup2\n        /* \"#utility.yul\":13739:13759   */\n      sub\n        /* \"#utility.yul\":13735:13736   */\n      0x00\n        /* \"#utility.yul\":13724:13733   */\n      dup4\n        /* \"#utility.yul\":13720:13737   */\n      add\n        /* \"#utility.yul\":13713:13760   */\n      mstore\n        /* \"#utility.yul\":13777:13908   */\n      tag_280\n        /* \"#utility.yul\":13903:13907   */\n      dup2\n        /* \"#utility.yul\":13777:13908   */\n      tag_141\n      jump\t// in\n    tag_280:\n        /* \"#utility.yul\":13769:13908   */\n      swap1\n      pop\n        /* \"#utility.yul\":13496:13915   */\n      swap2\n      swap1\n      pop\n      jump\t// out\n        /* \"#utility.yul\":13921:14253   */\n    tag_88:\n        /* \"#utility.yul\":14042:14046   */\n      0x00\n        /* \"#utility.yul\":14080:14082   */\n      0x40\n        /* \"#utility.yul\":14069:14078   */\n      dup3\n        /* \"#utility.yul\":14065:14083   */\n      add\n        /* \"#utility.yul\":14057:14083   */\n      swap1\n      pop\n        /* \"#utility.yul\":14093:14164   */\n      tag_282\n        /* \"#utility.yul\":14161:14162   */\n      0x00\n        /* \"#utility.yul\":14150:14159   */\n      dup4\n        /* \"#utility.yul\":14146:14163   */\n      add\n        /* \"#utility.yul\":14137:14143   */\n      dup6\n        /* \"#utility.yul\":14093:14164   */\n      tag_110\n      jump\t// in\n    tag_282:\n        /* \"#utility.yul\":14174:14246   */\n      tag_283\n        /* \"#utility.yul\":14242:14244   */\n      0x20\n        /* \"#utility.yul\":14231:14240   */\n      dup4\n        /* \"#utility.yul\":14227:14245   */\n      add\n        /* \"#utility.yul\":14218:14224   */\n      dup5\n        /* \"#utility.yul\":14174:14246   */\n      tag_107\n      jump\t// in\n    tag_283:\n        /* \"#utility.yul\":13921:14253   */\n      swap4\n      swap3\n      pop\n      pop\n      pop\n      jump\t// out\n        /* \"#utility.yul\":14259:14411   */\n    tag_142:\n        /* \"#utility.yul\":14399:14403   */\n      0x5341000000000000000000000000000000000000000000000000000000000000\n        /* \"#utility.yul\":14395:14396   */\n      0x00\n        /* \"#utility.yul\":14387:14393   */\n      dup3\n        /* \"#utility.yul\":14383:14397   */\n      add\n        /* \"#utility.yul\":14376:14404   */\n      mstore\n        /* \"#utility.yul\":14259:14411   */\n      pop\n      jump\t// out\n        /* \"#utility.yul\":14417:14782   */\n    tag_143:\n        /* \"#utility.yul\":14559:14562   */\n      0x00\n        /* \"#utility.yul\":14580:14646   */\n      tag_286\n        /* \"#utility.yul\":14644:14645   */\n      0x02\n        /* \"#utility.yul\":14639:14642   */\n      dup4\n        /* \"#utility.yul\":14580:14646   */\n      tag_139\n      jump\t// in\n    tag_286:\n        /* \"#utility.yul\":14573:14646   */\n      swap2\n      pop\n        /* \"#utility.yul\":14655:14748   */\n      tag_287\n        /* \"#utility.yul\":14744:14747   */\n      dup3\n        /* \"#utility.yul\":14655:14748   */\n      tag_142\n      jump\t// in\n    tag_287:\n        /* \"#utility.yul\":14773:14775   */\n      0x20\n        /* \"#utility.yul\":14768:14771   */\n      dup3\n        /* \"#utility.yul\":14764:14776   */\n      add\n        /* \"#utility.yul\":14757:14776   */\n      swap1\n      pop\n        /* \"#utility.yul\":14417:14782   */\n      swap2\n      swap1\n      pop\n      jump\t// out\n        /* \"#utility.yul\":14788:15207   */\n    tag_98:\n        /* \"#utility.yul\":14954:14958   */\n      0x00\n        /* \"#utility.yul\":14992:14994   */\n      0x20\n        /* \"#utility.yul\":14981:14990   */\n      dup3\n        /* \"#utility.yul\":14977:14995   */\n      add\n        /* \"#utility.yul\":14969:14995   */\n      swap1\n      pop\n        /* \"#utility.yul\":15041:15050   */\n      dup2\n        /* \"#utility.yul\":15035:15039   */\n      dup2\n        /* \"#utility.yul\":15031:15051   */\n      sub\n        /* \"#utility.yul\":15027:15028   */\n      0x00\n        /* \"#utility.yul\":15016:15025   */\n      dup4\n        /* \"#utility.yul\":15012:15029   */\n      add\n        /* \"#utility.yul\":15005:15052   */\n      mstore\n        /* \"#utility.yul\":15069:15200   */\n      tag_289\n        /* \"#utility.yul\":15195:15199   */\n      dup2\n        /* \"#utility.yul\":15069:15200   */\n      tag_143\n      jump\t// in\n    tag_289:\n        /* \"#utility.yul\":15061:15200   */\n      swap1\n      pop\n        /* \"#utility.yul\":14788:15207   */\n      swap2\n      swap1\n      pop\n      jump\t// out\n\n    auxdata: 0xa264697066735822122039f144721d762fe0a1827d275fa40d513cbdbe369471597a7fa4067a2b4e289664736f6c634300081a0033\n}\n",
				"bytecode": {
					"linkReferences": {},
					"object": "610100604052348015610010575f80fd5b506040516112e33803806112e3833981810160405281019061003291906101a4565b8373ffffffffffffffffffffffffffffffffffffffff1660808173ffffffffffffffffffffffffffffffffffffffff16815250508273ffffffffffffffffffffffffffffffffffffffff1660a08173ffffffffffffffffffffffffffffffffffffffff16815250508173ffffffffffffffffffffffffffffffffffffffff1660c08173ffffffffffffffffffffffffffffffffffffffff16815250508073ffffffffffffffffffffffffffffffffffffffff1660e08173ffffffffffffffffffffffffffffffffffffffff168152505050505050610208565b5f80fd5b5f73ffffffffffffffffffffffffffffffffffffffff82169050919050565b5f6101388261010f565b9050919050565b5f6101498261012e565b9050919050565b6101598161013f565b8114610163575f80fd5b50565b5f8151905061017481610150565b92915050565b6101838161012e565b811461018d575f80fd5b50565b5f8151905061019e8161017a565b92915050565b5f805f80608085870312156101bc576101bb61010b565b5b5f6101c987828801610166565b94505060206101da87828801610190565b93505060406101eb87828801610190565b92505060606101fc87828801610190565b91505092959194509250565b60805160a05160c05160e05161103f6102a45f395f818161024201528181610422015261055a01525f61046a01525f81816101aa015281816101d60152818161026601528181610383015281816103ce0152818161048e015281816104b6015281816104e2015261053601525f81816101f7015281816102dd015281816103a4015281816104460152818161050301526105e9015261103f5ff3fe608060405234801561000f575f80fd5b5060043610610086575f3560e01c8063c31c9c0711610059578063c31c9c0714610114578063c54e44eb14610132578063e0bab4c414610150578063edd835571461016e57610086565b8063089fe6aa1461008a5780633b85cf6a146100a85780634aa4a4fc146100d857806389a30271146100f6575b5f80fd5b61009261019e565b60405161009f9190610946565b60405180910390f35b6100c260048036038101906100bd9190610996565b6101a4565b6040516100cf91906109e3565b60405180910390f35b6100e0610408565b6040516100ed9190610a3b565b60405180910390f35b6100fe610420565b60405161010b9190610a3b565b60405180910390f35b61011c610444565b6040516101299190610aaf565b60405180910390f35b61013a610468565b6040516101479190610a3b565b60405180910390f35b61015861048c565b6040516101659190610a3b565b60405180910390f35b61018860048036038101906101839190610ac8565b6104b0565b60405161019591906109e3565b60405180910390f35b610bb881565b5f6101d17f0000000000000000000000000000000000000000000000000000000000000000333085610688565b61021c7f00000000000000000000000000000000000000000000000000000000000000007f0000000000000000000000000000000000000000000000000000000000000000846107da565b5f6040518060a0016040528073c02aaa39b223fe8d0a0e5c4f27ead9083c756cc2610bb87f0000000000000000000000000000000000000000000000000000000000000000610bb87f0000000000000000000000000000000000000000000000000000000000000000604051602001610299959493929190610b6c565b60405160208183030381529060405281526020013373ffffffffffffffffffffffffffffffffffffffff1681526020014281526020018581526020018481525090507f000000000000000000000000000000000000000000000000000000000000000073ffffffffffffffffffffffffffffffffffffffff1663f28c0498826040518263ffffffff1660e01b81526004016103349190610ccb565b6020604051808303815f875af1158015610350573d5f803e3d5ffd5b505050506040513d601f19601f820116820180604052508101906103749190610cff565b915082821015610401576103c97f00000000000000000000000000000000000000000000000000000000000000007f00000000000000000000000000000000000000000000000000000000000000005f6107da565b6104007f0000000000000000000000000000000000000000000000000000000000000000303385876103fb9190610d57565b610688565b5b5092915050565b73c02aaa39b223fe8d0a0e5c4f27ead9083c756cc281565b7f000000000000000000000000000000000000000000000000000000000000000081565b7f000000000000000000000000000000000000000000000000000000000000000081565b7f000000000000000000000000000000000000000000000000000000000000000081565b7f000000000000000000000000000000000000000000000000000000000000000081565b5f6104dd7f0000000000000000000000000000000000000000000000000000000000000000333085610688565b6105287f00000000000000000000000000000000000000000000000000000000000000007f0000000000000000000000000000000000000000000000000000000000000000846107da565b5f6040518060a001604052807f0000000000000000000000000000000000000000000000000000000000000000610bb87f0000000000000000000000000000000000000000000000000000000000000000610bb873c02aaa39b223fe8d0a0e5c4f27ead9083c756cc26040516020016105a5959493929190610b6c565b60405160208183030381529060405281526020013373ffffffffffffffffffffffffffffffffffffffff1681526020014281526020018481526020015f81525090507f000000000000000000000000000000000000000000000000000000000000000073ffffffffffffffffffffffffffffffffffffffff1663c04b8d59826040518263ffffffff1660e01b81526004016106409190610dfd565b6020604051808303815f875af115801561065c573d5f803e3d5ffd5b505050506040513d601f19601f820116820180604052508101906106809190610cff565b915050919050565b5f808573ffffffffffffffffffffffffffffffffffffffff166323b872dd60e01b8686866040516024016106be93929190610e1d565b604051602081830303815290604052907bffffffffffffffffffffffffffffffffffffffffffffffffffffffff19166020820180517bffffffffffffffffffffffffffffffffffffffffffffffffffffffff83818316178352505050506040516107289190610e8c565b5f604051808303815f865af19150503d805f8114610761576040519150601f19603f3d011682016040523d82523d5f602084013e610766565b606091505b509150915081801561079357505f815114806107925750808060200190518101906107919190610ed7565b5b5b6107d2576040517f08c379a00000000000000000000000000000000000000000000000000000000081526004016107c990610f5c565b60405180910390fd5b505050505050565b5f808473ffffffffffffffffffffffffffffffffffffffff1663095ea7b360e01b858560405160240161080e929190610f7a565b604051602081830303815290604052907bffffffffffffffffffffffffffffffffffffffffffffffffffffffff19166020820180517bffffffffffffffffffffffffffffffffffffffffffffffffffffffff83818316178352505050506040516108789190610e8c565b5f604051808303815f865af19150503d805f81146108b1576040519150601f19603f3d011682016040523d82523d5f602084013e6108b6565b606091505b50915091508180156108e357505f815114806108e25750808060200190518101906108e19190610ed7565b5b5b610922576040517f08c379a000000000000000000000000000000000000000000000000000000000815260040161091990610feb565b60405180910390fd5b5050505050565b5f62ffffff82169050919050565b61094081610929565b82525050565b5f6020820190506109595f830184610937565b92915050565b5f80fd5b5f819050919050565b61097581610963565b811461097f575f80fd5b50565b5f813590506109908161096c565b92915050565b5f80604083850312156109ac576109ab61095f565b5b5f6109b985828601610982565b92505060206109ca85828601610982565b9150509250929050565b6109dd81610963565b82525050565b5f6020820190506109f65f8301846109d4565b92915050565b5f73ffffffffffffffffffffffffffffffffffffffff82169050919050565b5f610a25826109fc565b9050919050565b610a3581610a1b565b82525050565b5f602082019050610a4e5f830184610a2c565b92915050565b5f819050919050565b5f610a77610a72610a6d846109fc565b610a54565b6109fc565b9050919050565b5f610a8882610a5d565b9050919050565b5f610a9982610a7e565b9050919050565b610aa981610a8f565b82525050565b5f602082019050610ac25f830184610aa0565b92915050565b5f60208284031215610add57610adc61095f565b5b5f610aea84828501610982565b91505092915050565b5f8160601b9050919050565b5f610b0982610af3565b9050919050565b5f610b1a82610aff565b9050919050565b610b32610b2d82610a1b565b610b10565b82525050565b5f8160e81b9050919050565b5f610b4e82610b38565b9050919050565b610b66610b6182610929565b610b44565b82525050565b5f610b778288610b21565b601482019150610b878287610b55565b600382019150610b978286610b21565b601482019150610ba78285610b55565b600382019150610bb78284610b21565b6014820191508190509695505050505050565b5f81519050919050565b5f82825260208201905092915050565b8281835e5f83830152505050565b5f601f19601f8301169050919050565b5f610c0c82610bca565b610c168185610bd4565b9350610c26818560208601610be4565b610c2f81610bf2565b840191505092915050565b610c4381610a1b565b82525050565b610c5281610963565b82525050565b5f60a083015f8301518482035f860152610c728282610c02565b9150506020830151610c876020860182610c3a565b506040830151610c9a6040860182610c49565b506060830151610cad6060860182610c49565b506080830151610cc06080860182610c49565b508091505092915050565b5f6020820190508181035f830152610ce38184610c58565b905092915050565b5f81519050610cf98161096c565b92915050565b5f60208284031215610d1457610d1361095f565b5b5f610d2184828501610ceb565b91505092915050565b7f4e487b71000000000000000000000000000000000000000000000000000000005f52601160045260245ffd5b5f610d6182610963565b9150610d6c83610963565b9250828203905081811115610d8457610d83610d2a565b5b92915050565b5f60a083015f8301518482035f860152610da48282610c02565b9150506020830151610db96020860182610c3a565b506040830151610dcc6040860182610c49565b506060830151610ddf6060860182610c49565b506080830151610df26080860182610c49565b508091505092915050565b5f6020820190508181035f830152610e158184610d8a565b905092915050565b5f606082019050610e305f830186610a2c565b610e3d6020830185610a2c565b610e4a60408301846109d4565b949350505050565b5f81905092915050565b5f610e6682610bca565b610e708185610e52565b9350610e80818560208601610be4565b80840191505092915050565b5f610e978284610e5c565b915081905092915050565b5f8115159050919050565b610eb681610ea2565b8114610ec0575f80fd5b50565b5f81519050610ed181610ead565b92915050565b5f60208284031215610eec57610eeb61095f565b5b5f610ef984828501610ec3565b91505092915050565b5f82825260208201905092915050565b7f53544600000000000000000000000000000000000000000000000000000000005f82015250565b5f610f46600383610f02565b9150610f5182610f12565b602082019050919050565b5f6020820190508181035f830152610f7381610f3a565b9050919050565b5f604082019050610f8d5f830185610a2c565b610f9a60208301846109d4565b9392505050565b7f53410000000000000000000000000000000000000000000000000000000000005f82015250565b5f610fd5600283610f02565b9150610fe082610fa1565b602082019050919050565b5f6020820190508181035f83015261100281610fc9565b905091905056fea264697066735822122039f144721d762fe0a1827d275fa40d513cbdbe369471597a7fa4067a2b4e289664736f6c634300081a0033",
					"opcodes": "PUSH2 0x100 PUSH1 0x40 MSTORE CALLVALUE DUP1 ISZERO PUSH2 0x10 JUMPI PUSH0 DUP1 REVERT JUMPDEST POP PUSH1 0x40 MLOAD PUSH2 0x12E3 CODESIZE SUB DUP1 PUSH2 0x12E3 DUP4 CODECOPY DUP2 DUP2 ADD PUSH1 0x40 MSTORE DUP2 ADD SWAP1 PUSH2 0x32 SWAP2 SWAP1 PUSH2 0x1A4 JUMP JUMPDEST DUP4 PUSH20 0xFFFFFFFFFFFFFFFFFFFFFFFFFFFFFFFFFFFFFFFF AND PUSH1 0x80 DUP2 PUSH20 0xFFFFFFFFFFFFFFFFFFFFFFFFFFFFFFFFFFFFFFFF AND DUP2 MSTORE POP POP DUP3 PUSH20 0xFFFFFFFFFFFFFFFFFFFFFFFFFFFFFFFFFFFFFFFF AND PUSH1 0xA0 DUP2 PUSH20 0xFFFFFFFFFFFFFFFFFFFFFFFFFFFFFFFFFFFFFFFF AND DUP2 MSTORE POP POP DUP2 PUSH20 0xFFFFFFFFFFFFFFFFFFFFFFFFFFFFFFFFFFFFFFFF AND PUSH1 0xC0 DUP2 PUSH20 0xFFFFFFFFFFFFFFFFFFFFFFFFFFFFFFFFFFFFFFFF AND DUP2 MSTORE POP POP DUP1 PUSH20 0xFFFFFFFFFFFFFFFFFFFFFFFFFFFFFFFFFFFFFFFF AND PUSH1 0xE0 DUP2 PUSH20 0xFFFFFFFFFFFFFFFFFFFFFFFFFFFFFFFFFFFFFFFF AND DUP2 MSTORE POP POP POP POP POP POP PUSH2 0x208 JUMP JUMPDEST PUSH0 DUP1 REVERT JUMPDEST PUSH0 PUSH20 0xFFFFFFFFFFFFFFFFFFFFFFFFFFFFFFFFFFFFFFFF DUP3 AND SWAP1 POP SWAP2 SWAP1 POP JUMP JUMPDEST PUSH0 PUSH2 0x138 DUP3 PUSH2 0x10F JUMP JUMPDEST SWAP1 POP SWAP2 SWAP1 POP JUMP JUMPDEST PUSH0 PUSH2 0x149 DUP3 PUSH2 0x12E JUMP JUMPDEST SWAP1 POP SWAP2 SWAP1 POP JUMP JUMPDEST PUSH2 0x159 DUP2 PUSH2 0x13F JUMP JUMPDEST DUP2 EQ PUSH2 0x163 JUMPI PUSH0 DUP1 REVERT JUMPDEST POP JUMP JUMPDEST PUSH0 DUP2 MLOAD SWAP1 POP PUSH2 0x174 DUP2 PUSH2 0x150 JUMP JUMPDEST SWAP3 SWAP2 POP POP JUMP JUMPDEST PUSH2 0x183 DUP2 PUSH2 0x12E JUMP JUMPDEST DUP2 EQ PUSH2 0x18D JUMPI PUSH0 DUP1 REVERT JUMPDEST POP JUMP JUMPDEST PUSH0 DUP2 MLOAD SWAP1 POP PUSH2 0x19E DUP2 PUSH2 0x17A JUMP JUMPDEST SWAP3 SWAP2 POP POP JUMP JUMPDEST PUSH0 DUP1 PUSH0 DUP1 PUSH1 0x80 DUP6 DUP8 SUB SLT ISZERO PUSH2 0x1BC JUMPI PUSH2 0x1BB PUSH2 0x10B JUMP JUMPDEST JUMPDEST PUSH0 PUSH2 0x1C9 DUP8 DUP3 DUP9 ADD PUSH2 0x166 JUMP JUMPDEST SWAP5 POP POP PUSH1 0x20 PUSH2 0x1DA DUP8 DUP3 DUP9 ADD PUSH2 0x190 JUMP JUMPDEST SWAP4 POP POP PUSH1 0x40 PUSH2 0x1EB DUP8 DUP3 DUP9 ADD PUSH2 0x190 JUMP JUMPDEST SWAP3 POP POP PUSH1 0x60 PUSH2 0x1FC DUP8 DUP3 DUP9 ADD PUSH2 0x190 JUMP JUMPDEST SWAP2 POP POP SWAP3 SWAP6 SWAP2 SWAP5 POP SWAP3 POP JUMP JUMPDEST PUSH1 0x80 MLOAD PUSH1 0xA0 MLOAD PUSH1 0xC0 MLOAD PUSH1 0xE0 MLOAD PUSH2 0x103F PUSH2 0x2A4 PUSH0 CODECOPY PUSH0 DUP2 DUP2 PUSH2 0x242 ADD MSTORE DUP2 DUP2 PUSH2 0x422 ADD MSTORE PUSH2 0x55A ADD MSTORE PUSH0 PUSH2 0x46A ADD MSTORE PUSH0 DUP2 DUP2 PUSH2 0x1AA ADD MSTORE DUP2 DUP2 PUSH2 0x1D6 ADD MSTORE DUP2 DUP2 PUSH2 0x266 ADD MSTORE DUP2 DUP2 PUSH2 0x383 ADD MSTORE DUP2 DUP2 PUSH2 0x3CE ADD MSTORE DUP2 DUP2 PUSH2 0x48E ADD MSTORE DUP2 DUP2 PUSH2 0x4B6 ADD MSTORE DUP2 DUP2 PUSH2 0x4E2 ADD MSTORE PUSH2 0x536 ADD MSTORE PUSH0 DUP2 DUP2 PUSH2 0x1F7 ADD MSTORE DUP2 DUP2 PUSH2 0x2DD ADD MSTORE DUP2 DUP2 PUSH2 0x3A4 ADD MSTORE DUP2 DUP2 PUSH2 0x446 ADD MSTORE DUP2 DUP2 PUSH2 0x503 ADD MSTORE PUSH2 0x5E9 ADD MSTORE PUSH2 0x103F PUSH0 RETURN INVALID PUSH1 0x80 PUSH1 0x40 MSTORE CALLVALUE DUP1 ISZERO PUSH2 0xF JUMPI PUSH0 DUP1 REVERT JUMPDEST POP PUSH1 0x4 CALLDATASIZE LT PUSH2 0x86 JUMPI PUSH0 CALLDATALOAD PUSH1 0xE0 SHR DUP1 PUSH4 0xC31C9C07 GT PUSH2 0x59 JUMPI DUP1 PUSH4 0xC31C9C07 EQ PUSH2 0x114 JUMPI DUP1 PUSH4 0xC54E44EB EQ PUSH2 0x132 JUMPI DUP1 PUSH4 0xE0BAB4C4 EQ PUSH2 0x150 JUMPI DUP1 PUSH4 0xEDD83557 EQ PUSH2 0x16E JUMPI PUSH2 0x86 JUMP JUMPDEST DUP1 PUSH4 0x89FE6AA EQ PUSH2 0x8A JUMPI DUP1 PUSH4 0x3B85CF6A EQ PUSH2 0xA8 JUMPI DUP1 PUSH4 0x4AA4A4FC EQ PUSH2 0xD8 JUMPI DUP1 PUSH4 0x89A30271 EQ PUSH2 0xF6 JUMPI JUMPDEST PUSH0 DUP1 REVERT JUMPDEST PUSH2 0x92 PUSH2 0x19E JUMP JUMPDEST PUSH1 0x40 MLOAD PUSH2 0x9F SWAP2 SWAP1 PUSH2 0x946 JUMP JUMPDEST PUSH1 0x40 MLOAD DUP1 SWAP2 SUB SWAP1 RETURN JUMPDEST PUSH2 0xC2 PUSH1 0x4 DUP1 CALLDATASIZE SUB DUP2 ADD SWAP1 PUSH2 0xBD SWAP2 SWAP1 PUSH2 0x996 JUMP JUMPDEST PUSH2 0x1A4 JUMP JUMPDEST PUSH1 0x40 MLOAD PUSH2 0xCF SWAP2 SWAP1 PUSH2 0x9E3 JUMP JUMPDEST PUSH1 0x40 MLOAD DUP1 SWAP2 SUB SWAP1 RETURN JUMPDEST PUSH2 0xE0 PUSH2 0x408 JUMP JUMPDEST PUSH1 0x40 MLOAD PUSH2 0xED SWAP2 SWAP1 PUSH2 0xA3B JUMP JUMPDEST PUSH1 0x40 MLOAD DUP1 SWAP2 SUB SWAP1 RETURN JUMPDEST PUSH2 0xFE PUSH2 0x420 JUMP JUMPDEST PUSH1 0x40 MLOAD PUSH2 0x10B SWAP2 SWAP1 PUSH2 0xA3B JUMP JUMPDEST PUSH1 0x40 MLOAD DUP1 SWAP2 SUB SWAP1 RETURN JUMPDEST PUSH2 0x11C PUSH2 0x444 JUMP JUMPDEST PUSH1 0x40 MLOAD PUSH2 0x129 SWAP2 SWAP1 PUSH2 0xAAF JUMP JUMPDEST PUSH1 0x40 MLOAD DUP1 SWAP2 SUB SWAP1 RETURN JUMPDEST PUSH2 0x13A PUSH2 0x468 JUMP JUMPDEST PUSH1 0x40 MLOAD PUSH2 0x147 SWAP2 SWAP1 PUSH2 0xA3B JUMP JUMPDEST PUSH1 0x40 MLOAD DUP1 SWAP2 SUB SWAP1 RETURN JUMPDEST PUSH2 0x158 PUSH2 0x48C JUMP JUMPDEST PUSH1 0x40 MLOAD PUSH2 0x165 SWAP2 SWAP1 PUSH2 0xA3B JUMP JUMPDEST PUSH1 0x40 MLOAD DUP1 SWAP2 SUB SWAP1 RETURN JUMPDEST PUSH2 0x188 PUSH1 0x4 DUP1 CALLDATASIZE SUB DUP2 ADD SWAP1 PUSH2 0x183 SWAP2 SWAP1 PUSH2 0xAC8 JUMP JUMPDEST PUSH2 0x4B0 JUMP JUMPDEST PUSH1 0x40 MLOAD PUSH2 0x195 SWAP2 SWAP1 PUSH2 0x9E3 JUMP JUMPDEST PUSH1 0x40 MLOAD DUP1 SWAP2 SUB SWAP1 RETURN JUMPDEST PUSH2 0xBB8 DUP2 JUMP JUMPDEST PUSH0 PUSH2 0x1D1 PUSH32 0x0 CALLER ADDRESS DUP6 PUSH2 0x688 JUMP JUMPDEST PUSH2 0x21C PUSH32 0x0 PUSH32 0x0 DUP5 PUSH2 0x7DA JUMP JUMPDEST PUSH0 PUSH1 0x40 MLOAD DUP1 PUSH1 0xA0 ADD PUSH1 0x40 MSTORE DUP1 PUSH20 0xC02AAA39B223FE8D0A0E5C4F27EAD9083C756CC2 PUSH2 0xBB8 PUSH32 0x0 PUSH2 0xBB8 PUSH32 0x0 PUSH1 0x40 MLOAD PUSH1 0x20 ADD PUSH2 0x299 SWAP6 SWAP5 SWAP4 SWAP3 SWAP2 SWAP1 PUSH2 0xB6C JUMP JUMPDEST PUSH1 0x40 MLOAD PUSH1 0x20 DUP2 DUP4 SUB SUB DUP2 MSTORE SWAP1 PUSH1 0x40 MSTORE DUP2 MSTORE PUSH1 0x20 ADD CALLER PUSH20 0xFFFFFFFFFFFFFFFFFFFFFFFFFFFFFFFFFFFFFFFF AND DUP2 MSTORE PUSH1 0x20 ADD TIMESTAMP DUP2 MSTORE PUSH1 0x20 ADD DUP6 DUP2 MSTORE PUSH1 0x20 ADD DUP5 DUP2 MSTORE POP SWAP1 POP PUSH32 0x0 PUSH20 0xFFFFFFFFFFFFFFFFFFFFFFFFFFFFFFFFFFFFFFFF AND PUSH4 0xF28C0498 DUP3 PUSH1 0x40 MLOAD DUP3 PUSH4 0xFFFFFFFF AND PUSH1 0xE0 SHL DUP2 MSTORE PUSH1 0x4 ADD PUSH2 0x334 SWAP2 SWAP1 PUSH2 0xCCB JUMP JUMPDEST PUSH1 0x20 PUSH1 0x40 MLOAD DUP1 DUP4 SUB DUP2 PUSH0 DUP8 GAS CALL ISZERO DUP1 ISZERO PUSH2 0x350 JUMPI RETURNDATASIZE PUSH0 DUP1 RETURNDATACOPY RETURNDATASIZE PUSH0 REVERT JUMPDEST POP POP POP POP PUSH1 0x40 MLOAD RETURNDATASIZE PUSH1 0x1F NOT PUSH1 0x1F DUP3 ADD AND DUP3 ADD DUP1 PUSH1 0x40 MSTORE POP DUP2 ADD SWAP1 PUSH2 0x374 SWAP2 SWAP1 PUSH2 0xCFF JUMP JUMPDEST SWAP2 POP DUP3 DUP3 LT ISZERO PUSH2 0x401 JUMPI PUSH2 0x3C9 PUSH32 0x0 PUSH32 0x0 PUSH0 PUSH2 0x7DA JUMP JUMPDEST PUSH2 0x400 PUSH32 0x0 ADDRESS CALLER DUP6 DUP8 PUSH2 0x3FB SWAP2 SWAP1 PUSH2 0xD57 JUMP JUMPDEST PUSH2 0x688 JUMP JUMPDEST JUMPDEST POP SWAP3 SWAP2 POP POP JUMP JUMPDEST PUSH20 0xC02AAA39B223FE8D0A0E5C4F27EAD9083C756CC2 DUP2 JUMP JUMPDEST PUSH32 0x0 DUP2 JUMP JUMPDEST PUSH32 0x0 DUP2 JUMP JUMPDEST PUSH32 0x0 DUP2 JUMP JUMPDEST PUSH32 0x0 DUP2 JUMP JUMPDEST PUSH0 PUSH2 0x4DD PUSH32 0x0 CALLER ADDRESS DUP6 PUSH2 0x688 JUMP JUMPDEST PUSH2 0x528 PUSH32 0x0 PUSH32 0x0 DUP5 PUSH2 0x7DA JUMP JUMPDEST PUSH0 PUSH1 0x40 MLOAD DUP1 PUSH1 0xA0 ADD PUSH1 0x40 MSTORE DUP1 PUSH32 0x0 PUSH2 0xBB8 PUSH32 0x0 PUSH2 0xBB8 PUSH20 0xC02AAA39B223FE8D0A0E5C4F27EAD9083C756CC2 PUSH1 0x40 MLOAD PUSH1 0x20 ADD PUSH2 0x5A5 SWAP6 SWAP5 SWAP4 SWAP3 SWAP2 SWAP1 PUSH2 0xB6C JUMP JUMPDEST PUSH1 0x40 MLOAD PUSH1 0x20 DUP2 DUP4 SUB SUB DUP2 MSTORE SWAP1 PUSH1 0x40 MSTORE DUP2 MSTORE PUSH1 0x20 ADD CALLER PUSH20 0xFFFFFFFFFFFFFFFFFFFFFFFFFFFFFFFFFFFFFFFF AND DUP2 MSTORE PUSH1 0x20 ADD TIMESTAMP DUP2 MSTORE PUSH1 0x20 ADD DUP5 DUP2 MSTORE PUSH1 0x20 ADD PUSH0 DUP2 MSTORE POP SWAP1 POP PUSH32 0x0 PUSH20 0xFFFFFFFFFFFFFFFFFFFFFFFFFFFFFFFFFFFFFFFF AND PUSH4 0xC04B8D59 DUP3 PUSH1 0x40 MLOAD DUP3 PUSH4 0xFFFFFFFF AND PUSH1 0xE0 SHL DUP2 MSTORE PUSH1 0x4 ADD PUSH2 0x640 SWAP2 SWAP1 PUSH2 0xDFD JUMP JUMPDEST PUSH1 0x20 PUSH1 0x40 MLOAD DUP1 DUP4 SUB DUP2 PUSH0 DUP8 GAS CALL ISZERO DUP1 ISZERO PUSH2 0x65C JUMPI RETURNDATASIZE PUSH0 DUP1 RETURNDATACOPY RETURNDATASIZE PUSH0 REVERT JUMPDEST POP POP POP POP PUSH1 0x40 MLOAD RETURNDATASIZE PUSH1 0x1F NOT PUSH1 0x1F DUP3 ADD AND DUP3 ADD DUP1 PUSH1 0x40 MSTORE POP DUP2 ADD SWAP1 PUSH2 0x680 SWAP2 SWAP1 PUSH2 0xCFF JUMP JUMPDEST SWAP2 POP POP SWAP2 SWAP1 POP JUMP JUMPDEST PUSH0 DUP1 DUP6 PUSH20 0xFFFFFFFFFFFFFFFFFFFFFFFFFFFFFFFFFFFFFFFF AND PUSH4 0x23B872DD PUSH1 0xE0 SHL DUP7 DUP7 DUP7 PUSH1 0x40 MLOAD PUSH1 0x24 ADD PUSH2 0x6BE SWAP4 SWAP3 SWAP2 SWAP1 PUSH2 0xE1D JUMP JUMPDEST PUSH1 0x40 MLOAD PUSH1 0x20 DUP2 DUP4 SUB SUB DUP2 MSTORE SWAP1 PUSH1 0x40 MSTORE SWAP1 PUSH28 0xFFFFFFFFFFFFFFFFFFFFFFFFFFFFFFFFFFFFFFFFFFFFFFFFFFFFFFFF NOT AND PUSH1 0x20 DUP3 ADD DUP1 MLOAD PUSH28 0xFFFFFFFFFFFFFFFFFFFFFFFFFFFFFFFFFFFFFFFFFFFFFFFFFFFFFFFF DUP4 DUP2 DUP4 AND OR DUP4 MSTORE POP POP POP POP PUSH1 0x40 MLOAD PUSH2 0x728 SWAP2 SWAP1 PUSH2 0xE8C JUMP JUMPDEST PUSH0 PUSH1 0x40 MLOAD DUP1 DUP4 SUB DUP2 PUSH0 DUP7 GAS CALL SWAP2 POP POP RETURNDATASIZE DUP1 PUSH0 DUP2 EQ PUSH2 0x761 JUMPI PUSH1 0x40 MLOAD SWAP2 POP PUSH1 0x1F NOT PUSH1 0x3F RETURNDATASIZE ADD AND DUP3 ADD PUSH1 0x40 MSTORE RETURNDATASIZE DUP3 MSTORE RETURNDATASIZE PUSH0 PUSH1 0x20 DUP5 ADD RETURNDATACOPY PUSH2 0x766 JUMP JUMPDEST PUSH1 0x60 SWAP2 POP JUMPDEST POP SWAP2 POP SWAP2 POP DUP2 DUP1 ISZERO PUSH2 0x793 JUMPI POP PUSH0 DUP2 MLOAD EQ DUP1 PUSH2 0x792 JUMPI POP DUP1 DUP1 PUSH1 0x20 ADD SWAP1 MLOAD DUP2 ADD SWAP1 PUSH2 0x791 SWAP2 SWAP1 PUSH2 0xED7 JUMP JUMPDEST JUMPDEST JUMPDEST PUSH2 0x7D2 JUMPI PUSH1 0x40 MLOAD PUSH32 0x8C379A000000000000000000000000000000000000000000000000000000000 DUP2 MSTORE PUSH1 0x4 ADD PUSH2 0x7C9 SWAP1 PUSH2 0xF5C JUMP JUMPDEST PUSH1 0x40 MLOAD DUP1 SWAP2 SUB SWAP1 REVERT JUMPDEST POP POP POP POP POP POP JUMP JUMPDEST PUSH0 DUP1 DUP5 PUSH20 0xFFFFFFFFFFFFFFFFFFFFFFFFFFFFFFFFFFFFFFFF AND PUSH4 0x95EA7B3 PUSH1 0xE0 SHL DUP6 DUP6 PUSH1 0x40 MLOAD PUSH1 0x24 ADD PUSH2 0x80E SWAP3 SWAP2 SWAP1 PUSH2 0xF7A JUMP JUMPDEST PUSH1 0x40 MLOAD PUSH1 0x20 DUP2 DUP4 SUB SUB DUP2 MSTORE SWAP1 PUSH1 0x40 MSTORE SWAP1 PUSH28 0xFFFFFFFFFFFFFFFFFFFFFFFFFFFFFFFFFFFFFFFFFFFFFFFFFFFFFFFF NOT AND PUSH1 0x20 DUP3 ADD DUP1 MLOAD PUSH28 0xFFFFFFFFFFFFFFFFFFFFFFFFFFFFFFFFFFFFFFFFFFFFFFFFFFFFFFFF DUP4 DUP2 DUP4 AND OR DUP4 MSTORE POP POP POP POP PUSH1 0x40 MLOAD PUSH2 0x878 SWAP2 SWAP1 PUSH2 0xE8C JUMP JUMPDEST PUSH0 PUSH1 0x40 MLOAD DUP1 DUP4 SUB DUP2 PUSH0 DUP7 GAS CALL SWAP2 POP POP RETURNDATASIZE DUP1 PUSH0 DUP2 EQ PUSH2 0x8B1 JUMPI PUSH1 0x40 MLOAD SWAP2 POP PUSH1 0x1F NOT PUSH1 0x3F RETURNDATASIZE ADD AND DUP3 ADD PUSH1 0x40 MSTORE RETURNDATASIZE DUP3 MSTORE RETURNDATASIZE PUSH0 PUSH1 0x20 DUP5 ADD RETURNDATACOPY PUSH2 0x8B6 JUMP JUMPDEST PUSH1 0x60 SWAP2 POP JUMPDEST POP SWAP2 POP SWAP2 POP DUP2 DUP1 ISZERO PUSH2 0x8E3 JUMPI POP PUSH0 DUP2 MLOAD EQ DUP1 PUSH2 0x8E2 JUMPI POP DUP1 DUP1 PUSH1 0x20 ADD SWAP1 MLOAD DUP2 ADD SWAP1 PUSH2 0x8E1 SWAP2 SWAP1 PUSH2 0xED7 JUMP JUMPDEST JUMPDEST JUMPDEST PUSH2 0x922 JUMPI PUSH1 0x40 MLOAD PUSH32 0x8C379A000000000000000000000000000000000000000000000000000000000 DUP2 MSTORE PUSH1 0x4 ADD PUSH2 0x919 SWAP1 PUSH2 0xFEB JUMP JUMPDEST PUSH1 0x40 MLOAD DUP1 SWAP2 SUB SWAP1 REVERT JUMPDEST POP POP POP POP POP JUMP JUMPDEST PUSH0 PUSH3 0xFFFFFF DUP3 AND SWAP1 POP SWAP2 SWAP1 POP JUMP JUMPDEST PUSH2 0x940 DUP2 PUSH2 0x929 JUMP JUMPDEST DUP3 MSTORE POP POP JUMP JUMPDEST PUSH0 PUSH1 0x20 DUP3 ADD SWAP1 POP PUSH2 0x959 PUSH0 DUP4 ADD DUP5 PUSH2 0x937 JUMP JUMPDEST SWAP3 SWAP2 POP POP JUMP JUMPDEST PUSH0 DUP1 REVERT JUMPDEST PUSH0 DUP2 SWAP1 POP SWAP2 SWAP1 POP JUMP JUMPDEST PUSH2 0x975 DUP2 PUSH2 0x963 JUMP JUMPDEST DUP2 EQ PUSH2 0x97F JUMPI PUSH0 DUP1 REVERT JUMPDEST POP JUMP JUMPDEST PUSH0 DUP2 CALLDATALOAD SWAP1 POP PUSH2 0x990 DUP2 PUSH2 0x96C JUMP JUMPDEST SWAP3 SWAP2 POP POP JUMP JUMPDEST PUSH0 DUP1 PUSH1 0x40 DUP4 DUP6 SUB SLT ISZERO PUSH2 0x9AC JUMPI PUSH2 0x9AB PUSH2 0x95F JUMP JUMPDEST JUMPDEST PUSH0 PUSH2 0x9B9 DUP6 DUP3 DUP7 ADD PUSH2 0x982 JUMP JUMPDEST SWAP3 POP POP PUSH1 0x20 PUSH2 0x9CA DUP6 DUP3 DUP7 ADD PUSH2 0x982 JUMP JUMPDEST SWAP2 POP POP SWAP3 POP SWAP3 SWAP1 POP JUMP JUMPDEST PUSH2 0x9DD DUP2 PUSH2 0x963 JUMP JUMPDEST DUP3 MSTORE POP POP JUMP JUMPDEST PUSH0 PUSH1 0x20 DUP3 ADD SWAP1 POP PUSH2 0x9F6 PUSH0 DUP4 ADD DUP5 PUSH2 0x9D4 JUMP JUMPDEST SWAP3 SWAP2 POP POP JUMP JUMPDEST PUSH0 PUSH20 0xFFFFFFFFFFFFFFFFFFFFFFFFFFFFFFFFFFFFFFFF DUP3 AND SWAP1 POP SWAP2 SWAP1 POP JUMP JUMPDEST PUSH0 PUSH2 0xA25 DUP3 PUSH2 0x9FC JUMP JUMPDEST SWAP1 POP SWAP2 SWAP1 POP JUMP JUMPDEST PUSH2 0xA35 DUP2 PUSH2 0xA1B JUMP JUMPDEST DUP3 MSTORE POP POP JUMP JUMPDEST PUSH0 PUSH1 0x20 DUP3 ADD SWAP1 POP PUSH2 0xA4E PUSH0 DUP4 ADD DUP5 PUSH2 0xA2C JUMP JUMPDEST SWAP3 SWAP2 POP POP JUMP JUMPDEST PUSH0 DUP2 SWAP1 POP SWAP2 SWAP1 POP JUMP JUMPDEST PUSH0 PUSH2 0xA77 PUSH2 0xA72 PUSH2 0xA6D DUP5 PUSH2 0x9FC JUMP JUMPDEST PUSH2 0xA54 JUMP JUMPDEST PUSH2 0x9FC JUMP JUMPDEST SWAP1 POP SWAP2 SWAP1 POP JUMP JUMPDEST PUSH0 PUSH2 0xA88 DUP3 PUSH2 0xA5D JUMP JUMPDEST SWAP1 POP SWAP2 SWAP1 POP JUMP JUMPDEST PUSH0 PUSH2 0xA99 DUP3 PUSH2 0xA7E JUMP JUMPDEST SWAP1 POP SWAP2 SWAP1 POP JUMP JUMPDEST PUSH2 0xAA9 DUP2 PUSH2 0xA8F JUMP JUMPDEST DUP3 MSTORE POP POP JUMP JUMPDEST PUSH0 PUSH1 0x20 DUP3 ADD SWAP1 POP PUSH2 0xAC2 PUSH0 DUP4 ADD DUP5 PUSH2 0xAA0 JUMP JUMPDEST SWAP3 SWAP2 POP POP JUMP JUMPDEST PUSH0 PUSH1 0x20 DUP3 DUP5 SUB SLT ISZERO PUSH2 0xADD JUMPI PUSH2 0xADC PUSH2 0x95F JUMP JUMPDEST JUMPDEST PUSH0 PUSH2 0xAEA DUP5 DUP3 DUP6 ADD PUSH2 0x982 JUMP JUMPDEST SWAP2 POP POP SWAP3 SWAP2 POP POP JUMP JUMPDEST PUSH0 DUP2 PUSH1 0x60 SHL SWAP1 POP SWAP2 SWAP1 POP JUMP JUMPDEST PUSH0 PUSH2 0xB09 DUP3 PUSH2 0xAF3 JUMP JUMPDEST SWAP1 POP SWAP2 SWAP1 POP JUMP JUMPDEST PUSH0 PUSH2 0xB1A DUP3 PUSH2 0xAFF JUMP JUMPDEST SWAP1 POP SWAP2 SWAP1 POP JUMP JUMPDEST PUSH2 0xB32 PUSH2 0xB2D DUP3 PUSH2 0xA1B JUMP JUMPDEST PUSH2 0xB10 JUMP JUMPDEST DUP3 MSTORE POP POP JUMP JUMPDEST PUSH0 DUP2 PUSH1 0xE8 SHL SWAP1 POP SWAP2 SWAP1 POP JUMP JUMPDEST PUSH0 PUSH2 0xB4E DUP3 PUSH2 0xB38 JUMP JUMPDEST SWAP1 POP SWAP2 SWAP1 POP JUMP JUMPDEST PUSH2 0xB66 PUSH2 0xB61 DUP3 PUSH2 0x929 JUMP JUMPDEST PUSH2 0xB44 JUMP JUMPDEST DUP3 MSTORE POP POP JUMP JUMPDEST PUSH0 PUSH2 0xB77 DUP3 DUP9 PUSH2 0xB21 JUMP JUMPDEST PUSH1 0x14 DUP3 ADD SWAP2 POP PUSH2 0xB87 DUP3 DUP8 PUSH2 0xB55 JUMP JUMPDEST PUSH1 0x3 DUP3 ADD SWAP2 POP PUSH2 0xB97 DUP3 DUP7 PUSH2 0xB21 JUMP JUMPDEST PUSH1 0x14 DUP3 ADD SWAP2 POP PUSH2 0xBA7 DUP3 DUP6 PUSH2 0xB55 JUMP JUMPDEST PUSH1 0x3 DUP3 ADD SWAP2 POP PUSH2 0xBB7 DUP3 DUP5 PUSH2 0xB21 JUMP JUMPDEST PUSH1 0x14 DUP3 ADD SWAP2 POP DUP2 SWAP1 POP SWAP7 SWAP6 POP POP POP POP POP POP JUMP JUMPDEST PUSH0 DUP2 MLOAD SWAP1 POP SWAP2 SWAP1 POP JUMP JUMPDEST PUSH0 DUP3 DUP3 MSTORE PUSH1 0x20 DUP3 ADD SWAP1 POP SWAP3 SWAP2 POP POP JUMP JUMPDEST DUP3 DUP2 DUP4 MCOPY PUSH0 DUP4 DUP4 ADD MSTORE POP POP POP JUMP JUMPDEST PUSH0 PUSH1 0x1F NOT PUSH1 0x1F DUP4 ADD AND SWAP1 POP SWAP2 SWAP1 POP JUMP JUMPDEST PUSH0 PUSH2 0xC0C DUP3 PUSH2 0xBCA JUMP JUMPDEST PUSH2 0xC16 DUP2 DUP6 PUSH2 0xBD4 JUMP JUMPDEST SWAP4 POP PUSH2 0xC26 DUP2 DUP6 PUSH1 0x20 DUP7 ADD PUSH2 0xBE4 JUMP JUMPDEST PUSH2 0xC2F DUP2 PUSH2 0xBF2 JUMP JUMPDEST DUP5 ADD SWAP2 POP POP SWAP3 SWAP2 POP POP JUMP JUMPDEST PUSH2 0xC43 DUP2 PUSH2 0xA1B JUMP JUMPDEST DUP3 MSTORE POP POP JUMP JUMPDEST PUSH2 0xC52 DUP2 PUSH2 0x963 JUMP JUMPDEST DUP3 MSTORE POP POP JUMP JUMPDEST PUSH0 PUSH1 0xA0 DUP4 ADD PUSH0 DUP4 ADD MLOAD DUP5 DUP3 SUB PUSH0 DUP7 ADD MSTORE PUSH2 0xC72 DUP3 DUP3 PUSH2 0xC02 JUMP JUMPDEST SWAP2 POP POP PUSH1 0x20 DUP4 ADD MLOAD PUSH2 0xC87 PUSH1 0x20 DUP7 ADD DUP3 PUSH2 0xC3A JUMP JUMPDEST POP PUSH1 0x40 DUP4 ADD MLOAD PUSH2 0xC9A PUSH1 0x40 DUP7 ADD DUP3 PUSH2 0xC49 JUMP JUMPDEST POP PUSH1 0x60 DUP4 ADD MLOAD PUSH2 0xCAD PUSH1 0x60 DUP7 ADD DUP3 PUSH2 0xC49 JUMP JUMPDEST POP PUSH1 0x80 DUP4 ADD MLOAD PUSH2 0xCC0 PUSH1 0x80 DUP7 ADD DUP3 PUSH2 0xC49 JUMP JUMPDEST POP DUP1 SWAP2 POP POP SWAP3 SWAP2 POP POP JUMP JUMPDEST PUSH0 PUSH1 0x20 DUP3 ADD SWAP1 POP DUP2 DUP2 SUB PUSH0 DUP4 ADD MSTORE PUSH2 0xCE3 DUP2 DUP5 PUSH2 0xC58 JUMP JUMPDEST SWAP1 POP SWAP3 SWAP2 POP POP JUMP JUMPDEST PUSH0 DUP2 MLOAD SWAP1 POP PUSH2 0xCF9 DUP2 PUSH2 0x96C JUMP JUMPDEST SWAP3 SWAP2 POP POP JUMP JUMPDEST PUSH0 PUSH1 0x20 DUP3 DUP5 SUB SLT ISZERO PUSH2 0xD14 JUMPI PUSH2 0xD13 PUSH2 0x95F JUMP JUMPDEST JUMPDEST PUSH0 PUSH2 0xD21 DUP5 DUP3 DUP6 ADD PUSH2 0xCEB JUMP JUMPDEST SWAP2 POP POP SWAP3 SWAP2 POP POP JUMP JUMPDEST PUSH32 0x4E487B7100000000000000000000000000000000000000000000000000000000 PUSH0 MSTORE PUSH1 0x11 PUSH1 0x4 MSTORE PUSH1 0x24 PUSH0 REVERT JUMPDEST PUSH0 PUSH2 0xD61 DUP3 PUSH2 0x963 JUMP JUMPDEST SWAP2 POP PUSH2 0xD6C DUP4 PUSH2 0x963 JUMP JUMPDEST SWAP3 POP DUP3 DUP3 SUB SWAP1 POP DUP2 DUP2 GT ISZERO PUSH2 0xD84 JUMPI PUSH2 0xD83 PUSH2 0xD2A JUMP JUMPDEST JUMPDEST SWAP3 SWAP2 POP POP JUMP JUMPDEST PUSH0 PUSH1 0xA0 DUP4 ADD PUSH0 DUP4 ADD MLOAD DUP5 DUP3 SUB PUSH0 DUP7 ADD MSTORE PUSH2 0xDA4 DUP3 DUP3 PUSH2 0xC02 JUMP JUMPDEST SWAP2 POP POP PUSH1 0x20 DUP4 ADD MLOAD PUSH2 0xDB9 PUSH1 0x20 DUP7 ADD DUP3 PUSH2 0xC3A JUMP JUMPDEST POP PUSH1 0x40 DUP4 ADD MLOAD PUSH2 0xDCC PUSH1 0x40 DUP7 ADD DUP3 PUSH2 0xC49 JUMP JUMPDEST POP PUSH1 0x60 DUP4 ADD MLOAD PUSH2 0xDDF PUSH1 0x60 DUP7 ADD DUP3 PUSH2 0xC49 JUMP JUMPDEST POP PUSH1 0x80 DUP4 ADD MLOAD PUSH2 0xDF2 PUSH1 0x80 DUP7 ADD DUP3 PUSH2 0xC49 JUMP JUMPDEST POP DUP1 SWAP2 POP POP SWAP3 SWAP2 POP POP JUMP JUMPDEST PUSH0 PUSH1 0x20 DUP3 ADD SWAP1 POP DUP2 DUP2 SUB PUSH0 DUP4 ADD MSTORE PUSH2 0xE15 DUP2 DUP5 PUSH2 0xD8A JUMP JUMPDEST SWAP1 POP SWAP3 SWAP2 POP POP JUMP JUMPDEST PUSH0 PUSH1 0x60 DUP3 ADD SWAP1 POP PUSH2 0xE30 PUSH0 DUP4 ADD DUP7 PUSH2 0xA2C JUMP JUMPDEST PUSH2 0xE3D PUSH1 0x20 DUP4 ADD DUP6 PUSH2 0xA2C JUMP JUMPDEST PUSH2 0xE4A PUSH1 0x40 DUP4 ADD DUP5 PUSH2 0x9D4 JUMP JUMPDEST SWAP5 SWAP4 POP POP POP POP JUMP JUMPDEST PUSH0 DUP2 SWAP1 POP SWAP3 SWAP2 POP POP JUMP JUMPDEST PUSH0 PUSH2 0xE66 DUP3 PUSH2 0xBCA JUMP JUMPDEST PUSH2 0xE70 DUP2 DUP6 PUSH2 0xE52 JUMP JUMPDEST SWAP4 POP PUSH2 0xE80 DUP2 DUP6 PUSH1 0x20 DUP7 ADD PUSH2 0xBE4 JUMP JUMPDEST DUP1 DUP5 ADD SWAP2 POP POP SWAP3 SWAP2 POP POP JUMP JUMPDEST PUSH0 PUSH2 0xE97 DUP3 DUP5 PUSH2 0xE5C JUMP JUMPDEST SWAP2 POP DUP2 SWAP1 POP SWAP3 SWAP2 POP POP JUMP JUMPDEST PUSH0 DUP2 ISZERO ISZERO SWAP1 POP SWAP2 SWAP1 POP JUMP JUMPDEST PUSH2 0xEB6 DUP2 PUSH2 0xEA2 JUMP JUMPDEST DUP2 EQ PUSH2 0xEC0 JUMPI PUSH0 DUP1 REVERT JUMPDEST POP JUMP JUMPDEST PUSH0 DUP2 MLOAD SWAP1 POP PUSH2 0xED1 DUP2 PUSH2 0xEAD JUMP JUMPDEST SWAP3 SWAP2 POP POP JUMP JUMPDEST PUSH0 PUSH1 0x20 DUP3 DUP5 SUB SLT ISZERO PUSH2 0xEEC JUMPI PUSH2 0xEEB PUSH2 0x95F JUMP JUMPDEST JUMPDEST PUSH0 PUSH2 0xEF9 DUP5 DUP3 DUP6 ADD PUSH2 0xEC3 JUMP JUMPDEST SWAP2 POP POP SWAP3 SWAP2 POP POP JUMP JUMPDEST PUSH0 DUP3 DUP3 MSTORE PUSH1 0x20 DUP3 ADD SWAP1 POP SWAP3 SWAP2 POP POP JUMP JUMPDEST PUSH32 0x5354460000000000000000000000000000000000000000000000000000000000 PUSH0 DUP3 ADD MSTORE POP JUMP JUMPDEST PUSH0 PUSH2 0xF46 PUSH1 0x3 DUP4 PUSH2 0xF02 JUMP JUMPDEST SWAP2 POP PUSH2 0xF51 DUP3 PUSH2 0xF12 JUMP JUMPDEST PUSH1 0x20 DUP3 ADD SWAP1 POP SWAP2 SWAP1 POP JUMP JUMPDEST PUSH0 PUSH1 0x20 DUP3 ADD SWAP1 POP DUP2 DUP2 SUB PUSH0 DUP4 ADD MSTORE PUSH2 0xF73 DUP2 PUSH2 0xF3A JUMP JUMPDEST SWAP1 POP SWAP2 SWAP1 POP JUMP JUMPDEST PUSH0 PUSH1 0x40 DUP3 ADD SWAP1 POP PUSH2 0xF8D PUSH0 DUP4 ADD DUP6 PUSH2 0xA2C JUMP JUMPDEST PUSH2 0xF9A PUSH1 0x20 DUP4 ADD DUP5 PUSH2 0x9D4 JUMP JUMPDEST SWAP4 SWAP3 POP POP POP JUMP JUMPDEST PUSH32 0x5341000000000000000000000000000000000000000000000000000000000000 PUSH0 DUP3 ADD MSTORE POP JUMP JUMPDEST PUSH0 PUSH2 0xFD5 PUSH1 0x2 DUP4 PUSH2 0xF02 JUMP JUMPDEST SWAP2 POP PUSH2 0xFE0 DUP3 PUSH2 0xFA1 JUMP JUMPDEST PUSH1 0x20 DUP3 ADD SWAP1 POP SWAP2 SWAP1 POP JUMP JUMPDEST PUSH0 PUSH1 0x20 DUP3 ADD SWAP1 POP DUP2 DUP2 SUB PUSH0 DUP4 ADD MSTORE PUSH2 0x1002 DUP2 PUSH2 0xFC9 JUMP JUMPDEST SWAP1 POP SWAP2 SWAP1 POP JUMP INVALID LOG2 PUSH5 0x6970667358 0x22 SLT KECCAK256 CODECOPY CALL PREVRANDAO PUSH19 0x1D762FE0A1827D275FA40D513CBDBE36947159 PUSH27 0x7FA4067A2B4E289664736F6C634300081A00330000000000000000 "
				},
				"gasEstimates": {
					"creation": {
						"codeDepositCost": "831800",
						"executionCost": "infinite",
						"totalCost": "infinite"
					},
					"external": {
						"DAI()": "infinite",
						"USDC()": "infinite",
						"USDT()": "infinite",
						"WETH9()": "418",
						"poolFee()": "332",
						"swapExactInputMultihop(uint256)": "infinite",
						"swapExactOutputMultihop(uint256,uint256)": "infinite",
						"swapRouter()": "infinite"
					}
				},
				"methodIdentifiers": {
					"DAI()": "e0bab4c4",
					"USDC()": "89a30271",
					"USDT()": "c54e44eb",
					"WETH9()": "4aa4a4fc",
					"poolFee()": "089fe6aa",
					"swapExactInputMultihop(uint256)": "edd83557",
					"swapExactOutputMultihop(uint256,uint256)": "3b85cf6a",
					"swapRouter()": "c31c9c07"
				}
			},
			"storageLayout": {
				"storage": [],
				"types": null
			},
			"userdoc": {
				"kind": "user",
				"methods": {
					"swapExactInputMultihop(uint256)": {
						"notice": "swapInputMultiplePools swaps a fixed amount of DAI for a maximum possible amount of WETH9 through an intermediary pool. For this example, we will swap DAI to USDC, then USDC to WETH9 to achieve our desired output."
					},
					"swapExactOutputMultihop(uint256,uint256)": {
						"notice": "swapExactOutputMultihop swaps a minimum possible amount of DAI for a fixed amount of WETH through an intermediary pool. For this example, we want to swap DAI for WETH9 through a USDC pool but we specify the desired amountOut of WETH9. Notice how the path encoding is slightly different in for exact output swaps."
					}
				},
				"version": 1
			}
		}
	}
}