{
	"contracts/MultiSig.sol": {
		"MultiSigStalwart": {
			"abi": [
				{
					"inputs": [
						{
							"internalType": "address[]",
							"name": "_owners",
							"type": "address[]"
						},
						{
							"internalType": "uint256",
							"name": "_requiredSignatures",
							"type": "uint256"
						}
					],
					"stateMutability": "nonpayable",
					"type": "constructor"
				},
				{
					"anonymous": false,
					"inputs": [
						{
							"indexed": true,
							"internalType": "uint256",
							"name": "transactionId",
							"type": "uint256"
						},
						{
							"indexed": false,
							"internalType": "address",
							"name": "to",
							"type": "address"
						},
						{
							"indexed": false,
							"internalType": "uint256",
							"name": "value",
							"type": "uint256"
						},
						{
							"indexed": false,
							"internalType": "bytes",
							"name": "data",
							"type": "bytes"
						}
					],
					"name": "TransactionCreated",
					"type": "event"
				},
				{
					"anonymous": false,
					"inputs": [
						{
							"indexed": true,
							"internalType": "uint256",
							"name": "transactionId",
							"type": "uint256"
						}
					],
					"name": "TransactionExecuted",
					"type": "event"
				},
				{
					"anonymous": false,
					"inputs": [
						{
							"indexed": true,
							"internalType": "uint256",
							"name": "transactionId",
							"type": "uint256"
						},
						{
							"indexed": false,
							"internalType": "address",
							"name": "by",
							"type": "address"
						}
					],
					"name": "TransactionSigned",
					"type": "event"
				},
				{
					"inputs": [
						{
							"internalType": "address",
							"name": "_to",
							"type": "address"
						},
						{
							"internalType": "uint256",
							"name": "_value",
							"type": "uint256"
						},
						{
							"internalType": "bytes",
							"name": "_data",
							"type": "bytes"
						}
					],
					"name": "createTransaction",
					"outputs": [
						{
							"internalType": "uint256",
							"name": "transactionId",
							"type": "uint256"
						}
					],
					"stateMutability": "nonpayable",
					"type": "function"
				},
				{
					"inputs": [
						{
							"internalType": "uint256",
							"name": "_transactionId",
							"type": "uint256"
						}
					],
					"name": "getSignaturesLeft",
					"outputs": [
						{
							"internalType": "uint256",
							"name": "",
							"type": "uint256"
						}
					],
					"stateMutability": "view",
					"type": "function"
				},
				{
					"inputs": [
						{
							"internalType": "uint256",
							"name": "",
							"type": "uint256"
						}
					],
					"name": "owners",
					"outputs": [
						{
							"internalType": "address",
							"name": "",
							"type": "address"
						}
					],
					"stateMutability": "view",
					"type": "function"
				},
				{
					"inputs": [],
					"name": "requiredSignatures",
					"outputs": [
						{
							"internalType": "uint256",
							"name": "",
							"type": "uint256"
						}
					],
					"stateMutability": "view",
					"type": "function"
				},
				{
					"inputs": [
						{
							"internalType": "uint256",
							"name": "_transactionId",
							"type": "uint256"
						}
					],
					"name": "signTransaction",
					"outputs": [],
					"stateMutability": "nonpayable",
					"type": "function"
				},
				{
					"inputs": [],
					"name": "transactionCount",
					"outputs": [
						{
							"internalType": "uint256",
							"name": "",
							"type": "uint256"
						}
					],
					"stateMutability": "view",
					"type": "function"
				},
				{
					"inputs": [
						{
							"internalType": "uint256",
							"name": "",
							"type": "uint256"
						}
					],
					"name": "transactions",
					"outputs": [
						{
							"internalType": "address",
							"name": "to",
							"type": "address"
						},
						{
							"internalType": "uint256",
							"name": "value",
							"type": "uint256"
						},
						{
							"internalType": "bytes",
							"name": "data",
							"type": "bytes"
						},
						{
							"internalType": "bool",
							"name": "executed",
							"type": "bool"
						},
						{
							"internalType": "uint256",
							"name": "signatureCount",
							"type": "uint256"
						}
					],
					"stateMutability": "view",
					"type": "function"
				}
			],
			"devdoc": {
				"kind": "dev",
				"methods": {},
				"version": 1
			},
			"evm": {
				"assembly": "    /* \"contracts/MultiSig.sol\":121:6702  contract MultiSigStalwart {... */\n  mstore(0x40, 0x80)\n    /* \"contracts/MultiSig.sol\":866:1237  constructor(address[] memory _owners, uint _requiredSignatures) {... */\n  callvalue\n  dup1\n  iszero\n  tag_1\n  jumpi\n  0x00\n  dup1\n  revert\ntag_1:\n  pop\n  mload(0x40)\n  sub(codesize, bytecodeSize)\n  dup1\n  bytecodeSize\n  dup4\n  codecopy\n  dup2\n  dup2\n  add\n  0x40\n  mstore\n  dup2\n  add\n  swap1\n  tag_2\n  swap2\n  swap1\n  tag_3\n  jump\t// in\ntag_2:\n    /* \"contracts/MultiSig.sol\":966:967  0 */\n  0x00\n    /* \"contracts/MultiSig.sol\":949:956  _owners */\n  dup3\n    /* \"contracts/MultiSig.sol\":949:963  _owners.length */\n  mload\n    /* \"contracts/MultiSig.sol\":949:967  _owners.length > 0 */\n  gt\n    /* \"contracts/MultiSig.sol\":941:987  require(_owners.length > 0, \"Owners required\") */\n  tag_6\n  jumpi\n  mload(0x40)\n  0x08c379a000000000000000000000000000000000000000000000000000000000\n  dup2\n  mstore\n  0x04\n  add\n  tag_7\n  swap1\n  tag_8\n  jump\t// in\ntag_7:\n  mload(0x40)\n  dup1\n  swap2\n  sub\n  swap1\n  revert\ntag_6:\n    /* \"contracts/MultiSig.sol\":1042:1043  0 */\n  0x00\n    /* \"contracts/MultiSig.sol\":1020:1039  _requiredSignatures */\n  dup2\n    /* \"contracts/MultiSig.sol\":1020:1043  _requiredSignatures > 0 */\n  gt\n    /* \"contracts/MultiSig.sol\":1020:1084  _requiredSignatures > 0 && _requiredSignatures <= _owners.length */\n  dup1\n  iszero\n  tag_9\n  jumpi\n  pop\n    /* \"contracts/MultiSig.sol\":1070:1077  _owners */\n  dup2\n    /* \"contracts/MultiSig.sol\":1070:1084  _owners.length */\n  mload\n    /* \"contracts/MultiSig.sol\":1047:1066  _requiredSignatures */\n  dup2\n    /* \"contracts/MultiSig.sol\":1047:1084  _requiredSignatures <= _owners.length */\n  gt\n  iszero\n    /* \"contracts/MultiSig.sol\":1020:1084  _requiredSignatures > 0 && _requiredSignatures <= _owners.length */\ntag_9:\n    /* \"contracts/MultiSig.sol\":998:1149  require(... */\n  tag_10\n  jumpi\n  mload(0x40)\n  0x08c379a000000000000000000000000000000000000000000000000000000000\n  dup2\n  mstore\n  0x04\n  add\n  tag_11\n  swap1\n  tag_12\n  jump\t// in\ntag_11:\n  mload(0x40)\n  dup1\n  swap2\n  sub\n  swap1\n  revert\ntag_10:\n    /* \"contracts/MultiSig.sol\":1171:1178  _owners */\n  dup2\n    /* \"contracts/MultiSig.sol\":1162:1168  owners */\n  0x00\n    /* \"contracts/MultiSig.sol\":1162:1178  owners = _owners */\n  swap1\n  dup1\n  mload\n  swap1\n  0x20\n  add\n  swap1\n  tag_13\n  swap3\n  swap2\n  swap1\n  tag_14\n  jump\t// in\ntag_13:\n  pop\n    /* \"contracts/MultiSig.sol\":1210:1229  _requiredSignatures */\n  dup1\n    /* \"contracts/MultiSig.sol\":1189:1207  requiredSignatures */\n  0x01\n    /* \"contracts/MultiSig.sol\":1189:1229  requiredSignatures = _requiredSignatures */\n  dup2\n  swap1\n  sstore\n  pop\n    /* \"contracts/MultiSig.sol\":866:1237  constructor(address[] memory _owners, uint _requiredSignatures) {... */\n  pop\n  pop\n    /* \"contracts/MultiSig.sol\":121:6702  contract MultiSigStalwart {... */\n  jump(tag_15)\ntag_14:\n  dup3\n  dup1\n  sload\n  dup3\n  dup3\n  sstore\n  swap1\n  0x00\n  mstore\n  keccak256(0x00, 0x20)\n  swap1\n  dup2\n  add\n  swap3\n  dup3\n  iszero\n  tag_16\n  jumpi\n  swap2\n  0x20\n  mul\n  dup3\n  add\ntag_17:\n  dup3\n  dup2\n  gt\n  iszero\n  tag_18\n  jumpi\n  dup3\n  mload\n  dup3\n  exp(0x0100, 0x00)\n  dup2\n  sload\n  dup2\n  0xffffffffffffffffffffffffffffffffffffffff\n  mul\n  not\n  and\n  swap1\n  dup4\n  0xffffffffffffffffffffffffffffffffffffffff\n  and\n  mul\n  or\n  swap1\n  sstore\n  pop\n  swap2\n  0x20\n  add\n  swap2\n  swap1\n  0x01\n  add\n  swap1\n  jump(tag_17)\ntag_18:\ntag_16:\n  pop\n  swap1\n  pop\n  tag_19\n  swap2\n  swap1\n  tag_20\n  jump\t// in\ntag_19:\n  pop\n  swap1\n  jump\t// out\ntag_20:\ntag_21:\n  dup1\n  dup3\n  gt\n  iszero\n  tag_22\n  jumpi\n  0x00\n  dup2\n  0x00\n  swap1\n  sstore\n  pop\n  0x01\n  add\n  jump(tag_21)\ntag_22:\n  pop\n  swap1\n  jump\t// out\n    /* \"#utility.yul\":7:82   */\ntag_23:\n    /* \"#utility.yul\":40:46   */\n  0x00\n    /* \"#utility.yul\":73:75   */\n  0x40\n    /* \"#utility.yul\":67:76   */\n  mload\n    /* \"#utility.yul\":57:76   */\n  swap1\n  pop\n    /* \"#utility.yul\":7:82   */\n  swap1\n  jump\t// out\n    /* \"#utility.yul\":88:205   */\ntag_24:\n    /* \"#utility.yul\":197:198   */\n  0x00\n    /* \"#utility.yul\":194:195   */\n  dup1\n    /* \"#utility.yul\":187:199   */\n  revert\n    /* \"#utility.yul\":211:328   */\ntag_25:\n    /* \"#utility.yul\":320:321   */\n  0x00\n    /* \"#utility.yul\":317:318   */\n  dup1\n    /* \"#utility.yul\":310:322   */\n  revert\n    /* \"#utility.yul\":334:451   */\ntag_26:\n    /* \"#utility.yul\":443:444   */\n  0x00\n    /* \"#utility.yul\":440:441   */\n  dup1\n    /* \"#utility.yul\":433:445   */\n  revert\n    /* \"#utility.yul\":457:559   */\ntag_27:\n    /* \"#utility.yul\":498:504   */\n  0x00\n    /* \"#utility.yul\":549:551   */\n  0x1f\n    /* \"#utility.yul\":545:552   */\n  not\n    /* \"#utility.yul\":540:542   */\n  0x1f\n    /* \"#utility.yul\":533:538   */\n  dup4\n    /* \"#utility.yul\":529:543   */\n  add\n    /* \"#utility.yul\":525:553   */\n  and\n    /* \"#utility.yul\":515:553   */\n  swap1\n  pop\n    /* \"#utility.yul\":457:559   */\n  swap2\n  swap1\n  pop\n  jump\t// out\n    /* \"#utility.yul\":565:745   */\ntag_28:\n    /* \"#utility.yul\":613:690   */\n  0x4e487b7100000000000000000000000000000000000000000000000000000000\n    /* \"#utility.yul\":610:611   */\n  0x00\n    /* \"#utility.yul\":603:691   */\n  mstore\n    /* \"#utility.yul\":710:714   */\n  0x41\n    /* \"#utility.yul\":707:708   */\n  0x04\n    /* \"#utility.yul\":700:715   */\n  mstore\n    /* \"#utility.yul\":734:738   */\n  0x24\n    /* \"#utility.yul\":731:732   */\n  0x00\n    /* \"#utility.yul\":724:739   */\n  revert\n    /* \"#utility.yul\":751:1032   */\ntag_29:\n    /* \"#utility.yul\":834:861   */\n  tag_55\n    /* \"#utility.yul\":856:860   */\n  dup3\n    /* \"#utility.yul\":834:861   */\n  tag_27\n  jump\t// in\ntag_55:\n    /* \"#utility.yul\":826:832   */\n  dup2\n    /* \"#utility.yul\":822:862   */\n  add\n    /* \"#utility.yul\":964:970   */\n  dup2\n    /* \"#utility.yul\":952:962   */\n  dup2\n    /* \"#utility.yul\":949:971   */\n  lt\n    /* \"#utility.yul\":928:946   */\n  0xffffffffffffffff\n    /* \"#utility.yul\":916:926   */\n  dup3\n    /* \"#utility.yul\":913:947   */\n  gt\n    /* \"#utility.yul\":910:972   */\n  or\n    /* \"#utility.yul\":907:995   */\n  iszero\n  tag_56\n  jumpi\n    /* \"#utility.yul\":975:993   */\n  tag_57\n  tag_28\n  jump\t// in\ntag_57:\n    /* \"#utility.yul\":907:995   */\ntag_56:\n    /* \"#utility.yul\":1015:1025   */\n  dup1\n    /* \"#utility.yul\":1011:1013   */\n  0x40\n    /* \"#utility.yul\":1004:1026   */\n  mstore\n    /* \"#utility.yul\":794:1032   */\n  pop\n    /* \"#utility.yul\":751:1032   */\n  pop\n  pop\n  jump\t// out\n    /* \"#utility.yul\":1038:1167   */\ntag_30:\n    /* \"#utility.yul\":1072:1078   */\n  0x00\n    /* \"#utility.yul\":1099:1119   */\n  tag_59\n  tag_23\n  jump\t// in\ntag_59:\n    /* \"#utility.yul\":1089:1119   */\n  swap1\n  pop\n    /* \"#utility.yul\":1128:1161   */\n  tag_60\n    /* \"#utility.yul\":1156:1160   */\n  dup3\n    /* \"#utility.yul\":1148:1154   */\n  dup3\n    /* \"#utility.yul\":1128:1161   */\n  tag_29\n  jump\t// in\ntag_60:\n    /* \"#utility.yul\":1038:1167   */\n  swap2\n  swap1\n  pop\n  jump\t// out\n    /* \"#utility.yul\":1173:1484   */\ntag_31:\n    /* \"#utility.yul\":1250:1254   */\n  0x00\n    /* \"#utility.yul\":1340:1358   */\n  0xffffffffffffffff\n    /* \"#utility.yul\":1332:1338   */\n  dup3\n    /* \"#utility.yul\":1329:1359   */\n  gt\n    /* \"#utility.yul\":1326:1382   */\n  iszero\n  tag_62\n  jumpi\n    /* \"#utility.yul\":1362:1380   */\n  tag_63\n  tag_28\n  jump\t// in\ntag_63:\n    /* \"#utility.yul\":1326:1382   */\ntag_62:\n    /* \"#utility.yul\":1412:1416   */\n  0x20\n    /* \"#utility.yul\":1404:1410   */\n  dup3\n    /* \"#utility.yul\":1400:1417   */\n  mul\n    /* \"#utility.yul\":1392:1417   */\n  swap1\n  pop\n    /* \"#utility.yul\":1472:1476   */\n  0x20\n    /* \"#utility.yul\":1466:1470   */\n  dup2\n    /* \"#utility.yul\":1462:1477   */\n  add\n    /* \"#utility.yul\":1454:1477   */\n  swap1\n  pop\n    /* \"#utility.yul\":1173:1484   */\n  swap2\n  swap1\n  pop\n  jump\t// out\n    /* \"#utility.yul\":1490:1607   */\ntag_32:\n    /* \"#utility.yul\":1599:1600   */\n  0x00\n    /* \"#utility.yul\":1596:1597   */\n  dup1\n    /* \"#utility.yul\":1589:1601   */\n  revert\n    /* \"#utility.yul\":1613:1739   */\ntag_33:\n    /* \"#utility.yul\":1650:1657   */\n  0x00\n    /* \"#utility.yul\":1690:1732   */\n  0xffffffffffffffffffffffffffffffffffffffff\n    /* \"#utility.yul\":1683:1688   */\n  dup3\n    /* \"#utility.yul\":1679:1733   */\n  and\n    /* \"#utility.yul\":1668:1733   */\n  swap1\n  pop\n    /* \"#utility.yul\":1613:1739   */\n  swap2\n  swap1\n  pop\n  jump\t// out\n    /* \"#utility.yul\":1745:1841   */\ntag_34:\n    /* \"#utility.yul\":1782:1789   */\n  0x00\n    /* \"#utility.yul\":1811:1835   */\n  tag_67\n    /* \"#utility.yul\":1829:1834   */\n  dup3\n    /* \"#utility.yul\":1811:1835   */\n  tag_33\n  jump\t// in\ntag_67:\n    /* \"#utility.yul\":1800:1835   */\n  swap1\n  pop\n    /* \"#utility.yul\":1745:1841   */\n  swap2\n  swap1\n  pop\n  jump\t// out\n    /* \"#utility.yul\":1847:1969   */\ntag_35:\n    /* \"#utility.yul\":1920:1944   */\n  tag_69\n    /* \"#utility.yul\":1938:1943   */\n  dup2\n    /* \"#utility.yul\":1920:1944   */\n  tag_34\n  jump\t// in\ntag_69:\n    /* \"#utility.yul\":1913:1918   */\n  dup2\n    /* \"#utility.yul\":1910:1945   */\n  eq\n    /* \"#utility.yul\":1900:1963   */\n  tag_70\n  jumpi\n    /* \"#utility.yul\":1959:1960   */\n  0x00\n    /* \"#utility.yul\":1956:1957   */\n  dup1\n    /* \"#utility.yul\":1949:1961   */\n  revert\n    /* \"#utility.yul\":1900:1963   */\ntag_70:\n    /* \"#utility.yul\":1847:1969   */\n  pop\n  jump\t// out\n    /* \"#utility.yul\":1975:2118   */\ntag_36:\n    /* \"#utility.yul\":2032:2037   */\n  0x00\n    /* \"#utility.yul\":2063:2069   */\n  dup2\n    /* \"#utility.yul\":2057:2070   */\n  mload\n    /* \"#utility.yul\":2048:2070   */\n  swap1\n  pop\n    /* \"#utility.yul\":2079:2112   */\n  tag_72\n    /* \"#utility.yul\":2106:2111   */\n  dup2\n    /* \"#utility.yul\":2079:2112   */\n  tag_35\n  jump\t// in\ntag_72:\n    /* \"#utility.yul\":1975:2118   */\n  swap3\n  swap2\n  pop\n  pop\n  jump\t// out\n    /* \"#utility.yul\":2141:2873   */\ntag_37:\n    /* \"#utility.yul\":2248:2253   */\n  0x00\n    /* \"#utility.yul\":2273:2354   */\n  tag_74\n    /* \"#utility.yul\":2289:2353   */\n  tag_75\n    /* \"#utility.yul\":2346:2352   */\n  dup5\n    /* \"#utility.yul\":2289:2353   */\n  tag_31\n  jump\t// in\ntag_75:\n    /* \"#utility.yul\":2273:2354   */\n  tag_30\n  jump\t// in\ntag_74:\n    /* \"#utility.yul\":2264:2354   */\n  swap1\n  pop\n    /* \"#utility.yul\":2374:2379   */\n  dup1\n    /* \"#utility.yul\":2403:2409   */\n  dup4\n    /* \"#utility.yul\":2396:2401   */\n  dup3\n    /* \"#utility.yul\":2389:2410   */\n  mstore\n    /* \"#utility.yul\":2437:2441   */\n  0x20\n    /* \"#utility.yul\":2430:2435   */\n  dup3\n    /* \"#utility.yul\":2426:2442   */\n  add\n    /* \"#utility.yul\":2419:2442   */\n  swap1\n  pop\n    /* \"#utility.yul\":2490:2494   */\n  0x20\n    /* \"#utility.yul\":2482:2488   */\n  dup5\n    /* \"#utility.yul\":2478:2495   */\n  mul\n    /* \"#utility.yul\":2470:2476   */\n  dup4\n    /* \"#utility.yul\":2466:2496   */\n  add\n    /* \"#utility.yul\":2519:2522   */\n  dup6\n    /* \"#utility.yul\":2511:2517   */\n  dup2\n    /* \"#utility.yul\":2508:2523   */\n  gt\n    /* \"#utility.yul\":2505:2627   */\n  iszero\n  tag_76\n  jumpi\n    /* \"#utility.yul\":2538:2617   */\n  tag_77\n  tag_32\n  jump\t// in\ntag_77:\n    /* \"#utility.yul\":2505:2627   */\ntag_76:\n    /* \"#utility.yul\":2653:2659   */\n  dup4\n    /* \"#utility.yul\":2636:2867   */\ntag_78:\n    /* \"#utility.yul\":2670:2676   */\n  dup2\n    /* \"#utility.yul\":2665:2668   */\n  dup2\n    /* \"#utility.yul\":2662:2677   */\n  lt\n    /* \"#utility.yul\":2636:2867   */\n  iszero\n  tag_80\n  jumpi\n    /* \"#utility.yul\":2745:2748   */\n  dup1\n    /* \"#utility.yul\":2774:2822   */\n  tag_81\n    /* \"#utility.yul\":2818:2821   */\n  dup9\n    /* \"#utility.yul\":2806:2816   */\n  dup3\n    /* \"#utility.yul\":2774:2822   */\n  tag_36\n  jump\t// in\ntag_81:\n    /* \"#utility.yul\":2769:2772   */\n  dup5\n    /* \"#utility.yul\":2762:2823   */\n  mstore\n    /* \"#utility.yul\":2852:2856   */\n  0x20\n    /* \"#utility.yul\":2847:2850   */\n  dup5\n    /* \"#utility.yul\":2843:2857   */\n  add\n    /* \"#utility.yul\":2836:2857   */\n  swap4\n  pop\n    /* \"#utility.yul\":2712:2867   */\n  pop\n    /* \"#utility.yul\":2696:2700   */\n  0x20\n    /* \"#utility.yul\":2691:2694   */\n  dup2\n    /* \"#utility.yul\":2687:2701   */\n  add\n    /* \"#utility.yul\":2680:2701   */\n  swap1\n  pop\n    /* \"#utility.yul\":2636:2867   */\n  jump(tag_78)\ntag_80:\n    /* \"#utility.yul\":2640:2661   */\n  pop\n    /* \"#utility.yul\":2254:2873   */\n  pop\n  pop\n    /* \"#utility.yul\":2141:2873   */\n  swap4\n  swap3\n  pop\n  pop\n  pop\n  jump\t// out\n    /* \"#utility.yul\":2896:3281   */\ntag_38:\n    /* \"#utility.yul\":2978:2983   */\n  0x00\n    /* \"#utility.yul\":3027:3030   */\n  dup3\n    /* \"#utility.yul\":3020:3024   */\n  0x1f\n    /* \"#utility.yul\":3012:3018   */\n  dup4\n    /* \"#utility.yul\":3008:3025   */\n  add\n    /* \"#utility.yul\":3004:3031   */\n  slt\n    /* \"#utility.yul\":2994:3116   */\n  tag_83\n  jumpi\n    /* \"#utility.yul\":3035:3114   */\n  tag_84\n  tag_26\n  jump\t// in\ntag_84:\n    /* \"#utility.yul\":2994:3116   */\ntag_83:\n    /* \"#utility.yul\":3145:3151   */\n  dup2\n    /* \"#utility.yul\":3139:3152   */\n  mload\n    /* \"#utility.yul\":3170:3275   */\n  tag_85\n    /* \"#utility.yul\":3271:3274   */\n  dup5\n    /* \"#utility.yul\":3263:3269   */\n  dup3\n    /* \"#utility.yul\":3256:3260   */\n  0x20\n    /* \"#utility.yul\":3248:3254   */\n  dup7\n    /* \"#utility.yul\":3244:3261   */\n  add\n    /* \"#utility.yul\":3170:3275   */\n  tag_37\n  jump\t// in\ntag_85:\n    /* \"#utility.yul\":3161:3275   */\n  swap2\n  pop\n    /* \"#utility.yul\":2984:3281   */\n  pop\n    /* \"#utility.yul\":2896:3281   */\n  swap3\n  swap2\n  pop\n  pop\n  jump\t// out\n    /* \"#utility.yul\":3287:3364   */\ntag_39:\n    /* \"#utility.yul\":3324:3331   */\n  0x00\n    /* \"#utility.yul\":3353:3358   */\n  dup2\n    /* \"#utility.yul\":3342:3358   */\n  swap1\n  pop\n    /* \"#utility.yul\":3287:3364   */\n  swap2\n  swap1\n  pop\n  jump\t// out\n    /* \"#utility.yul\":3370:3492   */\ntag_40:\n    /* \"#utility.yul\":3443:3467   */\n  tag_88\n    /* \"#utility.yul\":3461:3466   */\n  dup2\n    /* \"#utility.yul\":3443:3467   */\n  tag_39\n  jump\t// in\ntag_88:\n    /* \"#utility.yul\":3436:3441   */\n  dup2\n    /* \"#utility.yul\":3433:3468   */\n  eq\n    /* \"#utility.yul\":3423:3486   */\n  tag_89\n  jumpi\n    /* \"#utility.yul\":3482:3483   */\n  0x00\n    /* \"#utility.yul\":3479:3480   */\n  dup1\n    /* \"#utility.yul\":3472:3484   */\n  revert\n    /* \"#utility.yul\":3423:3486   */\ntag_89:\n    /* \"#utility.yul\":3370:3492   */\n  pop\n  jump\t// out\n    /* \"#utility.yul\":3498:3641   */\ntag_41:\n    /* \"#utility.yul\":3555:3560   */\n  0x00\n    /* \"#utility.yul\":3586:3592   */\n  dup2\n    /* \"#utility.yul\":3580:3593   */\n  mload\n    /* \"#utility.yul\":3571:3593   */\n  swap1\n  pop\n    /* \"#utility.yul\":3602:3635   */\n  tag_91\n    /* \"#utility.yul\":3629:3634   */\n  dup2\n    /* \"#utility.yul\":3602:3635   */\n  tag_40\n  jump\t// in\ntag_91:\n    /* \"#utility.yul\":3498:3641   */\n  swap3\n  swap2\n  pop\n  pop\n  jump\t// out\n    /* \"#utility.yul\":3647:4357   */\ntag_3:\n    /* \"#utility.yul\":3751:3757   */\n  0x00\n    /* \"#utility.yul\":3759:3765   */\n  dup1\n    /* \"#utility.yul\":3808:3810   */\n  0x40\n    /* \"#utility.yul\":3796:3805   */\n  dup4\n    /* \"#utility.yul\":3787:3794   */\n  dup6\n    /* \"#utility.yul\":3783:3806   */\n  sub\n    /* \"#utility.yul\":3779:3811   */\n  slt\n    /* \"#utility.yul\":3776:3895   */\n  iszero\n  tag_93\n  jumpi\n    /* \"#utility.yul\":3814:3893   */\n  tag_94\n  tag_24\n  jump\t// in\ntag_94:\n    /* \"#utility.yul\":3776:3895   */\ntag_93:\n    /* \"#utility.yul\":3955:3956   */\n  0x00\n    /* \"#utility.yul\":3944:3953   */\n  dup4\n    /* \"#utility.yul\":3940:3957   */\n  add\n    /* \"#utility.yul\":3934:3958   */\n  mload\n    /* \"#utility.yul\":3985:4003   */\n  0xffffffffffffffff\n    /* \"#utility.yul\":3977:3983   */\n  dup2\n    /* \"#utility.yul\":3974:4004   */\n  gt\n    /* \"#utility.yul\":3971:4088   */\n  iszero\n  tag_95\n  jumpi\n    /* \"#utility.yul\":4007:4086   */\n  tag_96\n  tag_25\n  jump\t// in\ntag_96:\n    /* \"#utility.yul\":3971:4088   */\ntag_95:\n    /* \"#utility.yul\":4112:4201   */\n  tag_97\n    /* \"#utility.yul\":4193:4200   */\n  dup6\n    /* \"#utility.yul\":4184:4190   */\n  dup3\n    /* \"#utility.yul\":4173:4182   */\n  dup7\n    /* \"#utility.yul\":4169:4191   */\n  add\n    /* \"#utility.yul\":4112:4201   */\n  tag_38\n  jump\t// in\ntag_97:\n    /* \"#utility.yul\":4102:4201   */\n  swap3\n  pop\n    /* \"#utility.yul\":3905:4211   */\n  pop\n    /* \"#utility.yul\":4250:4252   */\n  0x20\n    /* \"#utility.yul\":4276:4340   */\n  tag_98\n    /* \"#utility.yul\":4332:4339   */\n  dup6\n    /* \"#utility.yul\":4323:4329   */\n  dup3\n    /* \"#utility.yul\":4312:4321   */\n  dup7\n    /* \"#utility.yul\":4308:4330   */\n  add\n    /* \"#utility.yul\":4276:4340   */\n  tag_41\n  jump\t// in\ntag_98:\n    /* \"#utility.yul\":4266:4340   */\n  swap2\n  pop\n    /* \"#utility.yul\":4221:4350   */\n  pop\n    /* \"#utility.yul\":3647:4357   */\n  swap3\n  pop\n  swap3\n  swap1\n  pop\n  jump\t// out\n    /* \"#utility.yul\":4363:4532   */\ntag_42:\n    /* \"#utility.yul\":4447:4458   */\n  0x00\n    /* \"#utility.yul\":4481:4487   */\n  dup3\n    /* \"#utility.yul\":4476:4479   */\n  dup3\n    /* \"#utility.yul\":4469:4488   */\n  mstore\n    /* \"#utility.yul\":4521:4525   */\n  0x20\n    /* \"#utility.yul\":4516:4519   */\n  dup3\n    /* \"#utility.yul\":4512:4526   */\n  add\n    /* \"#utility.yul\":4497:4526   */\n  swap1\n  pop\n    /* \"#utility.yul\":4363:4532   */\n  swap3\n  swap2\n  pop\n  pop\n  jump\t// out\n    /* \"#utility.yul\":4538:4703   */\ntag_43:\n    /* \"#utility.yul\":4678:4695   */\n  0x4f776e6572732072657175697265640000000000000000000000000000000000\n    /* \"#utility.yul\":4674:4675   */\n  0x00\n    /* \"#utility.yul\":4666:4672   */\n  dup3\n    /* \"#utility.yul\":4662:4676   */\n  add\n    /* \"#utility.yul\":4655:4696   */\n  mstore\n    /* \"#utility.yul\":4538:4703   */\n  pop\n  jump\t// out\n    /* \"#utility.yul\":4709:5075   */\ntag_44:\n    /* \"#utility.yul\":4851:4854   */\n  0x00\n    /* \"#utility.yul\":4872:4939   */\n  tag_102\n    /* \"#utility.yul\":4936:4938   */\n  0x0f\n    /* \"#utility.yul\":4931:4934   */\n  dup4\n    /* \"#utility.yul\":4872:4939   */\n  tag_42\n  jump\t// in\ntag_102:\n    /* \"#utility.yul\":4865:4939   */\n  swap2\n  pop\n    /* \"#utility.yul\":4948:5041   */\n  tag_103\n    /* \"#utility.yul\":5037:5040   */\n  dup3\n    /* \"#utility.yul\":4948:5041   */\n  tag_43\n  jump\t// in\ntag_103:\n    /* \"#utility.yul\":5066:5068   */\n  0x20\n    /* \"#utility.yul\":5061:5064   */\n  dup3\n    /* \"#utility.yul\":5057:5069   */\n  add\n    /* \"#utility.yul\":5050:5069   */\n  swap1\n  pop\n    /* \"#utility.yul\":4709:5075   */\n  swap2\n  swap1\n  pop\n  jump\t// out\n    /* \"#utility.yul\":5081:5500   */\ntag_8:\n    /* \"#utility.yul\":5247:5251   */\n  0x00\n    /* \"#utility.yul\":5285:5287   */\n  0x20\n    /* \"#utility.yul\":5274:5283   */\n  dup3\n    /* \"#utility.yul\":5270:5288   */\n  add\n    /* \"#utility.yul\":5262:5288   */\n  swap1\n  pop\n    /* \"#utility.yul\":5334:5343   */\n  dup2\n    /* \"#utility.yul\":5328:5332   */\n  dup2\n    /* \"#utility.yul\":5324:5344   */\n  sub\n    /* \"#utility.yul\":5320:5321   */\n  0x00\n    /* \"#utility.yul\":5309:5318   */\n  dup4\n    /* \"#utility.yul\":5305:5322   */\n  add\n    /* \"#utility.yul\":5298:5345   */\n  mstore\n    /* \"#utility.yul\":5362:5493   */\n  tag_105\n    /* \"#utility.yul\":5488:5492   */\n  dup2\n    /* \"#utility.yul\":5362:5493   */\n  tag_44\n  jump\t// in\ntag_105:\n    /* \"#utility.yul\":5354:5493   */\n  swap1\n  pop\n    /* \"#utility.yul\":5081:5500   */\n  swap2\n  swap1\n  pop\n  jump\t// out\n    /* \"#utility.yul\":5506:5730   */\ntag_45:\n    /* \"#utility.yul\":5646:5680   */\n  0x496e76616c6964206e756d626572206f66207265717569726564207369676e61\n    /* \"#utility.yul\":5642:5643   */\n  0x00\n    /* \"#utility.yul\":5634:5640   */\n  dup3\n    /* \"#utility.yul\":5630:5644   */\n  add\n    /* \"#utility.yul\":5623:5681   */\n  mstore\n    /* \"#utility.yul\":5715:5722   */\n  0x7475726573000000000000000000000000000000000000000000000000000000\n    /* \"#utility.yul\":5710:5712   */\n  0x20\n    /* \"#utility.yul\":5702:5708   */\n  dup3\n    /* \"#utility.yul\":5698:5713   */\n  add\n    /* \"#utility.yul\":5691:5723   */\n  mstore\n    /* \"#utility.yul\":5506:5730   */\n  pop\n  jump\t// out\n    /* \"#utility.yul\":5736:6102   */\ntag_46:\n    /* \"#utility.yul\":5878:5881   */\n  0x00\n    /* \"#utility.yul\":5899:5966   */\n  tag_108\n    /* \"#utility.yul\":5963:5965   */\n  0x25\n    /* \"#utility.yul\":5958:5961   */\n  dup4\n    /* \"#utility.yul\":5899:5966   */\n  tag_42\n  jump\t// in\ntag_108:\n    /* \"#utility.yul\":5892:5966   */\n  swap2\n  pop\n    /* \"#utility.yul\":5975:6068   */\n  tag_109\n    /* \"#utility.yul\":6064:6067   */\n  dup3\n    /* \"#utility.yul\":5975:6068   */\n  tag_45\n  jump\t// in\ntag_109:\n    /* \"#utility.yul\":6093:6095   */\n  0x40\n    /* \"#utility.yul\":6088:6091   */\n  dup3\n    /* \"#utility.yul\":6084:6096   */\n  add\n    /* \"#utility.yul\":6077:6096   */\n  swap1\n  pop\n    /* \"#utility.yul\":5736:6102   */\n  swap2\n  swap1\n  pop\n  jump\t// out\n    /* \"#utility.yul\":6108:6527   */\ntag_12:\n    /* \"#utility.yul\":6274:6278   */\n  0x00\n    /* \"#utility.yul\":6312:6314   */\n  0x20\n    /* \"#utility.yul\":6301:6310   */\n  dup3\n    /* \"#utility.yul\":6297:6315   */\n  add\n    /* \"#utility.yul\":6289:6315   */\n  swap1\n  pop\n    /* \"#utility.yul\":6361:6370   */\n  dup2\n    /* \"#utility.yul\":6355:6359   */\n  dup2\n    /* \"#utility.yul\":6351:6371   */\n  sub\n    /* \"#utility.yul\":6347:6348   */\n  0x00\n    /* \"#utility.yul\":6336:6345   */\n  dup4\n    /* \"#utility.yul\":6332:6349   */\n  add\n    /* \"#utility.yul\":6325:6372   */\n  mstore\n    /* \"#utility.yul\":6389:6520   */\n  tag_111\n    /* \"#utility.yul\":6515:6519   */\n  dup2\n    /* \"#utility.yul\":6389:6520   */\n  tag_46\n  jump\t// in\ntag_111:\n    /* \"#utility.yul\":6381:6520   */\n  swap1\n  pop\n    /* \"#utility.yul\":6108:6527   */\n  swap2\n  swap1\n  pop\n  jump\t// out\n    /* \"contracts/MultiSig.sol\":121:6702  contract MultiSigStalwart {... */\ntag_15:\n  dataSize(sub_0)\n  dup1\n  dataOffset(sub_0)\n  0x00\n  codecopy\n  0x00\n  return\nstop\n\nsub_0: assembly {\n        /* \"contracts/MultiSig.sol\":121:6702  contract MultiSigStalwart {... */\n      mstore(0x40, 0x80)\n      callvalue\n      dup1\n      iszero\n      tag_1\n      jumpi\n      0x00\n      dup1\n      revert\n    tag_1:\n      pop\n      jumpi(tag_2, lt(calldatasize, 0x04))\n      shr(0xe0, calldataload(0x00))\n      dup1\n      0x8d068043\n      gt\n      tag_10\n      jumpi\n      dup1\n      0x8d068043\n      eq\n      tag_6\n      jumpi\n      dup1\n      0x9ace38c2\n      eq\n      tag_7\n      jumpi\n      dup1\n      0xa9496e75\n      eq\n      tag_8\n      jumpi\n      dup1\n      0xb77bf600\n      eq\n      tag_9\n      jumpi\n      jump(tag_2)\n    tag_10:\n      dup1\n      0x025e7c27\n      eq\n      tag_3\n      jumpi\n      dup1\n      0x5d9ec210\n      eq\n      tag_4\n      jumpi\n      dup1\n      0x6a718015\n      eq\n      tag_5\n      jumpi\n    tag_2:\n      0x00\n      dup1\n      revert\n        /* \"contracts/MultiSig.sol\":352:375  address[] public owners */\n    tag_3:\n      tag_11\n      0x04\n      dup1\n      calldatasize\n      sub\n      dup2\n      add\n      swap1\n      tag_12\n      swap2\n      swap1\n      tag_13\n      jump\t// in\n    tag_12:\n      tag_14\n      jump\t// in\n    tag_11:\n      mload(0x40)\n      tag_15\n      swap2\n      swap1\n      tag_16\n      jump\t// in\n    tag_15:\n      mload(0x40)\n      dup1\n      swap2\n      sub\n      swap1\n      return\n        /* \"contracts/MultiSig.sol\":1968:2767  function signTransaction(uint _transactionId) public {... */\n    tag_4:\n      tag_17\n      0x04\n      dup1\n      calldatasize\n      sub\n      dup2\n      add\n      swap1\n      tag_18\n      swap2\n      swap1\n      tag_13\n      jump\t// in\n    tag_18:\n      tag_19\n      jump\t// in\n    tag_17:\n      stop\n        /* \"contracts/MultiSig.sol\":5984:6396  function getSignaturesLeft(uint _transactionId) public view returns (uint) {... */\n    tag_5:\n      tag_20\n      0x04\n      dup1\n      calldatasize\n      sub\n      dup2\n      add\n      swap1\n      tag_21\n      swap2\n      swap1\n      tag_13\n      jump\t// in\n    tag_21:\n      tag_22\n      jump\t// in\n    tag_20:\n      mload(0x40)\n      tag_23\n      swap2\n      swap1\n      tag_24\n      jump\t// in\n    tag_23:\n      mload(0x40)\n      dup1\n      swap2\n      sub\n      swap1\n      return\n        /* \"contracts/MultiSig.sol\":382:412  uint public requiredSignatures */\n    tag_6:\n      tag_25\n      tag_26\n      jump\t// in\n    tag_25:\n      mload(0x40)\n      tag_27\n      swap2\n      swap1\n      tag_24\n      jump\t// in\n    tag_27:\n      mload(0x40)\n      dup1\n      swap2\n      sub\n      swap1\n      return\n        /* \"contracts/MultiSig.sol\":454:502  mapping(uint => Transaction) public transactions */\n    tag_7:\n      tag_28\n      0x04\n      dup1\n      calldatasize\n      sub\n      dup2\n      add\n      swap1\n      tag_29\n      swap2\n      swap1\n      tag_13\n      jump\t// in\n    tag_29:\n      tag_30\n      jump\t// in\n    tag_28:\n      mload(0x40)\n      tag_31\n      swap6\n      swap5\n      swap4\n      swap3\n      swap2\n      swap1\n      tag_32\n      jump\t// in\n    tag_31:\n      mload(0x40)\n      dup1\n      swap2\n      sub\n      swap1\n      return\n        /* \"contracts/MultiSig.sol\":1293:1916  function createTransaction(... */\n    tag_8:\n      tag_33\n      0x04\n      dup1\n      calldatasize\n      sub\n      dup2\n      add\n      swap1\n      tag_34\n      swap2\n      swap1\n      tag_35\n      jump\t// in\n    tag_34:\n      tag_36\n      jump\t// in\n    tag_33:\n      mload(0x40)\n      tag_37\n      swap2\n      swap1\n      tag_24\n      jump\t// in\n    tag_37:\n      mload(0x40)\n      dup1\n      swap2\n      sub\n      swap1\n      return\n        /* \"contracts/MultiSig.sol\":419:447  uint public transactionCount */\n    tag_9:\n      tag_38\n      tag_39\n      jump\t// in\n    tag_38:\n      mload(0x40)\n      tag_40\n      swap2\n      swap1\n      tag_24\n      jump\t// in\n    tag_40:\n      mload(0x40)\n      dup1\n      swap2\n      sub\n      swap1\n      return\n        /* \"contracts/MultiSig.sol\":352:375  address[] public owners */\n    tag_14:\n      0x00\n      dup2\n      dup2\n      sload\n      dup2\n      lt\n      tag_41\n      jumpi\n      0x00\n      dup1\n      revert\n    tag_41:\n      swap1\n      0x00\n      mstore\n      keccak256(0x00, 0x20)\n      add\n      0x00\n      swap2\n      pop\n      sload\n      swap1\n      0x0100\n      exp\n      swap1\n      div\n      0xffffffffffffffffffffffffffffffffffffffff\n      and\n      dup2\n      jump\t// out\n        /* \"contracts/MultiSig.sol\":1968:2767  function signTransaction(uint _transactionId) public {... */\n    tag_19:\n        /* \"contracts/MultiSig.sol\":2040:2059  isOwner(msg.sender) */\n      tag_44\n        /* \"contracts/MultiSig.sol\":2048:2058  msg.sender */\n      caller\n        /* \"contracts/MultiSig.sol\":2040:2047  isOwner */\n      tag_45\n        /* \"contracts/MultiSig.sol\":2040:2059  isOwner(msg.sender) */\n      jump\t// in\n    tag_44:\n        /* \"contracts/MultiSig.sol\":2032:2076  require(isOwner(msg.sender), \"Not an owner\") */\n      tag_46\n      jumpi\n      mload(0x40)\n      0x08c379a000000000000000000000000000000000000000000000000000000000\n      dup2\n      mstore\n      0x04\n      add\n      tag_47\n      swap1\n      tag_48\n      jump\t// in\n    tag_47:\n      mload(0x40)\n      dup1\n      swap2\n      sub\n      swap1\n      revert\n    tag_46:\n        /* \"contracts/MultiSig.sol\":2126:2142  transactionCount */\n      sload(0x02)\n        /* \"contracts/MultiSig.sol\":2109:2123  _transactionId */\n      dup2\n        /* \"contracts/MultiSig.sol\":2109:2142  _transactionId < transactionCount */\n      lt\n        /* \"contracts/MultiSig.sol\":2087:2196  require(... */\n      tag_49\n      jumpi\n      mload(0x40)\n      0x08c379a000000000000000000000000000000000000000000000000000000000\n      dup2\n      mstore\n      0x04\n      add\n      tag_50\n      swap1\n      tag_51\n      jump\t// in\n    tag_50:\n      mload(0x40)\n      dup1\n      swap2\n      sub\n      swap1\n      revert\n    tag_49:\n        /* \"contracts/MultiSig.sol\":2207:2238  Transaction storage transaction */\n      0x00\n        /* \"contracts/MultiSig.sol\":2241:2253  transactions */\n      0x03\n        /* \"contracts/MultiSig.sol\":2241:2269  transactions[_transactionId] */\n      0x00\n        /* \"contracts/MultiSig.sol\":2254:2268  _transactionId */\n      dup4\n        /* \"contracts/MultiSig.sol\":2241:2269  transactions[_transactionId] */\n      dup2\n      mstore\n      0x20\n      add\n      swap1\n      dup2\n      mstore\n      0x20\n      add\n      0x00\n      keccak256\n        /* \"contracts/MultiSig.sol\":2207:2269  Transaction storage transaction = transactions[_transactionId] */\n      swap1\n      pop\n        /* \"contracts/MultiSig.sol\":2289:2300  transaction */\n      dup1\n        /* \"contracts/MultiSig.sol\":2289:2309  transaction.executed */\n      0x03\n      add\n      0x00\n      swap1\n      sload\n      swap1\n      0x0100\n      exp\n      swap1\n      div\n      0xff\n      and\n        /* \"contracts/MultiSig.sol\":2288:2309  !transaction.executed */\n      iszero\n        /* \"contracts/MultiSig.sol\":2280:2342  require(!transaction.executed, \"Transaction already executed\") */\n      tag_52\n      jumpi\n      mload(0x40)\n      0x08c379a000000000000000000000000000000000000000000000000000000000\n      dup2\n      mstore\n      0x04\n      add\n      tag_53\n      swap1\n      tag_54\n      jump\t// in\n    tag_53:\n      mload(0x40)\n      dup1\n      swap2\n      sub\n      swap1\n      revert\n    tag_52:\n        /* \"contracts/MultiSig.sol\":2376:2387  transaction */\n      dup1\n        /* \"contracts/MultiSig.sol\":2376:2398  transaction.signatures */\n      0x05\n      add\n        /* \"contracts/MultiSig.sol\":2376:2410  transaction.signatures[msg.sender] */\n      0x00\n        /* \"contracts/MultiSig.sol\":2399:2409  msg.sender */\n      caller\n        /* \"contracts/MultiSig.sol\":2376:2410  transaction.signatures[msg.sender] */\n      0xffffffffffffffffffffffffffffffffffffffff\n      and\n      0xffffffffffffffffffffffffffffffffffffffff\n      and\n      dup2\n      mstore\n      0x20\n      add\n      swap1\n      dup2\n      mstore\n      0x20\n      add\n      0x00\n      keccak256\n      0x00\n      swap1\n      sload\n      swap1\n      0x0100\n      exp\n      swap1\n      div\n      0xff\n      and\n        /* \"contracts/MultiSig.sol\":2375:2410  !transaction.signatures[msg.sender] */\n      iszero\n        /* \"contracts/MultiSig.sol\":2353:2473  require(... */\n      tag_55\n      jumpi\n      mload(0x40)\n      0x08c379a000000000000000000000000000000000000000000000000000000000\n      dup2\n      mstore\n      0x04\n      add\n      tag_56\n      swap1\n      tag_57\n      jump\t// in\n    tag_56:\n      mload(0x40)\n      dup1\n      swap2\n      sub\n      swap1\n      revert\n    tag_55:\n        /* \"contracts/MultiSig.sol\":2523:2527  true */\n      0x01\n        /* \"contracts/MultiSig.sol\":2486:2497  transaction */\n      dup2\n        /* \"contracts/MultiSig.sol\":2486:2508  transaction.signatures */\n      0x05\n      add\n        /* \"contracts/MultiSig.sol\":2486:2520  transaction.signatures[msg.sender] */\n      0x00\n        /* \"contracts/MultiSig.sol\":2509:2519  msg.sender */\n      caller\n        /* \"contracts/MultiSig.sol\":2486:2520  transaction.signatures[msg.sender] */\n      0xffffffffffffffffffffffffffffffffffffffff\n      and\n      0xffffffffffffffffffffffffffffffffffffffff\n      and\n      dup2\n      mstore\n      0x20\n      add\n      swap1\n      dup2\n      mstore\n      0x20\n      add\n      0x00\n      keccak256\n      0x00\n        /* \"contracts/MultiSig.sol\":2486:2527  transaction.signatures[msg.sender] = true */\n      0x0100\n      exp\n      dup2\n      sload\n      dup2\n      0xff\n      mul\n      not\n      and\n      swap1\n      dup4\n      iszero\n      iszero\n      mul\n      or\n      swap1\n      sstore\n      pop\n        /* \"contracts/MultiSig.sol\":2568:2569  1 */\n      0x01\n        /* \"contracts/MultiSig.sol\":2538:2549  transaction */\n      dup2\n        /* \"contracts/MultiSig.sol\":2538:2564  transaction.signatureCount */\n      0x04\n      add\n      0x00\n        /* \"contracts/MultiSig.sol\":2538:2569  transaction.signatureCount += 1 */\n      dup3\n      dup3\n      sload\n      tag_58\n      swap2\n      swap1\n      tag_59\n      jump\t// in\n    tag_58:\n      swap3\n      pop\n      pop\n      dup2\n      swap1\n      sstore\n      pop\n        /* \"contracts/MultiSig.sol\":2605:2619  _transactionId */\n      dup2\n        /* \"contracts/MultiSig.sol\":2587:2632  TransactionSigned(_transactionId, msg.sender) */\n      0x737f6609fa194738ed162051f994c6e9599a830846ea9d72d6501d79871e0981\n        /* \"contracts/MultiSig.sol\":2621:2631  msg.sender */\n      caller\n        /* \"contracts/MultiSig.sol\":2587:2632  TransactionSigned(_transactionId, msg.sender) */\n      mload(0x40)\n      tag_60\n      swap2\n      swap1\n      tag_16\n      jump\t// in\n    tag_60:\n      mload(0x40)\n      dup1\n      swap2\n      sub\n      swap1\n      log2\n        /* \"contracts/MultiSig.sol\":2679:2697  requiredSignatures */\n      sload(0x01)\n        /* \"contracts/MultiSig.sol\":2649:2660  transaction */\n      dup2\n        /* \"contracts/MultiSig.sol\":2649:2675  transaction.signatureCount */\n      0x04\n      add\n      sload\n        /* \"contracts/MultiSig.sol\":2649:2697  transaction.signatureCount >= requiredSignatures */\n      lt\n        /* \"contracts/MultiSig.sol\":2645:2760  if (transaction.signatureCount >= requiredSignatures) {... */\n      tag_61\n      jumpi\n        /* \"contracts/MultiSig.sol\":2714:2748  executeTransaction(_transactionId) */\n      tag_62\n        /* \"contracts/MultiSig.sol\":2733:2747  _transactionId */\n      dup3\n        /* \"contracts/MultiSig.sol\":2714:2732  executeTransaction */\n      tag_63\n        /* \"contracts/MultiSig.sol\":2714:2748  executeTransaction(_transactionId) */\n      jump\t// in\n    tag_62:\n        /* \"contracts/MultiSig.sol\":2645:2760  if (transaction.signatureCount >= requiredSignatures) {... */\n    tag_61:\n        /* \"contracts/MultiSig.sol\":2021:2767  {... */\n      pop\n        /* \"contracts/MultiSig.sol\":1968:2767  function signTransaction(uint _transactionId) public {... */\n      pop\n      jump\t// out\n        /* \"contracts/MultiSig.sol\":5984:6396  function getSignaturesLeft(uint _transactionId) public view returns (uint) {... */\n    tag_22:\n        /* \"contracts/MultiSig.sol\":6053:6057  uint */\n      0x00\n        /* \"contracts/MultiSig.sol\":6109:6125  transactionCount */\n      sload(0x02)\n        /* \"contracts/MultiSig.sol\":6092:6106  _transactionId */\n      dup3\n        /* \"contracts/MultiSig.sol\":6092:6125  _transactionId < transactionCount */\n      lt\n        /* \"contracts/MultiSig.sol\":6070:6179  require(... */\n      tag_65\n      jumpi\n      mload(0x40)\n      0x08c379a000000000000000000000000000000000000000000000000000000000\n      dup2\n      mstore\n      0x04\n      add\n      tag_66\n      swap1\n      tag_51\n      jump\t// in\n    tag_66:\n      mload(0x40)\n      dup1\n      swap2\n      sub\n      swap1\n      revert\n    tag_65:\n        /* \"contracts/MultiSig.sol\":6190:6221  Transaction storage transaction */\n      0x00\n        /* \"contracts/MultiSig.sol\":6224:6236  transactions */\n      0x03\n        /* \"contracts/MultiSig.sol\":6224:6252  transactions[_transactionId] */\n      0x00\n        /* \"contracts/MultiSig.sol\":6237:6251  _transactionId */\n      dup5\n        /* \"contracts/MultiSig.sol\":6224:6252  transactions[_transactionId] */\n      dup2\n      mstore\n      0x20\n      add\n      swap1\n      dup2\n      mstore\n      0x20\n      add\n      0x00\n      keccak256\n        /* \"contracts/MultiSig.sol\":6190:6252  Transaction storage transaction = transactions[_transactionId] */\n      swap1\n      pop\n        /* \"contracts/MultiSig.sol\":6267:6278  transaction */\n      dup1\n        /* \"contracts/MultiSig.sol\":6267:6287  transaction.executed */\n      0x03\n      add\n      0x00\n      swap1\n      sload\n      swap1\n      0x0100\n      exp\n      swap1\n      div\n      0xff\n      and\n        /* \"contracts/MultiSig.sol\":6263:6324  if (transaction.executed) {... */\n      iszero\n      tag_67\n      jumpi\n        /* \"contracts/MultiSig.sol\":6311:6312  0 */\n      0x00\n        /* \"contracts/MultiSig.sol\":6304:6312  return 0 */\n      swap2\n      pop\n      pop\n      jump(tag_64)\n        /* \"contracts/MultiSig.sol\":6263:6324  if (transaction.executed) {... */\n    tag_67:\n        /* \"contracts/MultiSig.sol\":6362:6373  transaction */\n      dup1\n        /* \"contracts/MultiSig.sol\":6362:6388  transaction.signatureCount */\n      0x04\n      add\n      sload\n        /* \"contracts/MultiSig.sol\":6341:6359  requiredSignatures */\n      sload(0x01)\n        /* \"contracts/MultiSig.sol\":6341:6388  requiredSignatures - transaction.signatureCount */\n      tag_68\n      swap2\n      swap1\n      tag_69\n      jump\t// in\n    tag_68:\n        /* \"contracts/MultiSig.sol\":6334:6388  return requiredSignatures - transaction.signatureCount */\n      swap2\n      pop\n      pop\n        /* \"contracts/MultiSig.sol\":5984:6396  function getSignaturesLeft(uint _transactionId) public view returns (uint) {... */\n    tag_64:\n      swap2\n      swap1\n      pop\n      jump\t// out\n        /* \"contracts/MultiSig.sol\":382:412  uint public requiredSignatures */\n    tag_26:\n      sload(0x01)\n      dup2\n      jump\t// out\n        /* \"contracts/MultiSig.sol\":454:502  mapping(uint => Transaction) public transactions */\n    tag_30:\n      mstore(0x20, 0x03)\n      dup1\n      0x00\n      mstore\n      keccak256(0x00, 0x40)\n      0x00\n      swap2\n      pop\n      swap1\n      pop\n      dup1\n      0x00\n      add\n      0x00\n      swap1\n      sload\n      swap1\n      0x0100\n      exp\n      swap1\n      div\n      0xffffffffffffffffffffffffffffffffffffffff\n      and\n      swap1\n      dup1\n      0x01\n      add\n      sload\n      swap1\n      dup1\n      0x02\n      add\n      dup1\n      sload\n      tag_70\n      swap1\n      tag_71\n      jump\t// in\n    tag_70:\n      dup1\n      0x1f\n      add\n      0x20\n      dup1\n      swap2\n      div\n      mul\n      0x20\n      add\n      mload(0x40)\n      swap1\n      dup2\n      add\n      0x40\n      mstore\n      dup1\n      swap3\n      swap2\n      swap1\n      dup2\n      dup2\n      mstore\n      0x20\n      add\n      dup3\n      dup1\n      sload\n      tag_72\n      swap1\n      tag_71\n      jump\t// in\n    tag_72:\n      dup1\n      iszero\n      tag_73\n      jumpi\n      dup1\n      0x1f\n      lt\n      tag_74\n      jumpi\n      0x0100\n      dup1\n      dup4\n      sload\n      div\n      mul\n      dup4\n      mstore\n      swap2\n      0x20\n      add\n      swap2\n      jump(tag_73)\n    tag_74:\n      dup3\n      add\n      swap2\n      swap1\n      0x00\n      mstore\n      keccak256(0x00, 0x20)\n      swap1\n    tag_75:\n      dup2\n      sload\n      dup2\n      mstore\n      swap1\n      0x01\n      add\n      swap1\n      0x20\n      add\n      dup1\n      dup4\n      gt\n      tag_75\n      jumpi\n      dup3\n      swap1\n      sub\n      0x1f\n      and\n      dup3\n      add\n      swap2\n    tag_73:\n      pop\n      pop\n      pop\n      pop\n      pop\n      swap1\n      dup1\n      0x03\n      add\n      0x00\n      swap1\n      sload\n      swap1\n      0x0100\n      exp\n      swap1\n      div\n      0xff\n      and\n      swap1\n      dup1\n      0x04\n      add\n      sload\n      swap1\n      pop\n      dup6\n      jump\t// out\n        /* \"contracts/MultiSig.sol\":1293:1916  function createTransaction(... */\n    tag_36:\n        /* \"contracts/MultiSig.sol\":1416:1434  uint transactionId */\n      0x00\n        /* \"contracts/MultiSig.sol\":1455:1474  isOwner(msg.sender) */\n      tag_77\n        /* \"contracts/MultiSig.sol\":1463:1473  msg.sender */\n      caller\n        /* \"contracts/MultiSig.sol\":1455:1462  isOwner */\n      tag_45\n        /* \"contracts/MultiSig.sol\":1455:1474  isOwner(msg.sender) */\n      jump\t// in\n    tag_77:\n        /* \"contracts/MultiSig.sol\":1447:1491  require(isOwner(msg.sender), \"Not an owner\") */\n      tag_78\n      jumpi\n      mload(0x40)\n      0x08c379a000000000000000000000000000000000000000000000000000000000\n      dup2\n      mstore\n      0x04\n      add\n      tag_79\n      swap1\n      tag_48\n      jump\t// in\n    tag_79:\n      mload(0x40)\n      dup1\n      swap2\n      sub\n      swap1\n      revert\n    tag_78:\n        /* \"contracts/MultiSig.sol\":1518:1534  transactionCount */\n      sload(0x02)\n        /* \"contracts/MultiSig.sol\":1502:1534  transactionId = transactionCount */\n      swap1\n      pop\n        /* \"contracts/MultiSig.sol\":1545:1579  Transaction storage newTransaction */\n      0x00\n        /* \"contracts/MultiSig.sol\":1582:1594  transactions */\n      0x03\n        /* \"contracts/MultiSig.sol\":1582:1609  transactions[transactionId] */\n      0x00\n        /* \"contracts/MultiSig.sol\":1595:1608  transactionId */\n      dup4\n        /* \"contracts/MultiSig.sol\":1582:1609  transactions[transactionId] */\n      dup2\n      mstore\n      0x20\n      add\n      swap1\n      dup2\n      mstore\n      0x20\n      add\n      0x00\n      keccak256\n        /* \"contracts/MultiSig.sol\":1545:1609  Transaction storage newTransaction = transactions[transactionId] */\n      swap1\n      pop\n        /* \"contracts/MultiSig.sol\":1640:1643  _to */\n      dup5\n        /* \"contracts/MultiSig.sol\":1620:1634  newTransaction */\n      dup2\n        /* \"contracts/MultiSig.sol\":1620:1637  newTransaction.to */\n      0x00\n      add\n      0x00\n        /* \"contracts/MultiSig.sol\":1620:1643  newTransaction.to = _to */\n      0x0100\n      exp\n      dup2\n      sload\n      dup2\n      0xffffffffffffffffffffffffffffffffffffffff\n      mul\n      not\n      and\n      swap1\n      dup4\n      0xffffffffffffffffffffffffffffffffffffffff\n      and\n      mul\n      or\n      swap1\n      sstore\n      pop\n        /* \"contracts/MultiSig.sol\":1677:1683  _value */\n      dup4\n        /* \"contracts/MultiSig.sol\":1654:1668  newTransaction */\n      dup2\n        /* \"contracts/MultiSig.sol\":1654:1674  newTransaction.value */\n      0x01\n      add\n        /* \"contracts/MultiSig.sol\":1654:1683  newTransaction.value = _value */\n      dup2\n      swap1\n      sstore\n      pop\n        /* \"contracts/MultiSig.sol\":1716:1721  _data */\n      dup3\n        /* \"contracts/MultiSig.sol\":1694:1708  newTransaction */\n      dup2\n        /* \"contracts/MultiSig.sol\":1694:1713  newTransaction.data */\n      0x02\n      add\n        /* \"contracts/MultiSig.sol\":1694:1721  newTransaction.data = _data */\n      swap1\n      dup2\n      tag_80\n      swap2\n      swap1\n      tag_81\n      jump\t// in\n    tag_80:\n      pop\n        /* \"contracts/MultiSig.sol\":1758:1763  false */\n      0x00\n        /* \"contracts/MultiSig.sol\":1732:1746  newTransaction */\n      dup2\n        /* \"contracts/MultiSig.sol\":1732:1755  newTransaction.executed */\n      0x03\n      add\n      0x00\n        /* \"contracts/MultiSig.sol\":1732:1763  newTransaction.executed = false */\n      0x0100\n      exp\n      dup2\n      sload\n      dup2\n      0xff\n      mul\n      not\n      and\n      swap1\n      dup4\n      iszero\n      iszero\n      mul\n      or\n      swap1\n      sstore\n      pop\n        /* \"contracts/MultiSig.sol\":1806:1807  0 */\n      0x00\n        /* \"contracts/MultiSig.sol\":1774:1788  newTransaction */\n      dup2\n        /* \"contracts/MultiSig.sol\":1774:1803  newTransaction.signatureCount */\n      0x04\n      add\n        /* \"contracts/MultiSig.sol\":1774:1807  newTransaction.signatureCount = 0 */\n      dup2\n      swap1\n      sstore\n      pop\n        /* \"contracts/MultiSig.sol\":1838:1839  1 */\n      0x01\n        /* \"contracts/MultiSig.sol\":1818:1834  transactionCount */\n      0x02\n      0x00\n        /* \"contracts/MultiSig.sol\":1818:1839  transactionCount += 1 */\n      dup3\n      dup3\n      sload\n      tag_82\n      swap2\n      swap1\n      tag_59\n      jump\t// in\n    tag_82:\n      swap3\n      pop\n      pop\n      dup2\n      swap1\n      sstore\n      pop\n        /* \"contracts/MultiSig.sol\":1874:1887  transactionId */\n      dup2\n        /* \"contracts/MultiSig.sol\":1855:1908  TransactionCreated(transactionId, _to, _value, _data) */\n      0x453e07a951b5abb44cc647534a150065e3a308fec0dc01fda6ca43a4984f835b\n        /* \"contracts/MultiSig.sol\":1889:1892  _to */\n      dup7\n        /* \"contracts/MultiSig.sol\":1894:1900  _value */\n      dup7\n        /* \"contracts/MultiSig.sol\":1902:1907  _data */\n      dup7\n        /* \"contracts/MultiSig.sol\":1855:1908  TransactionCreated(transactionId, _to, _value, _data) */\n      mload(0x40)\n      tag_83\n      swap4\n      swap3\n      swap2\n      swap1\n      tag_84\n      jump\t// in\n    tag_83:\n      mload(0x40)\n      dup1\n      swap2\n      sub\n      swap1\n      log2\n        /* \"contracts/MultiSig.sol\":1436:1916  {... */\n      pop\n        /* \"contracts/MultiSig.sol\":1293:1916  function createTransaction(... */\n      swap4\n      swap3\n      pop\n      pop\n      pop\n      jump\t// out\n        /* \"contracts/MultiSig.sol\":419:447  uint public transactionCount */\n    tag_39:\n      sload(0x02)\n      dup2\n      jump\t// out\n        /* \"contracts/MultiSig.sol\":6454:6699  function isOwner(address _address) internal view returns (bool) {... */\n    tag_45:\n        /* \"contracts/MultiSig.sol\":6512:6516  bool */\n      0x00\n        /* \"contracts/MultiSig.sol\":6534:6540  uint i */\n      dup1\n        /* \"contracts/MultiSig.sol\":6543:6544  0 */\n      0x00\n        /* \"contracts/MultiSig.sol\":6534:6544  uint i = 0 */\n      swap1\n      pop\n        /* \"contracts/MultiSig.sol\":6529:6669  for (uint i = 0; i < owners.length; i++) {... */\n    tag_86:\n        /* \"contracts/MultiSig.sol\":6550:6556  owners */\n      0x00\n        /* \"contracts/MultiSig.sol\":6550:6563  owners.length */\n      dup1\n      sload\n      swap1\n      pop\n        /* \"contracts/MultiSig.sol\":6546:6547  i */\n      dup2\n        /* \"contracts/MultiSig.sol\":6546:6563  i < owners.length */\n      lt\n        /* \"contracts/MultiSig.sol\":6529:6669  for (uint i = 0; i < owners.length; i++) {... */\n      iszero\n      tag_87\n      jumpi\n        /* \"contracts/MultiSig.sol\":6602:6610  _address */\n      dup3\n        /* \"contracts/MultiSig.sol\":6589:6610  owners[i] == _address */\n      0xffffffffffffffffffffffffffffffffffffffff\n      and\n        /* \"contracts/MultiSig.sol\":6589:6595  owners */\n      0x00\n        /* \"contracts/MultiSig.sol\":6596:6597  i */\n      dup3\n        /* \"contracts/MultiSig.sol\":6589:6598  owners[i] */\n      dup2\n      sload\n      dup2\n      lt\n      tag_89\n      jumpi\n      tag_90\n      tag_91\n      jump\t// in\n    tag_90:\n    tag_89:\n      swap1\n      0x00\n      mstore\n      keccak256(0x00, 0x20)\n      add\n      0x00\n      swap1\n      sload\n      swap1\n      0x0100\n      exp\n      swap1\n      div\n      0xffffffffffffffffffffffffffffffffffffffff\n      and\n        /* \"contracts/MultiSig.sol\":6589:6610  owners[i] == _address */\n      0xffffffffffffffffffffffffffffffffffffffff\n      and\n      sub\n        /* \"contracts/MultiSig.sol\":6585:6658  if (owners[i] == _address) {... */\n      tag_93\n      jumpi\n        /* \"contracts/MultiSig.sol\":6638:6642  true */\n      0x01\n        /* \"contracts/MultiSig.sol\":6631:6642  return true */\n      swap2\n      pop\n      pop\n      jump(tag_85)\n        /* \"contracts/MultiSig.sol\":6585:6658  if (owners[i] == _address) {... */\n    tag_93:\n        /* \"contracts/MultiSig.sol\":6565:6568  i++ */\n      dup1\n      dup1\n      0x01\n      add\n      swap2\n      pop\n      pop\n        /* \"contracts/MultiSig.sol\":6529:6669  for (uint i = 0; i < owners.length; i++) {... */\n      jump(tag_86)\n    tag_87:\n      pop\n        /* \"contracts/MultiSig.sol\":6686:6691  false */\n      0x00\n        /* \"contracts/MultiSig.sol\":6679:6691  return false */\n      swap1\n      pop\n        /* \"contracts/MultiSig.sol\":6454:6699  function isOwner(address _address) internal view returns (bool) {... */\n    tag_85:\n      swap2\n      swap1\n      pop\n      jump\t// out\n        /* \"contracts/MultiSig.sol\":3340:5128  function executeTransaction(uint _transactionId) internal {... */\n    tag_63:\n        /* \"contracts/MultiSig.sol\":3409:3440  Transaction storage transaction */\n      0x00\n        /* \"contracts/MultiSig.sol\":3443:3455  transactions */\n      0x03\n        /* \"contracts/MultiSig.sol\":3443:3471  transactions[_transactionId] */\n      0x00\n        /* \"contracts/MultiSig.sol\":3456:3470  _transactionId */\n      dup4\n        /* \"contracts/MultiSig.sol\":3443:3471  transactions[_transactionId] */\n      dup2\n      mstore\n      0x20\n      add\n      swap1\n      dup2\n      mstore\n      0x20\n      add\n      0x00\n      keccak256\n        /* \"contracts/MultiSig.sol\":3409:3471  Transaction storage transaction = transactions[_transactionId] */\n      swap1\n      pop\n        /* \"contracts/MultiSig.sol\":3491:3502  transaction */\n      dup1\n        /* \"contracts/MultiSig.sol\":3491:3511  transaction.executed */\n      0x03\n      add\n      0x00\n      swap1\n      sload\n      swap1\n      0x0100\n      exp\n      swap1\n      div\n      0xff\n      and\n        /* \"contracts/MultiSig.sol\":3490:3511  !transaction.executed */\n      iszero\n        /* \"contracts/MultiSig.sol\":3482:3544  require(!transaction.executed, \"Transaction already executed\") */\n      tag_95\n      jumpi\n      mload(0x40)\n      0x08c379a000000000000000000000000000000000000000000000000000000000\n      dup2\n      mstore\n      0x04\n      add\n      tag_96\n      swap1\n      tag_54\n      jump\t// in\n    tag_96:\n      mload(0x40)\n      dup1\n      swap2\n      sub\n      swap1\n      revert\n    tag_95:\n        /* \"contracts/MultiSig.sol\":3607:3625  requiredSignatures */\n      sload(0x01)\n        /* \"contracts/MultiSig.sol\":3577:3588  transaction */\n      dup2\n        /* \"contracts/MultiSig.sol\":3577:3603  transaction.signatureCount */\n      0x04\n      add\n      sload\n        /* \"contracts/MultiSig.sol\":3577:3625  transaction.signatureCount >= requiredSignatures */\n      lt\n      iszero\n        /* \"contracts/MultiSig.sol\":3555:3674  require(... */\n      tag_97\n      jumpi\n      mload(0x40)\n      0x08c379a000000000000000000000000000000000000000000000000000000000\n      dup2\n      mstore\n      0x04\n      add\n      tag_98\n      swap1\n      tag_99\n      jump\t// in\n    tag_98:\n      mload(0x40)\n      dup1\n      swap2\n      sub\n      swap1\n      revert\n    tag_97:\n        /* \"contracts/MultiSig.sol\":3719:3720  0 */\n      0x00\n        /* \"contracts/MultiSig.sol\":3693:3721  transaction.to != address(0) */\n      0xffffffffffffffffffffffffffffffffffffffff\n      and\n        /* \"contracts/MultiSig.sol\":3693:3704  transaction */\n      dup2\n        /* \"contracts/MultiSig.sol\":3693:3707  transaction.to */\n      0x00\n      add\n      0x00\n      swap1\n      sload\n      swap1\n      0x0100\n      exp\n      swap1\n      div\n      0xffffffffffffffffffffffffffffffffffffffff\n      and\n        /* \"contracts/MultiSig.sol\":3693:3721  transaction.to != address(0) */\n      0xffffffffffffffffffffffffffffffffffffffff\n      and\n      sub\n        /* \"contracts/MultiSig.sol\":3685:3741  require(transaction.to != address(0), \"Invalid address\") */\n      tag_100\n      jumpi\n      mload(0x40)\n      0x08c379a000000000000000000000000000000000000000000000000000000000\n      dup2\n      mstore\n      0x04\n      add\n      tag_101\n      swap1\n      tag_102\n      jump\t// in\n    tag_101:\n      mload(0x40)\n      dup1\n      swap2\n      sub\n      swap1\n      revert\n    tag_100:\n        /* \"contracts/MultiSig.sol\":3777:3781  true */\n      0x01\n        /* \"contracts/MultiSig.sol\":3754:3765  transaction */\n      dup2\n        /* \"contracts/MultiSig.sol\":3754:3774  transaction.executed */\n      0x03\n      add\n      0x00\n        /* \"contracts/MultiSig.sol\":3754:3781  transaction.executed = true */\n      0x0100\n      exp\n      dup2\n      sload\n      dup2\n      0xff\n      mul\n      not\n      and\n      swap1\n      dup4\n      iszero\n      iszero\n      mul\n      or\n      swap1\n      sstore\n      pop\n        /* \"contracts/MultiSig.sol\":3825:3826  0 */\n      0x00\n        /* \"contracts/MultiSig.sol\":3798:3809  transaction */\n      dup2\n        /* \"contracts/MultiSig.sol\":3798:3814  transaction.data */\n      0x02\n      add\n        /* \"contracts/MultiSig.sol\":3798:3821  transaction.data.length */\n      dup1\n      sload\n      tag_103\n      swap1\n      tag_71\n      jump\t// in\n    tag_103:\n      swap1\n      pop\n        /* \"contracts/MultiSig.sol\":3798:3826  transaction.data.length == 0 */\n      sub\n        /* \"contracts/MultiSig.sol\":3794:5068  if (transaction.data.length == 0) {... */\n      tag_104\n      jumpi\n        /* \"contracts/MultiSig.sol\":3844:3856  bool success */\n      0x00\n        /* \"contracts/MultiSig.sol\":3862:3873  transaction */\n      dup2\n        /* \"contracts/MultiSig.sol\":3862:3876  transaction.to */\n      0x00\n      add\n      0x00\n      swap1\n      sload\n      swap1\n      0x0100\n      exp\n      swap1\n      div\n      0xffffffffffffffffffffffffffffffffffffffff\n      and\n        /* \"contracts/MultiSig.sol\":3862:3881  transaction.to.call */\n      0xffffffffffffffffffffffffffffffffffffffff\n      and\n        /* \"contracts/MultiSig.sol\":3889:3900  transaction */\n      dup3\n        /* \"contracts/MultiSig.sol\":3889:3906  transaction.value */\n      0x01\n      add\n      sload\n        /* \"contracts/MultiSig.sol\":3862:3943  transaction.to.call{value: transaction.value}(... */\n      mload(0x40)\n      tag_105\n      swap1\n      tag_106\n      jump\t// in\n    tag_105:\n      0x00\n      mload(0x40)\n      dup1\n      dup4\n      sub\n      dup2\n      dup6\n      dup8\n      gas\n      call\n      swap3\n      pop\n      pop\n      pop\n      returndatasize\n      dup1\n      0x00\n      dup2\n      eq\n      tag_109\n      jumpi\n      mload(0x40)\n      swap2\n      pop\n      and(add(returndatasize, 0x3f), not(0x1f))\n      dup3\n      add\n      0x40\n      mstore\n      returndatasize\n      dup3\n      mstore\n      returndatasize\n      0x00\n      0x20\n      dup5\n      add\n      returndatacopy\n      jump(tag_108)\n    tag_109:\n      0x60\n      swap2\n      pop\n    tag_108:\n      pop\n        /* \"contracts/MultiSig.sol\":3843:3943  (bool success, ) = transaction.to.call{value: transaction.value}(... */\n      pop\n      swap1\n      pop\n        /* \"contracts/MultiSig.sol\":3966:3973  success */\n      dup1\n        /* \"contracts/MultiSig.sol\":3958:4006  require(success, \"Transaction execution failed\") */\n      tag_110\n      jumpi\n      mload(0x40)\n      0x08c379a000000000000000000000000000000000000000000000000000000000\n      dup2\n      mstore\n      0x04\n      add\n      tag_111\n      swap1\n      tag_112\n      jump\t// in\n    tag_111:\n      mload(0x40)\n      dup1\n      swap2\n      sub\n      swap1\n      revert\n    tag_110:\n        /* \"contracts/MultiSig.sol\":3828:4018  {... */\n      pop\n        /* \"contracts/MultiSig.sol\":3794:5068  if (transaction.data.length == 0) {... */\n      jump(tag_113)\n    tag_104:\n        /* \"contracts/MultiSig.sol\":4064:4065  0 */\n      0x00\n        /* \"contracts/MultiSig.sol\":4043:4054  transaction */\n      dup2\n        /* \"contracts/MultiSig.sol\":4043:4060  transaction.value */\n      0x01\n      add\n      sload\n        /* \"contracts/MultiSig.sol\":4043:4065  transaction.value == 0 */\n      sub\n        /* \"contracts/MultiSig.sol\":4039:4860  if (transaction.value == 0) {... */\n      tag_114\n      jumpi\n        /* \"contracts/MultiSig.sol\":4124:4137  address token */\n      0x00\n        /* \"contracts/MultiSig.sol\":4140:4151  transaction */\n      dup2\n        /* \"contracts/MultiSig.sol\":4140:4154  transaction.to */\n      0x00\n      add\n      0x00\n      swap1\n      sload\n      swap1\n      0x0100\n      exp\n      swap1\n      div\n      0xffffffffffffffffffffffffffffffffffffffff\n      and\n        /* \"contracts/MultiSig.sol\":4124:4154  address token = transaction.to */\n      swap1\n      pop\n        /* \"contracts/MultiSig.sol\":4311:4321  bytes4 sig */\n      0x00\n        /* \"contracts/MultiSig.sol\":4324:4366  extractFunctionSignature(transaction.data) */\n      tag_115\n        /* \"contracts/MultiSig.sol\":4349:4360  transaction */\n      dup4\n        /* \"contracts/MultiSig.sol\":4349:4365  transaction.data */\n      0x02\n      add\n        /* \"contracts/MultiSig.sol\":4324:4366  extractFunctionSignature(transaction.data) */\n      dup1\n      sload\n      tag_116\n      swap1\n      tag_71\n      jump\t// in\n    tag_116:\n      dup1\n      0x1f\n      add\n      0x20\n      dup1\n      swap2\n      div\n      mul\n      0x20\n      add\n      mload(0x40)\n      swap1\n      dup2\n      add\n      0x40\n      mstore\n      dup1\n      swap3\n      swap2\n      swap1\n      dup2\n      dup2\n      mstore\n      0x20\n      add\n      dup3\n      dup1\n      sload\n      tag_117\n      swap1\n      tag_71\n      jump\t// in\n    tag_117:\n      dup1\n      iszero\n      tag_118\n      jumpi\n      dup1\n      0x1f\n      lt\n      tag_119\n      jumpi\n      0x0100\n      dup1\n      dup4\n      sload\n      div\n      mul\n      dup4\n      mstore\n      swap2\n      0x20\n      add\n      swap2\n      jump(tag_118)\n    tag_119:\n      dup3\n      add\n      swap2\n      swap1\n      0x00\n      mstore\n      keccak256(0x00, 0x20)\n      swap1\n    tag_120:\n      dup2\n      sload\n      dup2\n      mstore\n      swap1\n      0x01\n      add\n      swap1\n      0x20\n      add\n      dup1\n      dup4\n      gt\n      tag_120\n      jumpi\n      dup3\n      swap1\n      sub\n      0x1f\n      and\n      dup3\n      add\n      swap2\n    tag_118:\n      pop\n      pop\n      pop\n      pop\n      pop\n        /* \"contracts/MultiSig.sol\":4324:4348  extractFunctionSignature */\n      tag_121\n        /* \"contracts/MultiSig.sol\":4324:4366  extractFunctionSignature(transaction.data) */\n      jump\t// in\n    tag_115:\n        /* \"contracts/MultiSig.sol\":4311:4366  bytes4 sig = extractFunctionSignature(transaction.data) */\n      swap1\n      pop\n        /* \"contracts/MultiSig.sol\":4429:4467  keccak256(\"transfer(address,uint256)\") */\n      0xa9059cbb2ab09eb219583f4a59a5d0623ade346d962bcd4e46b11da047c9049b\n        /* \"contracts/MultiSig.sol\":4415:4468  sig == bytes4(keccak256(\"transfer(address,uint256)\")) */\n      not(0xffffffffffffffffffffffffffffffffffffffffffffffffffffffff)\n      and\n        /* \"contracts/MultiSig.sol\":4415:4418  sig */\n      dup2\n        /* \"contracts/MultiSig.sol\":4415:4468  sig == bytes4(keccak256(\"transfer(address,uint256)\")) */\n      not(0xffffffffffffffffffffffffffffffffffffffffffffffffffffffff)\n      and\n      eq\n        /* \"contracts/MultiSig.sol\":4385:4538  require(... */\n      tag_122\n      jumpi\n      mload(0x40)\n      0x08c379a000000000000000000000000000000000000000000000000000000000\n      dup2\n      mstore\n      0x04\n      add\n      tag_123\n      swap1\n      tag_124\n      jump\t// in\n    tag_123:\n      mload(0x40)\n      dup1\n      swap2\n      sub\n      swap1\n      revert\n    tag_122:\n        /* \"contracts/MultiSig.sol\":4584:4598  uint256 amount */\n      0x00\n        /* \"contracts/MultiSig.sol\":4602:4678  decodeTransferData(... */\n      tag_125\n        /* \"contracts/MultiSig.sol\":4643:4654  transaction */\n      dup5\n        /* \"contracts/MultiSig.sol\":4643:4659  transaction.data */\n      0x02\n      add\n        /* \"contracts/MultiSig.sol\":4602:4678  decodeTransferData(... */\n      dup1\n      sload\n      tag_126\n      swap1\n      tag_71\n      jump\t// in\n    tag_126:\n      dup1\n      0x1f\n      add\n      0x20\n      dup1\n      swap2\n      div\n      mul\n      0x20\n      add\n      mload(0x40)\n      swap1\n      dup2\n      add\n      0x40\n      mstore\n      dup1\n      swap3\n      swap2\n      swap1\n      dup2\n      dup2\n      mstore\n      0x20\n      add\n      dup3\n      dup1\n      sload\n      tag_127\n      swap1\n      tag_71\n      jump\t// in\n    tag_127:\n      dup1\n      iszero\n      tag_128\n      jumpi\n      dup1\n      0x1f\n      lt\n      tag_129\n      jumpi\n      0x0100\n      dup1\n      dup4\n      sload\n      div\n      mul\n      dup4\n      mstore\n      swap2\n      0x20\n      add\n      swap2\n      jump(tag_128)\n    tag_129:\n      dup3\n      add\n      swap2\n      swap1\n      0x00\n      mstore\n      keccak256(0x00, 0x20)\n      swap1\n    tag_130:\n      dup2\n      sload\n      dup2\n      mstore\n      swap1\n      0x01\n      add\n      swap1\n      0x20\n      add\n      dup1\n      dup4\n      gt\n      tag_130\n      jumpi\n      dup3\n      swap1\n      sub\n      0x1f\n      and\n      dup3\n      add\n      swap2\n    tag_128:\n      pop\n      pop\n      pop\n      pop\n      pop\n        /* \"contracts/MultiSig.sol\":4602:4620  decodeTransferData */\n      tag_131\n        /* \"contracts/MultiSig.sol\":4602:4678  decodeTransferData(... */\n      jump\t// in\n    tag_125:\n        /* \"contracts/MultiSig.sol\":4559:4678  (, /*address recipient*/ uint256 amount) = decodeTransferData(... */\n      swap2\n      pop\n      pop\n        /* \"contracts/MultiSig.sol\":4768:4774  amount */\n      dup1\n        /* \"contracts/MultiSig.sol\":4727:4764  getTokenBalance(token, address(this)) */\n      tag_132\n        /* \"contracts/MultiSig.sol\":4743:4748  token */\n      dup5\n        /* \"contracts/MultiSig.sol\":4758:4762  this */\n      address\n        /* \"contracts/MultiSig.sol\":4727:4742  getTokenBalance */\n      tag_133\n        /* \"contracts/MultiSig.sol\":4727:4764  getTokenBalance(token, address(this)) */\n      jump\t// in\n    tag_132:\n        /* \"contracts/MultiSig.sol\":4727:4774  getTokenBalance(token, address(this)) >= amount */\n      lt\n      iszero\n        /* \"contracts/MultiSig.sol\":4697:4844  require(... */\n      tag_134\n      jumpi\n      mload(0x40)\n      0x08c379a000000000000000000000000000000000000000000000000000000000\n      dup2\n      mstore\n      0x04\n      add\n      tag_135\n      swap1\n      tag_136\n      jump\t// in\n    tag_135:\n      mload(0x40)\n      dup1\n      swap2\n      sub\n      swap1\n      revert\n    tag_134:\n        /* \"contracts/MultiSig.sol\":4067:4860  {... */\n      pop\n      pop\n      pop\n        /* \"contracts/MultiSig.sol\":4039:4860  if (transaction.value == 0) {... */\n    tag_114:\n        /* \"contracts/MultiSig.sol\":4877:4889  bool success */\n      0x00\n        /* \"contracts/MultiSig.sol\":4924:4935  transaction */\n      dup2\n        /* \"contracts/MultiSig.sol\":4924:4938  transaction.to */\n      0x00\n      add\n      0x00\n      swap1\n      sload\n      swap1\n      0x0100\n      exp\n      swap1\n      div\n      0xffffffffffffffffffffffffffffffffffffffff\n      and\n        /* \"contracts/MultiSig.sol\":4924:4943  transaction.to.call */\n      0xffffffffffffffffffffffffffffffffffffffff\n      and\n        /* \"contracts/MultiSig.sol\":4962:4973  transaction */\n      dup3\n        /* \"contracts/MultiSig.sol\":4962:4978  transaction.data */\n      0x02\n      add\n        /* \"contracts/MultiSig.sol\":4924:4993  transaction.to.call(... */\n      mload(0x40)\n      tag_137\n      swap2\n      swap1\n      tag_138\n      jump\t// in\n    tag_137:\n      0x00\n      mload(0x40)\n      dup1\n      dup4\n      sub\n      dup2\n      0x00\n      dup7\n      gas\n      call\n      swap2\n      pop\n      pop\n      returndatasize\n      dup1\n      0x00\n      dup2\n      eq\n      tag_141\n      jumpi\n      mload(0x40)\n      swap2\n      pop\n      and(add(returndatasize, 0x3f), not(0x1f))\n      dup3\n      add\n      0x40\n      mstore\n      returndatasize\n      dup3\n      mstore\n      returndatasize\n      0x00\n      0x20\n      dup5\n      add\n      returndatacopy\n      jump(tag_140)\n    tag_141:\n      0x60\n      swap2\n      pop\n    tag_140:\n      pop\n        /* \"contracts/MultiSig.sol\":4876:4993  (bool success /* bytes memory returnData*/, ) = transaction.to.call(... */\n      pop\n      swap1\n      pop\n        /* \"contracts/MultiSig.sol\":5016:5023  success */\n      dup1\n        /* \"contracts/MultiSig.sol\":5008:5056  require(success, \"Transaction execution failed\") */\n      tag_142\n      jumpi\n      mload(0x40)\n      0x08c379a000000000000000000000000000000000000000000000000000000000\n      dup2\n      mstore\n      0x04\n      add\n      tag_143\n      swap1\n      tag_112\n      jump\t// in\n    tag_143:\n      mload(0x40)\n      dup1\n      swap2\n      sub\n      swap1\n      revert\n    tag_142:\n        /* \"contracts/MultiSig.sol\":4024:5068  {... */\n      pop\n        /* \"contracts/MultiSig.sol\":3794:5068  if (transaction.data.length == 0) {... */\n    tag_113:\n        /* \"contracts/MultiSig.sol\":5105:5119  _transactionId */\n      dup2\n        /* \"contracts/MultiSig.sol\":5085:5120  TransactionExecuted(_transactionId) */\n      0x15ed165a284872ea7017f03df402a0cadfbfab588320ffaf83f160c2f82781c7\n      mload(0x40)\n      mload(0x40)\n      dup1\n      swap2\n      sub\n      swap1\n      log2\n        /* \"contracts/MultiSig.sol\":3398:5128  {... */\n      pop\n        /* \"contracts/MultiSig.sol\":3340:5128  function executeTransaction(uint _transactionId) internal {... */\n      pop\n      jump\t// out\n        /* \"contracts/MultiSig.sol\":5136:5465  function extractFunctionSignature(... */\n    tag_121:\n        /* \"contracts/MultiSig.sol\":5228:5234  bytes4 */\n      0x00\n        /* \"contracts/MultiSig.sol\":5270:5271  4 */\n      0x04\n        /* \"contracts/MultiSig.sol\":5255:5259  data */\n      dup3\n        /* \"contracts/MultiSig.sol\":5255:5266  data.length */\n      mload\n        /* \"contracts/MultiSig.sol\":5255:5271  data.length >= 4 */\n      lt\n      iszero\n        /* \"contracts/MultiSig.sol\":5247:5295  require(data.length >= 4, \"Invalid data length\") */\n      tag_145\n      jumpi\n      mload(0x40)\n      0x08c379a000000000000000000000000000000000000000000000000000000000\n      dup2\n      mstore\n      0x04\n      add\n      tag_146\n      swap1\n      tag_147\n      jump\t// in\n    tag_146:\n      mload(0x40)\n      dup1\n      swap2\n      sub\n      swap1\n      revert\n    tag_145:\n        /* \"contracts/MultiSig.sol\":5454:5456  24 */\n      0x18\n        /* \"contracts/MultiSig.sol\":5442:5446  data */\n      dup3\n        /* \"contracts/MultiSig.sol\":5447:5448  3 */\n      0x03\n        /* \"contracts/MultiSig.sol\":5442:5449  data[3] */\n      dup2\n      mload\n      dup2\n      lt\n      tag_148\n      jumpi\n      tag_149\n      tag_91\n      jump\t// in\n    tag_149:\n    tag_148:\n      0x20\n      add\n      add\n      mload\n      0xf8\n      shr\n      0xf8\n      shl\n        /* \"contracts/MultiSig.sol\":5435:5450  bytes4(data[3]) */\n      not(0xffffffffffffffffffffffffffffffffffffffffffffffffffffffffffffff)\n      and\n        /* \"contracts/MultiSig.sol\":5435:5456  bytes4(data[3]) >> 24 */\n      not(0xffffffffffffffffffffffffffffffffffffffffffffffffffffffff)\n      and\n      swap1\n      shr\n        /* \"contracts/MultiSig.sol\":5415:5417  16 */\n      0x10\n        /* \"contracts/MultiSig.sol\":5403:5407  data */\n      dup4\n        /* \"contracts/MultiSig.sol\":5408:5409  2 */\n      0x02\n        /* \"contracts/MultiSig.sol\":5403:5410  data[2] */\n      dup2\n      mload\n      dup2\n      lt\n      tag_150\n      jumpi\n      tag_151\n      tag_91\n      jump\t// in\n    tag_151:\n    tag_150:\n      0x20\n      add\n      add\n      mload\n      0xf8\n      shr\n      0xf8\n      shl\n        /* \"contracts/MultiSig.sol\":5396:5411  bytes4(data[2]) */\n      not(0xffffffffffffffffffffffffffffffffffffffffffffffffffffffffffffff)\n      and\n        /* \"contracts/MultiSig.sol\":5396:5417  bytes4(data[2]) >> 16 */\n      not(0xffffffffffffffffffffffffffffffffffffffffffffffffffffffff)\n      and\n      swap1\n      shr\n        /* \"contracts/MultiSig.sol\":5377:5378  8 */\n      0x08\n        /* \"contracts/MultiSig.sol\":5365:5369  data */\n      dup5\n        /* \"contracts/MultiSig.sol\":5370:5371  1 */\n      0x01\n        /* \"contracts/MultiSig.sol\":5365:5372  data[1] */\n      dup2\n      mload\n      dup2\n      lt\n      tag_152\n      jumpi\n      tag_153\n      tag_91\n      jump\t// in\n    tag_153:\n    tag_152:\n      0x20\n      add\n      add\n      mload\n      0xf8\n      shr\n      0xf8\n      shl\n        /* \"contracts/MultiSig.sol\":5358:5373  bytes4(data[1]) */\n      not(0xffffffffffffffffffffffffffffffffffffffffffffffffffffffffffffff)\n      and\n        /* \"contracts/MultiSig.sol\":5358:5378  bytes4(data[1]) >> 8 */\n      not(0xffffffffffffffffffffffffffffffffffffffffffffffffffffffff)\n      and\n      swap1\n      shr\n        /* \"contracts/MultiSig.sol\":5333:5337  data */\n      dup5\n        /* \"contracts/MultiSig.sol\":5338:5339  0 */\n      0x00\n        /* \"contracts/MultiSig.sol\":5333:5340  data[0] */\n      dup2\n      mload\n      dup2\n      lt\n      tag_154\n      jumpi\n      tag_155\n      tag_91\n      jump\t// in\n    tag_155:\n    tag_154:\n      0x20\n      add\n      add\n      mload\n      0xf8\n      shr\n      0xf8\n      shl\n        /* \"contracts/MultiSig.sol\":5326:5341  bytes4(data[0]) */\n      not(0xffffffffffffffffffffffffffffffffffffffffffffffffffffffffffffff)\n      and\n        /* \"contracts/MultiSig.sol\":5326:5379  bytes4(data[0]) |... */\n      or\n        /* \"contracts/MultiSig.sol\":5326:5418  bytes4(data[0]) |... */\n      or\n        /* \"contracts/MultiSig.sol\":5326:5457  bytes4(data[0]) |... */\n      or\n        /* \"contracts/MultiSig.sol\":5306:5457  return... */\n      swap1\n      pop\n        /* \"contracts/MultiSig.sol\":5136:5465  function extractFunctionSignature(... */\n      swap2\n      swap1\n      pop\n      jump\t// out\n        /* \"contracts/MultiSig.sol\":5473:5894  function decodeTransferData(... */\n    tag_131:\n        /* \"contracts/MultiSig.sol\":5559:5576  address recipient */\n      0x00\n        /* \"contracts/MultiSig.sol\":5578:5592  uint256 amount */\n      dup1\n        /* \"contracts/MultiSig.sol\":5628:5630  68 */\n      0x44\n        /* \"contracts/MultiSig.sol\":5613:5617  data */\n      dup4\n        /* \"contracts/MultiSig.sol\":5613:5624  data.length */\n      mload\n        /* \"contracts/MultiSig.sol\":5613:5630  data.length >= 68 */\n      lt\n      iszero\n        /* \"contracts/MultiSig.sol\":5605:5667  require(data.length >= 68, \"Invalid data length for transfer\") */\n      tag_157\n      jumpi\n      mload(0x40)\n      0x08c379a000000000000000000000000000000000000000000000000000000000\n      dup2\n      mstore\n      0x04\n      add\n      tag_158\n      swap1\n      tag_159\n      jump\t// in\n    tag_158:\n      mload(0x40)\n      dup1\n      swap2\n      sub\n      swap1\n      revert\n    tag_157:\n        /* \"contracts/MultiSig.sol\":5731:5733  36 */\n      0x24\n        /* \"contracts/MultiSig.sol\":5725:5729  data */\n      dup4\n        /* \"contracts/MultiSig.sol\":5721:5734  add(data, 36) */\n      add\n        /* \"contracts/MultiSig.sol\":5715:5735  mload(add(data, 36)) */\n      mload\n        /* \"contracts/MultiSig.sol\":5702:5735  recipient := mload(add(data, 36)) */\n      swap2\n      pop\n        /* \"contracts/MultiSig.sol\":5815:5817  68 */\n      0x44\n        /* \"contracts/MultiSig.sol\":5809:5813  data */\n      dup4\n        /* \"contracts/MultiSig.sol\":5805:5818  add(data, 68) */\n      add\n        /* \"contracts/MultiSig.sol\":5799:5819  mload(add(data, 68)) */\n      mload\n        /* \"contracts/MultiSig.sol\":5789:5819  amount := mload(add(data, 68)) */\n      swap1\n      pop\n        /* \"contracts/MultiSig.sol\":5473:5894  function decodeTransferData(... */\n      swap2\n      pop\n      swap2\n      jump\t// out\n        /* \"contracts/MultiSig.sol\":2830:3006  function getTokenBalance(... */\n    tag_133:\n        /* \"contracts/MultiSig.sol\":2937:2944  uint256 */\n      0x00\n        /* \"contracts/MultiSig.sol\":2971:2977  _token */\n      dup3\n        /* \"contracts/MultiSig.sol\":2964:2988  IERC20(_token).balanceOf */\n      0xffffffffffffffffffffffffffffffffffffffff\n      and\n      0x70a08231\n        /* \"contracts/MultiSig.sol\":2989:2997  _account */\n      dup4\n        /* \"contracts/MultiSig.sol\":2964:2998  IERC20(_token).balanceOf(_account) */\n      mload(0x40)\n      dup3\n      0xffffffff\n      and\n      0xe0\n      shl\n      dup2\n      mstore\n      0x04\n      add\n      tag_161\n      swap2\n      swap1\n      tag_16\n      jump\t// in\n    tag_161:\n      0x20\n      mload(0x40)\n      dup1\n      dup4\n      sub\n      dup2\n      dup7\n      gas\n      staticcall\n      iszero\n      dup1\n      iszero\n      tag_163\n      jumpi\n      returndatasize\n      0x00\n      dup1\n      returndatacopy\n      revert(0x00, returndatasize)\n    tag_163:\n      pop\n      pop\n      pop\n      pop\n      mload(0x40)\n      returndatasize\n      not(0x1f)\n      0x1f\n      dup3\n      add\n      and\n      dup3\n      add\n      dup1\n      0x40\n      mstore\n      pop\n      dup2\n      add\n      swap1\n      tag_164\n      swap2\n      swap1\n      tag_165\n      jump\t// in\n    tag_164:\n        /* \"contracts/MultiSig.sol\":2957:2998  return IERC20(_token).balanceOf(_account) */\n      swap1\n      pop\n        /* \"contracts/MultiSig.sol\":2830:3006  function getTokenBalance(... */\n      swap3\n      swap2\n      pop\n      pop\n      jump\t// out\n        /* \"#utility.yul\":7:82   */\n    tag_166:\n        /* \"#utility.yul\":40:46   */\n      0x00\n        /* \"#utility.yul\":73:75   */\n      0x40\n        /* \"#utility.yul\":67:76   */\n      mload\n        /* \"#utility.yul\":57:76   */\n      swap1\n      pop\n        /* \"#utility.yul\":7:82   */\n      swap1\n      jump\t// out\n        /* \"#utility.yul\":88:205   */\n    tag_167:\n        /* \"#utility.yul\":197:198   */\n      0x00\n        /* \"#utility.yul\":194:195   */\n      dup1\n        /* \"#utility.yul\":187:199   */\n      revert\n        /* \"#utility.yul\":211:328   */\n    tag_168:\n        /* \"#utility.yul\":320:321   */\n      0x00\n        /* \"#utility.yul\":317:318   */\n      dup1\n        /* \"#utility.yul\":310:322   */\n      revert\n        /* \"#utility.yul\":334:411   */\n    tag_169:\n        /* \"#utility.yul\":371:378   */\n      0x00\n        /* \"#utility.yul\":400:405   */\n      dup2\n        /* \"#utility.yul\":389:405   */\n      swap1\n      pop\n        /* \"#utility.yul\":334:411   */\n      swap2\n      swap1\n      pop\n      jump\t// out\n        /* \"#utility.yul\":417:539   */\n    tag_170:\n        /* \"#utility.yul\":490:514   */\n      tag_245\n        /* \"#utility.yul\":508:513   */\n      dup2\n        /* \"#utility.yul\":490:514   */\n      tag_169\n      jump\t// in\n    tag_245:\n        /* \"#utility.yul\":483:488   */\n      dup2\n        /* \"#utility.yul\":480:515   */\n      eq\n        /* \"#utility.yul\":470:533   */\n      tag_246\n      jumpi\n        /* \"#utility.yul\":529:530   */\n      0x00\n        /* \"#utility.yul\":526:527   */\n      dup1\n        /* \"#utility.yul\":519:531   */\n      revert\n        /* \"#utility.yul\":470:533   */\n    tag_246:\n        /* \"#utility.yul\":417:539   */\n      pop\n      jump\t// out\n        /* \"#utility.yul\":545:684   */\n    tag_171:\n        /* \"#utility.yul\":591:596   */\n      0x00\n        /* \"#utility.yul\":629:635   */\n      dup2\n        /* \"#utility.yul\":616:636   */\n      calldataload\n        /* \"#utility.yul\":607:636   */\n      swap1\n      pop\n        /* \"#utility.yul\":645:678   */\n      tag_248\n        /* \"#utility.yul\":672:677   */\n      dup2\n        /* \"#utility.yul\":645:678   */\n      tag_170\n      jump\t// in\n    tag_248:\n        /* \"#utility.yul\":545:684   */\n      swap3\n      swap2\n      pop\n      pop\n      jump\t// out\n        /* \"#utility.yul\":690:1019   */\n    tag_13:\n        /* \"#utility.yul\":749:755   */\n      0x00\n        /* \"#utility.yul\":798:800   */\n      0x20\n        /* \"#utility.yul\":786:795   */\n      dup3\n        /* \"#utility.yul\":777:784   */\n      dup5\n        /* \"#utility.yul\":773:796   */\n      sub\n        /* \"#utility.yul\":769:801   */\n      slt\n        /* \"#utility.yul\":766:885   */\n      iszero\n      tag_250\n      jumpi\n        /* \"#utility.yul\":804:883   */\n      tag_251\n      tag_167\n      jump\t// in\n    tag_251:\n        /* \"#utility.yul\":766:885   */\n    tag_250:\n        /* \"#utility.yul\":924:925   */\n      0x00\n        /* \"#utility.yul\":949:1002   */\n      tag_252\n        /* \"#utility.yul\":994:1001   */\n      dup5\n        /* \"#utility.yul\":985:991   */\n      dup3\n        /* \"#utility.yul\":974:983   */\n      dup6\n        /* \"#utility.yul\":970:992   */\n      add\n        /* \"#utility.yul\":949:1002   */\n      tag_171\n      jump\t// in\n    tag_252:\n        /* \"#utility.yul\":939:1002   */\n      swap2\n      pop\n        /* \"#utility.yul\":895:1012   */\n      pop\n        /* \"#utility.yul\":690:1019   */\n      swap3\n      swap2\n      pop\n      pop\n      jump\t// out\n        /* \"#utility.yul\":1025:1151   */\n    tag_172:\n        /* \"#utility.yul\":1062:1069   */\n      0x00\n        /* \"#utility.yul\":1102:1144   */\n      0xffffffffffffffffffffffffffffffffffffffff\n        /* \"#utility.yul\":1095:1100   */\n      dup3\n        /* \"#utility.yul\":1091:1145   */\n      and\n        /* \"#utility.yul\":1080:1145   */\n      swap1\n      pop\n        /* \"#utility.yul\":1025:1151   */\n      swap2\n      swap1\n      pop\n      jump\t// out\n        /* \"#utility.yul\":1157:1253   */\n    tag_173:\n        /* \"#utility.yul\":1194:1201   */\n      0x00\n        /* \"#utility.yul\":1223:1247   */\n      tag_255\n        /* \"#utility.yul\":1241:1246   */\n      dup3\n        /* \"#utility.yul\":1223:1247   */\n      tag_172\n      jump\t// in\n    tag_255:\n        /* \"#utility.yul\":1212:1247   */\n      swap1\n      pop\n        /* \"#utility.yul\":1157:1253   */\n      swap2\n      swap1\n      pop\n      jump\t// out\n        /* \"#utility.yul\":1259:1377   */\n    tag_174:\n        /* \"#utility.yul\":1346:1370   */\n      tag_257\n        /* \"#utility.yul\":1364:1369   */\n      dup2\n        /* \"#utility.yul\":1346:1370   */\n      tag_173\n      jump\t// in\n    tag_257:\n        /* \"#utility.yul\":1341:1344   */\n      dup3\n        /* \"#utility.yul\":1334:1371   */\n      mstore\n        /* \"#utility.yul\":1259:1377   */\n      pop\n      pop\n      jump\t// out\n        /* \"#utility.yul\":1383:1605   */\n    tag_16:\n        /* \"#utility.yul\":1476:1480   */\n      0x00\n        /* \"#utility.yul\":1514:1516   */\n      0x20\n        /* \"#utility.yul\":1503:1512   */\n      dup3\n        /* \"#utility.yul\":1499:1517   */\n      add\n        /* \"#utility.yul\":1491:1517   */\n      swap1\n      pop\n        /* \"#utility.yul\":1527:1598   */\n      tag_259\n        /* \"#utility.yul\":1595:1596   */\n      0x00\n        /* \"#utility.yul\":1584:1593   */\n      dup4\n        /* \"#utility.yul\":1580:1597   */\n      add\n        /* \"#utility.yul\":1571:1577   */\n      dup5\n        /* \"#utility.yul\":1527:1598   */\n      tag_174\n      jump\t// in\n    tag_259:\n        /* \"#utility.yul\":1383:1605   */\n      swap3\n      swap2\n      pop\n      pop\n      jump\t// out\n        /* \"#utility.yul\":1611:1729   */\n    tag_175:\n        /* \"#utility.yul\":1698:1722   */\n      tag_261\n        /* \"#utility.yul\":1716:1721   */\n      dup2\n        /* \"#utility.yul\":1698:1722   */\n      tag_169\n      jump\t// in\n    tag_261:\n        /* \"#utility.yul\":1693:1696   */\n      dup3\n        /* \"#utility.yul\":1686:1723   */\n      mstore\n        /* \"#utility.yul\":1611:1729   */\n      pop\n      pop\n      jump\t// out\n        /* \"#utility.yul\":1735:1957   */\n    tag_24:\n        /* \"#utility.yul\":1828:1832   */\n      0x00\n        /* \"#utility.yul\":1866:1868   */\n      0x20\n        /* \"#utility.yul\":1855:1864   */\n      dup3\n        /* \"#utility.yul\":1851:1869   */\n      add\n        /* \"#utility.yul\":1843:1869   */\n      swap1\n      pop\n        /* \"#utility.yul\":1879:1950   */\n      tag_263\n        /* \"#utility.yul\":1947:1948   */\n      0x00\n        /* \"#utility.yul\":1936:1945   */\n      dup4\n        /* \"#utility.yul\":1932:1949   */\n      add\n        /* \"#utility.yul\":1923:1929   */\n      dup5\n        /* \"#utility.yul\":1879:1950   */\n      tag_175\n      jump\t// in\n    tag_263:\n        /* \"#utility.yul\":1735:1957   */\n      swap3\n      swap2\n      pop\n      pop\n      jump\t// out\n        /* \"#utility.yul\":1963:2061   */\n    tag_176:\n        /* \"#utility.yul\":2014:2020   */\n      0x00\n        /* \"#utility.yul\":2048:2053   */\n      dup2\n        /* \"#utility.yul\":2042:2054   */\n      mload\n        /* \"#utility.yul\":2032:2054   */\n      swap1\n      pop\n        /* \"#utility.yul\":1963:2061   */\n      swap2\n      swap1\n      pop\n      jump\t// out\n        /* \"#utility.yul\":2067:2235   */\n    tag_177:\n        /* \"#utility.yul\":2150:2161   */\n      0x00\n        /* \"#utility.yul\":2184:2190   */\n      dup3\n        /* \"#utility.yul\":2179:2182   */\n      dup3\n        /* \"#utility.yul\":2172:2191   */\n      mstore\n        /* \"#utility.yul\":2224:2228   */\n      0x20\n        /* \"#utility.yul\":2219:2222   */\n      dup3\n        /* \"#utility.yul\":2215:2229   */\n      add\n        /* \"#utility.yul\":2200:2229   */\n      swap1\n      pop\n        /* \"#utility.yul\":2067:2235   */\n      swap3\n      swap2\n      pop\n      pop\n      jump\t// out\n        /* \"#utility.yul\":2241:2380   */\n    tag_178:\n        /* \"#utility.yul\":2330:2336   */\n      dup3\n        /* \"#utility.yul\":2325:2328   */\n      dup2\n        /* \"#utility.yul\":2320:2323   */\n      dup4\n        /* \"#utility.yul\":2314:2337   */\n      mcopy\n        /* \"#utility.yul\":2371:2372   */\n      0x00\n        /* \"#utility.yul\":2362:2368   */\n      dup4\n        /* \"#utility.yul\":2357:2360   */\n      dup4\n        /* \"#utility.yul\":2353:2369   */\n      add\n        /* \"#utility.yul\":2346:2373   */\n      mstore\n        /* \"#utility.yul\":2241:2380   */\n      pop\n      pop\n      pop\n      jump\t// out\n        /* \"#utility.yul\":2386:2488   */\n    tag_179:\n        /* \"#utility.yul\":2427:2433   */\n      0x00\n        /* \"#utility.yul\":2478:2480   */\n      0x1f\n        /* \"#utility.yul\":2474:2481   */\n      not\n        /* \"#utility.yul\":2469:2471   */\n      0x1f\n        /* \"#utility.yul\":2462:2467   */\n      dup4\n        /* \"#utility.yul\":2458:2472   */\n      add\n        /* \"#utility.yul\":2454:2482   */\n      and\n        /* \"#utility.yul\":2444:2482   */\n      swap1\n      pop\n        /* \"#utility.yul\":2386:2488   */\n      swap2\n      swap1\n      pop\n      jump\t// out\n        /* \"#utility.yul\":2494:2867   */\n    tag_180:\n        /* \"#utility.yul\":2580:2583   */\n      0x00\n        /* \"#utility.yul\":2608:2646   */\n      tag_269\n        /* \"#utility.yul\":2640:2645   */\n      dup3\n        /* \"#utility.yul\":2608:2646   */\n      tag_176\n      jump\t// in\n    tag_269:\n        /* \"#utility.yul\":2662:2732   */\n      tag_270\n        /* \"#utility.yul\":2725:2731   */\n      dup2\n        /* \"#utility.yul\":2720:2723   */\n      dup6\n        /* \"#utility.yul\":2662:2732   */\n      tag_177\n      jump\t// in\n    tag_270:\n        /* \"#utility.yul\":2655:2732   */\n      swap4\n      pop\n        /* \"#utility.yul\":2741:2806   */\n      tag_271\n        /* \"#utility.yul\":2799:2805   */\n      dup2\n        /* \"#utility.yul\":2794:2797   */\n      dup6\n        /* \"#utility.yul\":2787:2791   */\n      0x20\n        /* \"#utility.yul\":2780:2785   */\n      dup7\n        /* \"#utility.yul\":2776:2792   */\n      add\n        /* \"#utility.yul\":2741:2806   */\n      tag_178\n      jump\t// in\n    tag_271:\n        /* \"#utility.yul\":2831:2860   */\n      tag_272\n        /* \"#utility.yul\":2853:2859   */\n      dup2\n        /* \"#utility.yul\":2831:2860   */\n      tag_179\n      jump\t// in\n    tag_272:\n        /* \"#utility.yul\":2826:2829   */\n      dup5\n        /* \"#utility.yul\":2822:2861   */\n      add\n        /* \"#utility.yul\":2815:2861   */\n      swap2\n      pop\n        /* \"#utility.yul\":2584:2867   */\n      pop\n        /* \"#utility.yul\":2494:2867   */\n      swap3\n      swap2\n      pop\n      pop\n      jump\t// out\n        /* \"#utility.yul\":2873:2963   */\n    tag_181:\n        /* \"#utility.yul\":2907:2914   */\n      0x00\n        /* \"#utility.yul\":2950:2955   */\n      dup2\n        /* \"#utility.yul\":2943:2956   */\n      iszero\n        /* \"#utility.yul\":2936:2957   */\n      iszero\n        /* \"#utility.yul\":2925:2957   */\n      swap1\n      pop\n        /* \"#utility.yul\":2873:2963   */\n      swap2\n      swap1\n      pop\n      jump\t// out\n        /* \"#utility.yul\":2969:3078   */\n    tag_182:\n        /* \"#utility.yul\":3050:3071   */\n      tag_275\n        /* \"#utility.yul\":3065:3070   */\n      dup2\n        /* \"#utility.yul\":3050:3071   */\n      tag_181\n      jump\t// in\n    tag_275:\n        /* \"#utility.yul\":3045:3048   */\n      dup3\n        /* \"#utility.yul\":3038:3072   */\n      mstore\n        /* \"#utility.yul\":2969:3078   */\n      pop\n      pop\n      jump\t// out\n        /* \"#utility.yul\":3084:3823   */\n    tag_32:\n        /* \"#utility.yul\":3301:3305   */\n      0x00\n        /* \"#utility.yul\":3339:3342   */\n      0xa0\n        /* \"#utility.yul\":3328:3337   */\n      dup3\n        /* \"#utility.yul\":3324:3343   */\n      add\n        /* \"#utility.yul\":3316:3343   */\n      swap1\n      pop\n        /* \"#utility.yul\":3353:3424   */\n      tag_277\n        /* \"#utility.yul\":3421:3422   */\n      0x00\n        /* \"#utility.yul\":3410:3419   */\n      dup4\n        /* \"#utility.yul\":3406:3423   */\n      add\n        /* \"#utility.yul\":3397:3403   */\n      dup9\n        /* \"#utility.yul\":3353:3424   */\n      tag_174\n      jump\t// in\n    tag_277:\n        /* \"#utility.yul\":3434:3506   */\n      tag_278\n        /* \"#utility.yul\":3502:3504   */\n      0x20\n        /* \"#utility.yul\":3491:3500   */\n      dup4\n        /* \"#utility.yul\":3487:3505   */\n      add\n        /* \"#utility.yul\":3478:3484   */\n      dup8\n        /* \"#utility.yul\":3434:3506   */\n      tag_175\n      jump\t// in\n    tag_278:\n        /* \"#utility.yul\":3553:3562   */\n      dup2\n        /* \"#utility.yul\":3547:3551   */\n      dup2\n        /* \"#utility.yul\":3543:3563   */\n      sub\n        /* \"#utility.yul\":3538:3540   */\n      0x40\n        /* \"#utility.yul\":3527:3536   */\n      dup4\n        /* \"#utility.yul\":3523:3541   */\n      add\n        /* \"#utility.yul\":3516:3564   */\n      mstore\n        /* \"#utility.yul\":3581:3657   */\n      tag_279\n        /* \"#utility.yul\":3652:3656   */\n      dup2\n        /* \"#utility.yul\":3643:3649   */\n      dup7\n        /* \"#utility.yul\":3581:3657   */\n      tag_180\n      jump\t// in\n    tag_279:\n        /* \"#utility.yul\":3573:3657   */\n      swap1\n      pop\n        /* \"#utility.yul\":3667:3733   */\n      tag_280\n        /* \"#utility.yul\":3729:3731   */\n      0x60\n        /* \"#utility.yul\":3718:3727   */\n      dup4\n        /* \"#utility.yul\":3714:3732   */\n      add\n        /* \"#utility.yul\":3705:3711   */\n      dup6\n        /* \"#utility.yul\":3667:3733   */\n      tag_182\n      jump\t// in\n    tag_280:\n        /* \"#utility.yul\":3743:3816   */\n      tag_281\n        /* \"#utility.yul\":3811:3814   */\n      0x80\n        /* \"#utility.yul\":3800:3809   */\n      dup4\n        /* \"#utility.yul\":3796:3815   */\n      add\n        /* \"#utility.yul\":3787:3793   */\n      dup5\n        /* \"#utility.yul\":3743:3816   */\n      tag_175\n      jump\t// in\n    tag_281:\n        /* \"#utility.yul\":3084:3823   */\n      swap7\n      swap6\n      pop\n      pop\n      pop\n      pop\n      pop\n      pop\n      jump\t// out\n        /* \"#utility.yul\":3829:3951   */\n    tag_183:\n        /* \"#utility.yul\":3902:3926   */\n      tag_283\n        /* \"#utility.yul\":3920:3925   */\n      dup2\n        /* \"#utility.yul\":3902:3926   */\n      tag_173\n      jump\t// in\n    tag_283:\n        /* \"#utility.yul\":3895:3900   */\n      dup2\n        /* \"#utility.yul\":3892:3927   */\n      eq\n        /* \"#utility.yul\":3882:3945   */\n      tag_284\n      jumpi\n        /* \"#utility.yul\":3941:3942   */\n      0x00\n        /* \"#utility.yul\":3938:3939   */\n      dup1\n        /* \"#utility.yul\":3931:3943   */\n      revert\n        /* \"#utility.yul\":3882:3945   */\n    tag_284:\n        /* \"#utility.yul\":3829:3951   */\n      pop\n      jump\t// out\n        /* \"#utility.yul\":3957:4096   */\n    tag_184:\n        /* \"#utility.yul\":4003:4008   */\n      0x00\n        /* \"#utility.yul\":4041:4047   */\n      dup2\n        /* \"#utility.yul\":4028:4048   */\n      calldataload\n        /* \"#utility.yul\":4019:4048   */\n      swap1\n      pop\n        /* \"#utility.yul\":4057:4090   */\n      tag_286\n        /* \"#utility.yul\":4084:4089   */\n      dup2\n        /* \"#utility.yul\":4057:4090   */\n      tag_183\n      jump\t// in\n    tag_286:\n        /* \"#utility.yul\":3957:4096   */\n      swap3\n      swap2\n      pop\n      pop\n      jump\t// out\n        /* \"#utility.yul\":4102:4219   */\n    tag_185:\n        /* \"#utility.yul\":4211:4212   */\n      0x00\n        /* \"#utility.yul\":4208:4209   */\n      dup1\n        /* \"#utility.yul\":4201:4213   */\n      revert\n        /* \"#utility.yul\":4225:4342   */\n    tag_186:\n        /* \"#utility.yul\":4334:4335   */\n      0x00\n        /* \"#utility.yul\":4331:4332   */\n      dup1\n        /* \"#utility.yul\":4324:4336   */\n      revert\n        /* \"#utility.yul\":4348:4528   */\n    tag_187:\n        /* \"#utility.yul\":4396:4473   */\n      0x4e487b7100000000000000000000000000000000000000000000000000000000\n        /* \"#utility.yul\":4393:4394   */\n      0x00\n        /* \"#utility.yul\":4386:4474   */\n      mstore\n        /* \"#utility.yul\":4493:4497   */\n      0x41\n        /* \"#utility.yul\":4490:4491   */\n      0x04\n        /* \"#utility.yul\":4483:4498   */\n      mstore\n        /* \"#utility.yul\":4517:4521   */\n      0x24\n        /* \"#utility.yul\":4514:4515   */\n      0x00\n        /* \"#utility.yul\":4507:4522   */\n      revert\n        /* \"#utility.yul\":4534:4815   */\n    tag_188:\n        /* \"#utility.yul\":4617:4644   */\n      tag_291\n        /* \"#utility.yul\":4639:4643   */\n      dup3\n        /* \"#utility.yul\":4617:4644   */\n      tag_179\n      jump\t// in\n    tag_291:\n        /* \"#utility.yul\":4609:4615   */\n      dup2\n        /* \"#utility.yul\":4605:4645   */\n      add\n        /* \"#utility.yul\":4747:4753   */\n      dup2\n        /* \"#utility.yul\":4735:4745   */\n      dup2\n        /* \"#utility.yul\":4732:4754   */\n      lt\n        /* \"#utility.yul\":4711:4729   */\n      0xffffffffffffffff\n        /* \"#utility.yul\":4699:4709   */\n      dup3\n        /* \"#utility.yul\":4696:4730   */\n      gt\n        /* \"#utility.yul\":4693:4755   */\n      or\n        /* \"#utility.yul\":4690:4778   */\n      iszero\n      tag_292\n      jumpi\n        /* \"#utility.yul\":4758:4776   */\n      tag_293\n      tag_187\n      jump\t// in\n    tag_293:\n        /* \"#utility.yul\":4690:4778   */\n    tag_292:\n        /* \"#utility.yul\":4798:4808   */\n      dup1\n        /* \"#utility.yul\":4794:4796   */\n      0x40\n        /* \"#utility.yul\":4787:4809   */\n      mstore\n        /* \"#utility.yul\":4577:4815   */\n      pop\n        /* \"#utility.yul\":4534:4815   */\n      pop\n      pop\n      jump\t// out\n        /* \"#utility.yul\":4821:4950   */\n    tag_189:\n        /* \"#utility.yul\":4855:4861   */\n      0x00\n        /* \"#utility.yul\":4882:4902   */\n      tag_295\n      tag_166\n      jump\t// in\n    tag_295:\n        /* \"#utility.yul\":4872:4902   */\n      swap1\n      pop\n        /* \"#utility.yul\":4911:4944   */\n      tag_296\n        /* \"#utility.yul\":4939:4943   */\n      dup3\n        /* \"#utility.yul\":4931:4937   */\n      dup3\n        /* \"#utility.yul\":4911:4944   */\n      tag_188\n      jump\t// in\n    tag_296:\n        /* \"#utility.yul\":4821:4950   */\n      swap2\n      swap1\n      pop\n      jump\t// out\n        /* \"#utility.yul\":4956:5263   */\n    tag_190:\n        /* \"#utility.yul\":5017:5021   */\n      0x00\n        /* \"#utility.yul\":5107:5125   */\n      0xffffffffffffffff\n        /* \"#utility.yul\":5099:5105   */\n      dup3\n        /* \"#utility.yul\":5096:5126   */\n      gt\n        /* \"#utility.yul\":5093:5149   */\n      iszero\n      tag_298\n      jumpi\n        /* \"#utility.yul\":5129:5147   */\n      tag_299\n      tag_187\n      jump\t// in\n    tag_299:\n        /* \"#utility.yul\":5093:5149   */\n    tag_298:\n        /* \"#utility.yul\":5167:5196   */\n      tag_300\n        /* \"#utility.yul\":5189:5195   */\n      dup3\n        /* \"#utility.yul\":5167:5196   */\n      tag_179\n      jump\t// in\n    tag_300:\n        /* \"#utility.yul\":5159:5196   */\n      swap1\n      pop\n        /* \"#utility.yul\":5251:5255   */\n      0x20\n        /* \"#utility.yul\":5245:5249   */\n      dup2\n        /* \"#utility.yul\":5241:5256   */\n      add\n        /* \"#utility.yul\":5233:5256   */\n      swap1\n      pop\n        /* \"#utility.yul\":4956:5263   */\n      swap2\n      swap1\n      pop\n      jump\t// out\n        /* \"#utility.yul\":5269:5417   */\n    tag_191:\n        /* \"#utility.yul\":5367:5373   */\n      dup3\n        /* \"#utility.yul\":5362:5365   */\n      dup2\n        /* \"#utility.yul\":5357:5360   */\n      dup4\n        /* \"#utility.yul\":5344:5374   */\n      calldatacopy\n        /* \"#utility.yul\":5408:5409   */\n      0x00\n        /* \"#utility.yul\":5399:5405   */\n      dup4\n        /* \"#utility.yul\":5394:5397   */\n      dup4\n        /* \"#utility.yul\":5390:5406   */\n      add\n        /* \"#utility.yul\":5383:5410   */\n      mstore\n        /* \"#utility.yul\":5269:5417   */\n      pop\n      pop\n      pop\n      jump\t// out\n        /* \"#utility.yul\":5423:5846   */\n    tag_192:\n        /* \"#utility.yul\":5500:5505   */\n      0x00\n        /* \"#utility.yul\":5525:5590   */\n      tag_303\n        /* \"#utility.yul\":5541:5589   */\n      tag_304\n        /* \"#utility.yul\":5582:5588   */\n      dup5\n        /* \"#utility.yul\":5541:5589   */\n      tag_190\n      jump\t// in\n    tag_304:\n        /* \"#utility.yul\":5525:5590   */\n      tag_189\n      jump\t// in\n    tag_303:\n        /* \"#utility.yul\":5516:5590   */\n      swap1\n      pop\n        /* \"#utility.yul\":5613:5619   */\n      dup3\n        /* \"#utility.yul\":5606:5611   */\n      dup2\n        /* \"#utility.yul\":5599:5620   */\n      mstore\n        /* \"#utility.yul\":5651:5655   */\n      0x20\n        /* \"#utility.yul\":5644:5649   */\n      dup2\n        /* \"#utility.yul\":5640:5656   */\n      add\n        /* \"#utility.yul\":5689:5692   */\n      dup5\n        /* \"#utility.yul\":5680:5686   */\n      dup5\n        /* \"#utility.yul\":5675:5678   */\n      dup5\n        /* \"#utility.yul\":5671:5687   */\n      add\n        /* \"#utility.yul\":5668:5693   */\n      gt\n        /* \"#utility.yul\":5665:5777   */\n      iszero\n      tag_305\n      jumpi\n        /* \"#utility.yul\":5696:5775   */\n      tag_306\n      tag_186\n      jump\t// in\n    tag_306:\n        /* \"#utility.yul\":5665:5777   */\n    tag_305:\n        /* \"#utility.yul\":5786:5840   */\n      tag_307\n        /* \"#utility.yul\":5833:5839   */\n      dup5\n        /* \"#utility.yul\":5828:5831   */\n      dup3\n        /* \"#utility.yul\":5823:5826   */\n      dup6\n        /* \"#utility.yul\":5786:5840   */\n      tag_191\n      jump\t// in\n    tag_307:\n        /* \"#utility.yul\":5506:5846   */\n      pop\n        /* \"#utility.yul\":5423:5846   */\n      swap4\n      swap3\n      pop\n      pop\n      pop\n      jump\t// out\n        /* \"#utility.yul\":5865:6203   */\n    tag_193:\n        /* \"#utility.yul\":5920:5925   */\n      0x00\n        /* \"#utility.yul\":5969:5972   */\n      dup3\n        /* \"#utility.yul\":5962:5966   */\n      0x1f\n        /* \"#utility.yul\":5954:5960   */\n      dup4\n        /* \"#utility.yul\":5950:5967   */\n      add\n        /* \"#utility.yul\":5946:5973   */\n      slt\n        /* \"#utility.yul\":5936:6058   */\n      tag_309\n      jumpi\n        /* \"#utility.yul\":5977:6056   */\n      tag_310\n      tag_185\n      jump\t// in\n    tag_310:\n        /* \"#utility.yul\":5936:6058   */\n    tag_309:\n        /* \"#utility.yul\":6094:6100   */\n      dup2\n        /* \"#utility.yul\":6081:6101   */\n      calldataload\n        /* \"#utility.yul\":6119:6197   */\n      tag_311\n        /* \"#utility.yul\":6193:6196   */\n      dup5\n        /* \"#utility.yul\":6185:6191   */\n      dup3\n        /* \"#utility.yul\":6178:6182   */\n      0x20\n        /* \"#utility.yul\":6170:6176   */\n      dup7\n        /* \"#utility.yul\":6166:6183   */\n      add\n        /* \"#utility.yul\":6119:6197   */\n      tag_192\n      jump\t// in\n    tag_311:\n        /* \"#utility.yul\":6110:6197   */\n      swap2\n      pop\n        /* \"#utility.yul\":5926:6203   */\n      pop\n        /* \"#utility.yul\":5865:6203   */\n      swap3\n      swap2\n      pop\n      pop\n      jump\t// out\n        /* \"#utility.yul\":6209:7006   */\n    tag_35:\n        /* \"#utility.yul\":6295:6301   */\n      0x00\n        /* \"#utility.yul\":6303:6309   */\n      dup1\n        /* \"#utility.yul\":6311:6317   */\n      0x00\n        /* \"#utility.yul\":6360:6362   */\n      0x60\n        /* \"#utility.yul\":6348:6357   */\n      dup5\n        /* \"#utility.yul\":6339:6346   */\n      dup7\n        /* \"#utility.yul\":6335:6358   */\n      sub\n        /* \"#utility.yul\":6331:6363   */\n      slt\n        /* \"#utility.yul\":6328:6447   */\n      iszero\n      tag_313\n      jumpi\n        /* \"#utility.yul\":6366:6445   */\n      tag_314\n      tag_167\n      jump\t// in\n    tag_314:\n        /* \"#utility.yul\":6328:6447   */\n    tag_313:\n        /* \"#utility.yul\":6486:6487   */\n      0x00\n        /* \"#utility.yul\":6511:6564   */\n      tag_315\n        /* \"#utility.yul\":6556:6563   */\n      dup7\n        /* \"#utility.yul\":6547:6553   */\n      dup3\n        /* \"#utility.yul\":6536:6545   */\n      dup8\n        /* \"#utility.yul\":6532:6554   */\n      add\n        /* \"#utility.yul\":6511:6564   */\n      tag_184\n      jump\t// in\n    tag_315:\n        /* \"#utility.yul\":6501:6564   */\n      swap4\n      pop\n        /* \"#utility.yul\":6457:6574   */\n      pop\n        /* \"#utility.yul\":6613:6615   */\n      0x20\n        /* \"#utility.yul\":6639:6692   */\n      tag_316\n        /* \"#utility.yul\":6684:6691   */\n      dup7\n        /* \"#utility.yul\":6675:6681   */\n      dup3\n        /* \"#utility.yul\":6664:6673   */\n      dup8\n        /* \"#utility.yul\":6660:6682   */\n      add\n        /* \"#utility.yul\":6639:6692   */\n      tag_171\n      jump\t// in\n    tag_316:\n        /* \"#utility.yul\":6629:6692   */\n      swap3\n      pop\n        /* \"#utility.yul\":6584:6702   */\n      pop\n        /* \"#utility.yul\":6769:6771   */\n      0x40\n        /* \"#utility.yul\":6758:6767   */\n      dup5\n        /* \"#utility.yul\":6754:6772   */\n      add\n        /* \"#utility.yul\":6741:6773   */\n      calldataload\n        /* \"#utility.yul\":6800:6818   */\n      0xffffffffffffffff\n        /* \"#utility.yul\":6792:6798   */\n      dup2\n        /* \"#utility.yul\":6789:6819   */\n      gt\n        /* \"#utility.yul\":6786:6903   */\n      iszero\n      tag_317\n      jumpi\n        /* \"#utility.yul\":6822:6901   */\n      tag_318\n      tag_168\n      jump\t// in\n    tag_318:\n        /* \"#utility.yul\":6786:6903   */\n    tag_317:\n        /* \"#utility.yul\":6927:6989   */\n      tag_319\n        /* \"#utility.yul\":6981:6988   */\n      dup7\n        /* \"#utility.yul\":6972:6978   */\n      dup3\n        /* \"#utility.yul\":6961:6970   */\n      dup8\n        /* \"#utility.yul\":6957:6979   */\n      add\n        /* \"#utility.yul\":6927:6989   */\n      tag_193\n      jump\t// in\n    tag_319:\n        /* \"#utility.yul\":6917:6989   */\n      swap2\n      pop\n        /* \"#utility.yul\":6712:6999   */\n      pop\n        /* \"#utility.yul\":6209:7006   */\n      swap3\n      pop\n      swap3\n      pop\n      swap3\n      jump\t// out\n        /* \"#utility.yul\":7012:7181   */\n    tag_194:\n        /* \"#utility.yul\":7096:7107   */\n      0x00\n        /* \"#utility.yul\":7130:7136   */\n      dup3\n        /* \"#utility.yul\":7125:7128   */\n      dup3\n        /* \"#utility.yul\":7118:7137   */\n      mstore\n        /* \"#utility.yul\":7170:7174   */\n      0x20\n        /* \"#utility.yul\":7165:7168   */\n      dup3\n        /* \"#utility.yul\":7161:7175   */\n      add\n        /* \"#utility.yul\":7146:7175   */\n      swap1\n      pop\n        /* \"#utility.yul\":7012:7181   */\n      swap3\n      swap2\n      pop\n      pop\n      jump\t// out\n        /* \"#utility.yul\":7187:7349   */\n    tag_195:\n        /* \"#utility.yul\":7327:7341   */\n      0x4e6f7420616e206f776e65720000000000000000000000000000000000000000\n        /* \"#utility.yul\":7323:7324   */\n      0x00\n        /* \"#utility.yul\":7315:7321   */\n      dup3\n        /* \"#utility.yul\":7311:7325   */\n      add\n        /* \"#utility.yul\":7304:7342   */\n      mstore\n        /* \"#utility.yul\":7187:7349   */\n      pop\n      jump\t// out\n        /* \"#utility.yul\":7355:7721   */\n    tag_196:\n        /* \"#utility.yul\":7497:7500   */\n      0x00\n        /* \"#utility.yul\":7518:7585   */\n      tag_323\n        /* \"#utility.yul\":7582:7584   */\n      0x0c\n        /* \"#utility.yul\":7577:7580   */\n      dup4\n        /* \"#utility.yul\":7518:7585   */\n      tag_194\n      jump\t// in\n    tag_323:\n        /* \"#utility.yul\":7511:7585   */\n      swap2\n      pop\n        /* \"#utility.yul\":7594:7687   */\n      tag_324\n        /* \"#utility.yul\":7683:7686   */\n      dup3\n        /* \"#utility.yul\":7594:7687   */\n      tag_195\n      jump\t// in\n    tag_324:\n        /* \"#utility.yul\":7712:7714   */\n      0x20\n        /* \"#utility.yul\":7707:7710   */\n      dup3\n        /* \"#utility.yul\":7703:7715   */\n      add\n        /* \"#utility.yul\":7696:7715   */\n      swap1\n      pop\n        /* \"#utility.yul\":7355:7721   */\n      swap2\n      swap1\n      pop\n      jump\t// out\n        /* \"#utility.yul\":7727:8146   */\n    tag_48:\n        /* \"#utility.yul\":7893:7897   */\n      0x00\n        /* \"#utility.yul\":7931:7933   */\n      0x20\n        /* \"#utility.yul\":7920:7929   */\n      dup3\n        /* \"#utility.yul\":7916:7934   */\n      add\n        /* \"#utility.yul\":7908:7934   */\n      swap1\n      pop\n        /* \"#utility.yul\":7980:7989   */\n      dup2\n        /* \"#utility.yul\":7974:7978   */\n      dup2\n        /* \"#utility.yul\":7970:7990   */\n      sub\n        /* \"#utility.yul\":7966:7967   */\n      0x00\n        /* \"#utility.yul\":7955:7964   */\n      dup4\n        /* \"#utility.yul\":7951:7968   */\n      add\n        /* \"#utility.yul\":7944:7991   */\n      mstore\n        /* \"#utility.yul\":8008:8139   */\n      tag_326\n        /* \"#utility.yul\":8134:8138   */\n      dup2\n        /* \"#utility.yul\":8008:8139   */\n      tag_196\n      jump\t// in\n    tag_326:\n        /* \"#utility.yul\":8000:8139   */\n      swap1\n      pop\n        /* \"#utility.yul\":7727:8146   */\n      swap2\n      swap1\n      pop\n      jump\t// out\n        /* \"#utility.yul\":8152:8328   */\n    tag_197:\n        /* \"#utility.yul\":8292:8320   */\n      0x5472616e73616374696f6e20646f6573206e6f74206578697374000000000000\n        /* \"#utility.yul\":8288:8289   */\n      0x00\n        /* \"#utility.yul\":8280:8286   */\n      dup3\n        /* \"#utility.yul\":8276:8290   */\n      add\n        /* \"#utility.yul\":8269:8321   */\n      mstore\n        /* \"#utility.yul\":8152:8328   */\n      pop\n      jump\t// out\n        /* \"#utility.yul\":8334:8700   */\n    tag_198:\n        /* \"#utility.yul\":8476:8479   */\n      0x00\n        /* \"#utility.yul\":8497:8564   */\n      tag_329\n        /* \"#utility.yul\":8561:8563   */\n      0x1a\n        /* \"#utility.yul\":8556:8559   */\n      dup4\n        /* \"#utility.yul\":8497:8564   */\n      tag_194\n      jump\t// in\n    tag_329:\n        /* \"#utility.yul\":8490:8564   */\n      swap2\n      pop\n        /* \"#utility.yul\":8573:8666   */\n      tag_330\n        /* \"#utility.yul\":8662:8665   */\n      dup3\n        /* \"#utility.yul\":8573:8666   */\n      tag_197\n      jump\t// in\n    tag_330:\n        /* \"#utility.yul\":8691:8693   */\n      0x20\n        /* \"#utility.yul\":8686:8689   */\n      dup3\n        /* \"#utility.yul\":8682:8694   */\n      add\n        /* \"#utility.yul\":8675:8694   */\n      swap1\n      pop\n        /* \"#utility.yul\":8334:8700   */\n      swap2\n      swap1\n      pop\n      jump\t// out\n        /* \"#utility.yul\":8706:9125   */\n    tag_51:\n        /* \"#utility.yul\":8872:8876   */\n      0x00\n        /* \"#utility.yul\":8910:8912   */\n      0x20\n        /* \"#utility.yul\":8899:8908   */\n      dup3\n        /* \"#utility.yul\":8895:8913   */\n      add\n        /* \"#utility.yul\":8887:8913   */\n      swap1\n      pop\n        /* \"#utility.yul\":8959:8968   */\n      dup2\n        /* \"#utility.yul\":8953:8957   */\n      dup2\n        /* \"#utility.yul\":8949:8969   */\n      sub\n        /* \"#utility.yul\":8945:8946   */\n      0x00\n        /* \"#utility.yul\":8934:8943   */\n      dup4\n        /* \"#utility.yul\":8930:8947   */\n      add\n        /* \"#utility.yul\":8923:8970   */\n      mstore\n        /* \"#utility.yul\":8987:9118   */\n      tag_332\n        /* \"#utility.yul\":9113:9117   */\n      dup2\n        /* \"#utility.yul\":8987:9118   */\n      tag_198\n      jump\t// in\n    tag_332:\n        /* \"#utility.yul\":8979:9118   */\n      swap1\n      pop\n        /* \"#utility.yul\":8706:9125   */\n      swap2\n      swap1\n      pop\n      jump\t// out\n        /* \"#utility.yul\":9131:9309   */\n    tag_199:\n        /* \"#utility.yul\":9271:9301   */\n      0x5472616e73616374696f6e20616c726561647920657865637574656400000000\n        /* \"#utility.yul\":9267:9268   */\n      0x00\n        /* \"#utility.yul\":9259:9265   */\n      dup3\n        /* \"#utility.yul\":9255:9269   */\n      add\n        /* \"#utility.yul\":9248:9302   */\n      mstore\n        /* \"#utility.yul\":9131:9309   */\n      pop\n      jump\t// out\n        /* \"#utility.yul\":9315:9681   */\n    tag_200:\n        /* \"#utility.yul\":9457:9460   */\n      0x00\n        /* \"#utility.yul\":9478:9545   */\n      tag_335\n        /* \"#utility.yul\":9542:9544   */\n      0x1c\n        /* \"#utility.yul\":9537:9540   */\n      dup4\n        /* \"#utility.yul\":9478:9545   */\n      tag_194\n      jump\t// in\n    tag_335:\n        /* \"#utility.yul\":9471:9545   */\n      swap2\n      pop\n        /* \"#utility.yul\":9554:9647   */\n      tag_336\n        /* \"#utility.yul\":9643:9646   */\n      dup3\n        /* \"#utility.yul\":9554:9647   */\n      tag_199\n      jump\t// in\n    tag_336:\n        /* \"#utility.yul\":9672:9674   */\n      0x20\n        /* \"#utility.yul\":9667:9670   */\n      dup3\n        /* \"#utility.yul\":9663:9675   */\n      add\n        /* \"#utility.yul\":9656:9675   */\n      swap1\n      pop\n        /* \"#utility.yul\":9315:9681   */\n      swap2\n      swap1\n      pop\n      jump\t// out\n        /* \"#utility.yul\":9687:10106   */\n    tag_54:\n        /* \"#utility.yul\":9853:9857   */\n      0x00\n        /* \"#utility.yul\":9891:9893   */\n      0x20\n        /* \"#utility.yul\":9880:9889   */\n      dup3\n        /* \"#utility.yul\":9876:9894   */\n      add\n        /* \"#utility.yul\":9868:9894   */\n      swap1\n      pop\n        /* \"#utility.yul\":9940:9949   */\n      dup2\n        /* \"#utility.yul\":9934:9938   */\n      dup2\n        /* \"#utility.yul\":9930:9950   */\n      sub\n        /* \"#utility.yul\":9926:9927   */\n      0x00\n        /* \"#utility.yul\":9915:9924   */\n      dup4\n        /* \"#utility.yul\":9911:9928   */\n      add\n        /* \"#utility.yul\":9904:9951   */\n      mstore\n        /* \"#utility.yul\":9968:10099   */\n      tag_338\n        /* \"#utility.yul\":10094:10098   */\n      dup2\n        /* \"#utility.yul\":9968:10099   */\n      tag_200\n      jump\t// in\n    tag_338:\n        /* \"#utility.yul\":9960:10099   */\n      swap1\n      pop\n        /* \"#utility.yul\":9687:10106   */\n      swap2\n      swap1\n      pop\n      jump\t// out\n        /* \"#utility.yul\":10112:10334   */\n    tag_201:\n        /* \"#utility.yul\":10252:10286   */\n      0x5472616e73616374696f6e20616c7265616479207369676e6564206279206f77\n        /* \"#utility.yul\":10248:10249   */\n      0x00\n        /* \"#utility.yul\":10240:10246   */\n      dup3\n        /* \"#utility.yul\":10236:10250   */\n      add\n        /* \"#utility.yul\":10229:10287   */\n      mstore\n        /* \"#utility.yul\":10321:10326   */\n      0x6e65720000000000000000000000000000000000000000000000000000000000\n        /* \"#utility.yul\":10316:10318   */\n      0x20\n        /* \"#utility.yul\":10308:10314   */\n      dup3\n        /* \"#utility.yul\":10304:10319   */\n      add\n        /* \"#utility.yul\":10297:10327   */\n      mstore\n        /* \"#utility.yul\":10112:10334   */\n      pop\n      jump\t// out\n        /* \"#utility.yul\":10340:10706   */\n    tag_202:\n        /* \"#utility.yul\":10482:10485   */\n      0x00\n        /* \"#utility.yul\":10503:10570   */\n      tag_341\n        /* \"#utility.yul\":10567:10569   */\n      0x23\n        /* \"#utility.yul\":10562:10565   */\n      dup4\n        /* \"#utility.yul\":10503:10570   */\n      tag_194\n      jump\t// in\n    tag_341:\n        /* \"#utility.yul\":10496:10570   */\n      swap2\n      pop\n        /* \"#utility.yul\":10579:10672   */\n      tag_342\n        /* \"#utility.yul\":10668:10671   */\n      dup3\n        /* \"#utility.yul\":10579:10672   */\n      tag_201\n      jump\t// in\n    tag_342:\n        /* \"#utility.yul\":10697:10699   */\n      0x40\n        /* \"#utility.yul\":10692:10695   */\n      dup3\n        /* \"#utility.yul\":10688:10700   */\n      add\n        /* \"#utility.yul\":10681:10700   */\n      swap1\n      pop\n        /* \"#utility.yul\":10340:10706   */\n      swap2\n      swap1\n      pop\n      jump\t// out\n        /* \"#utility.yul\":10712:11131   */\n    tag_57:\n        /* \"#utility.yul\":10878:10882   */\n      0x00\n        /* \"#utility.yul\":10916:10918   */\n      0x20\n        /* \"#utility.yul\":10905:10914   */\n      dup3\n        /* \"#utility.yul\":10901:10919   */\n      add\n        /* \"#utility.yul\":10893:10919   */\n      swap1\n      pop\n        /* \"#utility.yul\":10965:10974   */\n      dup2\n        /* \"#utility.yul\":10959:10963   */\n      dup2\n        /* \"#utility.yul\":10955:10975   */\n      sub\n        /* \"#utility.yul\":10951:10952   */\n      0x00\n        /* \"#utility.yul\":10940:10949   */\n      dup4\n        /* \"#utility.yul\":10936:10953   */\n      add\n        /* \"#utility.yul\":10929:10976   */\n      mstore\n        /* \"#utility.yul\":10993:11124   */\n      tag_344\n        /* \"#utility.yul\":11119:11123   */\n      dup2\n        /* \"#utility.yul\":10993:11124   */\n      tag_202\n      jump\t// in\n    tag_344:\n        /* \"#utility.yul\":10985:11124   */\n      swap1\n      pop\n        /* \"#utility.yul\":10712:11131   */\n      swap2\n      swap1\n      pop\n      jump\t// out\n        /* \"#utility.yul\":11137:11317   */\n    tag_203:\n        /* \"#utility.yul\":11185:11262   */\n      0x4e487b7100000000000000000000000000000000000000000000000000000000\n        /* \"#utility.yul\":11182:11183   */\n      0x00\n        /* \"#utility.yul\":11175:11263   */\n      mstore\n        /* \"#utility.yul\":11282:11286   */\n      0x11\n        /* \"#utility.yul\":11279:11280   */\n      0x04\n        /* \"#utility.yul\":11272:11287   */\n      mstore\n        /* \"#utility.yul\":11306:11310   */\n      0x24\n        /* \"#utility.yul\":11303:11304   */\n      0x00\n        /* \"#utility.yul\":11296:11311   */\n      revert\n        /* \"#utility.yul\":11323:11514   */\n    tag_59:\n        /* \"#utility.yul\":11363:11366   */\n      0x00\n        /* \"#utility.yul\":11382:11402   */\n      tag_347\n        /* \"#utility.yul\":11400:11401   */\n      dup3\n        /* \"#utility.yul\":11382:11402   */\n      tag_169\n      jump\t// in\n    tag_347:\n        /* \"#utility.yul\":11377:11402   */\n      swap2\n      pop\n        /* \"#utility.yul\":11416:11436   */\n      tag_348\n        /* \"#utility.yul\":11434:11435   */\n      dup4\n        /* \"#utility.yul\":11416:11436   */\n      tag_169\n      jump\t// in\n    tag_348:\n        /* \"#utility.yul\":11411:11436   */\n      swap3\n      pop\n        /* \"#utility.yul\":11459:11460   */\n      dup3\n        /* \"#utility.yul\":11456:11457   */\n      dup3\n        /* \"#utility.yul\":11452:11461   */\n      add\n        /* \"#utility.yul\":11445:11461   */\n      swap1\n      pop\n        /* \"#utility.yul\":11480:11483   */\n      dup1\n        /* \"#utility.yul\":11477:11478   */\n      dup3\n        /* \"#utility.yul\":11474:11484   */\n      gt\n        /* \"#utility.yul\":11471:11507   */\n      iszero\n      tag_349\n      jumpi\n        /* \"#utility.yul\":11487:11505   */\n      tag_350\n      tag_203\n      jump\t// in\n    tag_350:\n        /* \"#utility.yul\":11471:11507   */\n    tag_349:\n        /* \"#utility.yul\":11323:11514   */\n      swap3\n      swap2\n      pop\n      pop\n      jump\t// out\n        /* \"#utility.yul\":11520:11714   */\n    tag_69:\n        /* \"#utility.yul\":11560:11564   */\n      0x00\n        /* \"#utility.yul\":11580:11600   */\n      tag_352\n        /* \"#utility.yul\":11598:11599   */\n      dup3\n        /* \"#utility.yul\":11580:11600   */\n      tag_169\n      jump\t// in\n    tag_352:\n        /* \"#utility.yul\":11575:11600   */\n      swap2\n      pop\n        /* \"#utility.yul\":11614:11634   */\n      tag_353\n        /* \"#utility.yul\":11632:11633   */\n      dup4\n        /* \"#utility.yul\":11614:11634   */\n      tag_169\n      jump\t// in\n    tag_353:\n        /* \"#utility.yul\":11609:11634   */\n      swap3\n      pop\n        /* \"#utility.yul\":11658:11659   */\n      dup3\n        /* \"#utility.yul\":11655:11656   */\n      dup3\n        /* \"#utility.yul\":11651:11660   */\n      sub\n        /* \"#utility.yul\":11643:11660   */\n      swap1\n      pop\n        /* \"#utility.yul\":11682:11683   */\n      dup2\n        /* \"#utility.yul\":11676:11680   */\n      dup2\n        /* \"#utility.yul\":11673:11684   */\n      gt\n        /* \"#utility.yul\":11670:11707   */\n      iszero\n      tag_354\n      jumpi\n        /* \"#utility.yul\":11687:11705   */\n      tag_355\n      tag_203\n      jump\t// in\n    tag_355:\n        /* \"#utility.yul\":11670:11707   */\n    tag_354:\n        /* \"#utility.yul\":11520:11714   */\n      swap3\n      swap2\n      pop\n      pop\n      jump\t// out\n        /* \"#utility.yul\":11720:11900   */\n    tag_204:\n        /* \"#utility.yul\":11768:11845   */\n      0x4e487b7100000000000000000000000000000000000000000000000000000000\n        /* \"#utility.yul\":11765:11766   */\n      0x00\n        /* \"#utility.yul\":11758:11846   */\n      mstore\n        /* \"#utility.yul\":11865:11869   */\n      0x22\n        /* \"#utility.yul\":11862:11863   */\n      0x04\n        /* \"#utility.yul\":11855:11870   */\n      mstore\n        /* \"#utility.yul\":11889:11893   */\n      0x24\n        /* \"#utility.yul\":11886:11887   */\n      0x00\n        /* \"#utility.yul\":11879:11894   */\n      revert\n        /* \"#utility.yul\":11906:12226   */\n    tag_71:\n        /* \"#utility.yul\":11950:11956   */\n      0x00\n        /* \"#utility.yul\":11987:11988   */\n      0x02\n        /* \"#utility.yul\":11981:11985   */\n      dup3\n        /* \"#utility.yul\":11977:11989   */\n      div\n        /* \"#utility.yul\":11967:11989   */\n      swap1\n      pop\n        /* \"#utility.yul\":12034:12035   */\n      0x01\n        /* \"#utility.yul\":12028:12032   */\n      dup3\n        /* \"#utility.yul\":12024:12036   */\n      and\n        /* \"#utility.yul\":12055:12073   */\n      dup1\n        /* \"#utility.yul\":12045:12126   */\n      tag_358\n      jumpi\n        /* \"#utility.yul\":12111:12115   */\n      0x7f\n        /* \"#utility.yul\":12103:12109   */\n      dup3\n        /* \"#utility.yul\":12099:12116   */\n      and\n        /* \"#utility.yul\":12089:12116   */\n      swap2\n      pop\n        /* \"#utility.yul\":12045:12126   */\n    tag_358:\n        /* \"#utility.yul\":12173:12175   */\n      0x20\n        /* \"#utility.yul\":12165:12171   */\n      dup3\n        /* \"#utility.yul\":12162:12176   */\n      lt\n        /* \"#utility.yul\":12142:12160   */\n      dup2\n        /* \"#utility.yul\":12139:12177   */\n      sub\n        /* \"#utility.yul\":12136:12220   */\n      tag_359\n      jumpi\n        /* \"#utility.yul\":12192:12210   */\n      tag_360\n      tag_204\n      jump\t// in\n    tag_360:\n        /* \"#utility.yul\":12136:12220   */\n    tag_359:\n        /* \"#utility.yul\":11957:12226   */\n      pop\n        /* \"#utility.yul\":11906:12226   */\n      swap2\n      swap1\n      pop\n      jump\t// out\n        /* \"#utility.yul\":12232:12372   */\n    tag_205:\n        /* \"#utility.yul\":12280:12284   */\n      0x00\n        /* \"#utility.yul\":12303:12306   */\n      dup2\n        /* \"#utility.yul\":12295:12306   */\n      swap1\n      pop\n        /* \"#utility.yul\":12326:12329   */\n      dup2\n        /* \"#utility.yul\":12323:12324   */\n      0x00\n        /* \"#utility.yul\":12316:12330   */\n      mstore\n        /* \"#utility.yul\":12360:12364   */\n      0x20\n        /* \"#utility.yul\":12357:12358   */\n      0x00\n        /* \"#utility.yul\":12347:12365   */\n      keccak256\n        /* \"#utility.yul\":12339:12365   */\n      swap1\n      pop\n        /* \"#utility.yul\":12232:12372   */\n      swap2\n      swap1\n      pop\n      jump\t// out\n        /* \"#utility.yul\":12378:12471   */\n    tag_206:\n        /* \"#utility.yul\":12415:12421   */\n      0x00\n        /* \"#utility.yul\":12462:12464   */\n      0x20\n        /* \"#utility.yul\":12457:12459   */\n      0x1f\n        /* \"#utility.yul\":12450:12455   */\n      dup4\n        /* \"#utility.yul\":12446:12460   */\n      add\n        /* \"#utility.yul\":12442:12465   */\n      div\n        /* \"#utility.yul\":12432:12465   */\n      swap1\n      pop\n        /* \"#utility.yul\":12378:12471   */\n      swap2\n      swap1\n      pop\n      jump\t// out\n        /* \"#utility.yul\":12477:12584   */\n    tag_207:\n        /* \"#utility.yul\":12521:12529   */\n      0x00\n        /* \"#utility.yul\":12571:12576   */\n      dup3\n        /* \"#utility.yul\":12565:12569   */\n      dup3\n        /* \"#utility.yul\":12561:12577   */\n      shl\n        /* \"#utility.yul\":12540:12577   */\n      swap1\n      pop\n        /* \"#utility.yul\":12477:12584   */\n      swap3\n      swap2\n      pop\n      pop\n      jump\t// out\n        /* \"#utility.yul\":12590:12983   */\n    tag_208:\n        /* \"#utility.yul\":12659:12665   */\n      0x00\n        /* \"#utility.yul\":12709:12710   */\n      0x08\n        /* \"#utility.yul\":12697:12707   */\n      dup4\n        /* \"#utility.yul\":12693:12711   */\n      mul\n        /* \"#utility.yul\":12732:12829   */\n      tag_365\n        /* \"#utility.yul\":12762:12828   */\n      0xffffffffffffffffffffffffffffffffffffffffffffffffffffffffffffffff\n        /* \"#utility.yul\":12751:12760   */\n      dup3\n        /* \"#utility.yul\":12732:12829   */\n      tag_207\n      jump\t// in\n    tag_365:\n        /* \"#utility.yul\":12850:12889   */\n      tag_366\n        /* \"#utility.yul\":12880:12888   */\n      dup7\n        /* \"#utility.yul\":12869:12878   */\n      dup4\n        /* \"#utility.yul\":12850:12889   */\n      tag_207\n      jump\t// in\n    tag_366:\n        /* \"#utility.yul\":12838:12889   */\n      swap6\n      pop\n        /* \"#utility.yul\":12922:12926   */\n      dup1\n        /* \"#utility.yul\":12918:12927   */\n      not\n        /* \"#utility.yul\":12911:12916   */\n      dup5\n        /* \"#utility.yul\":12907:12928   */\n      and\n        /* \"#utility.yul\":12898:12928   */\n      swap4\n      pop\n        /* \"#utility.yul\":12971:12975   */\n      dup1\n        /* \"#utility.yul\":12961:12969   */\n      dup7\n        /* \"#utility.yul\":12957:12976   */\n      and\n        /* \"#utility.yul\":12950:12955   */\n      dup5\n        /* \"#utility.yul\":12947:12977   */\n      or\n        /* \"#utility.yul\":12937:12977   */\n      swap3\n      pop\n        /* \"#utility.yul\":12666:12983   */\n      pop\n      pop\n        /* \"#utility.yul\":12590:12983   */\n      swap4\n      swap3\n      pop\n      pop\n      pop\n      jump\t// out\n        /* \"#utility.yul\":12989:13049   */\n    tag_209:\n        /* \"#utility.yul\":13017:13020   */\n      0x00\n        /* \"#utility.yul\":13038:13043   */\n      dup2\n        /* \"#utility.yul\":13031:13043   */\n      swap1\n      pop\n        /* \"#utility.yul\":12989:13049   */\n      swap2\n      swap1\n      pop\n      jump\t// out\n        /* \"#utility.yul\":13055:13197   */\n    tag_210:\n        /* \"#utility.yul\":13105:13114   */\n      0x00\n        /* \"#utility.yul\":13138:13191   */\n      tag_369\n        /* \"#utility.yul\":13156:13190   */\n      tag_370\n        /* \"#utility.yul\":13165:13189   */\n      tag_371\n        /* \"#utility.yul\":13183:13188   */\n      dup5\n        /* \"#utility.yul\":13165:13189   */\n      tag_169\n      jump\t// in\n    tag_371:\n        /* \"#utility.yul\":13156:13190   */\n      tag_209\n      jump\t// in\n    tag_370:\n        /* \"#utility.yul\":13138:13191   */\n      tag_169\n      jump\t// in\n    tag_369:\n        /* \"#utility.yul\":13125:13191   */\n      swap1\n      pop\n        /* \"#utility.yul\":13055:13197   */\n      swap2\n      swap1\n      pop\n      jump\t// out\n        /* \"#utility.yul\":13203:13278   */\n    tag_211:\n        /* \"#utility.yul\":13246:13249   */\n      0x00\n        /* \"#utility.yul\":13267:13272   */\n      dup2\n        /* \"#utility.yul\":13260:13272   */\n      swap1\n      pop\n        /* \"#utility.yul\":13203:13278   */\n      swap2\n      swap1\n      pop\n      jump\t// out\n        /* \"#utility.yul\":13284:13553   */\n    tag_212:\n        /* \"#utility.yul\":13394:13433   */\n      tag_374\n        /* \"#utility.yul\":13425:13432   */\n      dup4\n        /* \"#utility.yul\":13394:13433   */\n      tag_210\n      jump\t// in\n    tag_374:\n        /* \"#utility.yul\":13455:13546   */\n      tag_375\n        /* \"#utility.yul\":13504:13545   */\n      tag_376\n        /* \"#utility.yul\":13528:13544   */\n      dup3\n        /* \"#utility.yul\":13504:13545   */\n      tag_211\n      jump\t// in\n    tag_376:\n        /* \"#utility.yul\":13496:13502   */\n      dup5\n        /* \"#utility.yul\":13489:13493   */\n      dup5\n        /* \"#utility.yul\":13483:13494   */\n      sload\n        /* \"#utility.yul\":13455:13546   */\n      tag_208\n      jump\t// in\n    tag_375:\n        /* \"#utility.yul\":13449:13453   */\n      dup3\n        /* \"#utility.yul\":13442:13547   */\n      sstore\n        /* \"#utility.yul\":13360:13553   */\n      pop\n        /* \"#utility.yul\":13284:13553   */\n      pop\n      pop\n      pop\n      jump\t// out\n        /* \"#utility.yul\":13559:13632   */\n    tag_213:\n        /* \"#utility.yul\":13604:13607   */\n      0x00\n        /* \"#utility.yul\":13559:13632   */\n      swap1\n      jump\t// out\n        /* \"#utility.yul\":13638:13827   */\n    tag_214:\n        /* \"#utility.yul\":13715:13747   */\n      tag_379\n      tag_213\n      jump\t// in\n    tag_379:\n        /* \"#utility.yul\":13756:13821   */\n      tag_380\n        /* \"#utility.yul\":13814:13820   */\n      dup2\n        /* \"#utility.yul\":13806:13812   */\n      dup5\n        /* \"#utility.yul\":13800:13804   */\n      dup5\n        /* \"#utility.yul\":13756:13821   */\n      tag_212\n      jump\t// in\n    tag_380:\n        /* \"#utility.yul\":13691:13827   */\n      pop\n        /* \"#utility.yul\":13638:13827   */\n      pop\n      pop\n      jump\t// out\n        /* \"#utility.yul\":13833:14019   */\n    tag_215:\n        /* \"#utility.yul\":13893:14013   */\n    tag_382:\n        /* \"#utility.yul\":13910:13913   */\n      dup2\n        /* \"#utility.yul\":13903:13908   */\n      dup2\n        /* \"#utility.yul\":13900:13914   */\n      lt\n        /* \"#utility.yul\":13893:14013   */\n      iszero\n      tag_384\n      jumpi\n        /* \"#utility.yul\":13964:14003   */\n      tag_385\n        /* \"#utility.yul\":14001:14002   */\n      0x00\n        /* \"#utility.yul\":13994:13999   */\n      dup3\n        /* \"#utility.yul\":13964:14003   */\n      tag_214\n      jump\t// in\n    tag_385:\n        /* \"#utility.yul\":13937:13938   */\n      0x01\n        /* \"#utility.yul\":13930:13935   */\n      dup2\n        /* \"#utility.yul\":13926:13939   */\n      add\n        /* \"#utility.yul\":13917:13939   */\n      swap1\n      pop\n        /* \"#utility.yul\":13893:14013   */\n      jump(tag_382)\n    tag_384:\n        /* \"#utility.yul\":13833:14019   */\n      pop\n      pop\n      jump\t// out\n        /* \"#utility.yul\":14025:14566   */\n    tag_216:\n        /* \"#utility.yul\":14125:14127   */\n      0x1f\n        /* \"#utility.yul\":14120:14123   */\n      dup3\n        /* \"#utility.yul\":14117:14128   */\n      gt\n        /* \"#utility.yul\":14114:14559   */\n      iszero\n      tag_387\n      jumpi\n        /* \"#utility.yul\":14159:14196   */\n      tag_388\n        /* \"#utility.yul\":14190:14195   */\n      dup2\n        /* \"#utility.yul\":14159:14196   */\n      tag_205\n      jump\t// in\n    tag_388:\n        /* \"#utility.yul\":14242:14271   */\n      tag_389\n        /* \"#utility.yul\":14260:14270   */\n      dup5\n        /* \"#utility.yul\":14242:14271   */\n      tag_206\n      jump\t// in\n    tag_389:\n        /* \"#utility.yul\":14232:14240   */\n      dup2\n        /* \"#utility.yul\":14228:14272   */\n      add\n        /* \"#utility.yul\":14425:14427   */\n      0x20\n        /* \"#utility.yul\":14413:14423   */\n      dup6\n        /* \"#utility.yul\":14410:14428   */\n      lt\n        /* \"#utility.yul\":14407:14456   */\n      iszero\n      tag_390\n      jumpi\n        /* \"#utility.yul\":14446:14454   */\n      dup2\n        /* \"#utility.yul\":14431:14454   */\n      swap1\n      pop\n        /* \"#utility.yul\":14407:14456   */\n    tag_390:\n        /* \"#utility.yul\":14469:14549   */\n      tag_391\n        /* \"#utility.yul\":14525:14547   */\n      tag_392\n        /* \"#utility.yul\":14543:14546   */\n      dup6\n        /* \"#utility.yul\":14525:14547   */\n      tag_206\n      jump\t// in\n    tag_392:\n        /* \"#utility.yul\":14515:14523   */\n      dup4\n        /* \"#utility.yul\":14511:14548   */\n      add\n        /* \"#utility.yul\":14498:14509   */\n      dup3\n        /* \"#utility.yul\":14469:14549   */\n      tag_215\n      jump\t// in\n    tag_391:\n        /* \"#utility.yul\":14129:14559   */\n      pop\n      pop\n        /* \"#utility.yul\":14114:14559   */\n    tag_387:\n        /* \"#utility.yul\":14025:14566   */\n      pop\n      pop\n      pop\n      jump\t// out\n        /* \"#utility.yul\":14572:14689   */\n    tag_217:\n        /* \"#utility.yul\":14626:14634   */\n      0x00\n        /* \"#utility.yul\":14676:14681   */\n      dup3\n        /* \"#utility.yul\":14670:14674   */\n      dup3\n        /* \"#utility.yul\":14666:14682   */\n      shr\n        /* \"#utility.yul\":14645:14682   */\n      swap1\n      pop\n        /* \"#utility.yul\":14572:14689   */\n      swap3\n      swap2\n      pop\n      pop\n      jump\t// out\n        /* \"#utility.yul\":14695:14864   */\n    tag_218:\n        /* \"#utility.yul\":14739:14745   */\n      0x00\n        /* \"#utility.yul\":14772:14823   */\n      tag_395\n        /* \"#utility.yul\":14820:14821   */\n      0x00\n        /* \"#utility.yul\":14816:14822   */\n      not\n        /* \"#utility.yul\":14808:14813   */\n      dup5\n        /* \"#utility.yul\":14805:14806   */\n      0x08\n        /* \"#utility.yul\":14801:14814   */\n      mul\n        /* \"#utility.yul\":14772:14823   */\n      tag_217\n      jump\t// in\n    tag_395:\n        /* \"#utility.yul\":14768:14824   */\n      not\n        /* \"#utility.yul\":14853:14857   */\n      dup1\n        /* \"#utility.yul\":14847:14851   */\n      dup4\n        /* \"#utility.yul\":14843:14858   */\n      and\n        /* \"#utility.yul\":14833:14858   */\n      swap2\n      pop\n        /* \"#utility.yul\":14746:14864   */\n      pop\n        /* \"#utility.yul\":14695:14864   */\n      swap3\n      swap2\n      pop\n      pop\n      jump\t// out\n        /* \"#utility.yul\":14869:15164   */\n    tag_219:\n        /* \"#utility.yul\":14945:14949   */\n      0x00\n        /* \"#utility.yul\":15091:15120   */\n      tag_397\n        /* \"#utility.yul\":15116:15119   */\n      dup4\n        /* \"#utility.yul\":15110:15114   */\n      dup4\n        /* \"#utility.yul\":15091:15120   */\n      tag_218\n      jump\t// in\n    tag_397:\n        /* \"#utility.yul\":15083:15120   */\n      swap2\n      pop\n        /* \"#utility.yul\":15153:15156   */\n      dup3\n        /* \"#utility.yul\":15150:15151   */\n      0x02\n        /* \"#utility.yul\":15146:15157   */\n      mul\n        /* \"#utility.yul\":15140:15144   */\n      dup3\n        /* \"#utility.yul\":15137:15158   */\n      or\n        /* \"#utility.yul\":15129:15158   */\n      swap1\n      pop\n        /* \"#utility.yul\":14869:15164   */\n      swap3\n      swap2\n      pop\n      pop\n      jump\t// out\n        /* \"#utility.yul\":15169:16559   */\n    tag_81:\n        /* \"#utility.yul\":15284:15320   */\n      tag_399\n        /* \"#utility.yul\":15316:15319   */\n      dup3\n        /* \"#utility.yul\":15284:15320   */\n      tag_176\n      jump\t// in\n    tag_399:\n        /* \"#utility.yul\":15385:15403   */\n      0xffffffffffffffff\n        /* \"#utility.yul\":15377:15383   */\n      dup2\n        /* \"#utility.yul\":15374:15404   */\n      gt\n        /* \"#utility.yul\":15371:15427   */\n      iszero\n      tag_400\n      jumpi\n        /* \"#utility.yul\":15407:15425   */\n      tag_401\n      tag_187\n      jump\t// in\n    tag_401:\n        /* \"#utility.yul\":15371:15427   */\n    tag_400:\n        /* \"#utility.yul\":15451:15489   */\n      tag_402\n        /* \"#utility.yul\":15483:15487   */\n      dup3\n        /* \"#utility.yul\":15477:15488   */\n      sload\n        /* \"#utility.yul\":15451:15489   */\n      tag_71\n      jump\t// in\n    tag_402:\n        /* \"#utility.yul\":15536:15602   */\n      tag_403\n        /* \"#utility.yul\":15595:15601   */\n      dup3\n        /* \"#utility.yul\":15587:15593   */\n      dup3\n        /* \"#utility.yul\":15581:15585   */\n      dup6\n        /* \"#utility.yul\":15536:15602   */\n      tag_216\n      jump\t// in\n    tag_403:\n        /* \"#utility.yul\":15629:15630   */\n      0x00\n        /* \"#utility.yul\":15653:15657   */\n      0x20\n        /* \"#utility.yul\":15640:15657   */\n      swap1\n      pop\n        /* \"#utility.yul\":15685:15687   */\n      0x1f\n        /* \"#utility.yul\":15677:15683   */\n      dup4\n        /* \"#utility.yul\":15674:15688   */\n      gt\n        /* \"#utility.yul\":15702:15703   */\n      0x01\n        /* \"#utility.yul\":15697:16314   */\n      dup2\n      eq\n      tag_405\n      jumpi\n        /* \"#utility.yul\":16358:16359   */\n      0x00\n        /* \"#utility.yul\":16375:16381   */\n      dup5\n        /* \"#utility.yul\":16372:16449   */\n      iszero\n      tag_406\n      jumpi\n        /* \"#utility.yul\":16424:16433   */\n      dup3\n        /* \"#utility.yul\":16419:16422   */\n      dup8\n        /* \"#utility.yul\":16415:16434   */\n      add\n        /* \"#utility.yul\":16409:16435   */\n      mload\n        /* \"#utility.yul\":16400:16435   */\n      swap1\n      pop\n        /* \"#utility.yul\":16372:16449   */\n    tag_406:\n        /* \"#utility.yul\":16475:16542   */\n      tag_407\n        /* \"#utility.yul\":16535:16541   */\n      dup6\n        /* \"#utility.yul\":16528:16533   */\n      dup3\n        /* \"#utility.yul\":16475:16542   */\n      tag_219\n      jump\t// in\n    tag_407:\n        /* \"#utility.yul\":16469:16473   */\n      dup7\n        /* \"#utility.yul\":16462:16543   */\n      sstore\n        /* \"#utility.yul\":16331:16553   */\n      pop\n        /* \"#utility.yul\":15667:16553   */\n      jump(tag_404)\n        /* \"#utility.yul\":15697:16314   */\n    tag_405:\n        /* \"#utility.yul\":15749:15753   */\n      0x1f\n        /* \"#utility.yul\":15745:15754   */\n      not\n        /* \"#utility.yul\":15737:15743   */\n      dup5\n        /* \"#utility.yul\":15733:15755   */\n      and\n        /* \"#utility.yul\":15783:15819   */\n      tag_408\n        /* \"#utility.yul\":15814:15818   */\n      dup7\n        /* \"#utility.yul\":15783:15819   */\n      tag_205\n      jump\t// in\n    tag_408:\n        /* \"#utility.yul\":15841:15842   */\n      0x00\n        /* \"#utility.yul\":15855:16063   */\n    tag_409:\n        /* \"#utility.yul\":15869:15876   */\n      dup3\n        /* \"#utility.yul\":15866:15867   */\n      dup2\n        /* \"#utility.yul\":15863:15877   */\n      lt\n        /* \"#utility.yul\":15855:16063   */\n      iszero\n      tag_411\n      jumpi\n        /* \"#utility.yul\":15948:15957   */\n      dup5\n        /* \"#utility.yul\":15943:15946   */\n      dup10\n        /* \"#utility.yul\":15939:15958   */\n      add\n        /* \"#utility.yul\":15933:15959   */\n      mload\n        /* \"#utility.yul\":15925:15931   */\n      dup3\n        /* \"#utility.yul\":15918:15960   */\n      sstore\n        /* \"#utility.yul\":15999:16000   */\n      0x01\n        /* \"#utility.yul\":15991:15997   */\n      dup3\n        /* \"#utility.yul\":15987:16001   */\n      add\n        /* \"#utility.yul\":15977:16001   */\n      swap2\n      pop\n        /* \"#utility.yul\":16046:16048   */\n      0x20\n        /* \"#utility.yul\":16035:16044   */\n      dup6\n        /* \"#utility.yul\":16031:16049   */\n      add\n        /* \"#utility.yul\":16018:16049   */\n      swap5\n      pop\n        /* \"#utility.yul\":15892:15896   */\n      0x20\n        /* \"#utility.yul\":15889:15890   */\n      dup2\n        /* \"#utility.yul\":15885:15897   */\n      add\n        /* \"#utility.yul\":15880:15897   */\n      swap1\n      pop\n        /* \"#utility.yul\":15855:16063   */\n      jump(tag_409)\n    tag_411:\n        /* \"#utility.yul\":16091:16097   */\n      dup7\n        /* \"#utility.yul\":16082:16089   */\n      dup4\n        /* \"#utility.yul\":16079:16098   */\n      lt\n        /* \"#utility.yul\":16076:16255   */\n      iszero\n      tag_412\n      jumpi\n        /* \"#utility.yul\":16149:16158   */\n      dup5\n        /* \"#utility.yul\":16144:16147   */\n      dup10\n        /* \"#utility.yul\":16140:16159   */\n      add\n        /* \"#utility.yul\":16134:16160   */\n      mload\n        /* \"#utility.yul\":16192:16240   */\n      tag_413\n        /* \"#utility.yul\":16234:16238   */\n      0x1f\n        /* \"#utility.yul\":16226:16232   */\n      dup10\n        /* \"#utility.yul\":16222:16239   */\n      and\n        /* \"#utility.yul\":16211:16220   */\n      dup3\n        /* \"#utility.yul\":16192:16240   */\n      tag_218\n      jump\t// in\n    tag_413:\n        /* \"#utility.yul\":16184:16190   */\n      dup4\n        /* \"#utility.yul\":16177:16241   */\n      sstore\n        /* \"#utility.yul\":16099:16255   */\n      pop\n        /* \"#utility.yul\":16076:16255   */\n    tag_412:\n        /* \"#utility.yul\":16301:16302   */\n      0x01\n        /* \"#utility.yul\":16297:16298   */\n      0x02\n        /* \"#utility.yul\":16289:16295   */\n      dup9\n        /* \"#utility.yul\":16285:16299   */\n      mul\n        /* \"#utility.yul\":16281:16303   */\n      add\n        /* \"#utility.yul\":16275:16279   */\n      dup9\n        /* \"#utility.yul\":16268:16304   */\n      sstore\n        /* \"#utility.yul\":15704:16314   */\n      pop\n      pop\n      pop\n        /* \"#utility.yul\":15667:16553   */\n    tag_404:\n      pop\n        /* \"#utility.yul\":15259:16559   */\n      pop\n      pop\n      pop\n        /* \"#utility.yul\":15169:16559   */\n      pop\n      pop\n      jump\t// out\n        /* \"#utility.yul\":16565:17094   */\n    tag_84:\n        /* \"#utility.yul\":16732:16736   */\n      0x00\n        /* \"#utility.yul\":16770:16772   */\n      0x60\n        /* \"#utility.yul\":16759:16768   */\n      dup3\n        /* \"#utility.yul\":16755:16773   */\n      add\n        /* \"#utility.yul\":16747:16773   */\n      swap1\n      pop\n        /* \"#utility.yul\":16783:16854   */\n      tag_415\n        /* \"#utility.yul\":16851:16852   */\n      0x00\n        /* \"#utility.yul\":16840:16849   */\n      dup4\n        /* \"#utility.yul\":16836:16853   */\n      add\n        /* \"#utility.yul\":16827:16833   */\n      dup7\n        /* \"#utility.yul\":16783:16854   */\n      tag_174\n      jump\t// in\n    tag_415:\n        /* \"#utility.yul\":16864:16936   */\n      tag_416\n        /* \"#utility.yul\":16932:16934   */\n      0x20\n        /* \"#utility.yul\":16921:16930   */\n      dup4\n        /* \"#utility.yul\":16917:16935   */\n      add\n        /* \"#utility.yul\":16908:16914   */\n      dup6\n        /* \"#utility.yul\":16864:16936   */\n      tag_175\n      jump\t// in\n    tag_416:\n        /* \"#utility.yul\":16983:16992   */\n      dup2\n        /* \"#utility.yul\":16977:16981   */\n      dup2\n        /* \"#utility.yul\":16973:16993   */\n      sub\n        /* \"#utility.yul\":16968:16970   */\n      0x40\n        /* \"#utility.yul\":16957:16966   */\n      dup4\n        /* \"#utility.yul\":16953:16971   */\n      add\n        /* \"#utility.yul\":16946:16994   */\n      mstore\n        /* \"#utility.yul\":17011:17087   */\n      tag_417\n        /* \"#utility.yul\":17082:17086   */\n      dup2\n        /* \"#utility.yul\":17073:17079   */\n      dup5\n        /* \"#utility.yul\":17011:17087   */\n      tag_180\n      jump\t// in\n    tag_417:\n        /* \"#utility.yul\":17003:17087   */\n      swap1\n      pop\n        /* \"#utility.yul\":16565:17094   */\n      swap5\n      swap4\n      pop\n      pop\n      pop\n      pop\n      jump\t// out\n        /* \"#utility.yul\":17100:17280   */\n    tag_91:\n        /* \"#utility.yul\":17148:17225   */\n      0x4e487b7100000000000000000000000000000000000000000000000000000000\n        /* \"#utility.yul\":17145:17146   */\n      0x00\n        /* \"#utility.yul\":17138:17226   */\n      mstore\n        /* \"#utility.yul\":17245:17249   */\n      0x32\n        /* \"#utility.yul\":17242:17243   */\n      0x04\n        /* \"#utility.yul\":17235:17250   */\n      mstore\n        /* \"#utility.yul\":17269:17273   */\n      0x24\n        /* \"#utility.yul\":17266:17267   */\n      0x00\n        /* \"#utility.yul\":17259:17274   */\n      revert\n        /* \"#utility.yul\":17286:17457   */\n    tag_220:\n        /* \"#utility.yul\":17426:17449   */\n      0x4e6f7420656e6f756768207369676e6174757265730000000000000000000000\n        /* \"#utility.yul\":17422:17423   */\n      0x00\n        /* \"#utility.yul\":17414:17420   */\n      dup3\n        /* \"#utility.yul\":17410:17424   */\n      add\n        /* \"#utility.yul\":17403:17450   */\n      mstore\n        /* \"#utility.yul\":17286:17457   */\n      pop\n      jump\t// out\n        /* \"#utility.yul\":17463:17829   */\n    tag_221:\n        /* \"#utility.yul\":17605:17608   */\n      0x00\n        /* \"#utility.yul\":17626:17693   */\n      tag_421\n        /* \"#utility.yul\":17690:17692   */\n      0x15\n        /* \"#utility.yul\":17685:17688   */\n      dup4\n        /* \"#utility.yul\":17626:17693   */\n      tag_194\n      jump\t// in\n    tag_421:\n        /* \"#utility.yul\":17619:17693   */\n      swap2\n      pop\n        /* \"#utility.yul\":17702:17795   */\n      tag_422\n        /* \"#utility.yul\":17791:17794   */\n      dup3\n        /* \"#utility.yul\":17702:17795   */\n      tag_220\n      jump\t// in\n    tag_422:\n        /* \"#utility.yul\":17820:17822   */\n      0x20\n        /* \"#utility.yul\":17815:17818   */\n      dup3\n        /* \"#utility.yul\":17811:17823   */\n      add\n        /* \"#utility.yul\":17804:17823   */\n      swap1\n      pop\n        /* \"#utility.yul\":17463:17829   */\n      swap2\n      swap1\n      pop\n      jump\t// out\n        /* \"#utility.yul\":17835:18254   */\n    tag_99:\n        /* \"#utility.yul\":18001:18005   */\n      0x00\n        /* \"#utility.yul\":18039:18041   */\n      0x20\n        /* \"#utility.yul\":18028:18037   */\n      dup3\n        /* \"#utility.yul\":18024:18042   */\n      add\n        /* \"#utility.yul\":18016:18042   */\n      swap1\n      pop\n        /* \"#utility.yul\":18088:18097   */\n      dup2\n        /* \"#utility.yul\":18082:18086   */\n      dup2\n        /* \"#utility.yul\":18078:18098   */\n      sub\n        /* \"#utility.yul\":18074:18075   */\n      0x00\n        /* \"#utility.yul\":18063:18072   */\n      dup4\n        /* \"#utility.yul\":18059:18076   */\n      add\n        /* \"#utility.yul\":18052:18099   */\n      mstore\n        /* \"#utility.yul\":18116:18247   */\n      tag_424\n        /* \"#utility.yul\":18242:18246   */\n      dup2\n        /* \"#utility.yul\":18116:18247   */\n      tag_221\n      jump\t// in\n    tag_424:\n        /* \"#utility.yul\":18108:18247   */\n      swap1\n      pop\n        /* \"#utility.yul\":17835:18254   */\n      swap2\n      swap1\n      pop\n      jump\t// out\n        /* \"#utility.yul\":18260:18425   */\n    tag_222:\n        /* \"#utility.yul\":18400:18417   */\n      0x496e76616c696420616464726573730000000000000000000000000000000000\n        /* \"#utility.yul\":18396:18397   */\n      0x00\n        /* \"#utility.yul\":18388:18394   */\n      dup3\n        /* \"#utility.yul\":18384:18398   */\n      add\n        /* \"#utility.yul\":18377:18418   */\n      mstore\n        /* \"#utility.yul\":18260:18425   */\n      pop\n      jump\t// out\n        /* \"#utility.yul\":18431:18797   */\n    tag_223:\n        /* \"#utility.yul\":18573:18576   */\n      0x00\n        /* \"#utility.yul\":18594:18661   */\n      tag_427\n        /* \"#utility.yul\":18658:18660   */\n      0x0f\n        /* \"#utility.yul\":18653:18656   */\n      dup4\n        /* \"#utility.yul\":18594:18661   */\n      tag_194\n      jump\t// in\n    tag_427:\n        /* \"#utility.yul\":18587:18661   */\n      swap2\n      pop\n        /* \"#utility.yul\":18670:18763   */\n      tag_428\n        /* \"#utility.yul\":18759:18762   */\n      dup3\n        /* \"#utility.yul\":18670:18763   */\n      tag_222\n      jump\t// in\n    tag_428:\n        /* \"#utility.yul\":18788:18790   */\n      0x20\n        /* \"#utility.yul\":18783:18786   */\n      dup3\n        /* \"#utility.yul\":18779:18791   */\n      add\n        /* \"#utility.yul\":18772:18791   */\n      swap1\n      pop\n        /* \"#utility.yul\":18431:18797   */\n      swap2\n      swap1\n      pop\n      jump\t// out\n        /* \"#utility.yul\":18803:19222   */\n    tag_102:\n        /* \"#utility.yul\":18969:18973   */\n      0x00\n        /* \"#utility.yul\":19007:19009   */\n      0x20\n        /* \"#utility.yul\":18996:19005   */\n      dup3\n        /* \"#utility.yul\":18992:19010   */\n      add\n        /* \"#utility.yul\":18984:19010   */\n      swap1\n      pop\n        /* \"#utility.yul\":19056:19065   */\n      dup2\n        /* \"#utility.yul\":19050:19054   */\n      dup2\n        /* \"#utility.yul\":19046:19066   */\n      sub\n        /* \"#utility.yul\":19042:19043   */\n      0x00\n        /* \"#utility.yul\":19031:19040   */\n      dup4\n        /* \"#utility.yul\":19027:19044   */\n      add\n        /* \"#utility.yul\":19020:19067   */\n      mstore\n        /* \"#utility.yul\":19084:19215   */\n      tag_430\n        /* \"#utility.yul\":19210:19214   */\n      dup2\n        /* \"#utility.yul\":19084:19215   */\n      tag_223\n      jump\t// in\n    tag_430:\n        /* \"#utility.yul\":19076:19215   */\n      swap1\n      pop\n        /* \"#utility.yul\":18803:19222   */\n      swap2\n      swap1\n      pop\n      jump\t// out\n        /* \"#utility.yul\":19228:19375   */\n    tag_224:\n        /* \"#utility.yul\":19329:19340   */\n      0x00\n        /* \"#utility.yul\":19366:19369   */\n      dup2\n        /* \"#utility.yul\":19351:19369   */\n      swap1\n      pop\n        /* \"#utility.yul\":19228:19375   */\n      swap3\n      swap2\n      pop\n      pop\n      jump\t// out\n        /* \"#utility.yul\":19381:19495   */\n    tag_225:\n      pop\n      jump\t// out\n        /* \"#utility.yul\":19501:19899   */\n    tag_226:\n        /* \"#utility.yul\":19660:19663   */\n      0x00\n        /* \"#utility.yul\":19681:19764   */\n      tag_434\n        /* \"#utility.yul\":19762:19763   */\n      0x00\n        /* \"#utility.yul\":19757:19760   */\n      dup4\n        /* \"#utility.yul\":19681:19764   */\n      tag_224\n      jump\t// in\n    tag_434:\n        /* \"#utility.yul\":19674:19764   */\n      swap2\n      pop\n        /* \"#utility.yul\":19773:19866   */\n      tag_435\n        /* \"#utility.yul\":19862:19865   */\n      dup3\n        /* \"#utility.yul\":19773:19866   */\n      tag_225\n      jump\t// in\n    tag_435:\n        /* \"#utility.yul\":19891:19892   */\n      0x00\n        /* \"#utility.yul\":19886:19889   */\n      dup3\n        /* \"#utility.yul\":19882:19893   */\n      add\n        /* \"#utility.yul\":19875:19893   */\n      swap1\n      pop\n        /* \"#utility.yul\":19501:19899   */\n      swap2\n      swap1\n      pop\n      jump\t// out\n        /* \"#utility.yul\":19905:20284   */\n    tag_106:\n        /* \"#utility.yul\":20089:20092   */\n      0x00\n        /* \"#utility.yul\":20111:20258   */\n      tag_437\n        /* \"#utility.yul\":20254:20257   */\n      dup3\n        /* \"#utility.yul\":20111:20258   */\n      tag_226\n      jump\t// in\n    tag_437:\n        /* \"#utility.yul\":20104:20258   */\n      swap2\n      pop\n        /* \"#utility.yul\":20275:20278   */\n      dup2\n        /* \"#utility.yul\":20268:20278   */\n      swap1\n      pop\n        /* \"#utility.yul\":19905:20284   */\n      swap2\n      swap1\n      pop\n      jump\t// out\n        /* \"#utility.yul\":20290:20468   */\n    tag_227:\n        /* \"#utility.yul\":20430:20460   */\n      0x5472616e73616374696f6e20657865637574696f6e206661696c656400000000\n        /* \"#utility.yul\":20426:20427   */\n      0x00\n        /* \"#utility.yul\":20418:20424   */\n      dup3\n        /* \"#utility.yul\":20414:20428   */\n      add\n        /* \"#utility.yul\":20407:20461   */\n      mstore\n        /* \"#utility.yul\":20290:20468   */\n      pop\n      jump\t// out\n        /* \"#utility.yul\":20474:20840   */\n    tag_228:\n        /* \"#utility.yul\":20616:20619   */\n      0x00\n        /* \"#utility.yul\":20637:20704   */\n      tag_440\n        /* \"#utility.yul\":20701:20703   */\n      0x1c\n        /* \"#utility.yul\":20696:20699   */\n      dup4\n        /* \"#utility.yul\":20637:20704   */\n      tag_194\n      jump\t// in\n    tag_440:\n        /* \"#utility.yul\":20630:20704   */\n      swap2\n      pop\n        /* \"#utility.yul\":20713:20806   */\n      tag_441\n        /* \"#utility.yul\":20802:20805   */\n      dup3\n        /* \"#utility.yul\":20713:20806   */\n      tag_227\n      jump\t// in\n    tag_441:\n        /* \"#utility.yul\":20831:20833   */\n      0x20\n        /* \"#utility.yul\":20826:20829   */\n      dup3\n        /* \"#utility.yul\":20822:20834   */\n      add\n        /* \"#utility.yul\":20815:20834   */\n      swap1\n      pop\n        /* \"#utility.yul\":20474:20840   */\n      swap2\n      swap1\n      pop\n      jump\t// out\n        /* \"#utility.yul\":20846:21265   */\n    tag_112:\n        /* \"#utility.yul\":21012:21016   */\n      0x00\n        /* \"#utility.yul\":21050:21052   */\n      0x20\n        /* \"#utility.yul\":21039:21048   */\n      dup3\n        /* \"#utility.yul\":21035:21053   */\n      add\n        /* \"#utility.yul\":21027:21053   */\n      swap1\n      pop\n        /* \"#utility.yul\":21099:21108   */\n      dup2\n        /* \"#utility.yul\":21093:21097   */\n      dup2\n        /* \"#utility.yul\":21089:21109   */\n      sub\n        /* \"#utility.yul\":21085:21086   */\n      0x00\n        /* \"#utility.yul\":21074:21083   */\n      dup4\n        /* \"#utility.yul\":21070:21087   */\n      add\n        /* \"#utility.yul\":21063:21110   */\n      mstore\n        /* \"#utility.yul\":21127:21258   */\n      tag_443\n        /* \"#utility.yul\":21253:21257   */\n      dup2\n        /* \"#utility.yul\":21127:21258   */\n      tag_228\n      jump\t// in\n    tag_443:\n        /* \"#utility.yul\":21119:21258   */\n      swap1\n      pop\n        /* \"#utility.yul\":20846:21265   */\n      swap2\n      swap1\n      pop\n      jump\t// out\n        /* \"#utility.yul\":21271:21447   */\n    tag_229:\n        /* \"#utility.yul\":21411:21439   */\n      0x496e76616c69642066756e6374696f6e207369676e6174757265000000000000\n        /* \"#utility.yul\":21407:21408   */\n      0x00\n        /* \"#utility.yul\":21399:21405   */\n      dup3\n        /* \"#utility.yul\":21395:21409   */\n      add\n        /* \"#utility.yul\":21388:21440   */\n      mstore\n        /* \"#utility.yul\":21271:21447   */\n      pop\n      jump\t// out\n        /* \"#utility.yul\":21453:21819   */\n    tag_230:\n        /* \"#utility.yul\":21595:21598   */\n      0x00\n        /* \"#utility.yul\":21616:21683   */\n      tag_446\n        /* \"#utility.yul\":21680:21682   */\n      0x1a\n        /* \"#utility.yul\":21675:21678   */\n      dup4\n        /* \"#utility.yul\":21616:21683   */\n      tag_194\n      jump\t// in\n    tag_446:\n        /* \"#utility.yul\":21609:21683   */\n      swap2\n      pop\n        /* \"#utility.yul\":21692:21785   */\n      tag_447\n        /* \"#utility.yul\":21781:21784   */\n      dup3\n        /* \"#utility.yul\":21692:21785   */\n      tag_229\n      jump\t// in\n    tag_447:\n        /* \"#utility.yul\":21810:21812   */\n      0x20\n        /* \"#utility.yul\":21805:21808   */\n      dup3\n        /* \"#utility.yul\":21801:21813   */\n      add\n        /* \"#utility.yul\":21794:21813   */\n      swap1\n      pop\n        /* \"#utility.yul\":21453:21819   */\n      swap2\n      swap1\n      pop\n      jump\t// out\n        /* \"#utility.yul\":21825:22244   */\n    tag_124:\n        /* \"#utility.yul\":21991:21995   */\n      0x00\n        /* \"#utility.yul\":22029:22031   */\n      0x20\n        /* \"#utility.yul\":22018:22027   */\n      dup3\n        /* \"#utility.yul\":22014:22032   */\n      add\n        /* \"#utility.yul\":22006:22032   */\n      swap1\n      pop\n        /* \"#utility.yul\":22078:22087   */\n      dup2\n        /* \"#utility.yul\":22072:22076   */\n      dup2\n        /* \"#utility.yul\":22068:22088   */\n      sub\n        /* \"#utility.yul\":22064:22065   */\n      0x00\n        /* \"#utility.yul\":22053:22062   */\n      dup4\n        /* \"#utility.yul\":22049:22066   */\n      add\n        /* \"#utility.yul\":22042:22089   */\n      mstore\n        /* \"#utility.yul\":22106:22237   */\n      tag_449\n        /* \"#utility.yul\":22232:22236   */\n      dup2\n        /* \"#utility.yul\":22106:22237   */\n      tag_230\n      jump\t// in\n    tag_449:\n        /* \"#utility.yul\":22098:22237   */\n      swap1\n      pop\n        /* \"#utility.yul\":21825:22244   */\n      swap2\n      swap1\n      pop\n      jump\t// out\n        /* \"#utility.yul\":22250:22426   */\n    tag_231:\n        /* \"#utility.yul\":22390:22418   */\n      0x496e73756666696369656e7420746f6b656e2062616c616e6365000000000000\n        /* \"#utility.yul\":22386:22387   */\n      0x00\n        /* \"#utility.yul\":22378:22384   */\n      dup3\n        /* \"#utility.yul\":22374:22388   */\n      add\n        /* \"#utility.yul\":22367:22419   */\n      mstore\n        /* \"#utility.yul\":22250:22426   */\n      pop\n      jump\t// out\n        /* \"#utility.yul\":22432:22798   */\n    tag_232:\n        /* \"#utility.yul\":22574:22577   */\n      0x00\n        /* \"#utility.yul\":22595:22662   */\n      tag_452\n        /* \"#utility.yul\":22659:22661   */\n      0x1a\n        /* \"#utility.yul\":22654:22657   */\n      dup4\n        /* \"#utility.yul\":22595:22662   */\n      tag_194\n      jump\t// in\n    tag_452:\n        /* \"#utility.yul\":22588:22662   */\n      swap2\n      pop\n        /* \"#utility.yul\":22671:22764   */\n      tag_453\n        /* \"#utility.yul\":22760:22763   */\n      dup3\n        /* \"#utility.yul\":22671:22764   */\n      tag_231\n      jump\t// in\n    tag_453:\n        /* \"#utility.yul\":22789:22791   */\n      0x20\n        /* \"#utility.yul\":22784:22787   */\n      dup3\n        /* \"#utility.yul\":22780:22792   */\n      add\n        /* \"#utility.yul\":22773:22792   */\n      swap1\n      pop\n        /* \"#utility.yul\":22432:22798   */\n      swap2\n      swap1\n      pop\n      jump\t// out\n        /* \"#utility.yul\":22804:23223   */\n    tag_136:\n        /* \"#utility.yul\":22970:22974   */\n      0x00\n        /* \"#utility.yul\":23008:23010   */\n      0x20\n        /* \"#utility.yul\":22997:23006   */\n      dup3\n        /* \"#utility.yul\":22993:23011   */\n      add\n        /* \"#utility.yul\":22985:23011   */\n      swap1\n      pop\n        /* \"#utility.yul\":23057:23066   */\n      dup2\n        /* \"#utility.yul\":23051:23055   */\n      dup2\n        /* \"#utility.yul\":23047:23067   */\n      sub\n        /* \"#utility.yul\":23043:23044   */\n      0x00\n        /* \"#utility.yul\":23032:23041   */\n      dup4\n        /* \"#utility.yul\":23028:23045   */\n      add\n        /* \"#utility.yul\":23021:23068   */\n      mstore\n        /* \"#utility.yul\":23085:23216   */\n      tag_455\n        /* \"#utility.yul\":23211:23215   */\n      dup2\n        /* \"#utility.yul\":23085:23216   */\n      tag_232\n      jump\t// in\n    tag_455:\n        /* \"#utility.yul\":23077:23216   */\n      swap1\n      pop\n        /* \"#utility.yul\":22804:23223   */\n      swap2\n      swap1\n      pop\n      jump\t// out\n        /* \"#utility.yul\":23251:24121   */\n    tag_233:\n        /* \"#utility.yul\":23352:23355   */\n      0x00\n        /* \"#utility.yul\":23389:23394   */\n      dup2\n        /* \"#utility.yul\":23383:23395   */\n      sload\n        /* \"#utility.yul\":23418:23454   */\n      tag_457\n        /* \"#utility.yul\":23444:23453   */\n      dup2\n        /* \"#utility.yul\":23418:23454   */\n      tag_71\n      jump\t// in\n    tag_457:\n        /* \"#utility.yul\":23470:23558   */\n      tag_458\n        /* \"#utility.yul\":23551:23557   */\n      dup2\n        /* \"#utility.yul\":23546:23549   */\n      dup7\n        /* \"#utility.yul\":23470:23558   */\n      tag_224\n      jump\t// in\n    tag_458:\n        /* \"#utility.yul\":23463:23558   */\n      swap5\n      pop\n        /* \"#utility.yul\":23589:23590   */\n      0x01\n        /* \"#utility.yul\":23578:23587   */\n      dup3\n        /* \"#utility.yul\":23574:23591   */\n      and\n        /* \"#utility.yul\":23605:23606   */\n      0x00\n        /* \"#utility.yul\":23600:23766   */\n      dup2\n      eq\n      tag_460\n      jumpi\n        /* \"#utility.yul\":23780:23781   */\n      0x01\n        /* \"#utility.yul\":23775:24115   */\n      dup2\n      eq\n      tag_461\n      jumpi\n        /* \"#utility.yul\":23567:24115   */\n      jump(tag_459)\n        /* \"#utility.yul\":23600:23766   */\n    tag_460:\n        /* \"#utility.yul\":23684:23688   */\n      0xff\n        /* \"#utility.yul\":23680:23689   */\n      not\n        /* \"#utility.yul\":23669:23678   */\n      dup4\n        /* \"#utility.yul\":23665:23690   */\n      and\n        /* \"#utility.yul\":23660:23663   */\n      dup7\n        /* \"#utility.yul\":23653:23691   */\n      mstore\n        /* \"#utility.yul\":23746:23752   */\n      dup2\n        /* \"#utility.yul\":23739:23753   */\n      iszero\n        /* \"#utility.yul\":23732:23754   */\n      iszero\n        /* \"#utility.yul\":23724:23730   */\n      dup3\n        /* \"#utility.yul\":23720:23755   */\n      mul\n        /* \"#utility.yul\":23715:23718   */\n      dup7\n        /* \"#utility.yul\":23711:23756   */\n      add\n        /* \"#utility.yul\":23704:23756   */\n      swap4\n      pop\n        /* \"#utility.yul\":23600:23766   */\n      jump(tag_459)\n        /* \"#utility.yul\":23775:24115   */\n    tag_461:\n        /* \"#utility.yul\":23842:23879   */\n      tag_462\n        /* \"#utility.yul\":23873:23878   */\n      dup6\n        /* \"#utility.yul\":23842:23879   */\n      tag_205\n      jump\t// in\n    tag_462:\n        /* \"#utility.yul\":23901:23902   */\n      0x00\n        /* \"#utility.yul\":23915:24069   */\n    tag_463:\n        /* \"#utility.yul\":23929:23935   */\n      dup4\n        /* \"#utility.yul\":23926:23927   */\n      dup2\n        /* \"#utility.yul\":23923:23936   */\n      lt\n        /* \"#utility.yul\":23915:24069   */\n      iszero\n      tag_465\n      jumpi\n        /* \"#utility.yul\":24003:24010   */\n      dup2\n        /* \"#utility.yul\":23997:24011   */\n      sload\n        /* \"#utility.yul\":23993:23994   */\n      dup2\n        /* \"#utility.yul\":23988:23991   */\n      dup10\n        /* \"#utility.yul\":23984:23995   */\n      add\n        /* \"#utility.yul\":23977:24012   */\n      mstore\n        /* \"#utility.yul\":24053:24054   */\n      0x01\n        /* \"#utility.yul\":24044:24051   */\n      dup3\n        /* \"#utility.yul\":24040:24055   */\n      add\n        /* \"#utility.yul\":24029:24055   */\n      swap2\n      pop\n        /* \"#utility.yul\":23951:23955   */\n      0x20\n        /* \"#utility.yul\":23948:23949   */\n      dup2\n        /* \"#utility.yul\":23944:23956   */\n      add\n        /* \"#utility.yul\":23939:23956   */\n      swap1\n      pop\n        /* \"#utility.yul\":23915:24069   */\n      jump(tag_463)\n    tag_465:\n        /* \"#utility.yul\":24098:24104   */\n      dup4\n        /* \"#utility.yul\":24093:24096   */\n      dup9\n        /* \"#utility.yul\":24089:24105   */\n      add\n        /* \"#utility.yul\":24082:24105   */\n      swap6\n      pop\n        /* \"#utility.yul\":23782:24115   */\n      pop\n      pop\n        /* \"#utility.yul\":23567:24115   */\n    tag_459:\n      pop\n        /* \"#utility.yul\":23356:24121   */\n      pop\n      pop\n        /* \"#utility.yul\":23251:24121   */\n      swap3\n      swap2\n      pop\n      pop\n      jump\t// out\n        /* \"#utility.yul\":24127:24392   */\n    tag_138:\n        /* \"#utility.yul\":24254:24257   */\n      0x00\n        /* \"#utility.yul\":24276:24366   */\n      tag_467\n        /* \"#utility.yul\":24362:24365   */\n      dup3\n        /* \"#utility.yul\":24353:24359   */\n      dup5\n        /* \"#utility.yul\":24276:24366   */\n      tag_233\n      jump\t// in\n    tag_467:\n        /* \"#utility.yul\":24269:24366   */\n      swap2\n      pop\n        /* \"#utility.yul\":24383:24386   */\n      dup2\n        /* \"#utility.yul\":24376:24386   */\n      swap1\n      pop\n        /* \"#utility.yul\":24127:24392   */\n      swap3\n      swap2\n      pop\n      pop\n      jump\t// out\n        /* \"#utility.yul\":24398:24567   */\n    tag_234:\n        /* \"#utility.yul\":24538:24559   */\n      0x496e76616c69642064617461206c656e67746800000000000000000000000000\n        /* \"#utility.yul\":24534:24535   */\n      0x00\n        /* \"#utility.yul\":24526:24532   */\n      dup3\n        /* \"#utility.yul\":24522:24536   */\n      add\n        /* \"#utility.yul\":24515:24560   */\n      mstore\n        /* \"#utility.yul\":24398:24567   */\n      pop\n      jump\t// out\n        /* \"#utility.yul\":24573:24939   */\n    tag_235:\n        /* \"#utility.yul\":24715:24718   */\n      0x00\n        /* \"#utility.yul\":24736:24803   */\n      tag_470\n        /* \"#utility.yul\":24800:24802   */\n      0x13\n        /* \"#utility.yul\":24795:24798   */\n      dup4\n        /* \"#utility.yul\":24736:24803   */\n      tag_194\n      jump\t// in\n    tag_470:\n        /* \"#utility.yul\":24729:24803   */\n      swap2\n      pop\n        /* \"#utility.yul\":24812:24905   */\n      tag_471\n        /* \"#utility.yul\":24901:24904   */\n      dup3\n        /* \"#utility.yul\":24812:24905   */\n      tag_234\n      jump\t// in\n    tag_471:\n        /* \"#utility.yul\":24930:24932   */\n      0x20\n        /* \"#utility.yul\":24925:24928   */\n      dup3\n        /* \"#utility.yul\":24921:24933   */\n      add\n        /* \"#utility.yul\":24914:24933   */\n      swap1\n      pop\n        /* \"#utility.yul\":24573:24939   */\n      swap2\n      swap1\n      pop\n      jump\t// out\n        /* \"#utility.yul\":24945:25364   */\n    tag_147:\n        /* \"#utility.yul\":25111:25115   */\n      0x00\n        /* \"#utility.yul\":25149:25151   */\n      0x20\n        /* \"#utility.yul\":25138:25147   */\n      dup3\n        /* \"#utility.yul\":25134:25152   */\n      add\n        /* \"#utility.yul\":25126:25152   */\n      swap1\n      pop\n        /* \"#utility.yul\":25198:25207   */\n      dup2\n        /* \"#utility.yul\":25192:25196   */\n      dup2\n        /* \"#utility.yul\":25188:25208   */\n      sub\n        /* \"#utility.yul\":25184:25185   */\n      0x00\n        /* \"#utility.yul\":25173:25182   */\n      dup4\n        /* \"#utility.yul\":25169:25186   */\n      add\n        /* \"#utility.yul\":25162:25209   */\n      mstore\n        /* \"#utility.yul\":25226:25357   */\n      tag_473\n        /* \"#utility.yul\":25352:25356   */\n      dup2\n        /* \"#utility.yul\":25226:25357   */\n      tag_235\n      jump\t// in\n    tag_473:\n        /* \"#utility.yul\":25218:25357   */\n      swap1\n      pop\n        /* \"#utility.yul\":24945:25364   */\n      swap2\n      swap1\n      pop\n      jump\t// out\n        /* \"#utility.yul\":25370:25552   */\n    tag_236:\n        /* \"#utility.yul\":25510:25544   */\n      0x496e76616c69642064617461206c656e67746820666f72207472616e73666572\n        /* \"#utility.yul\":25506:25507   */\n      0x00\n        /* \"#utility.yul\":25498:25504   */\n      dup3\n        /* \"#utility.yul\":25494:25508   */\n      add\n        /* \"#utility.yul\":25487:25545   */\n      mstore\n        /* \"#utility.yul\":25370:25552   */\n      pop\n      jump\t// out\n        /* \"#utility.yul\":25558:25924   */\n    tag_237:\n        /* \"#utility.yul\":25700:25703   */\n      0x00\n        /* \"#utility.yul\":25721:25788   */\n      tag_476\n        /* \"#utility.yul\":25785:25787   */\n      0x20\n        /* \"#utility.yul\":25780:25783   */\n      dup4\n        /* \"#utility.yul\":25721:25788   */\n      tag_194\n      jump\t// in\n    tag_476:\n        /* \"#utility.yul\":25714:25788   */\n      swap2\n      pop\n        /* \"#utility.yul\":25797:25890   */\n      tag_477\n        /* \"#utility.yul\":25886:25889   */\n      dup3\n        /* \"#utility.yul\":25797:25890   */\n      tag_236\n      jump\t// in\n    tag_477:\n        /* \"#utility.yul\":25915:25917   */\n      0x20\n        /* \"#utility.yul\":25910:25913   */\n      dup3\n        /* \"#utility.yul\":25906:25918   */\n      add\n        /* \"#utility.yul\":25899:25918   */\n      swap1\n      pop\n        /* \"#utility.yul\":25558:25924   */\n      swap2\n      swap1\n      pop\n      jump\t// out\n        /* \"#utility.yul\":25930:26349   */\n    tag_159:\n        /* \"#utility.yul\":26096:26100   */\n      0x00\n        /* \"#utility.yul\":26134:26136   */\n      0x20\n        /* \"#utility.yul\":26123:26132   */\n      dup3\n        /* \"#utility.yul\":26119:26137   */\n      add\n        /* \"#utility.yul\":26111:26137   */\n      swap1\n      pop\n        /* \"#utility.yul\":26183:26192   */\n      dup2\n        /* \"#utility.yul\":26177:26181   */\n      dup2\n        /* \"#utility.yul\":26173:26193   */\n      sub\n        /* \"#utility.yul\":26169:26170   */\n      0x00\n        /* \"#utility.yul\":26158:26167   */\n      dup4\n        /* \"#utility.yul\":26154:26171   */\n      add\n        /* \"#utility.yul\":26147:26194   */\n      mstore\n        /* \"#utility.yul\":26211:26342   */\n      tag_479\n        /* \"#utility.yul\":26337:26341   */\n      dup2\n        /* \"#utility.yul\":26211:26342   */\n      tag_237\n      jump\t// in\n    tag_479:\n        /* \"#utility.yul\":26203:26342   */\n      swap1\n      pop\n        /* \"#utility.yul\":25930:26349   */\n      swap2\n      swap1\n      pop\n      jump\t// out\n        /* \"#utility.yul\":26355:26498   */\n    tag_238:\n        /* \"#utility.yul\":26412:26417   */\n      0x00\n        /* \"#utility.yul\":26443:26449   */\n      dup2\n        /* \"#utility.yul\":26437:26450   */\n      mload\n        /* \"#utility.yul\":26428:26450   */\n      swap1\n      pop\n        /* \"#utility.yul\":26459:26492   */\n      tag_481\n        /* \"#utility.yul\":26486:26491   */\n      dup2\n        /* \"#utility.yul\":26459:26492   */\n      tag_170\n      jump\t// in\n    tag_481:\n        /* \"#utility.yul\":26355:26498   */\n      swap3\n      swap2\n      pop\n      pop\n      jump\t// out\n        /* \"#utility.yul\":26504:26855   */\n    tag_165:\n        /* \"#utility.yul\":26574:26580   */\n      0x00\n        /* \"#utility.yul\":26623:26625   */\n      0x20\n        /* \"#utility.yul\":26611:26620   */\n      dup3\n        /* \"#utility.yul\":26602:26609   */\n      dup5\n        /* \"#utility.yul\":26598:26621   */\n      sub\n        /* \"#utility.yul\":26594:26626   */\n      slt\n        /* \"#utility.yul\":26591:26710   */\n      iszero\n      tag_483\n      jumpi\n        /* \"#utility.yul\":26629:26708   */\n      tag_484\n      tag_167\n      jump\t// in\n    tag_484:\n        /* \"#utility.yul\":26591:26710   */\n    tag_483:\n        /* \"#utility.yul\":26749:26750   */\n      0x00\n        /* \"#utility.yul\":26774:26838   */\n      tag_485\n        /* \"#utility.yul\":26830:26837   */\n      dup5\n        /* \"#utility.yul\":26821:26827   */\n      dup3\n        /* \"#utility.yul\":26810:26819   */\n      dup6\n        /* \"#utility.yul\":26806:26828   */\n      add\n        /* \"#utility.yul\":26774:26838   */\n      tag_238\n      jump\t// in\n    tag_485:\n        /* \"#utility.yul\":26764:26838   */\n      swap2\n      pop\n        /* \"#utility.yul\":26720:26848   */\n      pop\n        /* \"#utility.yul\":26504:26855   */\n      swap3\n      swap2\n      pop\n      pop\n      jump\t// out\n\n    auxdata: 0xa26469706673582212200be8b1c5743335be4d7c4c66382f49f70624f682a2b635332579f834f9e1233564736f6c634300081a0033\n}\n",
				"bytecode": {
					"linkReferences": {},
					"object": "608060405234801561000f575f80fd5b506040516121d83803806121d883398181016040528101906100319190610377565b5f825111610074576040517f08c379a000000000000000000000000000000000000000000000000000000000815260040161006b9061042b565b60405180910390fd5b5f81118015610084575081518111155b6100c3576040517f08c379a00000000000000000000000000000000000000000000000000000000081526004016100ba906104b9565b60405180910390fd5b815f90805190602001906100d89291906100e7565b508060018190555050506104d7565b828054828255905f5260205f2090810192821561015d579160200282015b8281111561015c578251825f6101000a81548173ffffffffffffffffffffffffffffffffffffffff021916908373ffffffffffffffffffffffffffffffffffffffff16021790555091602001919060010190610105565b5b50905061016a919061016e565b5090565b5b80821115610185575f815f90555060010161016f565b5090565b5f604051905090565b5f80fd5b5f80fd5b5f80fd5b5f601f19601f8301169050919050565b7f4e487b71000000000000000000000000000000000000000000000000000000005f52604160045260245ffd5b6101e48261019e565b810181811067ffffffffffffffff82111715610203576102026101ae565b5b80604052505050565b5f610215610189565b905061022182826101db565b919050565b5f67ffffffffffffffff8211156102405761023f6101ae565b5b602082029050602081019050919050565b5f80fd5b5f73ffffffffffffffffffffffffffffffffffffffff82169050919050565b5f61027e82610255565b9050919050565b61028e81610274565b8114610298575f80fd5b50565b5f815190506102a981610285565b92915050565b5f6102c16102bc84610226565b61020c565b905080838252602082019050602084028301858111156102e4576102e3610251565b5b835b8181101561030d57806102f9888261029b565b8452602084019350506020810190506102e6565b5050509392505050565b5f82601f83011261032b5761032a61019a565b5b815161033b8482602086016102af565b91505092915050565b5f819050919050565b61035681610344565b8114610360575f80fd5b50565b5f815190506103718161034d565b92915050565b5f806040838503121561038d5761038c610192565b5b5f83015167ffffffffffffffff8111156103aa576103a9610196565b5b6103b685828601610317565b92505060206103c785828601610363565b9150509250929050565b5f82825260208201905092915050565b7f4f776e65727320726571756972656400000000000000000000000000000000005f82015250565b5f610415600f836103d1565b9150610420826103e1565b602082019050919050565b5f6020820190508181035f83015261044281610409565b9050919050565b7f496e76616c6964206e756d626572206f66207265717569726564207369676e615f8201527f7475726573000000000000000000000000000000000000000000000000000000602082015250565b5f6104a36025836103d1565b91506104ae82610449565b604082019050919050565b5f6020820190508181035f8301526104d081610497565b9050919050565b611cf4806104e45f395ff3fe608060405234801561000f575f80fd5b506004361061007b575f3560e01c80638d068043116100595780638d068043146100fb5780639ace38c214610119578063a9496e751461014d578063b77bf6001461017d5761007b565b8063025e7c271461007f5780635d9ec210146100af5780636a718015146100cb575b5f80fd5b61009960048036038101906100949190610fe6565b61019b565b6040516100a69190611050565b60405180910390f35b6100c960048036038101906100c49190610fe6565b6101d5565b005b6100e560048036038101906100e09190610fe6565b610417565b6040516100f29190611078565b60405180910390f35b6101036104aa565b6040516101109190611078565b60405180910390f35b610133600480360381019061012e9190610fe6565b6104b0565b60405161014495949392919061111b565b60405180910390f35b610167600480360381019061016291906112c9565b610593565b6040516101749190611078565b60405180910390f35b6101856106d2565b6040516101929190611078565b60405180910390f35b5f81815481106101a9575f80fd5b905f5260205f20015f915054906101000a900473ffffffffffffffffffffffffffffffffffffffff1681565b6101de336106d8565b61021d576040517f08c379a00000000000000000000000000000000000000000000000000000000081526004016102149061138f565b60405180910390fd5b6002548110610261576040517f08c379a0000000000000000000000000000000000000000000000000000000008152600401610258906113f7565b60405180910390fd5b5f60035f8381526020019081526020015f209050806003015f9054906101000a900460ff16156102c6576040517f08c379a00000000000000000000000000000000000000000000000000000000081526004016102bd9061145f565b60405180910390fd5b806005015f3373ffffffffffffffffffffffffffffffffffffffff1673ffffffffffffffffffffffffffffffffffffffff1681526020019081526020015f205f9054906101000a900460ff1615610352576040517f08c379a0000000000000000000000000000000000000000000000000000000008152600401610349906114ed565b60405180910390fd5b6001816005015f3373ffffffffffffffffffffffffffffffffffffffff1673ffffffffffffffffffffffffffffffffffffffff1681526020019081526020015f205f6101000a81548160ff0219169083151502179055506001816004015f8282546103bd9190611538565b92505081905550817f737f6609fa194738ed162051f994c6e9599a830846ea9d72d6501d79871e0981336040516103f49190611050565b60405180910390a26001548160040154106104135761041282610778565b5b5050565b5f600254821061045c576040517f08c379a0000000000000000000000000000000000000000000000000000000008152600401610453906113f7565b60405180910390fd5b5f60035f8481526020019081526020015f209050806003015f9054906101000a900460ff161561048f575f9150506104a5565b80600401546001546104a1919061156b565b9150505b919050565b60015481565b6003602052805f5260405f205f91509050805f015f9054906101000a900473ffffffffffffffffffffffffffffffffffffffff16908060010154908060020180546104fa906115cb565b80601f0160208091040260200160405190810160405280929190818152602001828054610526906115cb565b80156105715780601f1061054857610100808354040283529160200191610571565b820191905f5260205f20905b81548152906001019060200180831161055457829003601f168201915b505050505090806003015f9054906101000a900460ff16908060040154905085565b5f61059d336106d8565b6105dc576040517f08c379a00000000000000000000000000000000000000000000000000000000081526004016105d39061138f565b60405180910390fd5b60025490505f60035f8381526020019081526020015f20905084815f015f6101000a81548173ffffffffffffffffffffffffffffffffffffffff021916908373ffffffffffffffffffffffffffffffffffffffff160217905550838160010181905550828160020190816106509190611798565b505f816003015f6101000a81548160ff0219169083151502179055505f8160040181905550600160025f8282546106879190611538565b92505081905550817f453e07a951b5abb44cc647534a150065e3a308fec0dc01fda6ca43a4984f835b8686866040516106c293929190611867565b60405180910390a2509392505050565b60025481565b5f805f90505b5f8054905081101561076e578273ffffffffffffffffffffffffffffffffffffffff165f8281548110610714576107136118a3565b5b905f5260205f20015f9054906101000a900473ffffffffffffffffffffffffffffffffffffffff1673ffffffffffffffffffffffffffffffffffffffff1603610761576001915050610773565b80806001019150506106de565b505f90505b919050565b5f60035f8381526020019081526020015f209050806003015f9054906101000a900460ff16156107dd576040517f08c379a00000000000000000000000000000000000000000000000000000000081526004016107d49061145f565b60405180910390fd5b60015481600401541015610826576040517f08c379a000000000000000000000000000000000000000000000000000000000815260040161081d9061191a565b60405180910390fd5b5f73ffffffffffffffffffffffffffffffffffffffff16815f015f9054906101000a900473ffffffffffffffffffffffffffffffffffffffff1673ffffffffffffffffffffffffffffffffffffffff16036108b6576040517f08c379a00000000000000000000000000000000000000000000000000000000081526004016108ad90611982565b60405180910390fd5b6001816003015f6101000a81548160ff0219169083151502179055505f8160020180546108e2906115cb565b9050036109bd575f815f015f9054906101000a900473ffffffffffffffffffffffffffffffffffffffff1673ffffffffffffffffffffffffffffffffffffffff168260010154604051610934906119cd565b5f6040518083038185875af1925050503d805f811461096e576040519150601f19603f3d011682016040523d82523d5f602084013e610973565b606091505b50509050806109b7576040517f08c379a00000000000000000000000000000000000000000000000000000000081526004016109ae90611a2b565b60405180910390fd5b50610cda565b5f816001015403610c0b575f815f015f9054906101000a900473ffffffffffffffffffffffffffffffffffffffff1690505f610a82836002018054610a01906115cb565b80601f0160208091040260200160405190810160405280929190818152602001828054610a2d906115cb565b8015610a785780601f10610a4f57610100808354040283529160200191610a78565b820191905f5260205f20905b815481529060010190602001808311610a5b57829003601f168201915b5050505050610d0b565b90507fa9059cbb2ab09eb219583f4a59a5d0623ade346d962bcd4e46b11da047c9049b7bffffffffffffffffffffffffffffffffffffffffffffffffffffffff1916817bffffffffffffffffffffffffffffffffffffffffffffffffffffffff191614610b24576040517f08c379a0000000000000000000000000000000000000000000000000000000008152600401610b1b90611a93565b60405180910390fd5b5f610bb8846002018054610b37906115cb565b80601f0160208091040260200160405190810160405280929190818152602001828054610b63906115cb565b8015610bae5780601f10610b8557610100808354040283529160200191610bae565b820191905f5260205f20905b815481529060010190602001808311610b9157829003601f168201915b5050505050610ec7565b91505080610bc68430610f21565b1015610c07576040517f08c379a0000000000000000000000000000000000000000000000000000000008152600401610bfe90611afb565b60405180910390fd5b5050505b5f815f015f9054906101000a900473ffffffffffffffffffffffffffffffffffffffff1673ffffffffffffffffffffffffffffffffffffffff1682600201604051610c569190611b99565b5f604051808303815f865af19150503d805f8114610c8f576040519150601f19603f3d011682016040523d82523d5f602084013e610c94565b606091505b5050905080610cd8576040517f08c379a0000000000000000000000000000000000000000000000000000000008152600401610ccf90611a2b565b60405180910390fd5b505b817f15ed165a284872ea7017f03df402a0cadfbfab588320ffaf83f160c2f82781c760405160405180910390a25050565b5f600482511015610d51576040517f08c379a0000000000000000000000000000000000000000000000000000000008152600401610d4890611bf9565b60405180910390fd5b601882600381518110610d6757610d666118a3565b5b602001015160f81c60f81b7effffffffffffffffffffffffffffffffffffffffffffffffffffffffffffff19167bffffffffffffffffffffffffffffffffffffffffffffffffffffffff1916901c601083600281518110610dcb57610dca6118a3565b5b602001015160f81c60f81b7effffffffffffffffffffffffffffffffffffffffffffffffffffffffffffff19167bffffffffffffffffffffffffffffffffffffffffffffffffffffffff1916901c600884600181518110610e2f57610e2e6118a3565b5b602001015160f81c60f81b7effffffffffffffffffffffffffffffffffffffffffffffffffffffffffffff19167bffffffffffffffffffffffffffffffffffffffffffffffffffffffff1916901c845f81518110610e9057610e8f6118a3565b5b602001015160f81c60f81b7effffffffffffffffffffffffffffffffffffffffffffffffffffffffffffff19161717179050919050565b5f80604483511015610f0e576040517f08c379a0000000000000000000000000000000000000000000000000000000008152600401610f0590611c61565b60405180910390fd5b6024830151915060448301519050915091565b5f8273ffffffffffffffffffffffffffffffffffffffff166370a08231836040518263ffffffff1660e01b8152600401610f5b9190611050565b602060405180830381865afa158015610f76573d5f803e3d5ffd5b505050506040513d601f19601f82011682018060405250810190610f9a9190611c93565b905092915050565b5f604051905090565b5f80fd5b5f80fd5b5f819050919050565b610fc581610fb3565b8114610fcf575f80fd5b50565b5f81359050610fe081610fbc565b92915050565b5f60208284031215610ffb57610ffa610fab565b5b5f61100884828501610fd2565b91505092915050565b5f73ffffffffffffffffffffffffffffffffffffffff82169050919050565b5f61103a82611011565b9050919050565b61104a81611030565b82525050565b5f6020820190506110635f830184611041565b92915050565b61107281610fb3565b82525050565b5f60208201905061108b5f830184611069565b92915050565b5f81519050919050565b5f82825260208201905092915050565b8281835e5f83830152505050565b5f601f19601f8301169050919050565b5f6110d382611091565b6110dd818561109b565b93506110ed8185602086016110ab565b6110f6816110b9565b840191505092915050565b5f8115159050919050565b61111581611101565b82525050565b5f60a08201905061112e5f830188611041565b61113b6020830187611069565b818103604083015261114d81866110c9565b905061115c606083018561110c565b6111696080830184611069565b9695505050505050565b61117c81611030565b8114611186575f80fd5b50565b5f8135905061119781611173565b92915050565b5f80fd5b5f80fd5b7f4e487b71000000000000000000000000000000000000000000000000000000005f52604160045260245ffd5b6111db826110b9565b810181811067ffffffffffffffff821117156111fa576111f96111a5565b5b80604052505050565b5f61120c610fa2565b905061121882826111d2565b919050565b5f67ffffffffffffffff821115611237576112366111a5565b5b611240826110b9565b9050602081019050919050565b828183375f83830152505050565b5f61126d6112688461121d565b611203565b905082815260208101848484011115611289576112886111a1565b5b61129484828561124d565b509392505050565b5f82601f8301126112b0576112af61119d565b5b81356112c084826020860161125b565b91505092915050565b5f805f606084860312156112e0576112df610fab565b5b5f6112ed86828701611189565b93505060206112fe86828701610fd2565b925050604084013567ffffffffffffffff81111561131f5761131e610faf565b5b61132b8682870161129c565b9150509250925092565b5f82825260208201905092915050565b7f4e6f7420616e206f776e657200000000000000000000000000000000000000005f82015250565b5f611379600c83611335565b915061138482611345565b602082019050919050565b5f6020820190508181035f8301526113a68161136d565b9050919050565b7f5472616e73616374696f6e20646f6573206e6f742065786973740000000000005f82015250565b5f6113e1601a83611335565b91506113ec826113ad565b602082019050919050565b5f6020820190508181035f83015261140e816113d5565b9050919050565b7f5472616e73616374696f6e20616c7265616479206578656375746564000000005f82015250565b5f611449601c83611335565b915061145482611415565b602082019050919050565b5f6020820190508181035f8301526114768161143d565b9050919050565b7f5472616e73616374696f6e20616c7265616479207369676e6564206279206f775f8201527f6e65720000000000000000000000000000000000000000000000000000000000602082015250565b5f6114d7602383611335565b91506114e28261147d565b604082019050919050565b5f6020820190508181035f830152611504816114cb565b9050919050565b7f4e487b71000000000000000000000000000000000000000000000000000000005f52601160045260245ffd5b5f61154282610fb3565b915061154d83610fb3565b92508282019050808211156115655761156461150b565b5b92915050565b5f61157582610fb3565b915061158083610fb3565b92508282039050818111156115985761159761150b565b5b92915050565b7f4e487b71000000000000000000000000000000000000000000000000000000005f52602260045260245ffd5b5f60028204905060018216806115e257607f821691505b6020821081036115f5576115f461159e565b5b50919050565b5f819050815f5260205f209050919050565b5f6020601f8301049050919050565b5f82821b905092915050565b5f600883026116577fffffffffffffffffffffffffffffffffffffffffffffffffffffffffffffffff8261161c565b611661868361161c565b95508019841693508086168417925050509392505050565b5f819050919050565b5f61169c61169761169284610fb3565b611679565b610fb3565b9050919050565b5f819050919050565b6116b583611682565b6116c96116c1826116a3565b848454611628565b825550505050565b5f90565b6116dd6116d1565b6116e88184846116ac565b505050565b5b8181101561170b576117005f826116d5565b6001810190506116ee565b5050565b601f82111561175057611721816115fb565b61172a8461160d565b81016020851015611739578190505b61174d6117458561160d565b8301826116ed565b50505b505050565b5f82821c905092915050565b5f6117705f1984600802611755565b1980831691505092915050565b5f6117888383611761565b9150826002028217905092915050565b6117a182611091565b67ffffffffffffffff8111156117ba576117b96111a5565b5b6117c482546115cb565b6117cf82828561170f565b5f60209050601f831160018114611800575f84156117ee578287015190505b6117f8858261177d565b86555061185f565b601f19841661180e866115fb565b5f5b8281101561183557848901518255600182019150602085019450602081019050611810565b86831015611852578489015161184e601f891682611761565b8355505b6001600288020188555050505b505050505050565b5f60608201905061187a5f830186611041565b6118876020830185611069565b818103604083015261189981846110c9565b9050949350505050565b7f4e487b71000000000000000000000000000000000000000000000000000000005f52603260045260245ffd5b7f4e6f7420656e6f756768207369676e61747572657300000000000000000000005f82015250565b5f611904601583611335565b915061190f826118d0565b602082019050919050565b5f6020820190508181035f830152611931816118f8565b9050919050565b7f496e76616c6964206164647265737300000000000000000000000000000000005f82015250565b5f61196c600f83611335565b915061197782611938565b602082019050919050565b5f6020820190508181035f83015261199981611960565b9050919050565b5f81905092915050565b50565b5f6119b85f836119a0565b91506119c3826119aa565b5f82019050919050565b5f6119d7826119ad565b9150819050919050565b7f5472616e73616374696f6e20657865637574696f6e206661696c6564000000005f82015250565b5f611a15601c83611335565b9150611a20826119e1565b602082019050919050565b5f6020820190508181035f830152611a4281611a09565b9050919050565b7f496e76616c69642066756e6374696f6e207369676e61747572650000000000005f82015250565b5f611a7d601a83611335565b9150611a8882611a49565b602082019050919050565b5f6020820190508181035f830152611aaa81611a71565b9050919050565b7f496e73756666696369656e7420746f6b656e2062616c616e63650000000000005f82015250565b5f611ae5601a83611335565b9150611af082611ab1565b602082019050919050565b5f6020820190508181035f830152611b1281611ad9565b9050919050565b5f8154611b25816115cb565b611b2f81866119a0565b9450600182165f8114611b495760018114611b5e57611b90565b60ff1983168652811515820286019350611b90565b611b67856115fb565b5f5b83811015611b8857815481890152600182019150602081019050611b69565b838801955050505b50505092915050565b5f611ba48284611b19565b915081905092915050565b7f496e76616c69642064617461206c656e677468000000000000000000000000005f82015250565b5f611be3601383611335565b9150611bee82611baf565b602082019050919050565b5f6020820190508181035f830152611c1081611bd7565b9050919050565b7f496e76616c69642064617461206c656e67746820666f72207472616e736665725f82015250565b5f611c4b602083611335565b9150611c5682611c17565b602082019050919050565b5f6020820190508181035f830152611c7881611c3f565b9050919050565b5f81519050611c8d81610fbc565b92915050565b5f60208284031215611ca857611ca7610fab565b5b5f611cb584828501611c7f565b9150509291505056fea26469706673582212200be8b1c5743335be4d7c4c66382f49f70624f682a2b635332579f834f9e1233564736f6c634300081a0033",
					"opcodes": "PUSH1 0x80 PUSH1 0x40 MSTORE CALLVALUE DUP1 ISZERO PUSH2 0xF JUMPI PUSH0 DUP1 REVERT JUMPDEST POP PUSH1 0x40 MLOAD PUSH2 0x21D8 CODESIZE SUB DUP1 PUSH2 0x21D8 DUP4 CODECOPY DUP2 DUP2 ADD PUSH1 0x40 MSTORE DUP2 ADD SWAP1 PUSH2 0x31 SWAP2 SWAP1 PUSH2 0x377 JUMP JUMPDEST PUSH0 DUP3 MLOAD GT PUSH2 0x74 JUMPI PUSH1 0x40 MLOAD PUSH32 0x8C379A000000000000000000000000000000000000000000000000000000000 DUP2 MSTORE PUSH1 0x4 ADD PUSH2 0x6B SWAP1 PUSH2 0x42B JUMP JUMPDEST PUSH1 0x40 MLOAD DUP1 SWAP2 SUB SWAP1 REVERT JUMPDEST PUSH0 DUP2 GT DUP1 ISZERO PUSH2 0x84 JUMPI POP DUP2 MLOAD DUP2 GT ISZERO JUMPDEST PUSH2 0xC3 JUMPI PUSH1 0x40 MLOAD PUSH32 0x8C379A000000000000000000000000000000000000000000000000000000000 DUP2 MSTORE PUSH1 0x4 ADD PUSH2 0xBA SWAP1 PUSH2 0x4B9 JUMP JUMPDEST PUSH1 0x40 MLOAD DUP1 SWAP2 SUB SWAP1 REVERT JUMPDEST DUP2 PUSH0 SWAP1 DUP1 MLOAD SWAP1 PUSH1 0x20 ADD SWAP1 PUSH2 0xD8 SWAP3 SWAP2 SWAP1 PUSH2 0xE7 JUMP JUMPDEST POP DUP1 PUSH1 0x1 DUP2 SWAP1 SSTORE POP POP POP PUSH2 0x4D7 JUMP JUMPDEST DUP3 DUP1 SLOAD DUP3 DUP3 SSTORE SWAP1 PUSH0 MSTORE PUSH1 0x20 PUSH0 KECCAK256 SWAP1 DUP2 ADD SWAP3 DUP3 ISZERO PUSH2 0x15D JUMPI SWAP2 PUSH1 0x20 MUL DUP3 ADD JUMPDEST DUP3 DUP2 GT ISZERO PUSH2 0x15C JUMPI DUP3 MLOAD DUP3 PUSH0 PUSH2 0x100 EXP DUP2 SLOAD DUP2 PUSH20 0xFFFFFFFFFFFFFFFFFFFFFFFFFFFFFFFFFFFFFFFF MUL NOT AND SWAP1 DUP4 PUSH20 0xFFFFFFFFFFFFFFFFFFFFFFFFFFFFFFFFFFFFFFFF AND MUL OR SWAP1 SSTORE POP SWAP2 PUSH1 0x20 ADD SWAP2 SWAP1 PUSH1 0x1 ADD SWAP1 PUSH2 0x105 JUMP JUMPDEST JUMPDEST POP SWAP1 POP PUSH2 0x16A SWAP2 SWAP1 PUSH2 0x16E JUMP JUMPDEST POP SWAP1 JUMP JUMPDEST JUMPDEST DUP1 DUP3 GT ISZERO PUSH2 0x185 JUMPI PUSH0 DUP2 PUSH0 SWAP1 SSTORE POP PUSH1 0x1 ADD PUSH2 0x16F JUMP JUMPDEST POP SWAP1 JUMP JUMPDEST PUSH0 PUSH1 0x40 MLOAD SWAP1 POP SWAP1 JUMP JUMPDEST PUSH0 DUP1 REVERT JUMPDEST PUSH0 DUP1 REVERT JUMPDEST PUSH0 DUP1 REVERT JUMPDEST PUSH0 PUSH1 0x1F NOT PUSH1 0x1F DUP4 ADD AND SWAP1 POP SWAP2 SWAP1 POP JUMP JUMPDEST PUSH32 0x4E487B7100000000000000000000000000000000000000000000000000000000 PUSH0 MSTORE PUSH1 0x41 PUSH1 0x4 MSTORE PUSH1 0x24 PUSH0 REVERT JUMPDEST PUSH2 0x1E4 DUP3 PUSH2 0x19E JUMP JUMPDEST DUP2 ADD DUP2 DUP2 LT PUSH8 0xFFFFFFFFFFFFFFFF DUP3 GT OR ISZERO PUSH2 0x203 JUMPI PUSH2 0x202 PUSH2 0x1AE JUMP JUMPDEST JUMPDEST DUP1 PUSH1 0x40 MSTORE POP POP POP JUMP JUMPDEST PUSH0 PUSH2 0x215 PUSH2 0x189 JUMP JUMPDEST SWAP1 POP PUSH2 0x221 DUP3 DUP3 PUSH2 0x1DB JUMP JUMPDEST SWAP2 SWAP1 POP JUMP JUMPDEST PUSH0 PUSH8 0xFFFFFFFFFFFFFFFF DUP3 GT ISZERO PUSH2 0x240 JUMPI PUSH2 0x23F PUSH2 0x1AE JUMP JUMPDEST JUMPDEST PUSH1 0x20 DUP3 MUL SWAP1 POP PUSH1 0x20 DUP2 ADD SWAP1 POP SWAP2 SWAP1 POP JUMP JUMPDEST PUSH0 DUP1 REVERT JUMPDEST PUSH0 PUSH20 0xFFFFFFFFFFFFFFFFFFFFFFFFFFFFFFFFFFFFFFFF DUP3 AND SWAP1 POP SWAP2 SWAP1 POP JUMP JUMPDEST PUSH0 PUSH2 0x27E DUP3 PUSH2 0x255 JUMP JUMPDEST SWAP1 POP SWAP2 SWAP1 POP JUMP JUMPDEST PUSH2 0x28E DUP2 PUSH2 0x274 JUMP JUMPDEST DUP2 EQ PUSH2 0x298 JUMPI PUSH0 DUP1 REVERT JUMPDEST POP JUMP JUMPDEST PUSH0 DUP2 MLOAD SWAP1 POP PUSH2 0x2A9 DUP2 PUSH2 0x285 JUMP JUMPDEST SWAP3 SWAP2 POP POP JUMP JUMPDEST PUSH0 PUSH2 0x2C1 PUSH2 0x2BC DUP5 PUSH2 0x226 JUMP JUMPDEST PUSH2 0x20C JUMP JUMPDEST SWAP1 POP DUP1 DUP4 DUP3 MSTORE PUSH1 0x20 DUP3 ADD SWAP1 POP PUSH1 0x20 DUP5 MUL DUP4 ADD DUP6 DUP2 GT ISZERO PUSH2 0x2E4 JUMPI PUSH2 0x2E3 PUSH2 0x251 JUMP JUMPDEST JUMPDEST DUP4 JUMPDEST DUP2 DUP2 LT ISZERO PUSH2 0x30D JUMPI DUP1 PUSH2 0x2F9 DUP9 DUP3 PUSH2 0x29B JUMP JUMPDEST DUP5 MSTORE PUSH1 0x20 DUP5 ADD SWAP4 POP POP PUSH1 0x20 DUP2 ADD SWAP1 POP PUSH2 0x2E6 JUMP JUMPDEST POP POP POP SWAP4 SWAP3 POP POP POP JUMP JUMPDEST PUSH0 DUP3 PUSH1 0x1F DUP4 ADD SLT PUSH2 0x32B JUMPI PUSH2 0x32A PUSH2 0x19A JUMP JUMPDEST JUMPDEST DUP2 MLOAD PUSH2 0x33B DUP5 DUP3 PUSH1 0x20 DUP7 ADD PUSH2 0x2AF JUMP JUMPDEST SWAP2 POP POP SWAP3 SWAP2 POP POP JUMP JUMPDEST PUSH0 DUP2 SWAP1 POP SWAP2 SWAP1 POP JUMP JUMPDEST PUSH2 0x356 DUP2 PUSH2 0x344 JUMP JUMPDEST DUP2 EQ PUSH2 0x360 JUMPI PUSH0 DUP1 REVERT JUMPDEST POP JUMP JUMPDEST PUSH0 DUP2 MLOAD SWAP1 POP PUSH2 0x371 DUP2 PUSH2 0x34D JUMP JUMPDEST SWAP3 SWAP2 POP POP JUMP JUMPDEST PUSH0 DUP1 PUSH1 0x40 DUP4 DUP6 SUB SLT ISZERO PUSH2 0x38D JUMPI PUSH2 0x38C PUSH2 0x192 JUMP JUMPDEST JUMPDEST PUSH0 DUP4 ADD MLOAD PUSH8 0xFFFFFFFFFFFFFFFF DUP2 GT ISZERO PUSH2 0x3AA JUMPI PUSH2 0x3A9 PUSH2 0x196 JUMP JUMPDEST JUMPDEST PUSH2 0x3B6 DUP6 DUP3 DUP7 ADD PUSH2 0x317 JUMP JUMPDEST SWAP3 POP POP PUSH1 0x20 PUSH2 0x3C7 DUP6 DUP3 DUP7 ADD PUSH2 0x363 JUMP JUMPDEST SWAP2 POP POP SWAP3 POP SWAP3 SWAP1 POP JUMP JUMPDEST PUSH0 DUP3 DUP3 MSTORE PUSH1 0x20 DUP3 ADD SWAP1 POP SWAP3 SWAP2 POP POP JUMP JUMPDEST PUSH32 0x4F776E6572732072657175697265640000000000000000000000000000000000 PUSH0 DUP3 ADD MSTORE POP JUMP JUMPDEST PUSH0 PUSH2 0x415 PUSH1 0xF DUP4 PUSH2 0x3D1 JUMP JUMPDEST SWAP2 POP PUSH2 0x420 DUP3 PUSH2 0x3E1 JUMP JUMPDEST PUSH1 0x20 DUP3 ADD SWAP1 POP SWAP2 SWAP1 POP JUMP JUMPDEST PUSH0 PUSH1 0x20 DUP3 ADD SWAP1 POP DUP2 DUP2 SUB PUSH0 DUP4 ADD MSTORE PUSH2 0x442 DUP2 PUSH2 0x409 JUMP JUMPDEST SWAP1 POP SWAP2 SWAP1 POP JUMP JUMPDEST PUSH32 0x496E76616C6964206E756D626572206F66207265717569726564207369676E61 PUSH0 DUP3 ADD MSTORE PUSH32 0x7475726573000000000000000000000000000000000000000000000000000000 PUSH1 0x20 DUP3 ADD MSTORE POP JUMP JUMPDEST PUSH0 PUSH2 0x4A3 PUSH1 0x25 DUP4 PUSH2 0x3D1 JUMP JUMPDEST SWAP2 POP PUSH2 0x4AE DUP3 PUSH2 0x449 JUMP JUMPDEST PUSH1 0x40 DUP3 ADD SWAP1 POP SWAP2 SWAP1 POP JUMP JUMPDEST PUSH0 PUSH1 0x20 DUP3 ADD SWAP1 POP DUP2 DUP2 SUB PUSH0 DUP4 ADD MSTORE PUSH2 0x4D0 DUP2 PUSH2 0x497 JUMP JUMPDEST SWAP1 POP SWAP2 SWAP1 POP JUMP JUMPDEST PUSH2 0x1CF4 DUP1 PUSH2 0x4E4 PUSH0 CODECOPY PUSH0 RETURN INVALID PUSH1 0x80 PUSH1 0x40 MSTORE CALLVALUE DUP1 ISZERO PUSH2 0xF JUMPI PUSH0 DUP1 REVERT JUMPDEST POP PUSH1 0x4 CALLDATASIZE LT PUSH2 0x7B JUMPI PUSH0 CALLDATALOAD PUSH1 0xE0 SHR DUP1 PUSH4 0x8D068043 GT PUSH2 0x59 JUMPI DUP1 PUSH4 0x8D068043 EQ PUSH2 0xFB JUMPI DUP1 PUSH4 0x9ACE38C2 EQ PUSH2 0x119 JUMPI DUP1 PUSH4 0xA9496E75 EQ PUSH2 0x14D JUMPI DUP1 PUSH4 0xB77BF600 EQ PUSH2 0x17D JUMPI PUSH2 0x7B JUMP JUMPDEST DUP1 PUSH4 0x25E7C27 EQ PUSH2 0x7F JUMPI DUP1 PUSH4 0x5D9EC210 EQ PUSH2 0xAF JUMPI DUP1 PUSH4 0x6A718015 EQ PUSH2 0xCB JUMPI JUMPDEST PUSH0 DUP1 REVERT JUMPDEST PUSH2 0x99 PUSH1 0x4 DUP1 CALLDATASIZE SUB DUP2 ADD SWAP1 PUSH2 0x94 SWAP2 SWAP1 PUSH2 0xFE6 JUMP JUMPDEST PUSH2 0x19B JUMP JUMPDEST PUSH1 0x40 MLOAD PUSH2 0xA6 SWAP2 SWAP1 PUSH2 0x1050 JUMP JUMPDEST PUSH1 0x40 MLOAD DUP1 SWAP2 SUB SWAP1 RETURN JUMPDEST PUSH2 0xC9 PUSH1 0x4 DUP1 CALLDATASIZE SUB DUP2 ADD SWAP1 PUSH2 0xC4 SWAP2 SWAP1 PUSH2 0xFE6 JUMP JUMPDEST PUSH2 0x1D5 JUMP JUMPDEST STOP JUMPDEST PUSH2 0xE5 PUSH1 0x4 DUP1 CALLDATASIZE SUB DUP2 ADD SWAP1 PUSH2 0xE0 SWAP2 SWAP1 PUSH2 0xFE6 JUMP JUMPDEST PUSH2 0x417 JUMP JUMPDEST PUSH1 0x40 MLOAD PUSH2 0xF2 SWAP2 SWAP1 PUSH2 0x1078 JUMP JUMPDEST PUSH1 0x40 MLOAD DUP1 SWAP2 SUB SWAP1 RETURN JUMPDEST PUSH2 0x103 PUSH2 0x4AA JUMP JUMPDEST PUSH1 0x40 MLOAD PUSH2 0x110 SWAP2 SWAP1 PUSH2 0x1078 JUMP JUMPDEST PUSH1 0x40 MLOAD DUP1 SWAP2 SUB SWAP1 RETURN JUMPDEST PUSH2 0x133 PUSH1 0x4 DUP1 CALLDATASIZE SUB DUP2 ADD SWAP1 PUSH2 0x12E SWAP2 SWAP1 PUSH2 0xFE6 JUMP JUMPDEST PUSH2 0x4B0 JUMP JUMPDEST PUSH1 0x40 MLOAD PUSH2 0x144 SWAP6 SWAP5 SWAP4 SWAP3 SWAP2 SWAP1 PUSH2 0x111B JUMP JUMPDEST PUSH1 0x40 MLOAD DUP1 SWAP2 SUB SWAP1 RETURN JUMPDEST PUSH2 0x167 PUSH1 0x4 DUP1 CALLDATASIZE SUB DUP2 ADD SWAP1 PUSH2 0x162 SWAP2 SWAP1 PUSH2 0x12C9 JUMP JUMPDEST PUSH2 0x593 JUMP JUMPDEST PUSH1 0x40 MLOAD PUSH2 0x174 SWAP2 SWAP1 PUSH2 0x1078 JUMP JUMPDEST PUSH1 0x40 MLOAD DUP1 SWAP2 SUB SWAP1 RETURN JUMPDEST PUSH2 0x185 PUSH2 0x6D2 JUMP JUMPDEST PUSH1 0x40 MLOAD PUSH2 0x192 SWAP2 SWAP1 PUSH2 0x1078 JUMP JUMPDEST PUSH1 0x40 MLOAD DUP1 SWAP2 SUB SWAP1 RETURN JUMPDEST PUSH0 DUP2 DUP2 SLOAD DUP2 LT PUSH2 0x1A9 JUMPI PUSH0 DUP1 REVERT JUMPDEST SWAP1 PUSH0 MSTORE PUSH1 0x20 PUSH0 KECCAK256 ADD PUSH0 SWAP2 POP SLOAD SWAP1 PUSH2 0x100 EXP SWAP1 DIV PUSH20 0xFFFFFFFFFFFFFFFFFFFFFFFFFFFFFFFFFFFFFFFF AND DUP2 JUMP JUMPDEST PUSH2 0x1DE CALLER PUSH2 0x6D8 JUMP JUMPDEST PUSH2 0x21D JUMPI PUSH1 0x40 MLOAD PUSH32 0x8C379A000000000000000000000000000000000000000000000000000000000 DUP2 MSTORE PUSH1 0x4 ADD PUSH2 0x214 SWAP1 PUSH2 0x138F JUMP JUMPDEST PUSH1 0x40 MLOAD DUP1 SWAP2 SUB SWAP1 REVERT JUMPDEST PUSH1 0x2 SLOAD DUP2 LT PUSH2 0x261 JUMPI PUSH1 0x40 MLOAD PUSH32 0x8C379A000000000000000000000000000000000000000000000000000000000 DUP2 MSTORE PUSH1 0x4 ADD PUSH2 0x258 SWAP1 PUSH2 0x13F7 JUMP JUMPDEST PUSH1 0x40 MLOAD DUP1 SWAP2 SUB SWAP1 REVERT JUMPDEST PUSH0 PUSH1 0x3 PUSH0 DUP4 DUP2 MSTORE PUSH1 0x20 ADD SWAP1 DUP2 MSTORE PUSH1 0x20 ADD PUSH0 KECCAK256 SWAP1 POP DUP1 PUSH1 0x3 ADD PUSH0 SWAP1 SLOAD SWAP1 PUSH2 0x100 EXP SWAP1 DIV PUSH1 0xFF AND ISZERO PUSH2 0x2C6 JUMPI PUSH1 0x40 MLOAD PUSH32 0x8C379A000000000000000000000000000000000000000000000000000000000 DUP2 MSTORE PUSH1 0x4 ADD PUSH2 0x2BD SWAP1 PUSH2 0x145F JUMP JUMPDEST PUSH1 0x40 MLOAD DUP1 SWAP2 SUB SWAP1 REVERT JUMPDEST DUP1 PUSH1 0x5 ADD PUSH0 CALLER PUSH20 0xFFFFFFFFFFFFFFFFFFFFFFFFFFFFFFFFFFFFFFFF AND PUSH20 0xFFFFFFFFFFFFFFFFFFFFFFFFFFFFFFFFFFFFFFFF AND DUP2 MSTORE PUSH1 0x20 ADD SWAP1 DUP2 MSTORE PUSH1 0x20 ADD PUSH0 KECCAK256 PUSH0 SWAP1 SLOAD SWAP1 PUSH2 0x100 EXP SWAP1 DIV PUSH1 0xFF AND ISZERO PUSH2 0x352 JUMPI PUSH1 0x40 MLOAD PUSH32 0x8C379A000000000000000000000000000000000000000000000000000000000 DUP2 MSTORE PUSH1 0x4 ADD PUSH2 0x349 SWAP1 PUSH2 0x14ED JUMP JUMPDEST PUSH1 0x40 MLOAD DUP1 SWAP2 SUB SWAP1 REVERT JUMPDEST PUSH1 0x1 DUP2 PUSH1 0x5 ADD PUSH0 CALLER PUSH20 0xFFFFFFFFFFFFFFFFFFFFFFFFFFFFFFFFFFFFFFFF AND PUSH20 0xFFFFFFFFFFFFFFFFFFFFFFFFFFFFFFFFFFFFFFFF AND DUP2 MSTORE PUSH1 0x20 ADD SWAP1 DUP2 MSTORE PUSH1 0x20 ADD PUSH0 KECCAK256 PUSH0 PUSH2 0x100 EXP DUP2 SLOAD DUP2 PUSH1 0xFF MUL NOT AND SWAP1 DUP4 ISZERO ISZERO MUL OR SWAP1 SSTORE POP PUSH1 0x1 DUP2 PUSH1 0x4 ADD PUSH0 DUP3 DUP3 SLOAD PUSH2 0x3BD SWAP2 SWAP1 PUSH2 0x1538 JUMP JUMPDEST SWAP3 POP POP DUP2 SWAP1 SSTORE POP DUP2 PUSH32 0x737F6609FA194738ED162051F994C6E9599A830846EA9D72D6501D79871E0981 CALLER PUSH1 0x40 MLOAD PUSH2 0x3F4 SWAP2 SWAP1 PUSH2 0x1050 JUMP JUMPDEST PUSH1 0x40 MLOAD DUP1 SWAP2 SUB SWAP1 LOG2 PUSH1 0x1 SLOAD DUP2 PUSH1 0x4 ADD SLOAD LT PUSH2 0x413 JUMPI PUSH2 0x412 DUP3 PUSH2 0x778 JUMP JUMPDEST JUMPDEST POP POP JUMP JUMPDEST PUSH0 PUSH1 0x2 SLOAD DUP3 LT PUSH2 0x45C JUMPI PUSH1 0x40 MLOAD PUSH32 0x8C379A000000000000000000000000000000000000000000000000000000000 DUP2 MSTORE PUSH1 0x4 ADD PUSH2 0x453 SWAP1 PUSH2 0x13F7 JUMP JUMPDEST PUSH1 0x40 MLOAD DUP1 SWAP2 SUB SWAP1 REVERT JUMPDEST PUSH0 PUSH1 0x3 PUSH0 DUP5 DUP2 MSTORE PUSH1 0x20 ADD SWAP1 DUP2 MSTORE PUSH1 0x20 ADD PUSH0 KECCAK256 SWAP1 POP DUP1 PUSH1 0x3 ADD PUSH0 SWAP1 SLOAD SWAP1 PUSH2 0x100 EXP SWAP1 DIV PUSH1 0xFF AND ISZERO PUSH2 0x48F JUMPI PUSH0 SWAP2 POP POP PUSH2 0x4A5 JUMP JUMPDEST DUP1 PUSH1 0x4 ADD SLOAD PUSH1 0x1 SLOAD PUSH2 0x4A1 SWAP2 SWAP1 PUSH2 0x156B JUMP JUMPDEST SWAP2 POP POP JUMPDEST SWAP2 SWAP1 POP JUMP JUMPDEST PUSH1 0x1 SLOAD DUP2 JUMP JUMPDEST PUSH1 0x3 PUSH1 0x20 MSTORE DUP1 PUSH0 MSTORE PUSH1 0x40 PUSH0 KECCAK256 PUSH0 SWAP2 POP SWAP1 POP DUP1 PUSH0 ADD PUSH0 SWAP1 SLOAD SWAP1 PUSH2 0x100 EXP SWAP1 DIV PUSH20 0xFFFFFFFFFFFFFFFFFFFFFFFFFFFFFFFFFFFFFFFF AND SWAP1 DUP1 PUSH1 0x1 ADD SLOAD SWAP1 DUP1 PUSH1 0x2 ADD DUP1 SLOAD PUSH2 0x4FA SWAP1 PUSH2 0x15CB JUMP JUMPDEST DUP1 PUSH1 0x1F ADD PUSH1 0x20 DUP1 SWAP2 DIV MUL PUSH1 0x20 ADD PUSH1 0x40 MLOAD SWAP1 DUP2 ADD PUSH1 0x40 MSTORE DUP1 SWAP3 SWAP2 SWAP1 DUP2 DUP2 MSTORE PUSH1 0x20 ADD DUP3 DUP1 SLOAD PUSH2 0x526 SWAP1 PUSH2 0x15CB JUMP JUMPDEST DUP1 ISZERO PUSH2 0x571 JUMPI DUP1 PUSH1 0x1F LT PUSH2 0x548 JUMPI PUSH2 0x100 DUP1 DUP4 SLOAD DIV MUL DUP4 MSTORE SWAP2 PUSH1 0x20 ADD SWAP2 PUSH2 0x571 JUMP JUMPDEST DUP3 ADD SWAP2 SWAP1 PUSH0 MSTORE PUSH1 0x20 PUSH0 KECCAK256 SWAP1 JUMPDEST DUP2 SLOAD DUP2 MSTORE SWAP1 PUSH1 0x1 ADD SWAP1 PUSH1 0x20 ADD DUP1 DUP4 GT PUSH2 0x554 JUMPI DUP3 SWAP1 SUB PUSH1 0x1F AND DUP3 ADD SWAP2 JUMPDEST POP POP POP POP POP SWAP1 DUP1 PUSH1 0x3 ADD PUSH0 SWAP1 SLOAD SWAP1 PUSH2 0x100 EXP SWAP1 DIV PUSH1 0xFF AND SWAP1 DUP1 PUSH1 0x4 ADD SLOAD SWAP1 POP DUP6 JUMP JUMPDEST PUSH0 PUSH2 0x59D CALLER PUSH2 0x6D8 JUMP JUMPDEST PUSH2 0x5DC JUMPI PUSH1 0x40 MLOAD PUSH32 0x8C379A000000000000000000000000000000000000000000000000000000000 DUP2 MSTORE PUSH1 0x4 ADD PUSH2 0x5D3 SWAP1 PUSH2 0x138F JUMP JUMPDEST PUSH1 0x40 MLOAD DUP1 SWAP2 SUB SWAP1 REVERT JUMPDEST PUSH1 0x2 SLOAD SWAP1 POP PUSH0 PUSH1 0x3 PUSH0 DUP4 DUP2 MSTORE PUSH1 0x20 ADD SWAP1 DUP2 MSTORE PUSH1 0x20 ADD PUSH0 KECCAK256 SWAP1 POP DUP5 DUP2 PUSH0 ADD PUSH0 PUSH2 0x100 EXP DUP2 SLOAD DUP2 PUSH20 0xFFFFFFFFFFFFFFFFFFFFFFFFFFFFFFFFFFFFFFFF MUL NOT AND SWAP1 DUP4 PUSH20 0xFFFFFFFFFFFFFFFFFFFFFFFFFFFFFFFFFFFFFFFF AND MUL OR SWAP1 SSTORE POP DUP4 DUP2 PUSH1 0x1 ADD DUP2 SWAP1 SSTORE POP DUP3 DUP2 PUSH1 0x2 ADD SWAP1 DUP2 PUSH2 0x650 SWAP2 SWAP1 PUSH2 0x1798 JUMP JUMPDEST POP PUSH0 DUP2 PUSH1 0x3 ADD PUSH0 PUSH2 0x100 EXP DUP2 SLOAD DUP2 PUSH1 0xFF MUL NOT AND SWAP1 DUP4 ISZERO ISZERO MUL OR SWAP1 SSTORE POP PUSH0 DUP2 PUSH1 0x4 ADD DUP2 SWAP1 SSTORE POP PUSH1 0x1 PUSH1 0x2 PUSH0 DUP3 DUP3 SLOAD PUSH2 0x687 SWAP2 SWAP1 PUSH2 0x1538 JUMP JUMPDEST SWAP3 POP POP DUP2 SWAP1 SSTORE POP DUP2 PUSH32 0x453E07A951B5ABB44CC647534A150065E3A308FEC0DC01FDA6CA43A4984F835B DUP7 DUP7 DUP7 PUSH1 0x40 MLOAD PUSH2 0x6C2 SWAP4 SWAP3 SWAP2 SWAP1 PUSH2 0x1867 JUMP JUMPDEST PUSH1 0x40 MLOAD DUP1 SWAP2 SUB SWAP1 LOG2 POP SWAP4 SWAP3 POP POP POP JUMP JUMPDEST PUSH1 0x2 SLOAD DUP2 JUMP JUMPDEST PUSH0 DUP1 PUSH0 SWAP1 POP JUMPDEST PUSH0 DUP1 SLOAD SWAP1 POP DUP2 LT ISZERO PUSH2 0x76E JUMPI DUP3 PUSH20 0xFFFFFFFFFFFFFFFFFFFFFFFFFFFFFFFFFFFFFFFF AND PUSH0 DUP3 DUP2 SLOAD DUP2 LT PUSH2 0x714 JUMPI PUSH2 0x713 PUSH2 0x18A3 JUMP JUMPDEST JUMPDEST SWAP1 PUSH0 MSTORE PUSH1 0x20 PUSH0 KECCAK256 ADD PUSH0 SWAP1 SLOAD SWAP1 PUSH2 0x100 EXP SWAP1 DIV PUSH20 0xFFFFFFFFFFFFFFFFFFFFFFFFFFFFFFFFFFFFFFFF AND PUSH20 0xFFFFFFFFFFFFFFFFFFFFFFFFFFFFFFFFFFFFFFFF AND SUB PUSH2 0x761 JUMPI PUSH1 0x1 SWAP2 POP POP PUSH2 0x773 JUMP JUMPDEST DUP1 DUP1 PUSH1 0x1 ADD SWAP2 POP POP PUSH2 0x6DE JUMP JUMPDEST POP PUSH0 SWAP1 POP JUMPDEST SWAP2 SWAP1 POP JUMP JUMPDEST PUSH0 PUSH1 0x3 PUSH0 DUP4 DUP2 MSTORE PUSH1 0x20 ADD SWAP1 DUP2 MSTORE PUSH1 0x20 ADD PUSH0 KECCAK256 SWAP1 POP DUP1 PUSH1 0x3 ADD PUSH0 SWAP1 SLOAD SWAP1 PUSH2 0x100 EXP SWAP1 DIV PUSH1 0xFF AND ISZERO PUSH2 0x7DD JUMPI PUSH1 0x40 MLOAD PUSH32 0x8C379A000000000000000000000000000000000000000000000000000000000 DUP2 MSTORE PUSH1 0x4 ADD PUSH2 0x7D4 SWAP1 PUSH2 0x145F JUMP JUMPDEST PUSH1 0x40 MLOAD DUP1 SWAP2 SUB SWAP1 REVERT JUMPDEST PUSH1 0x1 SLOAD DUP2 PUSH1 0x4 ADD SLOAD LT ISZERO PUSH2 0x826 JUMPI PUSH1 0x40 MLOAD PUSH32 0x8C379A000000000000000000000000000000000000000000000000000000000 DUP2 MSTORE PUSH1 0x4 ADD PUSH2 0x81D SWAP1 PUSH2 0x191A JUMP JUMPDEST PUSH1 0x40 MLOAD DUP1 SWAP2 SUB SWAP1 REVERT JUMPDEST PUSH0 PUSH20 0xFFFFFFFFFFFFFFFFFFFFFFFFFFFFFFFFFFFFFFFF AND DUP2 PUSH0 ADD PUSH0 SWAP1 SLOAD SWAP1 PUSH2 0x100 EXP SWAP1 DIV PUSH20 0xFFFFFFFFFFFFFFFFFFFFFFFFFFFFFFFFFFFFFFFF AND PUSH20 0xFFFFFFFFFFFFFFFFFFFFFFFFFFFFFFFFFFFFFFFF AND SUB PUSH2 0x8B6 JUMPI PUSH1 0x40 MLOAD PUSH32 0x8C379A000000000000000000000000000000000000000000000000000000000 DUP2 MSTORE PUSH1 0x4 ADD PUSH2 0x8AD SWAP1 PUSH2 0x1982 JUMP JUMPDEST PUSH1 0x40 MLOAD DUP1 SWAP2 SUB SWAP1 REVERT JUMPDEST PUSH1 0x1 DUP2 PUSH1 0x3 ADD PUSH0 PUSH2 0x100 EXP DUP2 SLOAD DUP2 PUSH1 0xFF MUL NOT AND SWAP1 DUP4 ISZERO ISZERO MUL OR SWAP1 SSTORE POP PUSH0 DUP2 PUSH1 0x2 ADD DUP1 SLOAD PUSH2 0x8E2 SWAP1 PUSH2 0x15CB JUMP JUMPDEST SWAP1 POP SUB PUSH2 0x9BD JUMPI PUSH0 DUP2 PUSH0 ADD PUSH0 SWAP1 SLOAD SWAP1 PUSH2 0x100 EXP SWAP1 DIV PUSH20 0xFFFFFFFFFFFFFFFFFFFFFFFFFFFFFFFFFFFFFFFF AND PUSH20 0xFFFFFFFFFFFFFFFFFFFFFFFFFFFFFFFFFFFFFFFF AND DUP3 PUSH1 0x1 ADD SLOAD PUSH1 0x40 MLOAD PUSH2 0x934 SWAP1 PUSH2 0x19CD JUMP JUMPDEST PUSH0 PUSH1 0x40 MLOAD DUP1 DUP4 SUB DUP2 DUP6 DUP8 GAS CALL SWAP3 POP POP POP RETURNDATASIZE DUP1 PUSH0 DUP2 EQ PUSH2 0x96E JUMPI PUSH1 0x40 MLOAD SWAP2 POP PUSH1 0x1F NOT PUSH1 0x3F RETURNDATASIZE ADD AND DUP3 ADD PUSH1 0x40 MSTORE RETURNDATASIZE DUP3 MSTORE RETURNDATASIZE PUSH0 PUSH1 0x20 DUP5 ADD RETURNDATACOPY PUSH2 0x973 JUMP JUMPDEST PUSH1 0x60 SWAP2 POP JUMPDEST POP POP SWAP1 POP DUP1 PUSH2 0x9B7 JUMPI PUSH1 0x40 MLOAD PUSH32 0x8C379A000000000000000000000000000000000000000000000000000000000 DUP2 MSTORE PUSH1 0x4 ADD PUSH2 0x9AE SWAP1 PUSH2 0x1A2B JUMP JUMPDEST PUSH1 0x40 MLOAD DUP1 SWAP2 SUB SWAP1 REVERT JUMPDEST POP PUSH2 0xCDA JUMP JUMPDEST PUSH0 DUP2 PUSH1 0x1 ADD SLOAD SUB PUSH2 0xC0B JUMPI PUSH0 DUP2 PUSH0 ADD PUSH0 SWAP1 SLOAD SWAP1 PUSH2 0x100 EXP SWAP1 DIV PUSH20 0xFFFFFFFFFFFFFFFFFFFFFFFFFFFFFFFFFFFFFFFF AND SWAP1 POP PUSH0 PUSH2 0xA82 DUP4 PUSH1 0x2 ADD DUP1 SLOAD PUSH2 0xA01 SWAP1 PUSH2 0x15CB JUMP JUMPDEST DUP1 PUSH1 0x1F ADD PUSH1 0x20 DUP1 SWAP2 DIV MUL PUSH1 0x20 ADD PUSH1 0x40 MLOAD SWAP1 DUP2 ADD PUSH1 0x40 MSTORE DUP1 SWAP3 SWAP2 SWAP1 DUP2 DUP2 MSTORE PUSH1 0x20 ADD DUP3 DUP1 SLOAD PUSH2 0xA2D SWAP1 PUSH2 0x15CB JUMP JUMPDEST DUP1 ISZERO PUSH2 0xA78 JUMPI DUP1 PUSH1 0x1F LT PUSH2 0xA4F JUMPI PUSH2 0x100 DUP1 DUP4 SLOAD DIV MUL DUP4 MSTORE SWAP2 PUSH1 0x20 ADD SWAP2 PUSH2 0xA78 JUMP JUMPDEST DUP3 ADD SWAP2 SWAP1 PUSH0 MSTORE PUSH1 0x20 PUSH0 KECCAK256 SWAP1 JUMPDEST DUP2 SLOAD DUP2 MSTORE SWAP1 PUSH1 0x1 ADD SWAP1 PUSH1 0x20 ADD DUP1 DUP4 GT PUSH2 0xA5B JUMPI DUP3 SWAP1 SUB PUSH1 0x1F AND DUP3 ADD SWAP2 JUMPDEST POP POP POP POP POP PUSH2 0xD0B JUMP JUMPDEST SWAP1 POP PUSH32 0xA9059CBB2AB09EB219583F4A59A5D0623ADE346D962BCD4E46B11DA047C9049B PUSH28 0xFFFFFFFFFFFFFFFFFFFFFFFFFFFFFFFFFFFFFFFFFFFFFFFFFFFFFFFF NOT AND DUP2 PUSH28 0xFFFFFFFFFFFFFFFFFFFFFFFFFFFFFFFFFFFFFFFFFFFFFFFFFFFFFFFF NOT AND EQ PUSH2 0xB24 JUMPI PUSH1 0x40 MLOAD PUSH32 0x8C379A000000000000000000000000000000000000000000000000000000000 DUP2 MSTORE PUSH1 0x4 ADD PUSH2 0xB1B SWAP1 PUSH2 0x1A93 JUMP JUMPDEST PUSH1 0x40 MLOAD DUP1 SWAP2 SUB SWAP1 REVERT JUMPDEST PUSH0 PUSH2 0xBB8 DUP5 PUSH1 0x2 ADD DUP1 SLOAD PUSH2 0xB37 SWAP1 PUSH2 0x15CB JUMP JUMPDEST DUP1 PUSH1 0x1F ADD PUSH1 0x20 DUP1 SWAP2 DIV MUL PUSH1 0x20 ADD PUSH1 0x40 MLOAD SWAP1 DUP2 ADD PUSH1 0x40 MSTORE DUP1 SWAP3 SWAP2 SWAP1 DUP2 DUP2 MSTORE PUSH1 0x20 ADD DUP3 DUP1 SLOAD PUSH2 0xB63 SWAP1 PUSH2 0x15CB JUMP JUMPDEST DUP1 ISZERO PUSH2 0xBAE JUMPI DUP1 PUSH1 0x1F LT PUSH2 0xB85 JUMPI PUSH2 0x100 DUP1 DUP4 SLOAD DIV MUL DUP4 MSTORE SWAP2 PUSH1 0x20 ADD SWAP2 PUSH2 0xBAE JUMP JUMPDEST DUP3 ADD SWAP2 SWAP1 PUSH0 MSTORE PUSH1 0x20 PUSH0 KECCAK256 SWAP1 JUMPDEST DUP2 SLOAD DUP2 MSTORE SWAP1 PUSH1 0x1 ADD SWAP1 PUSH1 0x20 ADD DUP1 DUP4 GT PUSH2 0xB91 JUMPI DUP3 SWAP1 SUB PUSH1 0x1F AND DUP3 ADD SWAP2 JUMPDEST POP POP POP POP POP PUSH2 0xEC7 JUMP JUMPDEST SWAP2 POP POP DUP1 PUSH2 0xBC6 DUP5 ADDRESS PUSH2 0xF21 JUMP JUMPDEST LT ISZERO PUSH2 0xC07 JUMPI PUSH1 0x40 MLOAD PUSH32 0x8C379A000000000000000000000000000000000000000000000000000000000 DUP2 MSTORE PUSH1 0x4 ADD PUSH2 0xBFE SWAP1 PUSH2 0x1AFB JUMP JUMPDEST PUSH1 0x40 MLOAD DUP1 SWAP2 SUB SWAP1 REVERT JUMPDEST POP POP POP JUMPDEST PUSH0 DUP2 PUSH0 ADD PUSH0 SWAP1 SLOAD SWAP1 PUSH2 0x100 EXP SWAP1 DIV PUSH20 0xFFFFFFFFFFFFFFFFFFFFFFFFFFFFFFFFFFFFFFFF AND PUSH20 0xFFFFFFFFFFFFFFFFFFFFFFFFFFFFFFFFFFFFFFFF AND DUP3 PUSH1 0x2 ADD PUSH1 0x40 MLOAD PUSH2 0xC56 SWAP2 SWAP1 PUSH2 0x1B99 JUMP JUMPDEST PUSH0 PUSH1 0x40 MLOAD DUP1 DUP4 SUB DUP2 PUSH0 DUP7 GAS CALL SWAP2 POP POP RETURNDATASIZE DUP1 PUSH0 DUP2 EQ PUSH2 0xC8F JUMPI PUSH1 0x40 MLOAD SWAP2 POP PUSH1 0x1F NOT PUSH1 0x3F RETURNDATASIZE ADD AND DUP3 ADD PUSH1 0x40 MSTORE RETURNDATASIZE DUP3 MSTORE RETURNDATASIZE PUSH0 PUSH1 0x20 DUP5 ADD RETURNDATACOPY PUSH2 0xC94 JUMP JUMPDEST PUSH1 0x60 SWAP2 POP JUMPDEST POP POP SWAP1 POP DUP1 PUSH2 0xCD8 JUMPI PUSH1 0x40 MLOAD PUSH32 0x8C379A000000000000000000000000000000000000000000000000000000000 DUP2 MSTORE PUSH1 0x4 ADD PUSH2 0xCCF SWAP1 PUSH2 0x1A2B JUMP JUMPDEST PUSH1 0x40 MLOAD DUP1 SWAP2 SUB SWAP1 REVERT JUMPDEST POP JUMPDEST DUP2 PUSH32 0x15ED165A284872EA7017F03DF402A0CADFBFAB588320FFAF83F160C2F82781C7 PUSH1 0x40 MLOAD PUSH1 0x40 MLOAD DUP1 SWAP2 SUB SWAP1 LOG2 POP POP JUMP JUMPDEST PUSH0 PUSH1 0x4 DUP3 MLOAD LT ISZERO PUSH2 0xD51 JUMPI PUSH1 0x40 MLOAD PUSH32 0x8C379A000000000000000000000000000000000000000000000000000000000 DUP2 MSTORE PUSH1 0x4 ADD PUSH2 0xD48 SWAP1 PUSH2 0x1BF9 JUMP JUMPDEST PUSH1 0x40 MLOAD DUP1 SWAP2 SUB SWAP1 REVERT JUMPDEST PUSH1 0x18 DUP3 PUSH1 0x3 DUP2 MLOAD DUP2 LT PUSH2 0xD67 JUMPI PUSH2 0xD66 PUSH2 0x18A3 JUMP JUMPDEST JUMPDEST PUSH1 0x20 ADD ADD MLOAD PUSH1 0xF8 SHR PUSH1 0xF8 SHL PUSH31 0xFFFFFFFFFFFFFFFFFFFFFFFFFFFFFFFFFFFFFFFFFFFFFFFFFFFFFFFFFFFFFF NOT AND PUSH28 0xFFFFFFFFFFFFFFFFFFFFFFFFFFFFFFFFFFFFFFFFFFFFFFFFFFFFFFFF NOT AND SWAP1 SHR PUSH1 0x10 DUP4 PUSH1 0x2 DUP2 MLOAD DUP2 LT PUSH2 0xDCB JUMPI PUSH2 0xDCA PUSH2 0x18A3 JUMP JUMPDEST JUMPDEST PUSH1 0x20 ADD ADD MLOAD PUSH1 0xF8 SHR PUSH1 0xF8 SHL PUSH31 0xFFFFFFFFFFFFFFFFFFFFFFFFFFFFFFFFFFFFFFFFFFFFFFFFFFFFFFFFFFFFFF NOT AND PUSH28 0xFFFFFFFFFFFFFFFFFFFFFFFFFFFFFFFFFFFFFFFFFFFFFFFFFFFFFFFF NOT AND SWAP1 SHR PUSH1 0x8 DUP5 PUSH1 0x1 DUP2 MLOAD DUP2 LT PUSH2 0xE2F JUMPI PUSH2 0xE2E PUSH2 0x18A3 JUMP JUMPDEST JUMPDEST PUSH1 0x20 ADD ADD MLOAD PUSH1 0xF8 SHR PUSH1 0xF8 SHL PUSH31 0xFFFFFFFFFFFFFFFFFFFFFFFFFFFFFFFFFFFFFFFFFFFFFFFFFFFFFFFFFFFFFF NOT AND PUSH28 0xFFFFFFFFFFFFFFFFFFFFFFFFFFFFFFFFFFFFFFFFFFFFFFFFFFFFFFFF NOT AND SWAP1 SHR DUP5 PUSH0 DUP2 MLOAD DUP2 LT PUSH2 0xE90 JUMPI PUSH2 0xE8F PUSH2 0x18A3 JUMP JUMPDEST JUMPDEST PUSH1 0x20 ADD ADD MLOAD PUSH1 0xF8 SHR PUSH1 0xF8 SHL PUSH31 0xFFFFFFFFFFFFFFFFFFFFFFFFFFFFFFFFFFFFFFFFFFFFFFFFFFFFFFFFFFFFFF NOT AND OR OR OR SWAP1 POP SWAP2 SWAP1 POP JUMP JUMPDEST PUSH0 DUP1 PUSH1 0x44 DUP4 MLOAD LT ISZERO PUSH2 0xF0E JUMPI PUSH1 0x40 MLOAD PUSH32 0x8C379A000000000000000000000000000000000000000000000000000000000 DUP2 MSTORE PUSH1 0x4 ADD PUSH2 0xF05 SWAP1 PUSH2 0x1C61 JUMP JUMPDEST PUSH1 0x40 MLOAD DUP1 SWAP2 SUB SWAP1 REVERT JUMPDEST PUSH1 0x24 DUP4 ADD MLOAD SWAP2 POP PUSH1 0x44 DUP4 ADD MLOAD SWAP1 POP SWAP2 POP SWAP2 JUMP JUMPDEST PUSH0 DUP3 PUSH20 0xFFFFFFFFFFFFFFFFFFFFFFFFFFFFFFFFFFFFFFFF AND PUSH4 0x70A08231 DUP4 PUSH1 0x40 MLOAD DUP3 PUSH4 0xFFFFFFFF AND PUSH1 0xE0 SHL DUP2 MSTORE PUSH1 0x4 ADD PUSH2 0xF5B SWAP2 SWAP1 PUSH2 0x1050 JUMP JUMPDEST PUSH1 0x20 PUSH1 0x40 MLOAD DUP1 DUP4 SUB DUP2 DUP7 GAS STATICCALL ISZERO DUP1 ISZERO PUSH2 0xF76 JUMPI RETURNDATASIZE PUSH0 DUP1 RETURNDATACOPY RETURNDATASIZE PUSH0 REVERT JUMPDEST POP POP POP POP PUSH1 0x40 MLOAD RETURNDATASIZE PUSH1 0x1F NOT PUSH1 0x1F DUP3 ADD AND DUP3 ADD DUP1 PUSH1 0x40 MSTORE POP DUP2 ADD SWAP1 PUSH2 0xF9A SWAP2 SWAP1 PUSH2 0x1C93 JUMP JUMPDEST SWAP1 POP SWAP3 SWAP2 POP POP JUMP JUMPDEST PUSH0 PUSH1 0x40 MLOAD SWAP1 POP SWAP1 JUMP JUMPDEST PUSH0 DUP1 REVERT JUMPDEST PUSH0 DUP1 REVERT JUMPDEST PUSH0 DUP2 SWAP1 POP SWAP2 SWAP1 POP JUMP JUMPDEST PUSH2 0xFC5 DUP2 PUSH2 0xFB3 JUMP JUMPDEST DUP2 EQ PUSH2 0xFCF JUMPI PUSH0 DUP1 REVERT JUMPDEST POP JUMP JUMPDEST PUSH0 DUP2 CALLDATALOAD SWAP1 POP PUSH2 0xFE0 DUP2 PUSH2 0xFBC JUMP JUMPDEST SWAP3 SWAP2 POP POP JUMP JUMPDEST PUSH0 PUSH1 0x20 DUP3 DUP5 SUB SLT ISZERO PUSH2 0xFFB JUMPI PUSH2 0xFFA PUSH2 0xFAB JUMP JUMPDEST JUMPDEST PUSH0 PUSH2 0x1008 DUP5 DUP3 DUP6 ADD PUSH2 0xFD2 JUMP JUMPDEST SWAP2 POP POP SWAP3 SWAP2 POP POP JUMP JUMPDEST PUSH0 PUSH20 0xFFFFFFFFFFFFFFFFFFFFFFFFFFFFFFFFFFFFFFFF DUP3 AND SWAP1 POP SWAP2 SWAP1 POP JUMP JUMPDEST PUSH0 PUSH2 0x103A DUP3 PUSH2 0x1011 JUMP JUMPDEST SWAP1 POP SWAP2 SWAP1 POP JUMP JUMPDEST PUSH2 0x104A DUP2 PUSH2 0x1030 JUMP JUMPDEST DUP3 MSTORE POP POP JUMP JUMPDEST PUSH0 PUSH1 0x20 DUP3 ADD SWAP1 POP PUSH2 0x1063 PUSH0 DUP4 ADD DUP5 PUSH2 0x1041 JUMP JUMPDEST SWAP3 SWAP2 POP POP JUMP JUMPDEST PUSH2 0x1072 DUP2 PUSH2 0xFB3 JUMP JUMPDEST DUP3 MSTORE POP POP JUMP JUMPDEST PUSH0 PUSH1 0x20 DUP3 ADD SWAP1 POP PUSH2 0x108B PUSH0 DUP4 ADD DUP5 PUSH2 0x1069 JUMP JUMPDEST SWAP3 SWAP2 POP POP JUMP JUMPDEST PUSH0 DUP2 MLOAD SWAP1 POP SWAP2 SWAP1 POP JUMP JUMPDEST PUSH0 DUP3 DUP3 MSTORE PUSH1 0x20 DUP3 ADD SWAP1 POP SWAP3 SWAP2 POP POP JUMP JUMPDEST DUP3 DUP2 DUP4 MCOPY PUSH0 DUP4 DUP4 ADD MSTORE POP POP POP JUMP JUMPDEST PUSH0 PUSH1 0x1F NOT PUSH1 0x1F DUP4 ADD AND SWAP1 POP SWAP2 SWAP1 POP JUMP JUMPDEST PUSH0 PUSH2 0x10D3 DUP3 PUSH2 0x1091 JUMP JUMPDEST PUSH2 0x10DD DUP2 DUP6 PUSH2 0x109B JUMP JUMPDEST SWAP4 POP PUSH2 0x10ED DUP2 DUP6 PUSH1 0x20 DUP7 ADD PUSH2 0x10AB JUMP JUMPDEST PUSH2 0x10F6 DUP2 PUSH2 0x10B9 JUMP JUMPDEST DUP5 ADD SWAP2 POP POP SWAP3 SWAP2 POP POP JUMP JUMPDEST PUSH0 DUP2 ISZERO ISZERO SWAP1 POP SWAP2 SWAP1 POP JUMP JUMPDEST PUSH2 0x1115 DUP2 PUSH2 0x1101 JUMP JUMPDEST DUP3 MSTORE POP POP JUMP JUMPDEST PUSH0 PUSH1 0xA0 DUP3 ADD SWAP1 POP PUSH2 0x112E PUSH0 DUP4 ADD DUP9 PUSH2 0x1041 JUMP JUMPDEST PUSH2 0x113B PUSH1 0x20 DUP4 ADD DUP8 PUSH2 0x1069 JUMP JUMPDEST DUP2 DUP2 SUB PUSH1 0x40 DUP4 ADD MSTORE PUSH2 0x114D DUP2 DUP7 PUSH2 0x10C9 JUMP JUMPDEST SWAP1 POP PUSH2 0x115C PUSH1 0x60 DUP4 ADD DUP6 PUSH2 0x110C JUMP JUMPDEST PUSH2 0x1169 PUSH1 0x80 DUP4 ADD DUP5 PUSH2 0x1069 JUMP JUMPDEST SWAP7 SWAP6 POP POP POP POP POP POP JUMP JUMPDEST PUSH2 0x117C DUP2 PUSH2 0x1030 JUMP JUMPDEST DUP2 EQ PUSH2 0x1186 JUMPI PUSH0 DUP1 REVERT JUMPDEST POP JUMP JUMPDEST PUSH0 DUP2 CALLDATALOAD SWAP1 POP PUSH2 0x1197 DUP2 PUSH2 0x1173 JUMP JUMPDEST SWAP3 SWAP2 POP POP JUMP JUMPDEST PUSH0 DUP1 REVERT JUMPDEST PUSH0 DUP1 REVERT JUMPDEST PUSH32 0x4E487B7100000000000000000000000000000000000000000000000000000000 PUSH0 MSTORE PUSH1 0x41 PUSH1 0x4 MSTORE PUSH1 0x24 PUSH0 REVERT JUMPDEST PUSH2 0x11DB DUP3 PUSH2 0x10B9 JUMP JUMPDEST DUP2 ADD DUP2 DUP2 LT PUSH8 0xFFFFFFFFFFFFFFFF DUP3 GT OR ISZERO PUSH2 0x11FA JUMPI PUSH2 0x11F9 PUSH2 0x11A5 JUMP JUMPDEST JUMPDEST DUP1 PUSH1 0x40 MSTORE POP POP POP JUMP JUMPDEST PUSH0 PUSH2 0x120C PUSH2 0xFA2 JUMP JUMPDEST SWAP1 POP PUSH2 0x1218 DUP3 DUP3 PUSH2 0x11D2 JUMP JUMPDEST SWAP2 SWAP1 POP JUMP JUMPDEST PUSH0 PUSH8 0xFFFFFFFFFFFFFFFF DUP3 GT ISZERO PUSH2 0x1237 JUMPI PUSH2 0x1236 PUSH2 0x11A5 JUMP JUMPDEST JUMPDEST PUSH2 0x1240 DUP3 PUSH2 0x10B9 JUMP JUMPDEST SWAP1 POP PUSH1 0x20 DUP2 ADD SWAP1 POP SWAP2 SWAP1 POP JUMP JUMPDEST DUP3 DUP2 DUP4 CALLDATACOPY PUSH0 DUP4 DUP4 ADD MSTORE POP POP POP JUMP JUMPDEST PUSH0 PUSH2 0x126D PUSH2 0x1268 DUP5 PUSH2 0x121D JUMP JUMPDEST PUSH2 0x1203 JUMP JUMPDEST SWAP1 POP DUP3 DUP2 MSTORE PUSH1 0x20 DUP2 ADD DUP5 DUP5 DUP5 ADD GT ISZERO PUSH2 0x1289 JUMPI PUSH2 0x1288 PUSH2 0x11A1 JUMP JUMPDEST JUMPDEST PUSH2 0x1294 DUP5 DUP3 DUP6 PUSH2 0x124D JUMP JUMPDEST POP SWAP4 SWAP3 POP POP POP JUMP JUMPDEST PUSH0 DUP3 PUSH1 0x1F DUP4 ADD SLT PUSH2 0x12B0 JUMPI PUSH2 0x12AF PUSH2 0x119D JUMP JUMPDEST JUMPDEST DUP2 CALLDATALOAD PUSH2 0x12C0 DUP5 DUP3 PUSH1 0x20 DUP7 ADD PUSH2 0x125B JUMP JUMPDEST SWAP2 POP POP SWAP3 SWAP2 POP POP JUMP JUMPDEST PUSH0 DUP1 PUSH0 PUSH1 0x60 DUP5 DUP7 SUB SLT ISZERO PUSH2 0x12E0 JUMPI PUSH2 0x12DF PUSH2 0xFAB JUMP JUMPDEST JUMPDEST PUSH0 PUSH2 0x12ED DUP7 DUP3 DUP8 ADD PUSH2 0x1189 JUMP JUMPDEST SWAP4 POP POP PUSH1 0x20 PUSH2 0x12FE DUP7 DUP3 DUP8 ADD PUSH2 0xFD2 JUMP JUMPDEST SWAP3 POP POP PUSH1 0x40 DUP5 ADD CALLDATALOAD PUSH8 0xFFFFFFFFFFFFFFFF DUP2 GT ISZERO PUSH2 0x131F JUMPI PUSH2 0x131E PUSH2 0xFAF JUMP JUMPDEST JUMPDEST PUSH2 0x132B DUP7 DUP3 DUP8 ADD PUSH2 0x129C JUMP JUMPDEST SWAP2 POP POP SWAP3 POP SWAP3 POP SWAP3 JUMP JUMPDEST PUSH0 DUP3 DUP3 MSTORE PUSH1 0x20 DUP3 ADD SWAP1 POP SWAP3 SWAP2 POP POP JUMP JUMPDEST PUSH32 0x4E6F7420616E206F776E65720000000000000000000000000000000000000000 PUSH0 DUP3 ADD MSTORE POP JUMP JUMPDEST PUSH0 PUSH2 0x1379 PUSH1 0xC DUP4 PUSH2 0x1335 JUMP JUMPDEST SWAP2 POP PUSH2 0x1384 DUP3 PUSH2 0x1345 JUMP JUMPDEST PUSH1 0x20 DUP3 ADD SWAP1 POP SWAP2 SWAP1 POP JUMP JUMPDEST PUSH0 PUSH1 0x20 DUP3 ADD SWAP1 POP DUP2 DUP2 SUB PUSH0 DUP4 ADD MSTORE PUSH2 0x13A6 DUP2 PUSH2 0x136D JUMP JUMPDEST SWAP1 POP SWAP2 SWAP1 POP JUMP JUMPDEST PUSH32 0x5472616E73616374696F6E20646F6573206E6F74206578697374000000000000 PUSH0 DUP3 ADD MSTORE POP JUMP JUMPDEST PUSH0 PUSH2 0x13E1 PUSH1 0x1A DUP4 PUSH2 0x1335 JUMP JUMPDEST SWAP2 POP PUSH2 0x13EC DUP3 PUSH2 0x13AD JUMP JUMPDEST PUSH1 0x20 DUP3 ADD SWAP1 POP SWAP2 SWAP1 POP JUMP JUMPDEST PUSH0 PUSH1 0x20 DUP3 ADD SWAP1 POP DUP2 DUP2 SUB PUSH0 DUP4 ADD MSTORE PUSH2 0x140E DUP2 PUSH2 0x13D5 JUMP JUMPDEST SWAP1 POP SWAP2 SWAP1 POP JUMP JUMPDEST PUSH32 0x5472616E73616374696F6E20616C726561647920657865637574656400000000 PUSH0 DUP3 ADD MSTORE POP JUMP JUMPDEST PUSH0 PUSH2 0x1449 PUSH1 0x1C DUP4 PUSH2 0x1335 JUMP JUMPDEST SWAP2 POP PUSH2 0x1454 DUP3 PUSH2 0x1415 JUMP JUMPDEST PUSH1 0x20 DUP3 ADD SWAP1 POP SWAP2 SWAP1 POP JUMP JUMPDEST PUSH0 PUSH1 0x20 DUP3 ADD SWAP1 POP DUP2 DUP2 SUB PUSH0 DUP4 ADD MSTORE PUSH2 0x1476 DUP2 PUSH2 0x143D JUMP JUMPDEST SWAP1 POP SWAP2 SWAP1 POP JUMP JUMPDEST PUSH32 0x5472616E73616374696F6E20616C7265616479207369676E6564206279206F77 PUSH0 DUP3 ADD MSTORE PUSH32 0x6E65720000000000000000000000000000000000000000000000000000000000 PUSH1 0x20 DUP3 ADD MSTORE POP JUMP JUMPDEST PUSH0 PUSH2 0x14D7 PUSH1 0x23 DUP4 PUSH2 0x1335 JUMP JUMPDEST SWAP2 POP PUSH2 0x14E2 DUP3 PUSH2 0x147D JUMP JUMPDEST PUSH1 0x40 DUP3 ADD SWAP1 POP SWAP2 SWAP1 POP JUMP JUMPDEST PUSH0 PUSH1 0x20 DUP3 ADD SWAP1 POP DUP2 DUP2 SUB PUSH0 DUP4 ADD MSTORE PUSH2 0x1504 DUP2 PUSH2 0x14CB JUMP JUMPDEST SWAP1 POP SWAP2 SWAP1 POP JUMP JUMPDEST PUSH32 0x4E487B7100000000000000000000000000000000000000000000000000000000 PUSH0 MSTORE PUSH1 0x11 PUSH1 0x4 MSTORE PUSH1 0x24 PUSH0 REVERT JUMPDEST PUSH0 PUSH2 0x1542 DUP3 PUSH2 0xFB3 JUMP JUMPDEST SWAP2 POP PUSH2 0x154D DUP4 PUSH2 0xFB3 JUMP JUMPDEST SWAP3 POP DUP3 DUP3 ADD SWAP1 POP DUP1 DUP3 GT ISZERO PUSH2 0x1565 JUMPI PUSH2 0x1564 PUSH2 0x150B JUMP JUMPDEST JUMPDEST SWAP3 SWAP2 POP POP JUMP JUMPDEST PUSH0 PUSH2 0x1575 DUP3 PUSH2 0xFB3 JUMP JUMPDEST SWAP2 POP PUSH2 0x1580 DUP4 PUSH2 0xFB3 JUMP JUMPDEST SWAP3 POP DUP3 DUP3 SUB SWAP1 POP DUP2 DUP2 GT ISZERO PUSH2 0x1598 JUMPI PUSH2 0x1597 PUSH2 0x150B JUMP JUMPDEST JUMPDEST SWAP3 SWAP2 POP POP JUMP JUMPDEST PUSH32 0x4E487B7100000000000000000000000000000000000000000000000000000000 PUSH0 MSTORE PUSH1 0x22 PUSH1 0x4 MSTORE PUSH1 0x24 PUSH0 REVERT JUMPDEST PUSH0 PUSH1 0x2 DUP3 DIV SWAP1 POP PUSH1 0x1 DUP3 AND DUP1 PUSH2 0x15E2 JUMPI PUSH1 0x7F DUP3 AND SWAP2 POP JUMPDEST PUSH1 0x20 DUP3 LT DUP2 SUB PUSH2 0x15F5 JUMPI PUSH2 0x15F4 PUSH2 0x159E JUMP JUMPDEST JUMPDEST POP SWAP2 SWAP1 POP JUMP JUMPDEST PUSH0 DUP2 SWAP1 POP DUP2 PUSH0 MSTORE PUSH1 0x20 PUSH0 KECCAK256 SWAP1 POP SWAP2 SWAP1 POP JUMP JUMPDEST PUSH0 PUSH1 0x20 PUSH1 0x1F DUP4 ADD DIV SWAP1 POP SWAP2 SWAP1 POP JUMP JUMPDEST PUSH0 DUP3 DUP3 SHL SWAP1 POP SWAP3 SWAP2 POP POP JUMP JUMPDEST PUSH0 PUSH1 0x8 DUP4 MUL PUSH2 0x1657 PUSH32 0xFFFFFFFFFFFFFFFFFFFFFFFFFFFFFFFFFFFFFFFFFFFFFFFFFFFFFFFFFFFFFFFF DUP3 PUSH2 0x161C JUMP JUMPDEST PUSH2 0x1661 DUP7 DUP4 PUSH2 0x161C JUMP JUMPDEST SWAP6 POP DUP1 NOT DUP5 AND SWAP4 POP DUP1 DUP7 AND DUP5 OR SWAP3 POP POP POP SWAP4 SWAP3 POP POP POP JUMP JUMPDEST PUSH0 DUP2 SWAP1 POP SWAP2 SWAP1 POP JUMP JUMPDEST PUSH0 PUSH2 0x169C PUSH2 0x1697 PUSH2 0x1692 DUP5 PUSH2 0xFB3 JUMP JUMPDEST PUSH2 0x1679 JUMP JUMPDEST PUSH2 0xFB3 JUMP JUMPDEST SWAP1 POP SWAP2 SWAP1 POP JUMP JUMPDEST PUSH0 DUP2 SWAP1 POP SWAP2 SWAP1 POP JUMP JUMPDEST PUSH2 0x16B5 DUP4 PUSH2 0x1682 JUMP JUMPDEST PUSH2 0x16C9 PUSH2 0x16C1 DUP3 PUSH2 0x16A3 JUMP JUMPDEST DUP5 DUP5 SLOAD PUSH2 0x1628 JUMP JUMPDEST DUP3 SSTORE POP POP POP POP JUMP JUMPDEST PUSH0 SWAP1 JUMP JUMPDEST PUSH2 0x16DD PUSH2 0x16D1 JUMP JUMPDEST PUSH2 0x16E8 DUP2 DUP5 DUP5 PUSH2 0x16AC JUMP JUMPDEST POP POP POP JUMP JUMPDEST JUMPDEST DUP2 DUP2 LT ISZERO PUSH2 0x170B JUMPI PUSH2 0x1700 PUSH0 DUP3 PUSH2 0x16D5 JUMP JUMPDEST PUSH1 0x1 DUP2 ADD SWAP1 POP PUSH2 0x16EE JUMP JUMPDEST POP POP JUMP JUMPDEST PUSH1 0x1F DUP3 GT ISZERO PUSH2 0x1750 JUMPI PUSH2 0x1721 DUP2 PUSH2 0x15FB JUMP JUMPDEST PUSH2 0x172A DUP5 PUSH2 0x160D JUMP JUMPDEST DUP2 ADD PUSH1 0x20 DUP6 LT ISZERO PUSH2 0x1739 JUMPI DUP2 SWAP1 POP JUMPDEST PUSH2 0x174D PUSH2 0x1745 DUP6 PUSH2 0x160D JUMP JUMPDEST DUP4 ADD DUP3 PUSH2 0x16ED JUMP JUMPDEST POP POP JUMPDEST POP POP POP JUMP JUMPDEST PUSH0 DUP3 DUP3 SHR SWAP1 POP SWAP3 SWAP2 POP POP JUMP JUMPDEST PUSH0 PUSH2 0x1770 PUSH0 NOT DUP5 PUSH1 0x8 MUL PUSH2 0x1755 JUMP JUMPDEST NOT DUP1 DUP4 AND SWAP2 POP POP SWAP3 SWAP2 POP POP JUMP JUMPDEST PUSH0 PUSH2 0x1788 DUP4 DUP4 PUSH2 0x1761 JUMP JUMPDEST SWAP2 POP DUP3 PUSH1 0x2 MUL DUP3 OR SWAP1 POP SWAP3 SWAP2 POP POP JUMP JUMPDEST PUSH2 0x17A1 DUP3 PUSH2 0x1091 JUMP JUMPDEST PUSH8 0xFFFFFFFFFFFFFFFF DUP2 GT ISZERO PUSH2 0x17BA JUMPI PUSH2 0x17B9 PUSH2 0x11A5 JUMP JUMPDEST JUMPDEST PUSH2 0x17C4 DUP3 SLOAD PUSH2 0x15CB JUMP JUMPDEST PUSH2 0x17CF DUP3 DUP3 DUP6 PUSH2 0x170F JUMP JUMPDEST PUSH0 PUSH1 0x20 SWAP1 POP PUSH1 0x1F DUP4 GT PUSH1 0x1 DUP2 EQ PUSH2 0x1800 JUMPI PUSH0 DUP5 ISZERO PUSH2 0x17EE JUMPI DUP3 DUP8 ADD MLOAD SWAP1 POP JUMPDEST PUSH2 0x17F8 DUP6 DUP3 PUSH2 0x177D JUMP JUMPDEST DUP7 SSTORE POP PUSH2 0x185F JUMP JUMPDEST PUSH1 0x1F NOT DUP5 AND PUSH2 0x180E DUP7 PUSH2 0x15FB JUMP JUMPDEST PUSH0 JUMPDEST DUP3 DUP2 LT ISZERO PUSH2 0x1835 JUMPI DUP5 DUP10 ADD MLOAD DUP3 SSTORE PUSH1 0x1 DUP3 ADD SWAP2 POP PUSH1 0x20 DUP6 ADD SWAP5 POP PUSH1 0x20 DUP2 ADD SWAP1 POP PUSH2 0x1810 JUMP JUMPDEST DUP7 DUP4 LT ISZERO PUSH2 0x1852 JUMPI DUP5 DUP10 ADD MLOAD PUSH2 0x184E PUSH1 0x1F DUP10 AND DUP3 PUSH2 0x1761 JUMP JUMPDEST DUP4 SSTORE POP JUMPDEST PUSH1 0x1 PUSH1 0x2 DUP9 MUL ADD DUP9 SSTORE POP POP POP JUMPDEST POP POP POP POP POP POP JUMP JUMPDEST PUSH0 PUSH1 0x60 DUP3 ADD SWAP1 POP PUSH2 0x187A PUSH0 DUP4 ADD DUP7 PUSH2 0x1041 JUMP JUMPDEST PUSH2 0x1887 PUSH1 0x20 DUP4 ADD DUP6 PUSH2 0x1069 JUMP JUMPDEST DUP2 DUP2 SUB PUSH1 0x40 DUP4 ADD MSTORE PUSH2 0x1899 DUP2 DUP5 PUSH2 0x10C9 JUMP JUMPDEST SWAP1 POP SWAP5 SWAP4 POP POP POP POP JUMP JUMPDEST PUSH32 0x4E487B7100000000000000000000000000000000000000000000000000000000 PUSH0 MSTORE PUSH1 0x32 PUSH1 0x4 MSTORE PUSH1 0x24 PUSH0 REVERT JUMPDEST PUSH32 0x4E6F7420656E6F756768207369676E6174757265730000000000000000000000 PUSH0 DUP3 ADD MSTORE POP JUMP JUMPDEST PUSH0 PUSH2 0x1904 PUSH1 0x15 DUP4 PUSH2 0x1335 JUMP JUMPDEST SWAP2 POP PUSH2 0x190F DUP3 PUSH2 0x18D0 JUMP JUMPDEST PUSH1 0x20 DUP3 ADD SWAP1 POP SWAP2 SWAP1 POP JUMP JUMPDEST PUSH0 PUSH1 0x20 DUP3 ADD SWAP1 POP DUP2 DUP2 SUB PUSH0 DUP4 ADD MSTORE PUSH2 0x1931 DUP2 PUSH2 0x18F8 JUMP JUMPDEST SWAP1 POP SWAP2 SWAP1 POP JUMP JUMPDEST PUSH32 0x496E76616C696420616464726573730000000000000000000000000000000000 PUSH0 DUP3 ADD MSTORE POP JUMP JUMPDEST PUSH0 PUSH2 0x196C PUSH1 0xF DUP4 PUSH2 0x1335 JUMP JUMPDEST SWAP2 POP PUSH2 0x1977 DUP3 PUSH2 0x1938 JUMP JUMPDEST PUSH1 0x20 DUP3 ADD SWAP1 POP SWAP2 SWAP1 POP JUMP JUMPDEST PUSH0 PUSH1 0x20 DUP3 ADD SWAP1 POP DUP2 DUP2 SUB PUSH0 DUP4 ADD MSTORE PUSH2 0x1999 DUP2 PUSH2 0x1960 JUMP JUMPDEST SWAP1 POP SWAP2 SWAP1 POP JUMP JUMPDEST PUSH0 DUP2 SWAP1 POP SWAP3 SWAP2 POP POP JUMP JUMPDEST POP JUMP JUMPDEST PUSH0 PUSH2 0x19B8 PUSH0 DUP4 PUSH2 0x19A0 JUMP JUMPDEST SWAP2 POP PUSH2 0x19C3 DUP3 PUSH2 0x19AA JUMP JUMPDEST PUSH0 DUP3 ADD SWAP1 POP SWAP2 SWAP1 POP JUMP JUMPDEST PUSH0 PUSH2 0x19D7 DUP3 PUSH2 0x19AD JUMP JUMPDEST SWAP2 POP DUP2 SWAP1 POP SWAP2 SWAP1 POP JUMP JUMPDEST PUSH32 0x5472616E73616374696F6E20657865637574696F6E206661696C656400000000 PUSH0 DUP3 ADD MSTORE POP JUMP JUMPDEST PUSH0 PUSH2 0x1A15 PUSH1 0x1C DUP4 PUSH2 0x1335 JUMP JUMPDEST SWAP2 POP PUSH2 0x1A20 DUP3 PUSH2 0x19E1 JUMP JUMPDEST PUSH1 0x20 DUP3 ADD SWAP1 POP SWAP2 SWAP1 POP JUMP JUMPDEST PUSH0 PUSH1 0x20 DUP3 ADD SWAP1 POP DUP2 DUP2 SUB PUSH0 DUP4 ADD MSTORE PUSH2 0x1A42 DUP2 PUSH2 0x1A09 JUMP JUMPDEST SWAP1 POP SWAP2 SWAP1 POP JUMP JUMPDEST PUSH32 0x496E76616C69642066756E6374696F6E207369676E6174757265000000000000 PUSH0 DUP3 ADD MSTORE POP JUMP JUMPDEST PUSH0 PUSH2 0x1A7D PUSH1 0x1A DUP4 PUSH2 0x1335 JUMP JUMPDEST SWAP2 POP PUSH2 0x1A88 DUP3 PUSH2 0x1A49 JUMP JUMPDEST PUSH1 0x20 DUP3 ADD SWAP1 POP SWAP2 SWAP1 POP JUMP JUMPDEST PUSH0 PUSH1 0x20 DUP3 ADD SWAP1 POP DUP2 DUP2 SUB PUSH0 DUP4 ADD MSTORE PUSH2 0x1AAA DUP2 PUSH2 0x1A71 JUMP JUMPDEST SWAP1 POP SWAP2 SWAP1 POP JUMP JUMPDEST PUSH32 0x496E73756666696369656E7420746F6B656E2062616C616E6365000000000000 PUSH0 DUP3 ADD MSTORE POP JUMP JUMPDEST PUSH0 PUSH2 0x1AE5 PUSH1 0x1A DUP4 PUSH2 0x1335 JUMP JUMPDEST SWAP2 POP PUSH2 0x1AF0 DUP3 PUSH2 0x1AB1 JUMP JUMPDEST PUSH1 0x20 DUP3 ADD SWAP1 POP SWAP2 SWAP1 POP JUMP JUMPDEST PUSH0 PUSH1 0x20 DUP3 ADD SWAP1 POP DUP2 DUP2 SUB PUSH0 DUP4 ADD MSTORE PUSH2 0x1B12 DUP2 PUSH2 0x1AD9 JUMP JUMPDEST SWAP1 POP SWAP2 SWAP1 POP JUMP JUMPDEST PUSH0 DUP2 SLOAD PUSH2 0x1B25 DUP2 PUSH2 0x15CB JUMP JUMPDEST PUSH2 0x1B2F DUP2 DUP7 PUSH2 0x19A0 JUMP JUMPDEST SWAP5 POP PUSH1 0x1 DUP3 AND PUSH0 DUP2 EQ PUSH2 0x1B49 JUMPI PUSH1 0x1 DUP2 EQ PUSH2 0x1B5E JUMPI PUSH2 0x1B90 JUMP JUMPDEST PUSH1 0xFF NOT DUP4 AND DUP7 MSTORE DUP2 ISZERO ISZERO DUP3 MUL DUP7 ADD SWAP4 POP PUSH2 0x1B90 JUMP JUMPDEST PUSH2 0x1B67 DUP6 PUSH2 0x15FB JUMP JUMPDEST PUSH0 JUMPDEST DUP4 DUP2 LT ISZERO PUSH2 0x1B88 JUMPI DUP2 SLOAD DUP2 DUP10 ADD MSTORE PUSH1 0x1 DUP3 ADD SWAP2 POP PUSH1 0x20 DUP2 ADD SWAP1 POP PUSH2 0x1B69 JUMP JUMPDEST DUP4 DUP9 ADD SWAP6 POP POP POP JUMPDEST POP POP POP SWAP3 SWAP2 POP POP JUMP JUMPDEST PUSH0 PUSH2 0x1BA4 DUP3 DUP5 PUSH2 0x1B19 JUMP JUMPDEST SWAP2 POP DUP2 SWAP1 POP SWAP3 SWAP2 POP POP JUMP JUMPDEST PUSH32 0x496E76616C69642064617461206C656E67746800000000000000000000000000 PUSH0 DUP3 ADD MSTORE POP JUMP JUMPDEST PUSH0 PUSH2 0x1BE3 PUSH1 0x13 DUP4 PUSH2 0x1335 JUMP JUMPDEST SWAP2 POP PUSH2 0x1BEE DUP3 PUSH2 0x1BAF JUMP JUMPDEST PUSH1 0x20 DUP3 ADD SWAP1 POP SWAP2 SWAP1 POP JUMP JUMPDEST PUSH0 PUSH1 0x20 DUP3 ADD SWAP1 POP DUP2 DUP2 SUB PUSH0 DUP4 ADD MSTORE PUSH2 0x1C10 DUP2 PUSH2 0x1BD7 JUMP JUMPDEST SWAP1 POP SWAP2 SWAP1 POP JUMP JUMPDEST PUSH32 0x496E76616C69642064617461206C656E67746820666F72207472616E73666572 PUSH0 DUP3 ADD MSTORE POP JUMP JUMPDEST PUSH0 PUSH2 0x1C4B PUSH1 0x20 DUP4 PUSH2 0x1335 JUMP JUMPDEST SWAP2 POP PUSH2 0x1C56 DUP3 PUSH2 0x1C17 JUMP JUMPDEST PUSH1 0x20 DUP3 ADD SWAP1 POP SWAP2 SWAP1 POP JUMP JUMPDEST PUSH0 PUSH1 0x20 DUP3 ADD SWAP1 POP DUP2 DUP2 SUB PUSH0 DUP4 ADD MSTORE PUSH2 0x1C78 DUP2 PUSH2 0x1C3F JUMP JUMPDEST SWAP1 POP SWAP2 SWAP1 POP JUMP JUMPDEST PUSH0 DUP2 MLOAD SWAP1 POP PUSH2 0x1C8D DUP2 PUSH2 0xFBC JUMP JUMPDEST SWAP3 SWAP2 POP POP JUMP JUMPDEST PUSH0 PUSH1 0x20 DUP3 DUP5 SUB SLT ISZERO PUSH2 0x1CA8 JUMPI PUSH2 0x1CA7 PUSH2 0xFAB JUMP JUMPDEST JUMPDEST PUSH0 PUSH2 0x1CB5 DUP5 DUP3 DUP6 ADD PUSH2 0x1C7F JUMP JUMPDEST SWAP2 POP POP SWAP3 SWAP2 POP POP JUMP INVALID LOG2 PUSH5 0x6970667358 0x22 SLT KECCAK256 SIGNEXTEND 0xE8 0xB1 0xC5 PUSH21 0x3335BE4D7C4C66382F49F70624F682A2B635332579 0xF8 CALLVALUE 0xF9 0xE1 0x23 CALLDATALOAD PUSH5 0x736F6C6343 STOP ADDMOD BYTE STOP CALLER "
				},
				"gasEstimates": {
					"creation": {
						"codeDepositCost": "1482400",
						"executionCost": "infinite",
						"totalCost": "infinite"
					},
					"external": {
						"createTransaction(address,uint256,bytes)": "infinite",
						"getSignaturesLeft(uint256)": "infinite",
						"owners(uint256)": "4944",
						"requiredSignatures()": "2425",
						"signTransaction(uint256)": "infinite",
						"transactionCount()": "2491",
						"transactions(uint256)": "infinite"
					},
					"internal": {
						"decodeTransferData(bytes memory)": "infinite",
						"executeTransaction(uint256)": "infinite",
						"extractFunctionSignature(bytes memory)": "infinite",
						"getTokenBalance(address,address)": "infinite",
						"isOwner(address)": "infinite"
					}
				},
				"methodIdentifiers": {
					"createTransaction(address,uint256,bytes)": "a9496e75",
					"getSignaturesLeft(uint256)": "6a718015",
					"owners(uint256)": "025e7c27",
					"requiredSignatures()": "8d068043",
					"signTransaction(uint256)": "5d9ec210",
					"transactionCount()": "b77bf600",
					"transactions(uint256)": "9ace38c2"
				}
			},
			"storageLayout": {
				"storage": [
					{
						"astId": 98,
						"contract": "contracts/MultiSig.sol:MultiSigStalwart",
						"label": "owners",
						"offset": 0,
						"slot": "0",
						"type": "t_array(t_address)dyn_storage"
					},
					{
						"astId": 100,
						"contract": "contracts/MultiSig.sol:MultiSigStalwart",
						"label": "requiredSignatures",
						"offset": 0,
						"slot": "1",
						"type": "t_uint256"
					},
					{
						"astId": 102,
						"contract": "contracts/MultiSig.sol:MultiSigStalwart",
						"label": "transactionCount",
						"offset": 0,
						"slot": "2",
						"type": "t_uint256"
					},
					{
						"astId": 107,
						"contract": "contracts/MultiSig.sol:MultiSigStalwart",
						"label": "transactions",
						"offset": 0,
						"slot": "3",
						"type": "t_mapping(t_uint256,t_struct(Transaction)95_storage)"
					}
				],
				"types": {
					"t_address": {
						"encoding": "inplace",
						"label": "address",
						"numberOfBytes": "20"
					},
					"t_array(t_address)dyn_storage": {
						"base": "t_address",
						"encoding": "dynamic_array",
						"label": "address[]",
						"numberOfBytes": "32"
					},
					"t_bool": {
						"encoding": "inplace",
						"label": "bool",
						"numberOfBytes": "1"
					},
					"t_bytes_storage": {
						"encoding": "bytes",
						"label": "bytes",
						"numberOfBytes": "32"
					},
					"t_mapping(t_address,t_bool)": {
						"encoding": "mapping",
						"key": "t_address",
						"label": "mapping(address => bool)",
						"numberOfBytes": "32",
						"value": "t_bool"
					},
					"t_mapping(t_uint256,t_struct(Transaction)95_storage)": {
						"encoding": "mapping",
						"key": "t_uint256",
						"label": "mapping(uint256 => struct MultiSigStalwart.Transaction)",
						"numberOfBytes": "32",
						"value": "t_struct(Transaction)95_storage"
					},
					"t_struct(Transaction)95_storage": {
						"encoding": "inplace",
						"label": "struct MultiSigStalwart.Transaction",
						"members": [
							{
								"astId": 82,
								"contract": "contracts/MultiSig.sol:MultiSigStalwart",
								"label": "to",
								"offset": 0,
								"slot": "0",
								"type": "t_address"
							},
							{
								"astId": 84,
								"contract": "contracts/MultiSig.sol:MultiSigStalwart",
								"label": "value",
								"offset": 0,
								"slot": "1",
								"type": "t_uint256"
							},
							{
								"astId": 86,
								"contract": "contracts/MultiSig.sol:MultiSigStalwart",
								"label": "data",
								"offset": 0,
								"slot": "2",
								"type": "t_bytes_storage"
							},
							{
								"astId": 88,
								"contract": "contracts/MultiSig.sol:MultiSigStalwart",
								"label": "executed",
								"offset": 0,
								"slot": "3",
								"type": "t_bool"
							},
							{
								"astId": 90,
								"contract": "contracts/MultiSig.sol:MultiSigStalwart",
								"label": "signatureCount",
								"offset": 0,
								"slot": "4",
								"type": "t_uint256"
							},
							{
								"astId": 94,
								"contract": "contracts/MultiSig.sol:MultiSigStalwart",
								"label": "signatures",
								"offset": 0,
								"slot": "5",
								"type": "t_mapping(t_address,t_bool)"
							}
						],
						"numberOfBytes": "192"
					},
					"t_uint256": {
						"encoding": "inplace",
						"label": "uint256",
						"numberOfBytes": "32"
					}
				}
			},
			"userdoc": {
				"kind": "user",
				"methods": {},
				"version": 1
			}
		}
	}
}