{
	"contracts/SwapUniswap.sol": {
		"SwapUniswap": {
			"abi": [
				{
					"inputs": [
						{
							"internalType": "contract ISwapRouter",
							"name": "_swapRouter",
							"type": "address"
						},
						{
							"internalType": "address",
							"name": "_dai",
							"type": "address"
						},
						{
							"internalType": "address",
							"name": "_usdt",
							"type": "address"
						},
						{
							"internalType": "address",
							"name": "_usdc",
							"type": "address"
						}
					],
					"stateMutability": "nonpayable",
					"type": "constructor"
				},
				{
					"inputs": [],
					"name": "DAI",
					"outputs": [
						{
							"internalType": "address",
							"name": "",
							"type": "address"
						}
					],
					"stateMutability": "view",
					"type": "function"
				},
				{
					"inputs": [],
					"name": "USDC",
					"outputs": [
						{
							"internalType": "address",
							"name": "",
							"type": "address"
						}
					],
					"stateMutability": "view",
					"type": "function"
				},
				{
					"inputs": [],
					"name": "USDT",
					"outputs": [
						{
							"internalType": "address",
							"name": "",
							"type": "address"
						}
					],
					"stateMutability": "view",
					"type": "function"
				},
				{
					"inputs": [],
					"name": "WETH9",
					"outputs": [
						{
							"internalType": "address",
							"name": "",
							"type": "address"
						}
					],
					"stateMutability": "view",
					"type": "function"
				},
				{
					"inputs": [],
					"name": "poolFee",
					"outputs": [
						{
							"internalType": "uint24",
							"name": "",
							"type": "uint24"
						}
					],
					"stateMutability": "view",
					"type": "function"
				},
				{
					"inputs": [
						{
							"internalType": "uint256",
							"name": "amountIn",
							"type": "uint256"
						}
					],
					"name": "swapExactInputMultihop",
					"outputs": [
						{
							"internalType": "uint256",
							"name": "amountOut",
							"type": "uint256"
						}
					],
					"stateMutability": "nonpayable",
					"type": "function"
				},
				{
					"inputs": [
						{
							"internalType": "uint256",
							"name": "amountIn",
							"type": "uint256"
						}
					],
					"name": "swapExactInputSingle",
					"outputs": [
						{
							"internalType": "uint256",
							"name": "amountOut",
							"type": "uint256"
						}
					],
					"stateMutability": "nonpayable",
					"type": "function"
				},
				{
					"inputs": [
						{
							"internalType": "uint256",
							"name": "amountOut",
							"type": "uint256"
						},
						{
							"internalType": "uint256",
							"name": "amountInMaximum",
							"type": "uint256"
						}
					],
					"name": "swapExactOutputMultihop",
					"outputs": [
						{
							"internalType": "uint256",
							"name": "amountIn",
							"type": "uint256"
						}
					],
					"stateMutability": "nonpayable",
					"type": "function"
				},
				{
					"inputs": [
						{
							"internalType": "uint256",
							"name": "amountOut",
							"type": "uint256"
						},
						{
							"internalType": "uint256",
							"name": "amountInMaximum",
							"type": "uint256"
						}
					],
					"name": "swapExactOutputSingle",
					"outputs": [
						{
							"internalType": "uint256",
							"name": "amountIn",
							"type": "uint256"
						}
					],
					"stateMutability": "nonpayable",
					"type": "function"
				},
				{
					"inputs": [],
					"name": "swapRouter",
					"outputs": [
						{
							"internalType": "contract ISwapRouter",
							"name": "",
							"type": "address"
						}
					],
					"stateMutability": "view",
					"type": "function"
				}
			],
			"devdoc": {
				"kind": "dev",
				"methods": {
					"swapExactInputMultihop(uint256)": {
						"details": "The calling address must approve this contract to spend at least `amountIn` worth of its DAI for this function to succeed.",
						"params": {
							"amountIn": "The amount of DAI to be swapped."
						},
						"returns": {
							"amountOut": "The amount of WETH9 received after the swap."
						}
					},
					"swapExactInputSingle(uint256)": {
						"details": "The calling address must approve this contract to spend at least `amountIn` worth of its DAI for this function to succeed.",
						"params": {
							"amountIn": "The exact amount of DAI that will be swapped for WETH9."
						},
						"returns": {
							"amountOut": "The amount of WETH9 received."
						}
					},
					"swapExactOutputMultihop(uint256,uint256)": {
						"details": "The calling address must approve this contract to spend its DAI for this function to succeed. As the amount of input DAI is variable, the calling address will need to approve for a slightly higher amount, anticipating some variance.",
						"params": {
							"amountInMaximum": "The maximum amount of DAI willing to be swapped for the specified amountOut of WETH9.",
							"amountOut": "The desired amount of WETH9."
						},
						"returns": {
							"amountIn": "The amountIn of DAI actually spent to receive the desired amountOut."
						}
					},
					"swapExactOutputSingle(uint256,uint256)": {
						"details": "The calling address must approve this contract to spend its DAI for this function to succeed. As the amount of input DAI is variable, the calling address will need to approve for a slightly higher amount, anticipating some variance.",
						"params": {
							"amountInMaximum": "The amount of DAI we are willing to spend to receive the specified amount of WETH9.",
							"amountOut": "The exact amount of WETH9 to receive from the swap."
						},
						"returns": {
							"amountIn": "The amount of DAI actually spent in the swap."
						}
					}
				},
				"version": 1
			},
			"evm": {
				"assembly": "    /* \"contracts/SwapUniswap.sol\":205:8259  contract SwapUniswap {... */\n  mstore(0x40, 0x0100)\n    /* \"contracts/SwapUniswap.sol\":592:826  constructor(... */\n  callvalue\n  dup1\n  iszero\n  tag_1\n  jumpi\n  0x00\n  dup1\n  revert\ntag_1:\n  pop\n  mload(0x40)\n  sub(codesize, bytecodeSize)\n  dup1\n  bytecodeSize\n  dup4\n  codecopy\n  dup2\n  dup2\n  add\n  0x40\n  mstore\n  dup2\n  add\n  swap1\n  tag_2\n  swap2\n  swap1\n  tag_3\n  jump\t// in\ntag_2:\n    /* \"contracts/SwapUniswap.sol\":740:751  _swapRouter */\n  dup4\n    /* \"contracts/SwapUniswap.sol\":727:751  swapRouter = _swapRouter */\n  0xffffffffffffffffffffffffffffffffffffffff\n  and\n  0x80\n  dup2\n  0xffffffffffffffffffffffffffffffffffffffff\n  and\n  dup2\n  mstore\n  pop\n  pop\n    /* \"contracts/SwapUniswap.sol\":768:772  _dai */\n  dup3\n    /* \"contracts/SwapUniswap.sol\":762:772  DAI = _dai */\n  0xffffffffffffffffffffffffffffffffffffffff\n  and\n  0xa0\n  dup2\n  0xffffffffffffffffffffffffffffffffffffffff\n  and\n  dup2\n  mstore\n  pop\n  pop\n    /* \"contracts/SwapUniswap.sol\":790:795  _usdt */\n  dup2\n    /* \"contracts/SwapUniswap.sol\":783:795  USDT = _usdt */\n  0xffffffffffffffffffffffffffffffffffffffff\n  and\n  0xc0\n  dup2\n  0xffffffffffffffffffffffffffffffffffffffff\n  and\n  dup2\n  mstore\n  pop\n  pop\n    /* \"contracts/SwapUniswap.sol\":813:818  _usdc */\n  dup1\n    /* \"contracts/SwapUniswap.sol\":806:818  USDC = _usdc */\n  0xffffffffffffffffffffffffffffffffffffffff\n  and\n  0xe0\n  dup2\n  0xffffffffffffffffffffffffffffffffffffffff\n  and\n  dup2\n  mstore\n  pop\n  pop\n    /* \"contracts/SwapUniswap.sol\":592:826  constructor(... */\n  pop\n  pop\n  pop\n  pop\n    /* \"contracts/SwapUniswap.sol\":205:8259  contract SwapUniswap {... */\n  jump(tag_6)\n    /* \"#utility.yul\":88:205   */\ntag_8:\n    /* \"#utility.yul\":197:198   */\n  0x00\n    /* \"#utility.yul\":194:195   */\n  dup1\n    /* \"#utility.yul\":187:199   */\n  revert\n    /* \"#utility.yul\":334:460   */\ntag_10:\n    /* \"#utility.yul\":371:378   */\n  0x00\n    /* \"#utility.yul\":411:453   */\n  0xffffffffffffffffffffffffffffffffffffffff\n    /* \"#utility.yul\":404:409   */\n  dup3\n    /* \"#utility.yul\":400:454   */\n  and\n    /* \"#utility.yul\":389:454   */\n  swap1\n  pop\n    /* \"#utility.yul\":334:460   */\n  swap2\n  swap1\n  pop\n  jump\t// out\n    /* \"#utility.yul\":466:562   */\ntag_11:\n    /* \"#utility.yul\":503:510   */\n  0x00\n    /* \"#utility.yul\":532:556   */\n  tag_23\n    /* \"#utility.yul\":550:555   */\n  dup3\n    /* \"#utility.yul\":532:556   */\n  tag_10\n  jump\t// in\ntag_23:\n    /* \"#utility.yul\":521:556   */\n  swap1\n  pop\n    /* \"#utility.yul\":466:562   */\n  swap2\n  swap1\n  pop\n  jump\t// out\n    /* \"#utility.yul\":568:683   */\ntag_12:\n    /* \"#utility.yul\":624:631   */\n  0x00\n    /* \"#utility.yul\":653:677   */\n  tag_25\n    /* \"#utility.yul\":671:676   */\n  dup3\n    /* \"#utility.yul\":653:677   */\n  tag_11\n  jump\t// in\ntag_25:\n    /* \"#utility.yul\":642:677   */\n  swap1\n  pop\n    /* \"#utility.yul\":568:683   */\n  swap2\n  swap1\n  pop\n  jump\t// out\n    /* \"#utility.yul\":689:849   */\ntag_13:\n    /* \"#utility.yul\":781:824   */\n  tag_27\n    /* \"#utility.yul\":818:823   */\n  dup2\n    /* \"#utility.yul\":781:824   */\n  tag_12\n  jump\t// in\ntag_27:\n    /* \"#utility.yul\":774:779   */\n  dup2\n    /* \"#utility.yul\":771:825   */\n  eq\n    /* \"#utility.yul\":761:843   */\n  tag_28\n  jumpi\n    /* \"#utility.yul\":839:840   */\n  0x00\n    /* \"#utility.yul\":836:837   */\n  dup1\n    /* \"#utility.yul\":829:841   */\n  revert\n    /* \"#utility.yul\":761:843   */\ntag_28:\n    /* \"#utility.yul\":689:849   */\n  pop\n  jump\t// out\n    /* \"#utility.yul\":855:1036   */\ntag_14:\n    /* \"#utility.yul\":931:936   */\n  0x00\n    /* \"#utility.yul\":962:968   */\n  dup2\n    /* \"#utility.yul\":956:969   */\n  mload\n    /* \"#utility.yul\":947:969   */\n  swap1\n  pop\n    /* \"#utility.yul\":978:1030   */\n  tag_30\n    /* \"#utility.yul\":1024:1029   */\n  dup2\n    /* \"#utility.yul\":978:1030   */\n  tag_13\n  jump\t// in\ntag_30:\n    /* \"#utility.yul\":855:1036   */\n  swap3\n  swap2\n  pop\n  pop\n  jump\t// out\n    /* \"#utility.yul\":1042:1164   */\ntag_15:\n    /* \"#utility.yul\":1115:1139   */\n  tag_32\n    /* \"#utility.yul\":1133:1138   */\n  dup2\n    /* \"#utility.yul\":1115:1139   */\n  tag_11\n  jump\t// in\ntag_32:\n    /* \"#utility.yul\":1108:1113   */\n  dup2\n    /* \"#utility.yul\":1105:1140   */\n  eq\n    /* \"#utility.yul\":1095:1158   */\n  tag_33\n  jumpi\n    /* \"#utility.yul\":1154:1155   */\n  0x00\n    /* \"#utility.yul\":1151:1152   */\n  dup1\n    /* \"#utility.yul\":1144:1156   */\n  revert\n    /* \"#utility.yul\":1095:1158   */\ntag_33:\n    /* \"#utility.yul\":1042:1164   */\n  pop\n  jump\t// out\n    /* \"#utility.yul\":1170:1313   */\ntag_16:\n    /* \"#utility.yul\":1227:1232   */\n  0x00\n    /* \"#utility.yul\":1258:1264   */\n  dup2\n    /* \"#utility.yul\":1252:1265   */\n  mload\n    /* \"#utility.yul\":1243:1265   */\n  swap1\n  pop\n    /* \"#utility.yul\":1274:1307   */\n  tag_35\n    /* \"#utility.yul\":1301:1306   */\n  dup2\n    /* \"#utility.yul\":1274:1307   */\n  tag_15\n  jump\t// in\ntag_35:\n    /* \"#utility.yul\":1170:1313   */\n  swap3\n  swap2\n  pop\n  pop\n  jump\t// out\n    /* \"#utility.yul\":1319:2177   */\ntag_3:\n    /* \"#utility.yul\":1435:1441   */\n  0x00\n    /* \"#utility.yul\":1443:1449   */\n  dup1\n    /* \"#utility.yul\":1451:1457   */\n  0x00\n    /* \"#utility.yul\":1459:1465   */\n  dup1\n    /* \"#utility.yul\":1508:1511   */\n  0x80\n    /* \"#utility.yul\":1496:1505   */\n  dup6\n    /* \"#utility.yul\":1487:1494   */\n  dup8\n    /* \"#utility.yul\":1483:1506   */\n  sub\n    /* \"#utility.yul\":1479:1512   */\n  slt\n    /* \"#utility.yul\":1476:1596   */\n  iszero\n  tag_37\n  jumpi\n    /* \"#utility.yul\":1515:1594   */\n  tag_38\n  tag_8\n  jump\t// in\ntag_38:\n    /* \"#utility.yul\":1476:1596   */\ntag_37:\n    /* \"#utility.yul\":1635:1636   */\n  0x00\n    /* \"#utility.yul\":1660:1743   */\n  tag_39\n    /* \"#utility.yul\":1735:1742   */\n  dup8\n    /* \"#utility.yul\":1726:1732   */\n  dup3\n    /* \"#utility.yul\":1715:1724   */\n  dup9\n    /* \"#utility.yul\":1711:1733   */\n  add\n    /* \"#utility.yul\":1660:1743   */\n  tag_14\n  jump\t// in\ntag_39:\n    /* \"#utility.yul\":1650:1743   */\n  swap5\n  pop\n    /* \"#utility.yul\":1606:1753   */\n  pop\n    /* \"#utility.yul\":1792:1794   */\n  0x20\n    /* \"#utility.yul\":1818:1882   */\n  tag_40\n    /* \"#utility.yul\":1874:1881   */\n  dup8\n    /* \"#utility.yul\":1865:1871   */\n  dup3\n    /* \"#utility.yul\":1854:1863   */\n  dup9\n    /* \"#utility.yul\":1850:1872   */\n  add\n    /* \"#utility.yul\":1818:1882   */\n  tag_16\n  jump\t// in\ntag_40:\n    /* \"#utility.yul\":1808:1882   */\n  swap4\n  pop\n    /* \"#utility.yul\":1763:1892   */\n  pop\n    /* \"#utility.yul\":1931:1933   */\n  0x40\n    /* \"#utility.yul\":1957:2021   */\n  tag_41\n    /* \"#utility.yul\":2013:2020   */\n  dup8\n    /* \"#utility.yul\":2004:2010   */\n  dup3\n    /* \"#utility.yul\":1993:2002   */\n  dup9\n    /* \"#utility.yul\":1989:2011   */\n  add\n    /* \"#utility.yul\":1957:2021   */\n  tag_16\n  jump\t// in\ntag_41:\n    /* \"#utility.yul\":1947:2021   */\n  swap3\n  pop\n    /* \"#utility.yul\":1902:2031   */\n  pop\n    /* \"#utility.yul\":2070:2072   */\n  0x60\n    /* \"#utility.yul\":2096:2160   */\n  tag_42\n    /* \"#utility.yul\":2152:2159   */\n  dup8\n    /* \"#utility.yul\":2143:2149   */\n  dup3\n    /* \"#utility.yul\":2132:2141   */\n  dup9\n    /* \"#utility.yul\":2128:2150   */\n  add\n    /* \"#utility.yul\":2096:2160   */\n  tag_16\n  jump\t// in\ntag_42:\n    /* \"#utility.yul\":2086:2160   */\n  swap2\n  pop\n    /* \"#utility.yul\":2041:2170   */\n  pop\n    /* \"#utility.yul\":1319:2177   */\n  swap3\n  swap6\n  swap2\n  swap5\n  pop\n  swap3\n  pop\n  jump\t// out\n    /* \"contracts/SwapUniswap.sol\":205:8259  contract SwapUniswap {... */\ntag_6:\n  mload(0x80)\n  mload(0xa0)\n  mload(0xc0)\n  mload(0xe0)\n  codecopy(0x00, dataOffset(sub_0), dataSize(sub_0))\n  0x00\n  assignImmutable(\"0x571dd8aeb083ba31171345d7ed78dcdb2e0ef1ded5d63247b288b600c1eb6c39\")\n  0x00\n  assignImmutable(\"0x278a4539603a9bc8a72d7a368fe14ebf88ae5f0870def96c5eca03adb0b084ba\")\n  0x00\n  assignImmutable(\"0x6bee8a6b07414df6f08314df38bdc731f007a634b960783bee7b774fa18ce7ee\")\n  0x00\n  assignImmutable(\"0x747491254fc29a61c3f0f8ca603d468b83f8d0af60d3a86e8b935f39643493bc\")\n  return(0x00, dataSize(sub_0))\nstop\n\nsub_0: assembly {\n        /* \"contracts/SwapUniswap.sol\":205:8259  contract SwapUniswap {... */\n      mstore(0x40, 0x80)\n      callvalue\n      dup1\n      iszero\n      tag_1\n      jumpi\n      0x00\n      dup1\n      revert\n    tag_1:\n      pop\n      jumpi(tag_2, lt(calldatasize, 0x04))\n      shr(0xe0, calldataload(0x00))\n      dup1\n      0xc31c9c07\n      gt\n      tag_13\n      jumpi\n      dup1\n      0xc31c9c07\n      eq\n      tag_8\n      jumpi\n      dup1\n      0xc4b69a18\n      eq\n      tag_9\n      jumpi\n      dup1\n      0xc54e44eb\n      eq\n      tag_10\n      jumpi\n      dup1\n      0xe0bab4c4\n      eq\n      tag_11\n      jumpi\n      dup1\n      0xedd83557\n      eq\n      tag_12\n      jumpi\n      jump(tag_2)\n    tag_13:\n      dup1\n      0x089fe6aa\n      eq\n      tag_3\n      jumpi\n      dup1\n      0x3b85cf6a\n      eq\n      tag_4\n      jumpi\n      dup1\n      0x4aa4a4fc\n      eq\n      tag_5\n      jumpi\n      dup1\n      0x73bd43ad\n      eq\n      tag_6\n      jumpi\n      dup1\n      0x89a30271\n      eq\n      tag_7\n      jumpi\n    tag_2:\n      0x00\n      dup1\n      revert\n        /* \"contracts/SwapUniswap.sol\":546:583  uint24 public constant poolFee = 3000 */\n    tag_3:\n      tag_14\n      tag_15\n      jump\t// in\n    tag_14:\n      mload(0x40)\n      tag_16\n      swap2\n      swap1\n      tag_17\n      jump\t// in\n    tag_16:\n      mload(0x40)\n      dup1\n      swap2\n      sub\n      swap1\n      return\n        /* \"contracts/SwapUniswap.sol\":2952:4071  function swapExactOutputMultihop(... */\n    tag_4:\n      tag_18\n      0x04\n      dup1\n      calldatasize\n      sub\n      dup2\n      add\n      swap1\n      tag_19\n      swap2\n      swap1\n      tag_20\n      jump\t// in\n    tag_19:\n      tag_21\n      jump\t// in\n    tag_18:\n      mload(0x40)\n      tag_22\n      swap2\n      swap1\n      tag_23\n      jump\t// in\n    tag_22:\n      mload(0x40)\n      dup1\n      swap2\n      sub\n      swap1\n      return\n        /* \"contracts/SwapUniswap.sol\":463:537  address public constant WETH9 = 0xC02aaA39b223FE8D0A0e5C4F27eAD9083C756Cc2 */\n    tag_5:\n      tag_24\n      tag_25\n      jump\t// in\n    tag_24:\n      mload(0x40)\n      tag_26\n      swap2\n      swap1\n      tag_27\n      jump\t// in\n    tag_26:\n      mload(0x40)\n      dup1\n      swap2\n      sub\n      swap1\n      return\n        /* \"contracts/SwapUniswap.sol\":4548:5827  function swapExactInputSingle(... */\n    tag_6:\n      tag_28\n      0x04\n      dup1\n      calldatasize\n      sub\n      dup2\n      add\n      swap1\n      tag_29\n      swap2\n      swap1\n      tag_30\n      jump\t// in\n    tag_29:\n      tag_31\n      jump\t// in\n    tag_28:\n      mload(0x40)\n      tag_32\n      swap2\n      swap1\n      tag_23\n      jump\t// in\n    tag_32:\n      mload(0x40)\n      dup1\n      swap2\n      sub\n      swap1\n      return\n        /* \"contracts/SwapUniswap.sol\":427:456  address public immutable USDC */\n    tag_7:\n      tag_33\n      tag_34\n      jump\t// in\n    tag_33:\n      mload(0x40)\n      tag_35\n      swap2\n      swap1\n      tag_27\n      jump\t// in\n    tag_35:\n      mload(0x40)\n      dup1\n      swap2\n      sub\n      swap1\n      return\n        /* \"contracts/SwapUniswap.sol\":233:272  ISwapRouter public immutable swapRouter */\n    tag_8:\n      tag_36\n      tag_37\n      jump\t// in\n    tag_36:\n      mload(0x40)\n      tag_38\n      swap2\n      swap1\n      tag_39\n      jump\t// in\n    tag_38:\n      mload(0x40)\n      dup1\n      swap2\n      sub\n      swap1\n      return\n        /* \"contracts/SwapUniswap.sol\":6463:8256  function swapExactOutputSingle(... */\n    tag_9:\n      tag_40\n      0x04\n      dup1\n      calldatasize\n      sub\n      dup2\n      add\n      swap1\n      tag_41\n      swap2\n      swap1\n      tag_20\n      jump\t// in\n    tag_41:\n      tag_42\n      jump\t// in\n    tag_40:\n      mload(0x40)\n      tag_43\n      swap2\n      swap1\n      tag_23\n      jump\t// in\n    tag_43:\n      mload(0x40)\n      dup1\n      swap2\n      sub\n      swap1\n      return\n        /* \"contracts/SwapUniswap.sol\":391:420  address public immutable USDT */\n    tag_10:\n      tag_44\n      tag_45\n      jump\t// in\n    tag_44:\n      mload(0x40)\n      tag_46\n      swap2\n      swap1\n      tag_27\n      jump\t// in\n    tag_46:\n      mload(0x40)\n      dup1\n      swap2\n      sub\n      swap1\n      return\n        /* \"contracts/SwapUniswap.sol\":356:384  address public immutable DAI */\n    tag_11:\n      tag_47\n      tag_48\n      jump\t// in\n    tag_47:\n      mload(0x40)\n      tag_49\n      swap2\n      swap1\n      tag_27\n      jump\t// in\n    tag_49:\n      mload(0x40)\n      dup1\n      swap2\n      sub\n      swap1\n      return\n        /* \"contracts/SwapUniswap.sol\":1341:2081  function swapExactInputMultihop(... */\n    tag_12:\n      tag_50\n      0x04\n      dup1\n      calldatasize\n      sub\n      dup2\n      add\n      swap1\n      tag_51\n      swap2\n      swap1\n      tag_30\n      jump\t// in\n    tag_51:\n      tag_52\n      jump\t// in\n    tag_50:\n      mload(0x40)\n      tag_53\n      swap2\n      swap1\n      tag_23\n      jump\t// in\n    tag_53:\n      mload(0x40)\n      dup1\n      swap2\n      sub\n      swap1\n      return\n        /* \"contracts/SwapUniswap.sol\":546:583  uint24 public constant poolFee = 3000 */\n    tag_15:\n        /* \"contracts/SwapUniswap.sol\":579:583  3000 */\n      0x0bb8\n        /* \"contracts/SwapUniswap.sol\":546:583  uint24 public constant poolFee = 3000 */\n      dup2\n      jump\t// out\n        /* \"contracts/SwapUniswap.sol\":2952:4071  function swapExactOutputMultihop(... */\n    tag_21:\n        /* \"contracts/SwapUniswap.sol\":3072:3088  uint256 amountIn */\n      0x00\n        /* \"contracts/SwapUniswap.sol\":3101:3244  TransferHelper.safeTransferFrom(... */\n      tag_55\n        /* \"contracts/SwapUniswap.sol\":3147:3150  DAI */\n      immutable(\"0x6bee8a6b07414df6f08314df38bdc731f007a634b960783bee7b774fa18ce7ee\")\n        /* \"contracts/SwapUniswap.sol\":3165:3175  msg.sender */\n      caller\n        /* \"contracts/SwapUniswap.sol\":3198:3202  this */\n      address\n        /* \"contracts/SwapUniswap.sol\":3218:3233  amountInMaximum */\n      dup6\n        /* \"contracts/SwapUniswap.sol\":3101:3132  TransferHelper.safeTransferFrom */\n      tag_56\n        /* \"contracts/SwapUniswap.sol\":3101:3244  TransferHelper.safeTransferFrom(... */\n      jump\t// in\n    tag_55:\n        /* \"contracts/SwapUniswap.sol\":3255:3324  TransferHelper.safeApprove(DAI, address(swapRouter), amountInMaximum) */\n      tag_57\n        /* \"contracts/SwapUniswap.sol\":3282:3285  DAI */\n      immutable(\"0x6bee8a6b07414df6f08314df38bdc731f007a634b960783bee7b774fa18ce7ee\")\n        /* \"contracts/SwapUniswap.sol\":3295:3305  swapRouter */\n      immutable(\"0x747491254fc29a61c3f0f8ca603d468b83f8d0af60d3a86e8b935f39643493bc\")\n        /* \"contracts/SwapUniswap.sol\":3308:3323  amountInMaximum */\n      dup5\n        /* \"contracts/SwapUniswap.sol\":3255:3281  TransferHelper.safeApprove */\n      tag_58\n        /* \"contracts/SwapUniswap.sol\":3255:3324  TransferHelper.safeApprove(DAI, address(swapRouter), amountInMaximum) */\n      jump\t// in\n    tag_57:\n        /* \"contracts/SwapUniswap.sol\":3337:3380  ISwapRouter.ExactOutputParams memory params */\n      0x00\n        /* \"contracts/SwapUniswap.sol\":3383:3694  ISwapRouter... */\n      mload(0x40)\n      dup1\n      0xa0\n      add\n      0x40\n      mstore\n      dup1\n        /* \"contracts/SwapUniswap.sol\":495:537  0xC02aaA39b223FE8D0A0e5C4F27eAD9083C756Cc2 */\n      0xc02aaa39b223fe8d0a0e5c4f27ead9083c756cc2\n        /* \"contracts/SwapUniswap.sol\":579:583  3000 */\n      0x0bb8\n        /* \"contracts/SwapUniswap.sol\":3485:3489  USDC */\n      immutable(\"0x571dd8aeb083ba31171345d7ed78dcdb2e0ef1ded5d63247b288b600c1eb6c39\")\n        /* \"contracts/SwapUniswap.sol\":579:583  3000 */\n      0x0bb8\n        /* \"contracts/SwapUniswap.sol\":3500:3503  DAI */\n      immutable(\"0x6bee8a6b07414df6f08314df38bdc731f007a634b960783bee7b774fa18ce7ee\")\n        /* \"contracts/SwapUniswap.sol\":3452:3504  abi.encodePacked(WETH9, poolFee, USDC, poolFee, DAI) */\n      add(0x20, mload(0x40))\n      tag_59\n      swap6\n      swap5\n      swap4\n      swap3\n      swap2\n      swap1\n      tag_60\n      jump\t// in\n    tag_59:\n      mload(0x40)\n      0x20\n      dup2\n      dup4\n      sub\n      sub\n      dup2\n      mstore\n      swap1\n      0x40\n      mstore\n        /* \"contracts/SwapUniswap.sol\":3383:3694  ISwapRouter... */\n      dup2\n      mstore\n      0x20\n      add\n        /* \"contracts/SwapUniswap.sol\":3534:3544  msg.sender */\n      caller\n        /* \"contracts/SwapUniswap.sol\":3383:3694  ISwapRouter... */\n      0xffffffffffffffffffffffffffffffffffffffff\n      and\n      dup2\n      mstore\n      0x20\n      add\n        /* \"contracts/SwapUniswap.sol\":3573:3588  block.timestamp */\n      timestamp\n        /* \"contracts/SwapUniswap.sol\":3383:3694  ISwapRouter... */\n      dup2\n      mstore\n      0x20\n      add\n        /* \"contracts/SwapUniswap.sol\":3618:3627  amountOut */\n      dup6\n        /* \"contracts/SwapUniswap.sol\":3383:3694  ISwapRouter... */\n      dup2\n      mstore\n      0x20\n      add\n        /* \"contracts/SwapUniswap.sol\":3663:3678  amountInMaximum */\n      dup5\n        /* \"contracts/SwapUniswap.sol\":3383:3694  ISwapRouter... */\n      dup2\n      mstore\n      pop\n        /* \"contracts/SwapUniswap.sol\":3337:3694  ISwapRouter.ExactOutputParams memory params = ISwapRouter... */\n      swap1\n      pop\n        /* \"contracts/SwapUniswap.sol\":3718:3728  swapRouter */\n      immutable(\"0x747491254fc29a61c3f0f8ca603d468b83f8d0af60d3a86e8b935f39643493bc\")\n        /* \"contracts/SwapUniswap.sol\":3718:3740  swapRouter.exactOutput */\n      0xffffffffffffffffffffffffffffffffffffffff\n      and\n      0xf28c0498\n        /* \"contracts/SwapUniswap.sol\":3741:3747  params */\n      dup3\n        /* \"contracts/SwapUniswap.sol\":3718:3748  swapRouter.exactOutput(params) */\n      mload(0x40)\n      dup3\n      0xffffffff\n      and\n      0xe0\n      shl\n      dup2\n      mstore\n      0x04\n      add\n      tag_61\n      swap2\n      swap1\n      tag_62\n      jump\t// in\n    tag_61:\n      0x20\n      mload(0x40)\n      dup1\n      dup4\n      sub\n      dup2\n      0x00\n      dup8\n      gas\n      call\n      iszero\n      dup1\n      iszero\n      tag_64\n      jumpi\n      returndatasize\n      0x00\n      dup1\n      returndatacopy\n      revert(0x00, returndatasize)\n    tag_64:\n      pop\n      pop\n      pop\n      pop\n      mload(0x40)\n      returndatasize\n      not(0x1f)\n      0x1f\n      dup3\n      add\n      and\n      dup3\n      add\n      dup1\n      0x40\n      mstore\n      pop\n      dup2\n      add\n      swap1\n      tag_65\n      swap2\n      swap1\n      tag_66\n      jump\t// in\n    tag_65:\n        /* \"contracts/SwapUniswap.sol\":3707:3748  amountIn = swapRouter.exactOutput(params) */\n      swap2\n      pop\n        /* \"contracts/SwapUniswap.sol\":3776:3791  amountInMaximum */\n      dup3\n        /* \"contracts/SwapUniswap.sol\":3765:3773  amountIn */\n      dup3\n        /* \"contracts/SwapUniswap.sol\":3765:3791  amountIn < amountInMaximum */\n      lt\n        /* \"contracts/SwapUniswap.sol\":3761:4064  if (amountIn < amountInMaximum) {... */\n      iszero\n      tag_67\n      jumpi\n        /* \"contracts/SwapUniswap.sol\":3808:3863  TransferHelper.safeApprove(DAI, address(swapRouter), 0) */\n      tag_68\n        /* \"contracts/SwapUniswap.sol\":3835:3838  DAI */\n      immutable(\"0x6bee8a6b07414df6f08314df38bdc731f007a634b960783bee7b774fa18ce7ee\")\n        /* \"contracts/SwapUniswap.sol\":3848:3858  swapRouter */\n      immutable(\"0x747491254fc29a61c3f0f8ca603d468b83f8d0af60d3a86e8b935f39643493bc\")\n        /* \"contracts/SwapUniswap.sol\":3861:3862  0 */\n      0x00\n        /* \"contracts/SwapUniswap.sol\":3808:3834  TransferHelper.safeApprove */\n      tag_58\n        /* \"contracts/SwapUniswap.sol\":3808:3863  TransferHelper.safeApprove(DAI, address(swapRouter), 0) */\n      jump\t// in\n    tag_68:\n        /* \"contracts/SwapUniswap.sol\":3878:4052  TransferHelper.safeTransferFrom(... */\n      tag_69\n        /* \"contracts/SwapUniswap.sol\":3928:3931  DAI */\n      immutable(\"0x6bee8a6b07414df6f08314df38bdc731f007a634b960783bee7b774fa18ce7ee\")\n        /* \"contracts/SwapUniswap.sol\":3958:3962  this */\n      address\n        /* \"contracts/SwapUniswap.sol\":3982:3992  msg.sender */\n      caller\n        /* \"contracts/SwapUniswap.sol\":4029:4037  amountIn */\n      dup6\n        /* \"contracts/SwapUniswap.sol\":4011:4026  amountInMaximum */\n      dup8\n        /* \"contracts/SwapUniswap.sol\":4011:4037  amountInMaximum - amountIn */\n      tag_70\n      swap2\n      swap1\n      tag_71\n      jump\t// in\n    tag_70:\n        /* \"contracts/SwapUniswap.sol\":3878:3909  TransferHelper.safeTransferFrom */\n      tag_56\n        /* \"contracts/SwapUniswap.sol\":3878:4052  TransferHelper.safeTransferFrom(... */\n      jump\t// in\n    tag_69:\n        /* \"contracts/SwapUniswap.sol\":3761:4064  if (amountIn < amountInMaximum) {... */\n    tag_67:\n        /* \"contracts/SwapUniswap.sol\":3090:4071  {... */\n      pop\n        /* \"contracts/SwapUniswap.sol\":2952:4071  function swapExactOutputMultihop(... */\n      swap3\n      swap2\n      pop\n      pop\n      jump\t// out\n        /* \"contracts/SwapUniswap.sol\":463:537  address public constant WETH9 = 0xC02aaA39b223FE8D0A0e5C4F27eAD9083C756Cc2 */\n    tag_25:\n        /* \"contracts/SwapUniswap.sol\":495:537  0xC02aaA39b223FE8D0A0e5C4F27eAD9083C756Cc2 */\n      0xc02aaa39b223fe8d0a0e5c4f27ead9083c756cc2\n        /* \"contracts/SwapUniswap.sol\":463:537  address public constant WETH9 = 0xC02aaA39b223FE8D0A0e5C4F27eAD9083C756Cc2 */\n      dup2\n      jump\t// out\n        /* \"contracts/SwapUniswap.sol\":4548:5827  function swapExactInputSingle(... */\n    tag_31:\n        /* \"contracts/SwapUniswap.sol\":4630:4647  uint256 amountOut */\n      0x00\n        /* \"contracts/SwapUniswap.sol\":4779:4915  TransferHelper.safeTransferFrom(... */\n      tag_73\n        /* \"contracts/SwapUniswap.sol\":4825:4828  DAI */\n      immutable(\"0x6bee8a6b07414df6f08314df38bdc731f007a634b960783bee7b774fa18ce7ee\")\n        /* \"contracts/SwapUniswap.sol\":4843:4853  msg.sender */\n      caller\n        /* \"contracts/SwapUniswap.sol\":4876:4880  this */\n      address\n        /* \"contracts/SwapUniswap.sol\":4896:4904  amountIn */\n      dup6\n        /* \"contracts/SwapUniswap.sol\":4779:4810  TransferHelper.safeTransferFrom */\n      tag_56\n        /* \"contracts/SwapUniswap.sol\":4779:4915  TransferHelper.safeTransferFrom(... */\n      jump\t// in\n    tag_73:\n        /* \"contracts/SwapUniswap.sol\":4973:5035  TransferHelper.safeApprove(DAI, address(swapRouter), amountIn) */\n      tag_74\n        /* \"contracts/SwapUniswap.sol\":5000:5003  DAI */\n      immutable(\"0x6bee8a6b07414df6f08314df38bdc731f007a634b960783bee7b774fa18ce7ee\")\n        /* \"contracts/SwapUniswap.sol\":5013:5023  swapRouter */\n      immutable(\"0x747491254fc29a61c3f0f8ca603d468b83f8d0af60d3a86e8b935f39643493bc\")\n        /* \"contracts/SwapUniswap.sol\":5026:5034  amountIn */\n      dup5\n        /* \"contracts/SwapUniswap.sol\":4973:4999  TransferHelper.safeApprove */\n      tag_58\n        /* \"contracts/SwapUniswap.sol\":4973:5035  TransferHelper.safeApprove(DAI, address(swapRouter), amountIn) */\n      jump\t// in\n    tag_74:\n        /* \"contracts/SwapUniswap.sol\":5287:5335  ISwapRouter.ExactInputSingleParams memory params */\n      0x00\n        /* \"contracts/SwapUniswap.sol\":5338:5697  ISwapRouter... */\n      mload(0x40)\n      dup1\n      0x0100\n      add\n      0x40\n      mstore\n      dup1\n        /* \"contracts/SwapUniswap.sol\":5415:5418  DAI */\n      immutable(\"0x6bee8a6b07414df6f08314df38bdc731f007a634b960783bee7b774fa18ce7ee\")\n        /* \"contracts/SwapUniswap.sol\":5338:5697  ISwapRouter... */\n      0xffffffffffffffffffffffffffffffffffffffff\n      and\n      dup2\n      mstore\n      0x20\n      add\n        /* \"contracts/SwapUniswap.sol\":495:537  0xC02aaA39b223FE8D0A0e5C4F27eAD9083C756Cc2 */\n      0xc02aaa39b223fe8d0a0e5c4f27ead9083c756cc2\n        /* \"contracts/SwapUniswap.sol\":5338:5697  ISwapRouter... */\n      0xffffffffffffffffffffffffffffffffffffffff\n      and\n      dup2\n      mstore\n      0x20\n      add\n        /* \"contracts/SwapUniswap.sol\":579:583  3000 */\n      0x0bb8\n        /* \"contracts/SwapUniswap.sol\":5338:5697  ISwapRouter... */\n      0xffffff\n      and\n      dup2\n      mstore\n      0x20\n      add\n        /* \"contracts/SwapUniswap.sol\":5513:5523  msg.sender */\n      caller\n        /* \"contracts/SwapUniswap.sol\":5338:5697  ISwapRouter... */\n      0xffffffffffffffffffffffffffffffffffffffff\n      and\n      dup2\n      mstore\n      0x20\n      add\n        /* \"contracts/SwapUniswap.sol\":5552:5567  block.timestamp */\n      timestamp\n        /* \"contracts/SwapUniswap.sol\":5338:5697  ISwapRouter... */\n      dup2\n      mstore\n      0x20\n      add\n        /* \"contracts/SwapUniswap.sol\":5596:5604  amountIn */\n      dup5\n        /* \"contracts/SwapUniswap.sol\":5338:5697  ISwapRouter... */\n      dup2\n      mstore\n      0x20\n      add\n        /* \"contracts/SwapUniswap.sol\":5641:5642  0 */\n      0x00\n        /* \"contracts/SwapUniswap.sol\":5338:5697  ISwapRouter... */\n      dup2\n      mstore\n      0x20\n      add\n        /* \"contracts/SwapUniswap.sol\":5680:5681  0 */\n      0x00\n        /* \"contracts/SwapUniswap.sol\":5338:5697  ISwapRouter... */\n      0xffffffffffffffffffffffffffffffffffffffff\n      and\n      dup2\n      mstore\n      pop\n        /* \"contracts/SwapUniswap.sol\":5287:5697  ISwapRouter.ExactInputSingleParams memory params = ISwapRouter... */\n      swap1\n      pop\n        /* \"contracts/SwapUniswap.sol\":5784:5794  swapRouter */\n      immutable(\"0x747491254fc29a61c3f0f8ca603d468b83f8d0af60d3a86e8b935f39643493bc\")\n        /* \"contracts/SwapUniswap.sol\":5784:5811  swapRouter.exactInputSingle */\n      0xffffffffffffffffffffffffffffffffffffffff\n      and\n      0x414bf389\n        /* \"contracts/SwapUniswap.sol\":5812:5818  params */\n      dup3\n        /* \"contracts/SwapUniswap.sol\":5784:5819  swapRouter.exactInputSingle(params) */\n      mload(0x40)\n      dup3\n      0xffffffff\n      and\n      0xe0\n      shl\n      dup2\n      mstore\n      0x04\n      add\n      tag_75\n      swap2\n      swap1\n      tag_76\n      jump\t// in\n    tag_75:\n      0x20\n      mload(0x40)\n      dup1\n      dup4\n      sub\n      dup2\n      0x00\n      dup8\n      gas\n      call\n      iszero\n      dup1\n      iszero\n      tag_78\n      jumpi\n      returndatasize\n      0x00\n      dup1\n      returndatacopy\n      revert(0x00, returndatasize)\n    tag_78:\n      pop\n      pop\n      pop\n      pop\n      mload(0x40)\n      returndatasize\n      not(0x1f)\n      0x1f\n      dup3\n      add\n      and\n      dup3\n      add\n      dup1\n      0x40\n      mstore\n      pop\n      dup2\n      add\n      swap1\n      tag_79\n      swap2\n      swap1\n      tag_66\n      jump\t// in\n    tag_79:\n        /* \"contracts/SwapUniswap.sol\":5772:5819  amountOut = swapRouter.exactInputSingle(params) */\n      swap2\n      pop\n        /* \"contracts/SwapUniswap.sol\":4649:5827  {... */\n      pop\n        /* \"contracts/SwapUniswap.sol\":4548:5827  function swapExactInputSingle(... */\n      swap2\n      swap1\n      pop\n      jump\t// out\n        /* \"contracts/SwapUniswap.sol\":427:456  address public immutable USDC */\n    tag_34:\n      immutable(\"0x571dd8aeb083ba31171345d7ed78dcdb2e0ef1ded5d63247b288b600c1eb6c39\")\n      dup2\n      jump\t// out\n        /* \"contracts/SwapUniswap.sol\":233:272  ISwapRouter public immutable swapRouter */\n    tag_37:\n      immutable(\"0x747491254fc29a61c3f0f8ca603d468b83f8d0af60d3a86e8b935f39643493bc\")\n      dup2\n      jump\t// out\n        /* \"contracts/SwapUniswap.sol\":6463:8256  function swapExactOutputSingle(... */\n    tag_42:\n        /* \"contracts/SwapUniswap.sol\":6581:6597  uint256 amountIn */\n      0x00\n        /* \"contracts/SwapUniswap.sol\":6677:6820  TransferHelper.safeTransferFrom(... */\n      tag_81\n        /* \"contracts/SwapUniswap.sol\":6723:6726  DAI */\n      immutable(\"0x6bee8a6b07414df6f08314df38bdc731f007a634b960783bee7b774fa18ce7ee\")\n        /* \"contracts/SwapUniswap.sol\":6741:6751  msg.sender */\n      caller\n        /* \"contracts/SwapUniswap.sol\":6774:6778  this */\n      address\n        /* \"contracts/SwapUniswap.sol\":6794:6809  amountInMaximum */\n      dup6\n        /* \"contracts/SwapUniswap.sol\":6677:6708  TransferHelper.safeTransferFrom */\n      tag_56\n        /* \"contracts/SwapUniswap.sol\":6677:6820  TransferHelper.safeTransferFrom(... */\n      jump\t// in\n    tag_81:\n        /* \"contracts/SwapUniswap.sol\":7050:7119  TransferHelper.safeApprove(DAI, address(swapRouter), amountInMaximum) */\n      tag_82\n        /* \"contracts/SwapUniswap.sol\":7077:7080  DAI */\n      immutable(\"0x6bee8a6b07414df6f08314df38bdc731f007a634b960783bee7b774fa18ce7ee\")\n        /* \"contracts/SwapUniswap.sol\":7090:7100  swapRouter */\n      immutable(\"0x747491254fc29a61c3f0f8ca603d468b83f8d0af60d3a86e8b935f39643493bc\")\n        /* \"contracts/SwapUniswap.sol\":7103:7118  amountInMaximum */\n      dup5\n        /* \"contracts/SwapUniswap.sol\":7050:7076  TransferHelper.safeApprove */\n      tag_58\n        /* \"contracts/SwapUniswap.sol\":7050:7119  TransferHelper.safeApprove(DAI, address(swapRouter), amountInMaximum) */\n      jump\t// in\n    tag_82:\n        /* \"contracts/SwapUniswap.sol\":7132:7181  ISwapRouter.ExactOutputSingleParams memory params */\n      0x00\n        /* \"contracts/SwapUniswap.sol\":7184:7559  ISwapRouter... */\n      mload(0x40)\n      dup1\n      0x0100\n      add\n      0x40\n      mstore\n      dup1\n        /* \"contracts/SwapUniswap.sol\":7262:7265  DAI */\n      immutable(\"0x6bee8a6b07414df6f08314df38bdc731f007a634b960783bee7b774fa18ce7ee\")\n        /* \"contracts/SwapUniswap.sol\":7184:7559  ISwapRouter... */\n      0xffffffffffffffffffffffffffffffffffffffff\n      and\n      dup2\n      mstore\n      0x20\n      add\n        /* \"contracts/SwapUniswap.sol\":495:537  0xC02aaA39b223FE8D0A0e5C4F27eAD9083C756Cc2 */\n      0xc02aaa39b223fe8d0a0e5c4f27ead9083c756cc2\n        /* \"contracts/SwapUniswap.sol\":7184:7559  ISwapRouter... */\n      0xffffffffffffffffffffffffffffffffffffffff\n      and\n      dup2\n      mstore\n      0x20\n      add\n        /* \"contracts/SwapUniswap.sol\":579:583  3000 */\n      0x0bb8\n        /* \"contracts/SwapUniswap.sol\":7184:7559  ISwapRouter... */\n      0xffffff\n      and\n      dup2\n      mstore\n      0x20\n      add\n        /* \"contracts/SwapUniswap.sol\":7360:7370  msg.sender */\n      caller\n        /* \"contracts/SwapUniswap.sol\":7184:7559  ISwapRouter... */\n      0xffffffffffffffffffffffffffffffffffffffff\n      and\n      dup2\n      mstore\n      0x20\n      add\n        /* \"contracts/SwapUniswap.sol\":7399:7414  block.timestamp */\n      timestamp\n        /* \"contracts/SwapUniswap.sol\":7184:7559  ISwapRouter... */\n      dup2\n      mstore\n      0x20\n      add\n        /* \"contracts/SwapUniswap.sol\":7444:7453  amountOut */\n      dup6\n        /* \"contracts/SwapUniswap.sol\":7184:7559  ISwapRouter... */\n      dup2\n      mstore\n      0x20\n      add\n        /* \"contracts/SwapUniswap.sol\":7489:7504  amountInMaximum */\n      dup5\n        /* \"contracts/SwapUniswap.sol\":7184:7559  ISwapRouter... */\n      dup2\n      mstore\n      0x20\n      add\n        /* \"contracts/SwapUniswap.sol\":7542:7543  0 */\n      0x00\n        /* \"contracts/SwapUniswap.sol\":7184:7559  ISwapRouter... */\n      0xffffffffffffffffffffffffffffffffffffffff\n      and\n      dup2\n      mstore\n      pop\n        /* \"contracts/SwapUniswap.sol\":7132:7559  ISwapRouter.ExactOutputSingleParams memory params = ISwapRouter... */\n      swap1\n      pop\n        /* \"contracts/SwapUniswap.sol\":7686:7696  swapRouter */\n      immutable(\"0x747491254fc29a61c3f0f8ca603d468b83f8d0af60d3a86e8b935f39643493bc\")\n        /* \"contracts/SwapUniswap.sol\":7686:7714  swapRouter.exactOutputSingle */\n      0xffffffffffffffffffffffffffffffffffffffff\n      and\n      0xdb3e2198\n        /* \"contracts/SwapUniswap.sol\":7715:7721  params */\n      dup3\n        /* \"contracts/SwapUniswap.sol\":7686:7722  swapRouter.exactOutputSingle(params) */\n      mload(0x40)\n      dup3\n      0xffffffff\n      and\n      0xe0\n      shl\n      dup2\n      mstore\n      0x04\n      add\n      tag_83\n      swap2\n      swap1\n      tag_84\n      jump\t// in\n    tag_83:\n      0x20\n      mload(0x40)\n      dup1\n      dup4\n      sub\n      dup2\n      0x00\n      dup8\n      gas\n      call\n      iszero\n      dup1\n      iszero\n      tag_86\n      jumpi\n      returndatasize\n      0x00\n      dup1\n      returndatacopy\n      revert(0x00, returndatasize)\n    tag_86:\n      pop\n      pop\n      pop\n      pop\n      mload(0x40)\n      returndatasize\n      not(0x1f)\n      0x1f\n      dup3\n      add\n      and\n      dup3\n      add\n      dup1\n      0x40\n      mstore\n      pop\n      dup2\n      add\n      swap1\n      tag_87\n      swap2\n      swap1\n      tag_66\n      jump\t// in\n    tag_87:\n        /* \"contracts/SwapUniswap.sol\":7675:7722  amountIn = swapRouter.exactOutputSingle(params) */\n      swap2\n      pop\n        /* \"contracts/SwapUniswap.sol\":7997:8012  amountInMaximum */\n      dup3\n        /* \"contracts/SwapUniswap.sol\":7986:7994  amountIn */\n      dup3\n        /* \"contracts/SwapUniswap.sol\":7986:8012  amountIn < amountInMaximum */\n      lt\n        /* \"contracts/SwapUniswap.sol\":7982:8249  if (amountIn < amountInMaximum) {... */\n      iszero\n      tag_88\n      jumpi\n        /* \"contracts/SwapUniswap.sol\":8029:8084  TransferHelper.safeApprove(DAI, address(swapRouter), 0) */\n      tag_89\n        /* \"contracts/SwapUniswap.sol\":8056:8059  DAI */\n      immutable(\"0x6bee8a6b07414df6f08314df38bdc731f007a634b960783bee7b774fa18ce7ee\")\n        /* \"contracts/SwapUniswap.sol\":8069:8079  swapRouter */\n      immutable(\"0x747491254fc29a61c3f0f8ca603d468b83f8d0af60d3a86e8b935f39643493bc\")\n        /* \"contracts/SwapUniswap.sol\":8082:8083  0 */\n      0x00\n        /* \"contracts/SwapUniswap.sol\":8029:8055  TransferHelper.safeApprove */\n      tag_58\n        /* \"contracts/SwapUniswap.sol\":8029:8084  TransferHelper.safeApprove(DAI, address(swapRouter), 0) */\n      jump\t// in\n    tag_89:\n        /* \"contracts/SwapUniswap.sol\":8099:8237  TransferHelper.safeTransfer(... */\n      tag_90\n        /* \"contracts/SwapUniswap.sol\":8145:8148  DAI */\n      immutable(\"0x6bee8a6b07414df6f08314df38bdc731f007a634b960783bee7b774fa18ce7ee\")\n        /* \"contracts/SwapUniswap.sol\":8167:8177  msg.sender */\n      caller\n        /* \"contracts/SwapUniswap.sol\":8214:8222  amountIn */\n      dup5\n        /* \"contracts/SwapUniswap.sol\":8196:8211  amountInMaximum */\n      dup7\n        /* \"contracts/SwapUniswap.sol\":8196:8222  amountInMaximum - amountIn */\n      tag_91\n      swap2\n      swap1\n      tag_71\n      jump\t// in\n    tag_91:\n        /* \"contracts/SwapUniswap.sol\":8099:8126  TransferHelper.safeTransfer */\n      tag_92\n        /* \"contracts/SwapUniswap.sol\":8099:8237  TransferHelper.safeTransfer(... */\n      jump\t// in\n    tag_90:\n        /* \"contracts/SwapUniswap.sol\":7982:8249  if (amountIn < amountInMaximum) {... */\n    tag_88:\n        /* \"contracts/SwapUniswap.sol\":6599:8256  {... */\n      pop\n        /* \"contracts/SwapUniswap.sol\":6463:8256  function swapExactOutputSingle(... */\n      swap3\n      swap2\n      pop\n      pop\n      jump\t// out\n        /* \"contracts/SwapUniswap.sol\":391:420  address public immutable USDT */\n    tag_45:\n      immutable(\"0x278a4539603a9bc8a72d7a368fe14ebf88ae5f0870def96c5eca03adb0b084ba\")\n      dup2\n      jump\t// out\n        /* \"contracts/SwapUniswap.sol\":356:384  address public immutable DAI */\n    tag_48:\n      immutable(\"0x6bee8a6b07414df6f08314df38bdc731f007a634b960783bee7b774fa18ce7ee\")\n      dup2\n      jump\t// out\n        /* \"contracts/SwapUniswap.sol\":1341:2081  function swapExactInputMultihop(... */\n    tag_52:\n        /* \"contracts/SwapUniswap.sol\":1425:1442  uint256 amountOut */\n      0x00\n        /* \"contracts/SwapUniswap.sol\":1455:1591  TransferHelper.safeTransferFrom(... */\n      tag_94\n        /* \"contracts/SwapUniswap.sol\":1501:1504  DAI */\n      immutable(\"0x6bee8a6b07414df6f08314df38bdc731f007a634b960783bee7b774fa18ce7ee\")\n        /* \"contracts/SwapUniswap.sol\":1519:1529  msg.sender */\n      caller\n        /* \"contracts/SwapUniswap.sol\":1552:1556  this */\n      address\n        /* \"contracts/SwapUniswap.sol\":1572:1580  amountIn */\n      dup6\n        /* \"contracts/SwapUniswap.sol\":1455:1486  TransferHelper.safeTransferFrom */\n      tag_56\n        /* \"contracts/SwapUniswap.sol\":1455:1591  TransferHelper.safeTransferFrom(... */\n      jump\t// in\n    tag_94:\n        /* \"contracts/SwapUniswap.sol\":1604:1666  TransferHelper.safeApprove(DAI, address(swapRouter), amountIn) */\n      tag_95\n        /* \"contracts/SwapUniswap.sol\":1631:1634  DAI */\n      immutable(\"0x6bee8a6b07414df6f08314df38bdc731f007a634b960783bee7b774fa18ce7ee\")\n        /* \"contracts/SwapUniswap.sol\":1644:1654  swapRouter */\n      immutable(\"0x747491254fc29a61c3f0f8ca603d468b83f8d0af60d3a86e8b935f39643493bc\")\n        /* \"contracts/SwapUniswap.sol\":1657:1665  amountIn */\n      dup5\n        /* \"contracts/SwapUniswap.sol\":1604:1630  TransferHelper.safeApprove */\n      tag_58\n        /* \"contracts/SwapUniswap.sol\":1604:1666  TransferHelper.safeApprove(DAI, address(swapRouter), amountIn) */\n      jump\t// in\n    tag_95:\n        /* \"contracts/SwapUniswap.sol\":1679:1721  ISwapRouter.ExactInputParams memory params */\n      0x00\n        /* \"contracts/SwapUniswap.sol\":1724:2019  ISwapRouter... */\n      mload(0x40)\n      dup1\n      0xa0\n      add\n      0x40\n      mstore\n      dup1\n        /* \"contracts/SwapUniswap.sol\":1809:1812  DAI */\n      immutable(\"0x6bee8a6b07414df6f08314df38bdc731f007a634b960783bee7b774fa18ce7ee\")\n        /* \"contracts/SwapUniswap.sol\":579:583  3000 */\n      0x0bb8\n        /* \"contracts/SwapUniswap.sol\":1823:1827  USDC */\n      immutable(\"0x571dd8aeb083ba31171345d7ed78dcdb2e0ef1ded5d63247b288b600c1eb6c39\")\n        /* \"contracts/SwapUniswap.sol\":579:583  3000 */\n      0x0bb8\n        /* \"contracts/SwapUniswap.sol\":495:537  0xC02aaA39b223FE8D0A0e5C4F27eAD9083C756Cc2 */\n      0xc02aaa39b223fe8d0a0e5c4f27ead9083c756cc2\n        /* \"contracts/SwapUniswap.sol\":1792:1844  abi.encodePacked(DAI, poolFee, USDC, poolFee, WETH9) */\n      add(0x20, mload(0x40))\n      tag_96\n      swap6\n      swap5\n      swap4\n      swap3\n      swap2\n      swap1\n      tag_60\n      jump\t// in\n    tag_96:\n      mload(0x40)\n      0x20\n      dup2\n      dup4\n      sub\n      sub\n      dup2\n      mstore\n      swap1\n      0x40\n      mstore\n        /* \"contracts/SwapUniswap.sol\":1724:2019  ISwapRouter... */\n      dup2\n      mstore\n      0x20\n      add\n        /* \"contracts/SwapUniswap.sol\":1874:1884  msg.sender */\n      caller\n        /* \"contracts/SwapUniswap.sol\":1724:2019  ISwapRouter... */\n      0xffffffffffffffffffffffffffffffffffffffff\n      and\n      dup2\n      mstore\n      0x20\n      add\n        /* \"contracts/SwapUniswap.sol\":1913:1928  block.timestamp */\n      timestamp\n        /* \"contracts/SwapUniswap.sol\":1724:2019  ISwapRouter... */\n      dup2\n      mstore\n      0x20\n      add\n        /* \"contracts/SwapUniswap.sol\":1957:1965  amountIn */\n      dup5\n        /* \"contracts/SwapUniswap.sol\":1724:2019  ISwapRouter... */\n      dup2\n      mstore\n      0x20\n      add\n        /* \"contracts/SwapUniswap.sol\":2002:2003  0 */\n      0x00\n        /* \"contracts/SwapUniswap.sol\":1724:2019  ISwapRouter... */\n      dup2\n      mstore\n      pop\n        /* \"contracts/SwapUniswap.sol\":1679:2019  ISwapRouter.ExactInputParams memory params = ISwapRouter... */\n      swap1\n      pop\n        /* \"contracts/SwapUniswap.sol\":2044:2054  swapRouter */\n      immutable(\"0x747491254fc29a61c3f0f8ca603d468b83f8d0af60d3a86e8b935f39643493bc\")\n        /* \"contracts/SwapUniswap.sol\":2044:2065  swapRouter.exactInput */\n      0xffffffffffffffffffffffffffffffffffffffff\n      and\n      0xc04b8d59\n        /* \"contracts/SwapUniswap.sol\":2066:2072  params */\n      dup3\n        /* \"contracts/SwapUniswap.sol\":2044:2073  swapRouter.exactInput(params) */\n      mload(0x40)\n      dup3\n      0xffffffff\n      and\n      0xe0\n      shl\n      dup2\n      mstore\n      0x04\n      add\n      tag_97\n      swap2\n      swap1\n      tag_98\n      jump\t// in\n    tag_97:\n      0x20\n      mload(0x40)\n      dup1\n      dup4\n      sub\n      dup2\n      0x00\n      dup8\n      gas\n      call\n      iszero\n      dup1\n      iszero\n      tag_100\n      jumpi\n      returndatasize\n      0x00\n      dup1\n      returndatacopy\n      revert(0x00, returndatasize)\n    tag_100:\n      pop\n      pop\n      pop\n      pop\n      mload(0x40)\n      returndatasize\n      not(0x1f)\n      0x1f\n      dup3\n      add\n      and\n      dup3\n      add\n      dup1\n      0x40\n      mstore\n      pop\n      dup2\n      add\n      swap1\n      tag_101\n      swap2\n      swap1\n      tag_66\n      jump\t// in\n    tag_101:\n        /* \"contracts/SwapUniswap.sol\":2032:2073  amountOut = swapRouter.exactInput(params) */\n      swap2\n      pop\n        /* \"contracts/SwapUniswap.sol\":1444:2081  {... */\n      pop\n        /* \"contracts/SwapUniswap.sol\":1341:2081  function swapExactInputMultihop(... */\n      swap2\n      swap1\n      pop\n      jump\t// out\n        /* \"@uniswap/v3-periphery/contracts/libraries/TransferHelper.sol\":561:919  function safeTransferFrom(... */\n    tag_56:\n        /* \"@uniswap/v3-periphery/contracts/libraries/TransferHelper.sol\":701:713  bool success */\n      0x00\n        /* \"@uniswap/v3-periphery/contracts/libraries/TransferHelper.sol\":715:732  bytes memory data */\n      dup1\n        /* \"@uniswap/v3-periphery/contracts/libraries/TransferHelper.sol\":748:753  token */\n      dup6\n        /* \"@uniswap/v3-periphery/contracts/libraries/TransferHelper.sol\":748:758  token.call */\n      0xffffffffffffffffffffffffffffffffffffffff\n      and\n        /* \"@uniswap/v3-periphery/contracts/libraries/TransferHelper.sol\":782:810  IERC20.transferFrom.selector */\n      shl(0xe0, 0x23b872dd)\n        /* \"@uniswap/v3-periphery/contracts/libraries/TransferHelper.sol\":812:816  from */\n      dup7\n        /* \"@uniswap/v3-periphery/contracts/libraries/TransferHelper.sol\":818:820  to */\n      dup7\n        /* \"@uniswap/v3-periphery/contracts/libraries/TransferHelper.sol\":822:827  value */\n      dup7\n        /* \"@uniswap/v3-periphery/contracts/libraries/TransferHelper.sol\":759:828  abi.encodeWithSelector(IERC20.transferFrom.selector, from, to, value) */\n      add(0x24, mload(0x40))\n      tag_103\n      swap4\n      swap3\n      swap2\n      swap1\n      tag_104\n      jump\t// in\n    tag_103:\n      mload(0x40)\n      0x20\n      dup2\n      dup4\n      sub\n      sub\n      dup2\n      mstore\n      swap1\n      0x40\n      mstore\n      swap1\n      not(0xffffffffffffffffffffffffffffffffffffffffffffffffffffffff)\n      and\n      0x20\n      dup3\n      add\n      dup1\n      mload\n      0xffffffffffffffffffffffffffffffffffffffffffffffffffffffff\n      dup4\n      dup2\n      dup4\n      and\n      or\n      dup4\n      mstore\n      pop\n      pop\n      pop\n      pop\n        /* \"@uniswap/v3-periphery/contracts/libraries/TransferHelper.sol\":748:829  token.call(abi.encodeWithSelector(IERC20.transferFrom.selector, from, to, value)) */\n      mload(0x40)\n      tag_105\n      swap2\n      swap1\n      tag_106\n      jump\t// in\n    tag_105:\n      0x00\n      mload(0x40)\n      dup1\n      dup4\n      sub\n      dup2\n      0x00\n      dup7\n      gas\n      call\n      swap2\n      pop\n      pop\n      returndatasize\n      dup1\n      0x00\n      dup2\n      eq\n      tag_109\n      jumpi\n      mload(0x40)\n      swap2\n      pop\n      and(add(returndatasize, 0x3f), not(0x1f))\n      dup3\n      add\n      0x40\n      mstore\n      returndatasize\n      dup3\n      mstore\n      returndatasize\n      0x00\n      0x20\n      dup5\n      add\n      returndatacopy\n      jump(tag_108)\n    tag_109:\n      0x60\n      swap2\n      pop\n    tag_108:\n      pop\n        /* \"@uniswap/v3-periphery/contracts/libraries/TransferHelper.sol\":700:829  (bool success, bytes memory data) =... */\n      swap2\n      pop\n      swap2\n      pop\n        /* \"@uniswap/v3-periphery/contracts/libraries/TransferHelper.sol\":847:854  success */\n      dup2\n        /* \"@uniswap/v3-periphery/contracts/libraries/TransferHelper.sol\":847:904  success && (data.length == 0 || abi.decode(data, (bool))) */\n      dup1\n      iszero\n      tag_110\n      jumpi\n      pop\n        /* \"@uniswap/v3-periphery/contracts/libraries/TransferHelper.sol\":874:875  0 */\n      0x00\n        /* \"@uniswap/v3-periphery/contracts/libraries/TransferHelper.sol\":859:863  data */\n      dup2\n        /* \"@uniswap/v3-periphery/contracts/libraries/TransferHelper.sol\":859:870  data.length */\n      mload\n        /* \"@uniswap/v3-periphery/contracts/libraries/TransferHelper.sol\":859:875  data.length == 0 */\n      eq\n        /* \"@uniswap/v3-periphery/contracts/libraries/TransferHelper.sol\":859:903  data.length == 0 || abi.decode(data, (bool)) */\n      dup1\n      tag_111\n      jumpi\n      pop\n        /* \"@uniswap/v3-periphery/contracts/libraries/TransferHelper.sol\":890:894  data */\n      dup1\n        /* \"@uniswap/v3-periphery/contracts/libraries/TransferHelper.sol\":879:903  abi.decode(data, (bool)) */\n      dup1\n      0x20\n      add\n      swap1\n      mload\n      dup2\n      add\n      swap1\n      tag_112\n      swap2\n      swap1\n      tag_113\n      jump\t// in\n    tag_112:\n        /* \"@uniswap/v3-periphery/contracts/libraries/TransferHelper.sol\":859:903  data.length == 0 || abi.decode(data, (bool)) */\n    tag_111:\n        /* \"@uniswap/v3-periphery/contracts/libraries/TransferHelper.sol\":847:904  success && (data.length == 0 || abi.decode(data, (bool))) */\n    tag_110:\n        /* \"@uniswap/v3-periphery/contracts/libraries/TransferHelper.sol\":839:912  require(success && (data.length == 0 || abi.decode(data, (bool))), 'STF') */\n      tag_114\n      jumpi\n      mload(0x40)\n      0x08c379a000000000000000000000000000000000000000000000000000000000\n      dup2\n      mstore\n      0x04\n      add\n      tag_115\n      swap1\n      tag_116\n      jump\t// in\n    tag_115:\n      mload(0x40)\n      dup1\n      swap2\n      sub\n      swap1\n      revert\n    tag_114:\n        /* \"@uniswap/v3-periphery/contracts/libraries/TransferHelper.sol\":690:919  {... */\n      pop\n      pop\n        /* \"@uniswap/v3-periphery/contracts/libraries/TransferHelper.sol\":561:919  function safeTransferFrom(... */\n      pop\n      pop\n      pop\n      pop\n      jump\t// out\n        /* \"@uniswap/v3-periphery/contracts/libraries/TransferHelper.sol\":1873:2180  function safeApprove(... */\n    tag_58:\n        /* \"@uniswap/v3-periphery/contracts/libraries/TransferHelper.sol\":1986:1998  bool success */\n      0x00\n        /* \"@uniswap/v3-periphery/contracts/libraries/TransferHelper.sol\":2000:2017  bytes memory data */\n      dup1\n        /* \"@uniswap/v3-periphery/contracts/libraries/TransferHelper.sol\":2021:2026  token */\n      dup5\n        /* \"@uniswap/v3-periphery/contracts/libraries/TransferHelper.sol\":2021:2031  token.call */\n      0xffffffffffffffffffffffffffffffffffffffff\n      and\n        /* \"@uniswap/v3-periphery/contracts/libraries/TransferHelper.sol\":2055:2078  IERC20.approve.selector */\n      shl(0xe0, 0x095ea7b3)\n        /* \"@uniswap/v3-periphery/contracts/libraries/TransferHelper.sol\":2080:2082  to */\n      dup6\n        /* \"@uniswap/v3-periphery/contracts/libraries/TransferHelper.sol\":2084:2089  value */\n      dup6\n        /* \"@uniswap/v3-periphery/contracts/libraries/TransferHelper.sol\":2032:2090  abi.encodeWithSelector(IERC20.approve.selector, to, value) */\n      add(0x24, mload(0x40))\n      tag_118\n      swap3\n      swap2\n      swap1\n      tag_119\n      jump\t// in\n    tag_118:\n      mload(0x40)\n      0x20\n      dup2\n      dup4\n      sub\n      sub\n      dup2\n      mstore\n      swap1\n      0x40\n      mstore\n      swap1\n      not(0xffffffffffffffffffffffffffffffffffffffffffffffffffffffff)\n      and\n      0x20\n      dup3\n      add\n      dup1\n      mload\n      0xffffffffffffffffffffffffffffffffffffffffffffffffffffffff\n      dup4\n      dup2\n      dup4\n      and\n      or\n      dup4\n      mstore\n      pop\n      pop\n      pop\n      pop\n        /* \"@uniswap/v3-periphery/contracts/libraries/TransferHelper.sol\":2021:2091  token.call(abi.encodeWithSelector(IERC20.approve.selector, to, value)) */\n      mload(0x40)\n      tag_120\n      swap2\n      swap1\n      tag_106\n      jump\t// in\n    tag_120:\n      0x00\n      mload(0x40)\n      dup1\n      dup4\n      sub\n      dup2\n      0x00\n      dup7\n      gas\n      call\n      swap2\n      pop\n      pop\n      returndatasize\n      dup1\n      0x00\n      dup2\n      eq\n      tag_123\n      jumpi\n      mload(0x40)\n      swap2\n      pop\n      and(add(returndatasize, 0x3f), not(0x1f))\n      dup3\n      add\n      0x40\n      mstore\n      returndatasize\n      dup3\n      mstore\n      returndatasize\n      0x00\n      0x20\n      dup5\n      add\n      returndatacopy\n      jump(tag_122)\n    tag_123:\n      0x60\n      swap2\n      pop\n    tag_122:\n      pop\n        /* \"@uniswap/v3-periphery/contracts/libraries/TransferHelper.sol\":1985:2091  (bool success, bytes memory data) = token.call(abi.encodeWithSelector(IERC20.approve.selector, to, value)) */\n      swap2\n      pop\n      swap2\n      pop\n        /* \"@uniswap/v3-periphery/contracts/libraries/TransferHelper.sol\":2109:2116  success */\n      dup2\n        /* \"@uniswap/v3-periphery/contracts/libraries/TransferHelper.sol\":2109:2166  success && (data.length == 0 || abi.decode(data, (bool))) */\n      dup1\n      iszero\n      tag_124\n      jumpi\n      pop\n        /* \"@uniswap/v3-periphery/contracts/libraries/TransferHelper.sol\":2136:2137  0 */\n      0x00\n        /* \"@uniswap/v3-periphery/contracts/libraries/TransferHelper.sol\":2121:2125  data */\n      dup2\n        /* \"@uniswap/v3-periphery/contracts/libraries/TransferHelper.sol\":2121:2132  data.length */\n      mload\n        /* \"@uniswap/v3-periphery/contracts/libraries/TransferHelper.sol\":2121:2137  data.length == 0 */\n      eq\n        /* \"@uniswap/v3-periphery/contracts/libraries/TransferHelper.sol\":2121:2165  data.length == 0 || abi.decode(data, (bool)) */\n      dup1\n      tag_125\n      jumpi\n      pop\n        /* \"@uniswap/v3-periphery/contracts/libraries/TransferHelper.sol\":2152:2156  data */\n      dup1\n        /* \"@uniswap/v3-periphery/contracts/libraries/TransferHelper.sol\":2141:2165  abi.decode(data, (bool)) */\n      dup1\n      0x20\n      add\n      swap1\n      mload\n      dup2\n      add\n      swap1\n      tag_126\n      swap2\n      swap1\n      tag_113\n      jump\t// in\n    tag_126:\n        /* \"@uniswap/v3-periphery/contracts/libraries/TransferHelper.sol\":2121:2165  data.length == 0 || abi.decode(data, (bool)) */\n    tag_125:\n        /* \"@uniswap/v3-periphery/contracts/libraries/TransferHelper.sol\":2109:2166  success && (data.length == 0 || abi.decode(data, (bool))) */\n    tag_124:\n        /* \"@uniswap/v3-periphery/contracts/libraries/TransferHelper.sol\":2101:2173  require(success && (data.length == 0 || abi.decode(data, (bool))), 'SA') */\n      tag_127\n      jumpi\n      mload(0x40)\n      0x08c379a000000000000000000000000000000000000000000000000000000000\n      dup2\n      mstore\n      0x04\n      add\n      tag_128\n      swap1\n      tag_129\n      jump\t// in\n    tag_128:\n      mload(0x40)\n      dup1\n      swap2\n      sub\n      swap1\n      revert\n    tag_127:\n        /* \"@uniswap/v3-periphery/contracts/libraries/TransferHelper.sol\":1975:2180  {... */\n      pop\n      pop\n        /* \"@uniswap/v3-periphery/contracts/libraries/TransferHelper.sol\":1873:2180  function safeApprove(... */\n      pop\n      pop\n      pop\n      jump\t// out\n        /* \"@uniswap/v3-periphery/contracts/libraries/TransferHelper.sol\":1211:1520  function safeTransfer(... */\n    tag_92:\n        /* \"@uniswap/v3-periphery/contracts/libraries/TransferHelper.sol\":1325:1337  bool success */\n      0x00\n        /* \"@uniswap/v3-periphery/contracts/libraries/TransferHelper.sol\":1339:1356  bytes memory data */\n      dup1\n        /* \"@uniswap/v3-periphery/contracts/libraries/TransferHelper.sol\":1360:1365  token */\n      dup5\n        /* \"@uniswap/v3-periphery/contracts/libraries/TransferHelper.sol\":1360:1370  token.call */\n      0xffffffffffffffffffffffffffffffffffffffff\n      and\n        /* \"@uniswap/v3-periphery/contracts/libraries/TransferHelper.sol\":1394:1418  IERC20.transfer.selector */\n      shl(0xe0, 0xa9059cbb)\n        /* \"@uniswap/v3-periphery/contracts/libraries/TransferHelper.sol\":1420:1422  to */\n      dup6\n        /* \"@uniswap/v3-periphery/contracts/libraries/TransferHelper.sol\":1424:1429  value */\n      dup6\n        /* \"@uniswap/v3-periphery/contracts/libraries/TransferHelper.sol\":1371:1430  abi.encodeWithSelector(IERC20.transfer.selector, to, value) */\n      add(0x24, mload(0x40))\n      tag_131\n      swap3\n      swap2\n      swap1\n      tag_119\n      jump\t// in\n    tag_131:\n      mload(0x40)\n      0x20\n      dup2\n      dup4\n      sub\n      sub\n      dup2\n      mstore\n      swap1\n      0x40\n      mstore\n      swap1\n      not(0xffffffffffffffffffffffffffffffffffffffffffffffffffffffff)\n      and\n      0x20\n      dup3\n      add\n      dup1\n      mload\n      0xffffffffffffffffffffffffffffffffffffffffffffffffffffffff\n      dup4\n      dup2\n      dup4\n      and\n      or\n      dup4\n      mstore\n      pop\n      pop\n      pop\n      pop\n        /* \"@uniswap/v3-periphery/contracts/libraries/TransferHelper.sol\":1360:1431  token.call(abi.encodeWithSelector(IERC20.transfer.selector, to, value)) */\n      mload(0x40)\n      tag_132\n      swap2\n      swap1\n      tag_106\n      jump\t// in\n    tag_132:\n      0x00\n      mload(0x40)\n      dup1\n      dup4\n      sub\n      dup2\n      0x00\n      dup7\n      gas\n      call\n      swap2\n      pop\n      pop\n      returndatasize\n      dup1\n      0x00\n      dup2\n      eq\n      tag_135\n      jumpi\n      mload(0x40)\n      swap2\n      pop\n      and(add(returndatasize, 0x3f), not(0x1f))\n      dup3\n      add\n      0x40\n      mstore\n      returndatasize\n      dup3\n      mstore\n      returndatasize\n      0x00\n      0x20\n      dup5\n      add\n      returndatacopy\n      jump(tag_134)\n    tag_135:\n      0x60\n      swap2\n      pop\n    tag_134:\n      pop\n        /* \"@uniswap/v3-periphery/contracts/libraries/TransferHelper.sol\":1324:1431  (bool success, bytes memory data) = token.call(abi.encodeWithSelector(IERC20.transfer.selector, to, value)) */\n      swap2\n      pop\n      swap2\n      pop\n        /* \"@uniswap/v3-periphery/contracts/libraries/TransferHelper.sol\":1449:1456  success */\n      dup2\n        /* \"@uniswap/v3-periphery/contracts/libraries/TransferHelper.sol\":1449:1506  success && (data.length == 0 || abi.decode(data, (bool))) */\n      dup1\n      iszero\n      tag_136\n      jumpi\n      pop\n        /* \"@uniswap/v3-periphery/contracts/libraries/TransferHelper.sol\":1476:1477  0 */\n      0x00\n        /* \"@uniswap/v3-periphery/contracts/libraries/TransferHelper.sol\":1461:1465  data */\n      dup2\n        /* \"@uniswap/v3-periphery/contracts/libraries/TransferHelper.sol\":1461:1472  data.length */\n      mload\n        /* \"@uniswap/v3-periphery/contracts/libraries/TransferHelper.sol\":1461:1477  data.length == 0 */\n      eq\n        /* \"@uniswap/v3-periphery/contracts/libraries/TransferHelper.sol\":1461:1505  data.length == 0 || abi.decode(data, (bool)) */\n      dup1\n      tag_137\n      jumpi\n      pop\n        /* \"@uniswap/v3-periphery/contracts/libraries/TransferHelper.sol\":1492:1496  data */\n      dup1\n        /* \"@uniswap/v3-periphery/contracts/libraries/TransferHelper.sol\":1481:1505  abi.decode(data, (bool)) */\n      dup1\n      0x20\n      add\n      swap1\n      mload\n      dup2\n      add\n      swap1\n      tag_138\n      swap2\n      swap1\n      tag_113\n      jump\t// in\n    tag_138:\n        /* \"@uniswap/v3-periphery/contracts/libraries/TransferHelper.sol\":1461:1505  data.length == 0 || abi.decode(data, (bool)) */\n    tag_137:\n        /* \"@uniswap/v3-periphery/contracts/libraries/TransferHelper.sol\":1449:1506  success && (data.length == 0 || abi.decode(data, (bool))) */\n    tag_136:\n        /* \"@uniswap/v3-periphery/contracts/libraries/TransferHelper.sol\":1441:1513  require(success && (data.length == 0 || abi.decode(data, (bool))), 'ST') */\n      tag_139\n      jumpi\n      mload(0x40)\n      0x08c379a000000000000000000000000000000000000000000000000000000000\n      dup2\n      mstore\n      0x04\n      add\n      tag_140\n      swap1\n      tag_141\n      jump\t// in\n    tag_140:\n      mload(0x40)\n      dup1\n      swap2\n      sub\n      swap1\n      revert\n    tag_139:\n        /* \"@uniswap/v3-periphery/contracts/libraries/TransferHelper.sol\":1314:1520  {... */\n      pop\n      pop\n        /* \"@uniswap/v3-periphery/contracts/libraries/TransferHelper.sol\":1211:1520  function safeTransfer(... */\n      pop\n      pop\n      pop\n      jump\t// out\n        /* \"#utility.yul\":7:98   */\n    tag_142:\n        /* \"#utility.yul\":43:50   */\n      0x00\n        /* \"#utility.yul\":83:91   */\n      0xffffff\n        /* \"#utility.yul\":76:81   */\n      dup3\n        /* \"#utility.yul\":72:92   */\n      and\n        /* \"#utility.yul\":61:92   */\n      swap1\n      pop\n        /* \"#utility.yul\":7:98   */\n      swap2\n      swap1\n      pop\n      jump\t// out\n        /* \"#utility.yul\":104:219   */\n    tag_143:\n        /* \"#utility.yul\":189:212   */\n      tag_196\n        /* \"#utility.yul\":206:211   */\n      dup2\n        /* \"#utility.yul\":189:212   */\n      tag_142\n      jump\t// in\n    tag_196:\n        /* \"#utility.yul\":184:187   */\n      dup3\n        /* \"#utility.yul\":177:213   */\n      mstore\n        /* \"#utility.yul\":104:219   */\n      pop\n      pop\n      jump\t// out\n        /* \"#utility.yul\":225:443   */\n    tag_17:\n        /* \"#utility.yul\":316:320   */\n      0x00\n        /* \"#utility.yul\":354:356   */\n      0x20\n        /* \"#utility.yul\":343:352   */\n      dup3\n        /* \"#utility.yul\":339:357   */\n      add\n        /* \"#utility.yul\":331:357   */\n      swap1\n      pop\n        /* \"#utility.yul\":367:436   */\n      tag_198\n        /* \"#utility.yul\":433:434   */\n      0x00\n        /* \"#utility.yul\":422:431   */\n      dup4\n        /* \"#utility.yul\":418:435   */\n      add\n        /* \"#utility.yul\":409:415   */\n      dup5\n        /* \"#utility.yul\":367:436   */\n      tag_143\n      jump\t// in\n    tag_198:\n        /* \"#utility.yul\":225:443   */\n      swap3\n      swap2\n      pop\n      pop\n      jump\t// out\n        /* \"#utility.yul\":530:647   */\n    tag_145:\n        /* \"#utility.yul\":639:640   */\n      0x00\n        /* \"#utility.yul\":636:637   */\n      dup1\n        /* \"#utility.yul\":629:641   */\n      revert\n        /* \"#utility.yul\":776:853   */\n    tag_147:\n        /* \"#utility.yul\":813:820   */\n      0x00\n        /* \"#utility.yul\":842:847   */\n      dup2\n        /* \"#utility.yul\":831:847   */\n      swap1\n      pop\n        /* \"#utility.yul\":776:853   */\n      swap2\n      swap1\n      pop\n      jump\t// out\n        /* \"#utility.yul\":859:981   */\n    tag_148:\n        /* \"#utility.yul\":932:956   */\n      tag_204\n        /* \"#utility.yul\":950:955   */\n      dup2\n        /* \"#utility.yul\":932:956   */\n      tag_147\n      jump\t// in\n    tag_204:\n        /* \"#utility.yul\":925:930   */\n      dup2\n        /* \"#utility.yul\":922:957   */\n      eq\n        /* \"#utility.yul\":912:975   */\n      tag_205\n      jumpi\n        /* \"#utility.yul\":971:972   */\n      0x00\n        /* \"#utility.yul\":968:969   */\n      dup1\n        /* \"#utility.yul\":961:973   */\n      revert\n        /* \"#utility.yul\":912:975   */\n    tag_205:\n        /* \"#utility.yul\":859:981   */\n      pop\n      jump\t// out\n        /* \"#utility.yul\":987:1126   */\n    tag_149:\n        /* \"#utility.yul\":1033:1038   */\n      0x00\n        /* \"#utility.yul\":1071:1077   */\n      dup2\n        /* \"#utility.yul\":1058:1078   */\n      calldataload\n        /* \"#utility.yul\":1049:1078   */\n      swap1\n      pop\n        /* \"#utility.yul\":1087:1120   */\n      tag_207\n        /* \"#utility.yul\":1114:1119   */\n      dup2\n        /* \"#utility.yul\":1087:1120   */\n      tag_148\n      jump\t// in\n    tag_207:\n        /* \"#utility.yul\":987:1126   */\n      swap3\n      swap2\n      pop\n      pop\n      jump\t// out\n        /* \"#utility.yul\":1132:1606   */\n    tag_20:\n        /* \"#utility.yul\":1200:1206   */\n      0x00\n        /* \"#utility.yul\":1208:1214   */\n      dup1\n        /* \"#utility.yul\":1257:1259   */\n      0x40\n        /* \"#utility.yul\":1245:1254   */\n      dup4\n        /* \"#utility.yul\":1236:1243   */\n      dup6\n        /* \"#utility.yul\":1232:1255   */\n      sub\n        /* \"#utility.yul\":1228:1260   */\n      slt\n        /* \"#utility.yul\":1225:1344   */\n      iszero\n      tag_209\n      jumpi\n        /* \"#utility.yul\":1263:1342   */\n      tag_210\n      tag_145\n      jump\t// in\n    tag_210:\n        /* \"#utility.yul\":1225:1344   */\n    tag_209:\n        /* \"#utility.yul\":1383:1384   */\n      0x00\n        /* \"#utility.yul\":1408:1461   */\n      tag_211\n        /* \"#utility.yul\":1453:1460   */\n      dup6\n        /* \"#utility.yul\":1444:1450   */\n      dup3\n        /* \"#utility.yul\":1433:1442   */\n      dup7\n        /* \"#utility.yul\":1429:1451   */\n      add\n        /* \"#utility.yul\":1408:1461   */\n      tag_149\n      jump\t// in\n    tag_211:\n        /* \"#utility.yul\":1398:1461   */\n      swap3\n      pop\n        /* \"#utility.yul\":1354:1471   */\n      pop\n        /* \"#utility.yul\":1510:1512   */\n      0x20\n        /* \"#utility.yul\":1536:1589   */\n      tag_212\n        /* \"#utility.yul\":1581:1588   */\n      dup6\n        /* \"#utility.yul\":1572:1578   */\n      dup3\n        /* \"#utility.yul\":1561:1570   */\n      dup7\n        /* \"#utility.yul\":1557:1579   */\n      add\n        /* \"#utility.yul\":1536:1589   */\n      tag_149\n      jump\t// in\n    tag_212:\n        /* \"#utility.yul\":1526:1589   */\n      swap2\n      pop\n        /* \"#utility.yul\":1481:1599   */\n      pop\n        /* \"#utility.yul\":1132:1606   */\n      swap3\n      pop\n      swap3\n      swap1\n      pop\n      jump\t// out\n        /* \"#utility.yul\":1612:1730   */\n    tag_150:\n        /* \"#utility.yul\":1699:1723   */\n      tag_214\n        /* \"#utility.yul\":1717:1722   */\n      dup2\n        /* \"#utility.yul\":1699:1723   */\n      tag_147\n      jump\t// in\n    tag_214:\n        /* \"#utility.yul\":1694:1697   */\n      dup3\n        /* \"#utility.yul\":1687:1724   */\n      mstore\n        /* \"#utility.yul\":1612:1730   */\n      pop\n      pop\n      jump\t// out\n        /* \"#utility.yul\":1736:1958   */\n    tag_23:\n        /* \"#utility.yul\":1829:1833   */\n      0x00\n        /* \"#utility.yul\":1867:1869   */\n      0x20\n        /* \"#utility.yul\":1856:1865   */\n      dup3\n        /* \"#utility.yul\":1852:1870   */\n      add\n        /* \"#utility.yul\":1844:1870   */\n      swap1\n      pop\n        /* \"#utility.yul\":1880:1951   */\n      tag_216\n        /* \"#utility.yul\":1948:1949   */\n      0x00\n        /* \"#utility.yul\":1937:1946   */\n      dup4\n        /* \"#utility.yul\":1933:1950   */\n      add\n        /* \"#utility.yul\":1924:1930   */\n      dup5\n        /* \"#utility.yul\":1880:1951   */\n      tag_150\n      jump\t// in\n    tag_216:\n        /* \"#utility.yul\":1736:1958   */\n      swap3\n      swap2\n      pop\n      pop\n      jump\t// out\n        /* \"#utility.yul\":1964:2090   */\n    tag_151:\n        /* \"#utility.yul\":2001:2008   */\n      0x00\n        /* \"#utility.yul\":2041:2083   */\n      0xffffffffffffffffffffffffffffffffffffffff\n        /* \"#utility.yul\":2034:2039   */\n      dup3\n        /* \"#utility.yul\":2030:2084   */\n      and\n        /* \"#utility.yul\":2019:2084   */\n      swap1\n      pop\n        /* \"#utility.yul\":1964:2090   */\n      swap2\n      swap1\n      pop\n      jump\t// out\n        /* \"#utility.yul\":2096:2192   */\n    tag_152:\n        /* \"#utility.yul\":2133:2140   */\n      0x00\n        /* \"#utility.yul\":2162:2186   */\n      tag_219\n        /* \"#utility.yul\":2180:2185   */\n      dup3\n        /* \"#utility.yul\":2162:2186   */\n      tag_151\n      jump\t// in\n    tag_219:\n        /* \"#utility.yul\":2151:2186   */\n      swap1\n      pop\n        /* \"#utility.yul\":2096:2192   */\n      swap2\n      swap1\n      pop\n      jump\t// out\n        /* \"#utility.yul\":2198:2316   */\n    tag_153:\n        /* \"#utility.yul\":2285:2309   */\n      tag_221\n        /* \"#utility.yul\":2303:2308   */\n      dup2\n        /* \"#utility.yul\":2285:2309   */\n      tag_152\n      jump\t// in\n    tag_221:\n        /* \"#utility.yul\":2280:2283   */\n      dup3\n        /* \"#utility.yul\":2273:2310   */\n      mstore\n        /* \"#utility.yul\":2198:2316   */\n      pop\n      pop\n      jump\t// out\n        /* \"#utility.yul\":2322:2544   */\n    tag_27:\n        /* \"#utility.yul\":2415:2419   */\n      0x00\n        /* \"#utility.yul\":2453:2455   */\n      0x20\n        /* \"#utility.yul\":2442:2451   */\n      dup3\n        /* \"#utility.yul\":2438:2456   */\n      add\n        /* \"#utility.yul\":2430:2456   */\n      swap1\n      pop\n        /* \"#utility.yul\":2466:2537   */\n      tag_223\n        /* \"#utility.yul\":2534:2535   */\n      0x00\n        /* \"#utility.yul\":2523:2532   */\n      dup4\n        /* \"#utility.yul\":2519:2536   */\n      add\n        /* \"#utility.yul\":2510:2516   */\n      dup5\n        /* \"#utility.yul\":2466:2537   */\n      tag_153\n      jump\t// in\n    tag_223:\n        /* \"#utility.yul\":2322:2544   */\n      swap3\n      swap2\n      pop\n      pop\n      jump\t// out\n        /* \"#utility.yul\":2550:2879   */\n    tag_30:\n        /* \"#utility.yul\":2609:2615   */\n      0x00\n        /* \"#utility.yul\":2658:2660   */\n      0x20\n        /* \"#utility.yul\":2646:2655   */\n      dup3\n        /* \"#utility.yul\":2637:2644   */\n      dup5\n        /* \"#utility.yul\":2633:2656   */\n      sub\n        /* \"#utility.yul\":2629:2661   */\n      slt\n        /* \"#utility.yul\":2626:2745   */\n      iszero\n      tag_225\n      jumpi\n        /* \"#utility.yul\":2664:2743   */\n      tag_226\n      tag_145\n      jump\t// in\n    tag_226:\n        /* \"#utility.yul\":2626:2745   */\n    tag_225:\n        /* \"#utility.yul\":2784:2785   */\n      0x00\n        /* \"#utility.yul\":2809:2862   */\n      tag_227\n        /* \"#utility.yul\":2854:2861   */\n      dup5\n        /* \"#utility.yul\":2845:2851   */\n      dup3\n        /* \"#utility.yul\":2834:2843   */\n      dup6\n        /* \"#utility.yul\":2830:2852   */\n      add\n        /* \"#utility.yul\":2809:2862   */\n      tag_149\n      jump\t// in\n    tag_227:\n        /* \"#utility.yul\":2799:2862   */\n      swap2\n      pop\n        /* \"#utility.yul\":2755:2872   */\n      pop\n        /* \"#utility.yul\":2550:2879   */\n      swap3\n      swap2\n      pop\n      pop\n      jump\t// out\n        /* \"#utility.yul\":2885:2945   */\n    tag_154:\n        /* \"#utility.yul\":2913:2916   */\n      0x00\n        /* \"#utility.yul\":2934:2939   */\n      dup2\n        /* \"#utility.yul\":2927:2939   */\n      swap1\n      pop\n        /* \"#utility.yul\":2885:2945   */\n      swap2\n      swap1\n      pop\n      jump\t// out\n        /* \"#utility.yul\":2951:3093   */\n    tag_155:\n        /* \"#utility.yul\":3001:3010   */\n      0x00\n        /* \"#utility.yul\":3034:3087   */\n      tag_230\n        /* \"#utility.yul\":3052:3086   */\n      tag_231\n        /* \"#utility.yul\":3061:3085   */\n      tag_232\n        /* \"#utility.yul\":3079:3084   */\n      dup5\n        /* \"#utility.yul\":3061:3085   */\n      tag_151\n      jump\t// in\n    tag_232:\n        /* \"#utility.yul\":3052:3086   */\n      tag_154\n      jump\t// in\n    tag_231:\n        /* \"#utility.yul\":3034:3087   */\n      tag_151\n      jump\t// in\n    tag_230:\n        /* \"#utility.yul\":3021:3087   */\n      swap1\n      pop\n        /* \"#utility.yul\":2951:3093   */\n      swap2\n      swap1\n      pop\n      jump\t// out\n        /* \"#utility.yul\":3099:3225   */\n    tag_156:\n        /* \"#utility.yul\":3149:3158   */\n      0x00\n        /* \"#utility.yul\":3182:3219   */\n      tag_234\n        /* \"#utility.yul\":3213:3218   */\n      dup3\n        /* \"#utility.yul\":3182:3219   */\n      tag_155\n      jump\t// in\n    tag_234:\n        /* \"#utility.yul\":3169:3219   */\n      swap1\n      pop\n        /* \"#utility.yul\":3099:3225   */\n      swap2\n      swap1\n      pop\n      jump\t// out\n        /* \"#utility.yul\":3231:3376   */\n    tag_157:\n        /* \"#utility.yul\":3300:3309   */\n      0x00\n        /* \"#utility.yul\":3333:3370   */\n      tag_236\n        /* \"#utility.yul\":3364:3369   */\n      dup3\n        /* \"#utility.yul\":3333:3370   */\n      tag_156\n      jump\t// in\n    tag_236:\n        /* \"#utility.yul\":3320:3370   */\n      swap1\n      pop\n        /* \"#utility.yul\":3231:3376   */\n      swap2\n      swap1\n      pop\n      jump\t// out\n        /* \"#utility.yul\":3382:3551   */\n    tag_158:\n        /* \"#utility.yul\":3488:3544   */\n      tag_238\n        /* \"#utility.yul\":3538:3543   */\n      dup2\n        /* \"#utility.yul\":3488:3544   */\n      tag_157\n      jump\t// in\n    tag_238:\n        /* \"#utility.yul\":3483:3486   */\n      dup3\n        /* \"#utility.yul\":3476:3545   */\n      mstore\n        /* \"#utility.yul\":3382:3551   */\n      pop\n      pop\n      jump\t// out\n        /* \"#utility.yul\":3557:3817   */\n    tag_39:\n        /* \"#utility.yul\":3669:3673   */\n      0x00\n        /* \"#utility.yul\":3707:3709   */\n      0x20\n        /* \"#utility.yul\":3696:3705   */\n      dup3\n        /* \"#utility.yul\":3692:3710   */\n      add\n        /* \"#utility.yul\":3684:3710   */\n      swap1\n      pop\n        /* \"#utility.yul\":3720:3810   */\n      tag_240\n        /* \"#utility.yul\":3807:3808   */\n      0x00\n        /* \"#utility.yul\":3796:3805   */\n      dup4\n        /* \"#utility.yul\":3792:3809   */\n      add\n        /* \"#utility.yul\":3783:3789   */\n      dup5\n        /* \"#utility.yul\":3720:3810   */\n      tag_158\n      jump\t// in\n    tag_240:\n        /* \"#utility.yul\":3557:3817   */\n      swap3\n      swap2\n      pop\n      pop\n      jump\t// out\n        /* \"#utility.yul\":3823:3917   */\n    tag_159:\n        /* \"#utility.yul\":3856:3864   */\n      0x00\n        /* \"#utility.yul\":3904:3909   */\n      dup2\n        /* \"#utility.yul\":3900:3902   */\n      0x60\n        /* \"#utility.yul\":3896:3910   */\n      shl\n        /* \"#utility.yul\":3875:3910   */\n      swap1\n      pop\n        /* \"#utility.yul\":3823:3917   */\n      swap2\n      swap1\n      pop\n      jump\t// out\n        /* \"#utility.yul\":3923:4017   */\n    tag_160:\n        /* \"#utility.yul\":3962:3969   */\n      0x00\n        /* \"#utility.yul\":3991:4011   */\n      tag_243\n        /* \"#utility.yul\":4005:4010   */\n      dup3\n        /* \"#utility.yul\":3991:4011   */\n      tag_159\n      jump\t// in\n    tag_243:\n        /* \"#utility.yul\":3980:4011   */\n      swap1\n      pop\n        /* \"#utility.yul\":3923:4017   */\n      swap2\n      swap1\n      pop\n      jump\t// out\n        /* \"#utility.yul\":4023:4123   */\n    tag_161:\n        /* \"#utility.yul\":4062:4069   */\n      0x00\n        /* \"#utility.yul\":4091:4117   */\n      tag_245\n        /* \"#utility.yul\":4111:4116   */\n      dup3\n        /* \"#utility.yul\":4091:4117   */\n      tag_160\n      jump\t// in\n    tag_245:\n        /* \"#utility.yul\":4080:4117   */\n      swap1\n      pop\n        /* \"#utility.yul\":4023:4123   */\n      swap2\n      swap1\n      pop\n      jump\t// out\n        /* \"#utility.yul\":4129:4286   */\n    tag_162:\n        /* \"#utility.yul\":4234:4279   */\n      tag_247\n        /* \"#utility.yul\":4254:4278   */\n      tag_248\n        /* \"#utility.yul\":4272:4277   */\n      dup3\n        /* \"#utility.yul\":4254:4278   */\n      tag_152\n      jump\t// in\n    tag_248:\n        /* \"#utility.yul\":4234:4279   */\n      tag_161\n      jump\t// in\n    tag_247:\n        /* \"#utility.yul\":4229:4232   */\n      dup3\n        /* \"#utility.yul\":4222:4280   */\n      mstore\n        /* \"#utility.yul\":4129:4286   */\n      pop\n      pop\n      jump\t// out\n        /* \"#utility.yul\":4292:4388   */\n    tag_163:\n        /* \"#utility.yul\":4326:4334   */\n      0x00\n        /* \"#utility.yul\":4375:4380   */\n      dup2\n        /* \"#utility.yul\":4370:4373   */\n      0xe8\n        /* \"#utility.yul\":4366:4381   */\n      shl\n        /* \"#utility.yul\":4345:4381   */\n      swap1\n      pop\n        /* \"#utility.yul\":4292:4388   */\n      swap2\n      swap1\n      pop\n      jump\t// out\n        /* \"#utility.yul\":4394:4488   */\n    tag_164:\n        /* \"#utility.yul\":4432:4439   */\n      0x00\n        /* \"#utility.yul\":4461:4482   */\n      tag_251\n        /* \"#utility.yul\":4476:4481   */\n      dup3\n        /* \"#utility.yul\":4461:4482   */\n      tag_163\n      jump\t// in\n    tag_251:\n        /* \"#utility.yul\":4450:4482   */\n      swap1\n      pop\n        /* \"#utility.yul\":4394:4488   */\n      swap2\n      swap1\n      pop\n      jump\t// out\n        /* \"#utility.yul\":4494:4647   */\n    tag_165:\n        /* \"#utility.yul\":4597:4640   */\n      tag_253\n        /* \"#utility.yul\":4616:4639   */\n      tag_254\n        /* \"#utility.yul\":4633:4638   */\n      dup3\n        /* \"#utility.yul\":4616:4639   */\n      tag_142\n      jump\t// in\n    tag_254:\n        /* \"#utility.yul\":4597:4640   */\n      tag_164\n      jump\t// in\n    tag_253:\n        /* \"#utility.yul\":4592:4595   */\n      dup3\n        /* \"#utility.yul\":4585:4641   */\n      mstore\n        /* \"#utility.yul\":4494:4647   */\n      pop\n      pop\n      jump\t// out\n        /* \"#utility.yul\":4653:5463   */\n    tag_60:\n        /* \"#utility.yul\":4873:4876   */\n      0x00\n        /* \"#utility.yul\":4888:4963   */\n      tag_256\n        /* \"#utility.yul\":4959:4962   */\n      dup3\n        /* \"#utility.yul\":4950:4956   */\n      dup9\n        /* \"#utility.yul\":4888:4963   */\n      tag_162\n      jump\t// in\n    tag_256:\n        /* \"#utility.yul\":4988:4990   */\n      0x14\n        /* \"#utility.yul\":4983:4986   */\n      dup3\n        /* \"#utility.yul\":4979:4991   */\n      add\n        /* \"#utility.yul\":4972:4991   */\n      swap2\n      pop\n        /* \"#utility.yul\":5001:5074   */\n      tag_257\n        /* \"#utility.yul\":5070:5073   */\n      dup3\n        /* \"#utility.yul\":5061:5067   */\n      dup8\n        /* \"#utility.yul\":5001:5074   */\n      tag_165\n      jump\t// in\n    tag_257:\n        /* \"#utility.yul\":5099:5100   */\n      0x03\n        /* \"#utility.yul\":5094:5097   */\n      dup3\n        /* \"#utility.yul\":5090:5101   */\n      add\n        /* \"#utility.yul\":5083:5101   */\n      swap2\n      pop\n        /* \"#utility.yul\":5111:5186   */\n      tag_258\n        /* \"#utility.yul\":5182:5185   */\n      dup3\n        /* \"#utility.yul\":5173:5179   */\n      dup7\n        /* \"#utility.yul\":5111:5186   */\n      tag_162\n      jump\t// in\n    tag_258:\n        /* \"#utility.yul\":5211:5213   */\n      0x14\n        /* \"#utility.yul\":5206:5209   */\n      dup3\n        /* \"#utility.yul\":5202:5214   */\n      add\n        /* \"#utility.yul\":5195:5214   */\n      swap2\n      pop\n        /* \"#utility.yul\":5224:5297   */\n      tag_259\n        /* \"#utility.yul\":5293:5296   */\n      dup3\n        /* \"#utility.yul\":5284:5290   */\n      dup6\n        /* \"#utility.yul\":5224:5297   */\n      tag_165\n      jump\t// in\n    tag_259:\n        /* \"#utility.yul\":5322:5323   */\n      0x03\n        /* \"#utility.yul\":5317:5320   */\n      dup3\n        /* \"#utility.yul\":5313:5324   */\n      add\n        /* \"#utility.yul\":5306:5324   */\n      swap2\n      pop\n        /* \"#utility.yul\":5334:5409   */\n      tag_260\n        /* \"#utility.yul\":5405:5408   */\n      dup3\n        /* \"#utility.yul\":5396:5402   */\n      dup5\n        /* \"#utility.yul\":5334:5409   */\n      tag_162\n      jump\t// in\n    tag_260:\n        /* \"#utility.yul\":5434:5436   */\n      0x14\n        /* \"#utility.yul\":5429:5432   */\n      dup3\n        /* \"#utility.yul\":5425:5437   */\n      add\n        /* \"#utility.yul\":5418:5437   */\n      swap2\n      pop\n        /* \"#utility.yul\":5454:5457   */\n      dup2\n        /* \"#utility.yul\":5447:5457   */\n      swap1\n      pop\n        /* \"#utility.yul\":4653:5463   */\n      swap7\n      swap6\n      pop\n      pop\n      pop\n      pop\n      pop\n      pop\n      jump\t// out\n        /* \"#utility.yul\":5469:5567   */\n    tag_166:\n        /* \"#utility.yul\":5520:5526   */\n      0x00\n        /* \"#utility.yul\":5554:5559   */\n      dup2\n        /* \"#utility.yul\":5548:5560   */\n      mload\n        /* \"#utility.yul\":5538:5560   */\n      swap1\n      pop\n        /* \"#utility.yul\":5469:5567   */\n      swap2\n      swap1\n      pop\n      jump\t// out\n        /* \"#utility.yul\":5573:5731   */\n    tag_167:\n        /* \"#utility.yul\":5646:5657   */\n      0x00\n        /* \"#utility.yul\":5680:5686   */\n      dup3\n        /* \"#utility.yul\":5675:5678   */\n      dup3\n        /* \"#utility.yul\":5668:5687   */\n      mstore\n        /* \"#utility.yul\":5720:5724   */\n      0x20\n        /* \"#utility.yul\":5715:5718   */\n      dup3\n        /* \"#utility.yul\":5711:5725   */\n      add\n        /* \"#utility.yul\":5696:5725   */\n      swap1\n      pop\n        /* \"#utility.yul\":5573:5731   */\n      swap3\n      swap2\n      pop\n      pop\n      jump\t// out\n        /* \"#utility.yul\":5737:5876   */\n    tag_168:\n        /* \"#utility.yul\":5826:5832   */\n      dup3\n        /* \"#utility.yul\":5821:5824   */\n      dup2\n        /* \"#utility.yul\":5816:5819   */\n      dup4\n        /* \"#utility.yul\":5810:5833   */\n      mcopy\n        /* \"#utility.yul\":5867:5868   */\n      0x00\n        /* \"#utility.yul\":5858:5864   */\n      dup4\n        /* \"#utility.yul\":5853:5856   */\n      dup4\n        /* \"#utility.yul\":5849:5865   */\n      add\n        /* \"#utility.yul\":5842:5869   */\n      mstore\n        /* \"#utility.yul\":5737:5876   */\n      pop\n      pop\n      pop\n      jump\t// out\n        /* \"#utility.yul\":5882:5984   */\n    tag_169:\n        /* \"#utility.yul\":5923:5929   */\n      0x00\n        /* \"#utility.yul\":5974:5976   */\n      0x1f\n        /* \"#utility.yul\":5970:5977   */\n      not\n        /* \"#utility.yul\":5965:5967   */\n      0x1f\n        /* \"#utility.yul\":5958:5963   */\n      dup4\n        /* \"#utility.yul\":5954:5968   */\n      add\n        /* \"#utility.yul\":5950:5978   */\n      and\n        /* \"#utility.yul\":5940:5978   */\n      swap1\n      pop\n        /* \"#utility.yul\":5882:5984   */\n      swap2\n      swap1\n      pop\n      jump\t// out\n        /* \"#utility.yul\":5990:6343   */\n    tag_170:\n        /* \"#utility.yul\":6066:6069   */\n      0x00\n        /* \"#utility.yul\":6094:6132   */\n      tag_266\n        /* \"#utility.yul\":6126:6131   */\n      dup3\n        /* \"#utility.yul\":6094:6132   */\n      tag_166\n      jump\t// in\n    tag_266:\n        /* \"#utility.yul\":6148:6208   */\n      tag_267\n        /* \"#utility.yul\":6201:6207   */\n      dup2\n        /* \"#utility.yul\":6196:6199   */\n      dup6\n        /* \"#utility.yul\":6148:6208   */\n      tag_167\n      jump\t// in\n    tag_267:\n        /* \"#utility.yul\":6141:6208   */\n      swap4\n      pop\n        /* \"#utility.yul\":6217:6282   */\n      tag_268\n        /* \"#utility.yul\":6275:6281   */\n      dup2\n        /* \"#utility.yul\":6270:6273   */\n      dup6\n        /* \"#utility.yul\":6263:6267   */\n      0x20\n        /* \"#utility.yul\":6256:6261   */\n      dup7\n        /* \"#utility.yul\":6252:6268   */\n      add\n        /* \"#utility.yul\":6217:6282   */\n      tag_168\n      jump\t// in\n    tag_268:\n        /* \"#utility.yul\":6307:6336   */\n      tag_269\n        /* \"#utility.yul\":6329:6335   */\n      dup2\n        /* \"#utility.yul\":6307:6336   */\n      tag_169\n      jump\t// in\n    tag_269:\n        /* \"#utility.yul\":6302:6305   */\n      dup5\n        /* \"#utility.yul\":6298:6337   */\n      add\n        /* \"#utility.yul\":6291:6337   */\n      swap2\n      pop\n        /* \"#utility.yul\":6070:6343   */\n      pop\n        /* \"#utility.yul\":5990:6343   */\n      swap3\n      swap2\n      pop\n      pop\n      jump\t// out\n        /* \"#utility.yul\":6349:6457   */\n    tag_171:\n        /* \"#utility.yul\":6426:6450   */\n      tag_271\n        /* \"#utility.yul\":6444:6449   */\n      dup2\n        /* \"#utility.yul\":6426:6450   */\n      tag_152\n      jump\t// in\n    tag_271:\n        /* \"#utility.yul\":6421:6424   */\n      dup3\n        /* \"#utility.yul\":6414:6451   */\n      mstore\n        /* \"#utility.yul\":6349:6457   */\n      pop\n      pop\n      jump\t// out\n        /* \"#utility.yul\":6463:6571   */\n    tag_172:\n        /* \"#utility.yul\":6540:6564   */\n      tag_273\n        /* \"#utility.yul\":6558:6563   */\n      dup2\n        /* \"#utility.yul\":6540:6564   */\n      tag_147\n      jump\t// in\n    tag_273:\n        /* \"#utility.yul\":6535:6538   */\n      dup3\n        /* \"#utility.yul\":6528:6565   */\n      mstore\n        /* \"#utility.yul\":6463:6571   */\n      pop\n      pop\n      jump\t// out\n        /* \"#utility.yul\":6661:7830   */\n    tag_173:\n        /* \"#utility.yul\":6798:6801   */\n      0x00\n        /* \"#utility.yul\":6834:6838   */\n      0xa0\n        /* \"#utility.yul\":6829:6832   */\n      dup4\n        /* \"#utility.yul\":6825:6839   */\n      add\n        /* \"#utility.yul\":6921:6925   */\n      0x00\n        /* \"#utility.yul\":6914:6919   */\n      dup4\n        /* \"#utility.yul\":6910:6926   */\n      add\n        /* \"#utility.yul\":6904:6927   */\n      mload\n        /* \"#utility.yul\":6974:6977   */\n      dup5\n        /* \"#utility.yul\":6968:6972   */\n      dup3\n        /* \"#utility.yul\":6964:6978   */\n      sub\n        /* \"#utility.yul\":6957:6961   */\n      0x00\n        /* \"#utility.yul\":6952:6955   */\n      dup7\n        /* \"#utility.yul\":6948:6962   */\n      add\n        /* \"#utility.yul\":6941:6979   */\n      mstore\n        /* \"#utility.yul\":7000:7071   */\n      tag_275\n        /* \"#utility.yul\":7066:7070   */\n      dup3\n        /* \"#utility.yul\":7052:7064   */\n      dup3\n        /* \"#utility.yul\":7000:7071   */\n      tag_170\n      jump\t// in\n    tag_275:\n        /* \"#utility.yul\":6992:7071   */\n      swap2\n      pop\n        /* \"#utility.yul\":6849:7082   */\n      pop\n        /* \"#utility.yul\":7169:7173   */\n      0x20\n        /* \"#utility.yul\":7162:7167   */\n      dup4\n        /* \"#utility.yul\":7158:7174   */\n      add\n        /* \"#utility.yul\":7152:7175   */\n      mload\n        /* \"#utility.yul\":7188:7251   */\n      tag_276\n        /* \"#utility.yul\":7245:7249   */\n      0x20\n        /* \"#utility.yul\":7240:7243   */\n      dup7\n        /* \"#utility.yul\":7236:7250   */\n      add\n        /* \"#utility.yul\":7222:7234   */\n      dup3\n        /* \"#utility.yul\":7188:7251   */\n      tag_171\n      jump\t// in\n    tag_276:\n        /* \"#utility.yul\":7092:7261   */\n      pop\n        /* \"#utility.yul\":7347:7351   */\n      0x40\n        /* \"#utility.yul\":7340:7345   */\n      dup4\n        /* \"#utility.yul\":7336:7352   */\n      add\n        /* \"#utility.yul\":7330:7353   */\n      mload\n        /* \"#utility.yul\":7366:7429   */\n      tag_277\n        /* \"#utility.yul\":7423:7427   */\n      0x40\n        /* \"#utility.yul\":7418:7421   */\n      dup7\n        /* \"#utility.yul\":7414:7428   */\n      add\n        /* \"#utility.yul\":7400:7412   */\n      dup3\n        /* \"#utility.yul\":7366:7429   */\n      tag_172\n      jump\t// in\n    tag_277:\n        /* \"#utility.yul\":7271:7439   */\n      pop\n        /* \"#utility.yul\":7526:7530   */\n      0x60\n        /* \"#utility.yul\":7519:7524   */\n      dup4\n        /* \"#utility.yul\":7515:7531   */\n      add\n        /* \"#utility.yul\":7509:7532   */\n      mload\n        /* \"#utility.yul\":7545:7608   */\n      tag_278\n        /* \"#utility.yul\":7602:7606   */\n      0x60\n        /* \"#utility.yul\":7597:7600   */\n      dup7\n        /* \"#utility.yul\":7593:7607   */\n      add\n        /* \"#utility.yul\":7579:7591   */\n      dup3\n        /* \"#utility.yul\":7545:7608   */\n      tag_172\n      jump\t// in\n    tag_278:\n        /* \"#utility.yul\":7449:7618   */\n      pop\n        /* \"#utility.yul\":7711:7715   */\n      0x80\n        /* \"#utility.yul\":7704:7709   */\n      dup4\n        /* \"#utility.yul\":7700:7716   */\n      add\n        /* \"#utility.yul\":7694:7717   */\n      mload\n        /* \"#utility.yul\":7730:7793   */\n      tag_279\n        /* \"#utility.yul\":7787:7791   */\n      0x80\n        /* \"#utility.yul\":7782:7785   */\n      dup7\n        /* \"#utility.yul\":7778:7792   */\n      add\n        /* \"#utility.yul\":7764:7776   */\n      dup3\n        /* \"#utility.yul\":7730:7793   */\n      tag_172\n      jump\t// in\n    tag_279:\n        /* \"#utility.yul\":7628:7803   */\n      pop\n        /* \"#utility.yul\":7820:7824   */\n      dup1\n        /* \"#utility.yul\":7813:7824   */\n      swap2\n      pop\n        /* \"#utility.yul\":6803:7830   */\n      pop\n        /* \"#utility.yul\":6661:7830   */\n      swap3\n      swap2\n      pop\n      pop\n      jump\t// out\n        /* \"#utility.yul\":7836:8245   */\n    tag_62:\n        /* \"#utility.yul\":7997:8001   */\n      0x00\n        /* \"#utility.yul\":8035:8037   */\n      0x20\n        /* \"#utility.yul\":8024:8033   */\n      dup3\n        /* \"#utility.yul\":8020:8038   */\n      add\n        /* \"#utility.yul\":8012:8038   */\n      swap1\n      pop\n        /* \"#utility.yul\":8084:8093   */\n      dup2\n        /* \"#utility.yul\":8078:8082   */\n      dup2\n        /* \"#utility.yul\":8074:8094   */\n      sub\n        /* \"#utility.yul\":8070:8071   */\n      0x00\n        /* \"#utility.yul\":8059:8068   */\n      dup4\n        /* \"#utility.yul\":8055:8072   */\n      add\n        /* \"#utility.yul\":8048:8095   */\n      mstore\n        /* \"#utility.yul\":8112:8238   */\n      tag_281\n        /* \"#utility.yul\":8233:8237   */\n      dup2\n        /* \"#utility.yul\":8224:8230   */\n      dup5\n        /* \"#utility.yul\":8112:8238   */\n      tag_173\n      jump\t// in\n    tag_281:\n        /* \"#utility.yul\":8104:8238   */\n      swap1\n      pop\n        /* \"#utility.yul\":7836:8245   */\n      swap3\n      swap2\n      pop\n      pop\n      jump\t// out\n        /* \"#utility.yul\":8251:8394   */\n    tag_174:\n        /* \"#utility.yul\":8308:8313   */\n      0x00\n        /* \"#utility.yul\":8339:8345   */\n      dup2\n        /* \"#utility.yul\":8333:8346   */\n      mload\n        /* \"#utility.yul\":8324:8346   */\n      swap1\n      pop\n        /* \"#utility.yul\":8355:8388   */\n      tag_283\n        /* \"#utility.yul\":8382:8387   */\n      dup2\n        /* \"#utility.yul\":8355:8388   */\n      tag_148\n      jump\t// in\n    tag_283:\n        /* \"#utility.yul\":8251:8394   */\n      swap3\n      swap2\n      pop\n      pop\n      jump\t// out\n        /* \"#utility.yul\":8400:8751   */\n    tag_66:\n        /* \"#utility.yul\":8470:8476   */\n      0x00\n        /* \"#utility.yul\":8519:8521   */\n      0x20\n        /* \"#utility.yul\":8507:8516   */\n      dup3\n        /* \"#utility.yul\":8498:8505   */\n      dup5\n        /* \"#utility.yul\":8494:8517   */\n      sub\n        /* \"#utility.yul\":8490:8522   */\n      slt\n        /* \"#utility.yul\":8487:8606   */\n      iszero\n      tag_285\n      jumpi\n        /* \"#utility.yul\":8525:8604   */\n      tag_286\n      tag_145\n      jump\t// in\n    tag_286:\n        /* \"#utility.yul\":8487:8606   */\n    tag_285:\n        /* \"#utility.yul\":8645:8646   */\n      0x00\n        /* \"#utility.yul\":8670:8734   */\n      tag_287\n        /* \"#utility.yul\":8726:8733   */\n      dup5\n        /* \"#utility.yul\":8717:8723   */\n      dup3\n        /* \"#utility.yul\":8706:8715   */\n      dup6\n        /* \"#utility.yul\":8702:8724   */\n      add\n        /* \"#utility.yul\":8670:8734   */\n      tag_174\n      jump\t// in\n    tag_287:\n        /* \"#utility.yul\":8660:8734   */\n      swap2\n      pop\n        /* \"#utility.yul\":8616:8744   */\n      pop\n        /* \"#utility.yul\":8400:8751   */\n      swap3\n      swap2\n      pop\n      pop\n      jump\t// out\n        /* \"#utility.yul\":8757:8937   */\n    tag_175:\n        /* \"#utility.yul\":8805:8882   */\n      0x4e487b7100000000000000000000000000000000000000000000000000000000\n        /* \"#utility.yul\":8802:8803   */\n      0x00\n        /* \"#utility.yul\":8795:8883   */\n      mstore\n        /* \"#utility.yul\":8902:8906   */\n      0x11\n        /* \"#utility.yul\":8899:8900   */\n      0x04\n        /* \"#utility.yul\":8892:8907   */\n      mstore\n        /* \"#utility.yul\":8926:8930   */\n      0x24\n        /* \"#utility.yul\":8923:8924   */\n      0x00\n        /* \"#utility.yul\":8916:8931   */\n      revert\n        /* \"#utility.yul\":8943:9137   */\n    tag_71:\n        /* \"#utility.yul\":8983:8987   */\n      0x00\n        /* \"#utility.yul\":9003:9023   */\n      tag_290\n        /* \"#utility.yul\":9021:9022   */\n      dup3\n        /* \"#utility.yul\":9003:9023   */\n      tag_147\n      jump\t// in\n    tag_290:\n        /* \"#utility.yul\":8998:9023   */\n      swap2\n      pop\n        /* \"#utility.yul\":9037:9057   */\n      tag_291\n        /* \"#utility.yul\":9055:9056   */\n      dup4\n        /* \"#utility.yul\":9037:9057   */\n      tag_147\n      jump\t// in\n    tag_291:\n        /* \"#utility.yul\":9032:9057   */\n      swap3\n      pop\n        /* \"#utility.yul\":9081:9082   */\n      dup3\n        /* \"#utility.yul\":9078:9079   */\n      dup3\n        /* \"#utility.yul\":9074:9083   */\n      sub\n        /* \"#utility.yul\":9066:9083   */\n      swap1\n      pop\n        /* \"#utility.yul\":9105:9106   */\n      dup2\n        /* \"#utility.yul\":9099:9103   */\n      dup2\n        /* \"#utility.yul\":9096:9107   */\n      gt\n        /* \"#utility.yul\":9093:9130   */\n      iszero\n      tag_292\n      jumpi\n        /* \"#utility.yul\":9110:9128   */\n      tag_293\n      tag_175\n      jump\t// in\n    tag_293:\n        /* \"#utility.yul\":9093:9130   */\n    tag_292:\n        /* \"#utility.yul\":8943:9137   */\n      swap3\n      swap2\n      pop\n      pop\n      jump\t// out\n        /* \"#utility.yul\":9143:9248   */\n    tag_176:\n        /* \"#utility.yul\":9218:9241   */\n      tag_295\n        /* \"#utility.yul\":9235:9240   */\n      dup2\n        /* \"#utility.yul\":9218:9241   */\n      tag_142\n      jump\t// in\n    tag_295:\n        /* \"#utility.yul\":9213:9216   */\n      dup3\n        /* \"#utility.yul\":9206:9242   */\n      mstore\n        /* \"#utility.yul\":9143:9248   */\n      pop\n      pop\n      jump\t// out\n        /* \"#utility.yul\":9254:9362   */\n    tag_177:\n        /* \"#utility.yul\":9331:9355   */\n      tag_297\n        /* \"#utility.yul\":9349:9354   */\n      dup2\n        /* \"#utility.yul\":9331:9355   */\n      tag_151\n      jump\t// in\n    tag_297:\n        /* \"#utility.yul\":9326:9329   */\n      dup3\n        /* \"#utility.yul\":9319:9356   */\n      mstore\n        /* \"#utility.yul\":9254:9362   */\n      pop\n      pop\n      jump\t// out\n        /* \"#utility.yul\":9462:11085   */\n    tag_178:\n        /* \"#utility.yul\":9637:9643   */\n      0x0100\n        /* \"#utility.yul\":9632:9635   */\n      dup3\n        /* \"#utility.yul\":9628:9644   */\n      add\n        /* \"#utility.yul\":9729:9733   */\n      0x00\n        /* \"#utility.yul\":9722:9727   */\n      dup3\n        /* \"#utility.yul\":9718:9734   */\n      add\n        /* \"#utility.yul\":9712:9735   */\n      mload\n        /* \"#utility.yul\":9748:9811   */\n      tag_299\n        /* \"#utility.yul\":9805:9809   */\n      0x00\n        /* \"#utility.yul\":9800:9803   */\n      dup6\n        /* \"#utility.yul\":9796:9810   */\n      add\n        /* \"#utility.yul\":9782:9794   */\n      dup3\n        /* \"#utility.yul\":9748:9811   */\n      tag_171\n      jump\t// in\n    tag_299:\n        /* \"#utility.yul\":9654:9821   */\n      pop\n        /* \"#utility.yul\":9907:9911   */\n      0x20\n        /* \"#utility.yul\":9900:9905   */\n      dup3\n        /* \"#utility.yul\":9896:9912   */\n      add\n        /* \"#utility.yul\":9890:9913   */\n      mload\n        /* \"#utility.yul\":9926:9989   */\n      tag_300\n        /* \"#utility.yul\":9983:9987   */\n      0x20\n        /* \"#utility.yul\":9978:9981   */\n      dup6\n        /* \"#utility.yul\":9974:9988   */\n      add\n        /* \"#utility.yul\":9960:9972   */\n      dup3\n        /* \"#utility.yul\":9926:9989   */\n      tag_171\n      jump\t// in\n    tag_300:\n        /* \"#utility.yul\":9831:9999   */\n      pop\n        /* \"#utility.yul\":10080:10084   */\n      0x40\n        /* \"#utility.yul\":10073:10078   */\n      dup3\n        /* \"#utility.yul\":10069:10085   */\n      add\n        /* \"#utility.yul\":10063:10086   */\n      mload\n        /* \"#utility.yul\":10099:10160   */\n      tag_301\n        /* \"#utility.yul\":10154:10158   */\n      0x40\n        /* \"#utility.yul\":10149:10152   */\n      dup6\n        /* \"#utility.yul\":10145:10159   */\n      add\n        /* \"#utility.yul\":10131:10143   */\n      dup3\n        /* \"#utility.yul\":10099:10160   */\n      tag_176\n      jump\t// in\n    tag_301:\n        /* \"#utility.yul\":10009:10170   */\n      pop\n        /* \"#utility.yul\":10257:10261   */\n      0x60\n        /* \"#utility.yul\":10250:10255   */\n      dup3\n        /* \"#utility.yul\":10246:10262   */\n      add\n        /* \"#utility.yul\":10240:10263   */\n      mload\n        /* \"#utility.yul\":10276:10339   */\n      tag_302\n        /* \"#utility.yul\":10333:10337   */\n      0x60\n        /* \"#utility.yul\":10328:10331   */\n      dup6\n        /* \"#utility.yul\":10324:10338   */\n      add\n        /* \"#utility.yul\":10310:10322   */\n      dup3\n        /* \"#utility.yul\":10276:10339   */\n      tag_171\n      jump\t// in\n    tag_302:\n        /* \"#utility.yul\":10180:10349   */\n      pop\n        /* \"#utility.yul\":10435:10439   */\n      0x80\n        /* \"#utility.yul\":10428:10433   */\n      dup3\n        /* \"#utility.yul\":10424:10440   */\n      add\n        /* \"#utility.yul\":10418:10441   */\n      mload\n        /* \"#utility.yul\":10454:10517   */\n      tag_303\n        /* \"#utility.yul\":10511:10515   */\n      0x80\n        /* \"#utility.yul\":10506:10509   */\n      dup6\n        /* \"#utility.yul\":10502:10516   */\n      add\n        /* \"#utility.yul\":10488:10500   */\n      dup3\n        /* \"#utility.yul\":10454:10517   */\n      tag_172\n      jump\t// in\n    tag_303:\n        /* \"#utility.yul\":10359:10527   */\n      pop\n        /* \"#utility.yul\":10613:10617   */\n      0xa0\n        /* \"#utility.yul\":10606:10611   */\n      dup3\n        /* \"#utility.yul\":10602:10618   */\n      add\n        /* \"#utility.yul\":10596:10619   */\n      mload\n        /* \"#utility.yul\":10632:10695   */\n      tag_304\n        /* \"#utility.yul\":10689:10693   */\n      0xa0\n        /* \"#utility.yul\":10684:10687   */\n      dup6\n        /* \"#utility.yul\":10680:10694   */\n      add\n        /* \"#utility.yul\":10666:10678   */\n      dup3\n        /* \"#utility.yul\":10632:10695   */\n      tag_172\n      jump\t// in\n    tag_304:\n        /* \"#utility.yul\":10537:10705   */\n      pop\n        /* \"#utility.yul\":10799:10803   */\n      0xc0\n        /* \"#utility.yul\":10792:10797   */\n      dup3\n        /* \"#utility.yul\":10788:10804   */\n      add\n        /* \"#utility.yul\":10782:10805   */\n      mload\n        /* \"#utility.yul\":10818:10881   */\n      tag_305\n        /* \"#utility.yul\":10875:10879   */\n      0xc0\n        /* \"#utility.yul\":10870:10873   */\n      dup6\n        /* \"#utility.yul\":10866:10880   */\n      add\n        /* \"#utility.yul\":10852:10864   */\n      dup3\n        /* \"#utility.yul\":10818:10881   */\n      tag_172\n      jump\t// in\n    tag_305:\n        /* \"#utility.yul\":10715:10891   */\n      pop\n        /* \"#utility.yul\":10986:10990   */\n      0xe0\n        /* \"#utility.yul\":10979:10984   */\n      dup3\n        /* \"#utility.yul\":10975:10991   */\n      add\n        /* \"#utility.yul\":10969:10992   */\n      mload\n        /* \"#utility.yul\":11005:11068   */\n      tag_306\n        /* \"#utility.yul\":11062:11066   */\n      0xe0\n        /* \"#utility.yul\":11057:11060   */\n      dup6\n        /* \"#utility.yul\":11053:11067   */\n      add\n        /* \"#utility.yul\":11039:11051   */\n      dup3\n        /* \"#utility.yul\":11005:11068   */\n      tag_177\n      jump\t// in\n    tag_306:\n        /* \"#utility.yul\":10901:11078   */\n      pop\n        /* \"#utility.yul\":9606:11085   */\n      pop\n        /* \"#utility.yul\":9462:11085   */\n      pop\n      pop\n      jump\t// out\n        /* \"#utility.yul\":11091:11470   */\n    tag_76:\n        /* \"#utility.yul\":11262:11266   */\n      0x00\n        /* \"#utility.yul\":11300:11303   */\n      0x0100\n        /* \"#utility.yul\":11289:11298   */\n      dup3\n        /* \"#utility.yul\":11285:11304   */\n      add\n        /* \"#utility.yul\":11277:11304   */\n      swap1\n      pop\n        /* \"#utility.yul\":11314:11463   */\n      tag_308\n        /* \"#utility.yul\":11460:11461   */\n      0x00\n        /* \"#utility.yul\":11449:11458   */\n      dup4\n        /* \"#utility.yul\":11445:11462   */\n      add\n        /* \"#utility.yul\":11436:11442   */\n      dup5\n        /* \"#utility.yul\":11314:11463   */\n      tag_178\n      jump\t// in\n    tag_308:\n        /* \"#utility.yul\":11091:11470   */\n      swap3\n      swap2\n      pop\n      pop\n      jump\t// out\n        /* \"#utility.yul\":11572:13197   */\n    tag_179:\n        /* \"#utility.yul\":11749:11755   */\n      0x0100\n        /* \"#utility.yul\":11744:11747   */\n      dup3\n        /* \"#utility.yul\":11740:11756   */\n      add\n        /* \"#utility.yul\":11841:11845   */\n      0x00\n        /* \"#utility.yul\":11834:11839   */\n      dup3\n        /* \"#utility.yul\":11830:11846   */\n      add\n        /* \"#utility.yul\":11824:11847   */\n      mload\n        /* \"#utility.yul\":11860:11923   */\n      tag_310\n        /* \"#utility.yul\":11917:11921   */\n      0x00\n        /* \"#utility.yul\":11912:11915   */\n      dup6\n        /* \"#utility.yul\":11908:11922   */\n      add\n        /* \"#utility.yul\":11894:11906   */\n      dup3\n        /* \"#utility.yul\":11860:11923   */\n      tag_171\n      jump\t// in\n    tag_310:\n        /* \"#utility.yul\":11766:11933   */\n      pop\n        /* \"#utility.yul\":12019:12023   */\n      0x20\n        /* \"#utility.yul\":12012:12017   */\n      dup3\n        /* \"#utility.yul\":12008:12024   */\n      add\n        /* \"#utility.yul\":12002:12025   */\n      mload\n        /* \"#utility.yul\":12038:12101   */\n      tag_311\n        /* \"#utility.yul\":12095:12099   */\n      0x20\n        /* \"#utility.yul\":12090:12093   */\n      dup6\n        /* \"#utility.yul\":12086:12100   */\n      add\n        /* \"#utility.yul\":12072:12084   */\n      dup3\n        /* \"#utility.yul\":12038:12101   */\n      tag_171\n      jump\t// in\n    tag_311:\n        /* \"#utility.yul\":11943:12111   */\n      pop\n        /* \"#utility.yul\":12192:12196   */\n      0x40\n        /* \"#utility.yul\":12185:12190   */\n      dup3\n        /* \"#utility.yul\":12181:12197   */\n      add\n        /* \"#utility.yul\":12175:12198   */\n      mload\n        /* \"#utility.yul\":12211:12272   */\n      tag_312\n        /* \"#utility.yul\":12266:12270   */\n      0x40\n        /* \"#utility.yul\":12261:12264   */\n      dup6\n        /* \"#utility.yul\":12257:12271   */\n      add\n        /* \"#utility.yul\":12243:12255   */\n      dup3\n        /* \"#utility.yul\":12211:12272   */\n      tag_176\n      jump\t// in\n    tag_312:\n        /* \"#utility.yul\":12121:12282   */\n      pop\n        /* \"#utility.yul\":12369:12373   */\n      0x60\n        /* \"#utility.yul\":12362:12367   */\n      dup3\n        /* \"#utility.yul\":12358:12374   */\n      add\n        /* \"#utility.yul\":12352:12375   */\n      mload\n        /* \"#utility.yul\":12388:12451   */\n      tag_313\n        /* \"#utility.yul\":12445:12449   */\n      0x60\n        /* \"#utility.yul\":12440:12443   */\n      dup6\n        /* \"#utility.yul\":12436:12450   */\n      add\n        /* \"#utility.yul\":12422:12434   */\n      dup3\n        /* \"#utility.yul\":12388:12451   */\n      tag_171\n      jump\t// in\n    tag_313:\n        /* \"#utility.yul\":12292:12461   */\n      pop\n        /* \"#utility.yul\":12547:12551   */\n      0x80\n        /* \"#utility.yul\":12540:12545   */\n      dup3\n        /* \"#utility.yul\":12536:12552   */\n      add\n        /* \"#utility.yul\":12530:12553   */\n      mload\n        /* \"#utility.yul\":12566:12629   */\n      tag_314\n        /* \"#utility.yul\":12623:12627   */\n      0x80\n        /* \"#utility.yul\":12618:12621   */\n      dup6\n        /* \"#utility.yul\":12614:12628   */\n      add\n        /* \"#utility.yul\":12600:12612   */\n      dup3\n        /* \"#utility.yul\":12566:12629   */\n      tag_172\n      jump\t// in\n    tag_314:\n        /* \"#utility.yul\":12471:12639   */\n      pop\n        /* \"#utility.yul\":12726:12730   */\n      0xa0\n        /* \"#utility.yul\":12719:12724   */\n      dup3\n        /* \"#utility.yul\":12715:12731   */\n      add\n        /* \"#utility.yul\":12709:12732   */\n      mload\n        /* \"#utility.yul\":12745:12808   */\n      tag_315\n        /* \"#utility.yul\":12802:12806   */\n      0xa0\n        /* \"#utility.yul\":12797:12800   */\n      dup6\n        /* \"#utility.yul\":12793:12807   */\n      add\n        /* \"#utility.yul\":12779:12791   */\n      dup3\n        /* \"#utility.yul\":12745:12808   */\n      tag_172\n      jump\t// in\n    tag_315:\n        /* \"#utility.yul\":12649:12818   */\n      pop\n        /* \"#utility.yul\":12911:12915   */\n      0xc0\n        /* \"#utility.yul\":12904:12909   */\n      dup3\n        /* \"#utility.yul\":12900:12916   */\n      add\n        /* \"#utility.yul\":12894:12917   */\n      mload\n        /* \"#utility.yul\":12930:12993   */\n      tag_316\n        /* \"#utility.yul\":12987:12991   */\n      0xc0\n        /* \"#utility.yul\":12982:12985   */\n      dup6\n        /* \"#utility.yul\":12978:12992   */\n      add\n        /* \"#utility.yul\":12964:12976   */\n      dup3\n        /* \"#utility.yul\":12930:12993   */\n      tag_172\n      jump\t// in\n    tag_316:\n        /* \"#utility.yul\":12828:13003   */\n      pop\n        /* \"#utility.yul\":13098:13102   */\n      0xe0\n        /* \"#utility.yul\":13091:13096   */\n      dup3\n        /* \"#utility.yul\":13087:13103   */\n      add\n        /* \"#utility.yul\":13081:13104   */\n      mload\n        /* \"#utility.yul\":13117:13180   */\n      tag_317\n        /* \"#utility.yul\":13174:13178   */\n      0xe0\n        /* \"#utility.yul\":13169:13172   */\n      dup6\n        /* \"#utility.yul\":13165:13179   */\n      add\n        /* \"#utility.yul\":13151:13163   */\n      dup3\n        /* \"#utility.yul\":13117:13180   */\n      tag_177\n      jump\t// in\n    tag_317:\n        /* \"#utility.yul\":13013:13190   */\n      pop\n        /* \"#utility.yul\":11718:13197   */\n      pop\n        /* \"#utility.yul\":11572:13197   */\n      pop\n      pop\n      jump\t// out\n        /* \"#utility.yul\":13203:13586   */\n    tag_84:\n        /* \"#utility.yul\":13376:13380   */\n      0x00\n        /* \"#utility.yul\":13414:13417   */\n      0x0100\n        /* \"#utility.yul\":13403:13412   */\n      dup3\n        /* \"#utility.yul\":13399:13418   */\n      add\n        /* \"#utility.yul\":13391:13418   */\n      swap1\n      pop\n        /* \"#utility.yul\":13428:13579   */\n      tag_319\n        /* \"#utility.yul\":13576:13577   */\n      0x00\n        /* \"#utility.yul\":13565:13574   */\n      dup4\n        /* \"#utility.yul\":13561:13578   */\n      add\n        /* \"#utility.yul\":13552:13558   */\n      dup5\n        /* \"#utility.yul\":13428:13579   */\n      tag_179\n      jump\t// in\n    tag_319:\n        /* \"#utility.yul\":13203:13586   */\n      swap3\n      swap2\n      pop\n      pop\n      jump\t// out\n        /* \"#utility.yul\":13674:14841   */\n    tag_180:\n        /* \"#utility.yul\":13809:13812   */\n      0x00\n        /* \"#utility.yul\":13845:13849   */\n      0xa0\n        /* \"#utility.yul\":13840:13843   */\n      dup4\n        /* \"#utility.yul\":13836:13850   */\n      add\n        /* \"#utility.yul\":13932:13936   */\n      0x00\n        /* \"#utility.yul\":13925:13930   */\n      dup4\n        /* \"#utility.yul\":13921:13937   */\n      add\n        /* \"#utility.yul\":13915:13938   */\n      mload\n        /* \"#utility.yul\":13985:13988   */\n      dup5\n        /* \"#utility.yul\":13979:13983   */\n      dup3\n        /* \"#utility.yul\":13975:13989   */\n      sub\n        /* \"#utility.yul\":13968:13972   */\n      0x00\n        /* \"#utility.yul\":13963:13966   */\n      dup7\n        /* \"#utility.yul\":13959:13973   */\n      add\n        /* \"#utility.yul\":13952:13990   */\n      mstore\n        /* \"#utility.yul\":14011:14082   */\n      tag_321\n        /* \"#utility.yul\":14077:14081   */\n      dup3\n        /* \"#utility.yul\":14063:14075   */\n      dup3\n        /* \"#utility.yul\":14011:14082   */\n      tag_170\n      jump\t// in\n    tag_321:\n        /* \"#utility.yul\":14003:14082   */\n      swap2\n      pop\n        /* \"#utility.yul\":13860:14093   */\n      pop\n        /* \"#utility.yul\":14180:14184   */\n      0x20\n        /* \"#utility.yul\":14173:14178   */\n      dup4\n        /* \"#utility.yul\":14169:14185   */\n      add\n        /* \"#utility.yul\":14163:14186   */\n      mload\n        /* \"#utility.yul\":14199:14262   */\n      tag_322\n        /* \"#utility.yul\":14256:14260   */\n      0x20\n        /* \"#utility.yul\":14251:14254   */\n      dup7\n        /* \"#utility.yul\":14247:14261   */\n      add\n        /* \"#utility.yul\":14233:14245   */\n      dup3\n        /* \"#utility.yul\":14199:14262   */\n      tag_171\n      jump\t// in\n    tag_322:\n        /* \"#utility.yul\":14103:14272   */\n      pop\n        /* \"#utility.yul\":14358:14362   */\n      0x40\n        /* \"#utility.yul\":14351:14356   */\n      dup4\n        /* \"#utility.yul\":14347:14363   */\n      add\n        /* \"#utility.yul\":14341:14364   */\n      mload\n        /* \"#utility.yul\":14377:14440   */\n      tag_323\n        /* \"#utility.yul\":14434:14438   */\n      0x40\n        /* \"#utility.yul\":14429:14432   */\n      dup7\n        /* \"#utility.yul\":14425:14439   */\n      add\n        /* \"#utility.yul\":14411:14423   */\n      dup3\n        /* \"#utility.yul\":14377:14440   */\n      tag_172\n      jump\t// in\n    tag_323:\n        /* \"#utility.yul\":14282:14450   */\n      pop\n        /* \"#utility.yul\":14536:14540   */\n      0x60\n        /* \"#utility.yul\":14529:14534   */\n      dup4\n        /* \"#utility.yul\":14525:14541   */\n      add\n        /* \"#utility.yul\":14519:14542   */\n      mload\n        /* \"#utility.yul\":14555:14618   */\n      tag_324\n        /* \"#utility.yul\":14612:14616   */\n      0x60\n        /* \"#utility.yul\":14607:14610   */\n      dup7\n        /* \"#utility.yul\":14603:14617   */\n      add\n        /* \"#utility.yul\":14589:14601   */\n      dup3\n        /* \"#utility.yul\":14555:14618   */\n      tag_172\n      jump\t// in\n    tag_324:\n        /* \"#utility.yul\":14460:14628   */\n      pop\n        /* \"#utility.yul\":14722:14726   */\n      0x80\n        /* \"#utility.yul\":14715:14720   */\n      dup4\n        /* \"#utility.yul\":14711:14727   */\n      add\n        /* \"#utility.yul\":14705:14728   */\n      mload\n        /* \"#utility.yul\":14741:14804   */\n      tag_325\n        /* \"#utility.yul\":14798:14802   */\n      0x80\n        /* \"#utility.yul\":14793:14796   */\n      dup7\n        /* \"#utility.yul\":14789:14803   */\n      add\n        /* \"#utility.yul\":14775:14787   */\n      dup3\n        /* \"#utility.yul\":14741:14804   */\n      tag_172\n      jump\t// in\n    tag_325:\n        /* \"#utility.yul\":14638:14814   */\n      pop\n        /* \"#utility.yul\":14831:14835   */\n      dup1\n        /* \"#utility.yul\":14824:14835   */\n      swap2\n      pop\n        /* \"#utility.yul\":13814:14841   */\n      pop\n        /* \"#utility.yul\":13674:14841   */\n      swap3\n      swap2\n      pop\n      pop\n      jump\t// out\n        /* \"#utility.yul\":14847:15252   */\n    tag_98:\n        /* \"#utility.yul\":15006:15010   */\n      0x00\n        /* \"#utility.yul\":15044:15046   */\n      0x20\n        /* \"#utility.yul\":15033:15042   */\n      dup3\n        /* \"#utility.yul\":15029:15047   */\n      add\n        /* \"#utility.yul\":15021:15047   */\n      swap1\n      pop\n        /* \"#utility.yul\":15093:15102   */\n      dup2\n        /* \"#utility.yul\":15087:15091   */\n      dup2\n        /* \"#utility.yul\":15083:15103   */\n      sub\n        /* \"#utility.yul\":15079:15080   */\n      0x00\n        /* \"#utility.yul\":15068:15077   */\n      dup4\n        /* \"#utility.yul\":15064:15081   */\n      add\n        /* \"#utility.yul\":15057:15104   */\n      mstore\n        /* \"#utility.yul\":15121:15245   */\n      tag_327\n        /* \"#utility.yul\":15240:15244   */\n      dup2\n        /* \"#utility.yul\":15231:15237   */\n      dup5\n        /* \"#utility.yul\":15121:15245   */\n      tag_180\n      jump\t// in\n    tag_327:\n        /* \"#utility.yul\":15113:15245   */\n      swap1\n      pop\n        /* \"#utility.yul\":14847:15252   */\n      swap3\n      swap2\n      pop\n      pop\n      jump\t// out\n        /* \"#utility.yul\":15258:15700   */\n    tag_104:\n        /* \"#utility.yul\":15407:15411   */\n      0x00\n        /* \"#utility.yul\":15445:15447   */\n      0x60\n        /* \"#utility.yul\":15434:15443   */\n      dup3\n        /* \"#utility.yul\":15430:15448   */\n      add\n        /* \"#utility.yul\":15422:15448   */\n      swap1\n      pop\n        /* \"#utility.yul\":15458:15529   */\n      tag_329\n        /* \"#utility.yul\":15526:15527   */\n      0x00\n        /* \"#utility.yul\":15515:15524   */\n      dup4\n        /* \"#utility.yul\":15511:15528   */\n      add\n        /* \"#utility.yul\":15502:15508   */\n      dup7\n        /* \"#utility.yul\":15458:15529   */\n      tag_153\n      jump\t// in\n    tag_329:\n        /* \"#utility.yul\":15539:15611   */\n      tag_330\n        /* \"#utility.yul\":15607:15609   */\n      0x20\n        /* \"#utility.yul\":15596:15605   */\n      dup4\n        /* \"#utility.yul\":15592:15610   */\n      add\n        /* \"#utility.yul\":15583:15589   */\n      dup6\n        /* \"#utility.yul\":15539:15611   */\n      tag_153\n      jump\t// in\n    tag_330:\n        /* \"#utility.yul\":15621:15693   */\n      tag_331\n        /* \"#utility.yul\":15689:15691   */\n      0x40\n        /* \"#utility.yul\":15678:15687   */\n      dup4\n        /* \"#utility.yul\":15674:15692   */\n      add\n        /* \"#utility.yul\":15665:15671   */\n      dup5\n        /* \"#utility.yul\":15621:15693   */\n      tag_150\n      jump\t// in\n    tag_331:\n        /* \"#utility.yul\":15258:15700   */\n      swap5\n      swap4\n      pop\n      pop\n      pop\n      pop\n      jump\t// out\n        /* \"#utility.yul\":15706:15853   */\n    tag_181:\n        /* \"#utility.yul\":15807:15818   */\n      0x00\n        /* \"#utility.yul\":15844:15847   */\n      dup2\n        /* \"#utility.yul\":15829:15847   */\n      swap1\n      pop\n        /* \"#utility.yul\":15706:15853   */\n      swap3\n      swap2\n      pop\n      pop\n      jump\t// out\n        /* \"#utility.yul\":15859:16245   */\n    tag_182:\n        /* \"#utility.yul\":15963:15966   */\n      0x00\n        /* \"#utility.yul\":15991:16029   */\n      tag_334\n        /* \"#utility.yul\":16023:16028   */\n      dup3\n        /* \"#utility.yul\":15991:16029   */\n      tag_166\n      jump\t// in\n    tag_334:\n        /* \"#utility.yul\":16045:16133   */\n      tag_335\n        /* \"#utility.yul\":16126:16132   */\n      dup2\n        /* \"#utility.yul\":16121:16124   */\n      dup6\n        /* \"#utility.yul\":16045:16133   */\n      tag_181\n      jump\t// in\n    tag_335:\n        /* \"#utility.yul\":16038:16133   */\n      swap4\n      pop\n        /* \"#utility.yul\":16142:16207   */\n      tag_336\n        /* \"#utility.yul\":16200:16206   */\n      dup2\n        /* \"#utility.yul\":16195:16198   */\n      dup6\n        /* \"#utility.yul\":16188:16192   */\n      0x20\n        /* \"#utility.yul\":16181:16186   */\n      dup7\n        /* \"#utility.yul\":16177:16193   */\n      add\n        /* \"#utility.yul\":16142:16207   */\n      tag_168\n      jump\t// in\n    tag_336:\n        /* \"#utility.yul\":16232:16238   */\n      dup1\n        /* \"#utility.yul\":16227:16230   */\n      dup5\n        /* \"#utility.yul\":16223:16239   */\n      add\n        /* \"#utility.yul\":16216:16239   */\n      swap2\n      pop\n        /* \"#utility.yul\":15967:16245   */\n      pop\n        /* \"#utility.yul\":15859:16245   */\n      swap3\n      swap2\n      pop\n      pop\n      jump\t// out\n        /* \"#utility.yul\":16251:16522   */\n    tag_106:\n        /* \"#utility.yul\":16381:16384   */\n      0x00\n        /* \"#utility.yul\":16403:16496   */\n      tag_338\n        /* \"#utility.yul\":16492:16495   */\n      dup3\n        /* \"#utility.yul\":16483:16489   */\n      dup5\n        /* \"#utility.yul\":16403:16496   */\n      tag_182\n      jump\t// in\n    tag_338:\n        /* \"#utility.yul\":16396:16496   */\n      swap2\n      pop\n        /* \"#utility.yul\":16513:16516   */\n      dup2\n        /* \"#utility.yul\":16506:16516   */\n      swap1\n      pop\n        /* \"#utility.yul\":16251:16522   */\n      swap3\n      swap2\n      pop\n      pop\n      jump\t// out\n        /* \"#utility.yul\":16528:16618   */\n    tag_183:\n        /* \"#utility.yul\":16562:16569   */\n      0x00\n        /* \"#utility.yul\":16605:16610   */\n      dup2\n        /* \"#utility.yul\":16598:16611   */\n      iszero\n        /* \"#utility.yul\":16591:16612   */\n      iszero\n        /* \"#utility.yul\":16580:16612   */\n      swap1\n      pop\n        /* \"#utility.yul\":16528:16618   */\n      swap2\n      swap1\n      pop\n      jump\t// out\n        /* \"#utility.yul\":16624:16740   */\n    tag_184:\n        /* \"#utility.yul\":16694:16715   */\n      tag_341\n        /* \"#utility.yul\":16709:16714   */\n      dup2\n        /* \"#utility.yul\":16694:16715   */\n      tag_183\n      jump\t// in\n    tag_341:\n        /* \"#utility.yul\":16687:16692   */\n      dup2\n        /* \"#utility.yul\":16684:16716   */\n      eq\n        /* \"#utility.yul\":16674:16734   */\n      tag_342\n      jumpi\n        /* \"#utility.yul\":16730:16731   */\n      0x00\n        /* \"#utility.yul\":16727:16728   */\n      dup1\n        /* \"#utility.yul\":16720:16732   */\n      revert\n        /* \"#utility.yul\":16674:16734   */\n    tag_342:\n        /* \"#utility.yul\":16624:16740   */\n      pop\n      jump\t// out\n        /* \"#utility.yul\":16746:16883   */\n    tag_185:\n        /* \"#utility.yul\":16800:16805   */\n      0x00\n        /* \"#utility.yul\":16831:16837   */\n      dup2\n        /* \"#utility.yul\":16825:16838   */\n      mload\n        /* \"#utility.yul\":16816:16838   */\n      swap1\n      pop\n        /* \"#utility.yul\":16847:16877   */\n      tag_344\n        /* \"#utility.yul\":16871:16876   */\n      dup2\n        /* \"#utility.yul\":16847:16877   */\n      tag_184\n      jump\t// in\n    tag_344:\n        /* \"#utility.yul\":16746:16883   */\n      swap3\n      swap2\n      pop\n      pop\n      jump\t// out\n        /* \"#utility.yul\":16889:17234   */\n    tag_113:\n        /* \"#utility.yul\":16956:16962   */\n      0x00\n        /* \"#utility.yul\":17005:17007   */\n      0x20\n        /* \"#utility.yul\":16993:17002   */\n      dup3\n        /* \"#utility.yul\":16984:16991   */\n      dup5\n        /* \"#utility.yul\":16980:17003   */\n      sub\n        /* \"#utility.yul\":16976:17008   */\n      slt\n        /* \"#utility.yul\":16973:17092   */\n      iszero\n      tag_346\n      jumpi\n        /* \"#utility.yul\":17011:17090   */\n      tag_347\n      tag_145\n      jump\t// in\n    tag_347:\n        /* \"#utility.yul\":16973:17092   */\n    tag_346:\n        /* \"#utility.yul\":17131:17132   */\n      0x00\n        /* \"#utility.yul\":17156:17217   */\n      tag_348\n        /* \"#utility.yul\":17209:17216   */\n      dup5\n        /* \"#utility.yul\":17200:17206   */\n      dup3\n        /* \"#utility.yul\":17189:17198   */\n      dup6\n        /* \"#utility.yul\":17185:17207   */\n      add\n        /* \"#utility.yul\":17156:17217   */\n      tag_185\n      jump\t// in\n    tag_348:\n        /* \"#utility.yul\":17146:17217   */\n      swap2\n      pop\n        /* \"#utility.yul\":17102:17227   */\n      pop\n        /* \"#utility.yul\":16889:17234   */\n      swap3\n      swap2\n      pop\n      pop\n      jump\t// out\n        /* \"#utility.yul\":17240:17409   */\n    tag_186:\n        /* \"#utility.yul\":17324:17335   */\n      0x00\n        /* \"#utility.yul\":17358:17364   */\n      dup3\n        /* \"#utility.yul\":17353:17356   */\n      dup3\n        /* \"#utility.yul\":17346:17365   */\n      mstore\n        /* \"#utility.yul\":17398:17402   */\n      0x20\n        /* \"#utility.yul\":17393:17396   */\n      dup3\n        /* \"#utility.yul\":17389:17403   */\n      add\n        /* \"#utility.yul\":17374:17403   */\n      swap1\n      pop\n        /* \"#utility.yul\":17240:17409   */\n      swap3\n      swap2\n      pop\n      pop\n      jump\t// out\n        /* \"#utility.yul\":17415:17568   */\n    tag_187:\n        /* \"#utility.yul\":17555:17560   */\n      0x5354460000000000000000000000000000000000000000000000000000000000\n        /* \"#utility.yul\":17551:17552   */\n      0x00\n        /* \"#utility.yul\":17543:17549   */\n      dup3\n        /* \"#utility.yul\":17539:17553   */\n      add\n        /* \"#utility.yul\":17532:17561   */\n      mstore\n        /* \"#utility.yul\":17415:17568   */\n      pop\n      jump\t// out\n        /* \"#utility.yul\":17574:17939   */\n    tag_188:\n        /* \"#utility.yul\":17716:17719   */\n      0x00\n        /* \"#utility.yul\":17737:17803   */\n      tag_352\n        /* \"#utility.yul\":17801:17802   */\n      0x03\n        /* \"#utility.yul\":17796:17799   */\n      dup4\n        /* \"#utility.yul\":17737:17803   */\n      tag_186\n      jump\t// in\n    tag_352:\n        /* \"#utility.yul\":17730:17803   */\n      swap2\n      pop\n        /* \"#utility.yul\":17812:17905   */\n      tag_353\n        /* \"#utility.yul\":17901:17904   */\n      dup3\n        /* \"#utility.yul\":17812:17905   */\n      tag_187\n      jump\t// in\n    tag_353:\n        /* \"#utility.yul\":17930:17932   */\n      0x20\n        /* \"#utility.yul\":17925:17928   */\n      dup3\n        /* \"#utility.yul\":17921:17933   */\n      add\n        /* \"#utility.yul\":17914:17933   */\n      swap1\n      pop\n        /* \"#utility.yul\":17574:17939   */\n      swap2\n      swap1\n      pop\n      jump\t// out\n        /* \"#utility.yul\":17945:18364   */\n    tag_116:\n        /* \"#utility.yul\":18111:18115   */\n      0x00\n        /* \"#utility.yul\":18149:18151   */\n      0x20\n        /* \"#utility.yul\":18138:18147   */\n      dup3\n        /* \"#utility.yul\":18134:18152   */\n      add\n        /* \"#utility.yul\":18126:18152   */\n      swap1\n      pop\n        /* \"#utility.yul\":18198:18207   */\n      dup2\n        /* \"#utility.yul\":18192:18196   */\n      dup2\n        /* \"#utility.yul\":18188:18208   */\n      sub\n        /* \"#utility.yul\":18184:18185   */\n      0x00\n        /* \"#utility.yul\":18173:18182   */\n      dup4\n        /* \"#utility.yul\":18169:18186   */\n      add\n        /* \"#utility.yul\":18162:18209   */\n      mstore\n        /* \"#utility.yul\":18226:18357   */\n      tag_355\n        /* \"#utility.yul\":18352:18356   */\n      dup2\n        /* \"#utility.yul\":18226:18357   */\n      tag_188\n      jump\t// in\n    tag_355:\n        /* \"#utility.yul\":18218:18357   */\n      swap1\n      pop\n        /* \"#utility.yul\":17945:18364   */\n      swap2\n      swap1\n      pop\n      jump\t// out\n        /* \"#utility.yul\":18370:18702   */\n    tag_119:\n        /* \"#utility.yul\":18491:18495   */\n      0x00\n        /* \"#utility.yul\":18529:18531   */\n      0x40\n        /* \"#utility.yul\":18518:18527   */\n      dup3\n        /* \"#utility.yul\":18514:18532   */\n      add\n        /* \"#utility.yul\":18506:18532   */\n      swap1\n      pop\n        /* \"#utility.yul\":18542:18613   */\n      tag_357\n        /* \"#utility.yul\":18610:18611   */\n      0x00\n        /* \"#utility.yul\":18599:18608   */\n      dup4\n        /* \"#utility.yul\":18595:18612   */\n      add\n        /* \"#utility.yul\":18586:18592   */\n      dup6\n        /* \"#utility.yul\":18542:18613   */\n      tag_153\n      jump\t// in\n    tag_357:\n        /* \"#utility.yul\":18623:18695   */\n      tag_358\n        /* \"#utility.yul\":18691:18693   */\n      0x20\n        /* \"#utility.yul\":18680:18689   */\n      dup4\n        /* \"#utility.yul\":18676:18694   */\n      add\n        /* \"#utility.yul\":18667:18673   */\n      dup5\n        /* \"#utility.yul\":18623:18695   */\n      tag_150\n      jump\t// in\n    tag_358:\n        /* \"#utility.yul\":18370:18702   */\n      swap4\n      swap3\n      pop\n      pop\n      pop\n      jump\t// out\n        /* \"#utility.yul\":18708:18860   */\n    tag_189:\n        /* \"#utility.yul\":18848:18852   */\n      0x5341000000000000000000000000000000000000000000000000000000000000\n        /* \"#utility.yul\":18844:18845   */\n      0x00\n        /* \"#utility.yul\":18836:18842   */\n      dup3\n        /* \"#utility.yul\":18832:18846   */\n      add\n        /* \"#utility.yul\":18825:18853   */\n      mstore\n        /* \"#utility.yul\":18708:18860   */\n      pop\n      jump\t// out\n        /* \"#utility.yul\":18866:19231   */\n    tag_190:\n        /* \"#utility.yul\":19008:19011   */\n      0x00\n        /* \"#utility.yul\":19029:19095   */\n      tag_361\n        /* \"#utility.yul\":19093:19094   */\n      0x02\n        /* \"#utility.yul\":19088:19091   */\n      dup4\n        /* \"#utility.yul\":19029:19095   */\n      tag_186\n      jump\t// in\n    tag_361:\n        /* \"#utility.yul\":19022:19095   */\n      swap2\n      pop\n        /* \"#utility.yul\":19104:19197   */\n      tag_362\n        /* \"#utility.yul\":19193:19196   */\n      dup3\n        /* \"#utility.yul\":19104:19197   */\n      tag_189\n      jump\t// in\n    tag_362:\n        /* \"#utility.yul\":19222:19224   */\n      0x20\n        /* \"#utility.yul\":19217:19220   */\n      dup3\n        /* \"#utility.yul\":19213:19225   */\n      add\n        /* \"#utility.yul\":19206:19225   */\n      swap1\n      pop\n        /* \"#utility.yul\":18866:19231   */\n      swap2\n      swap1\n      pop\n      jump\t// out\n        /* \"#utility.yul\":19237:19656   */\n    tag_129:\n        /* \"#utility.yul\":19403:19407   */\n      0x00\n        /* \"#utility.yul\":19441:19443   */\n      0x20\n        /* \"#utility.yul\":19430:19439   */\n      dup3\n        /* \"#utility.yul\":19426:19444   */\n      add\n        /* \"#utility.yul\":19418:19444   */\n      swap1\n      pop\n        /* \"#utility.yul\":19490:19499   */\n      dup2\n        /* \"#utility.yul\":19484:19488   */\n      dup2\n        /* \"#utility.yul\":19480:19500   */\n      sub\n        /* \"#utility.yul\":19476:19477   */\n      0x00\n        /* \"#utility.yul\":19465:19474   */\n      dup4\n        /* \"#utility.yul\":19461:19478   */\n      add\n        /* \"#utility.yul\":19454:19501   */\n      mstore\n        /* \"#utility.yul\":19518:19649   */\n      tag_364\n        /* \"#utility.yul\":19644:19648   */\n      dup2\n        /* \"#utility.yul\":19518:19649   */\n      tag_190\n      jump\t// in\n    tag_364:\n        /* \"#utility.yul\":19510:19649   */\n      swap1\n      pop\n        /* \"#utility.yul\":19237:19656   */\n      swap2\n      swap1\n      pop\n      jump\t// out\n        /* \"#utility.yul\":19662:19814   */\n    tag_191:\n        /* \"#utility.yul\":19802:19806   */\n      0x5354000000000000000000000000000000000000000000000000000000000000\n        /* \"#utility.yul\":19798:19799   */\n      0x00\n        /* \"#utility.yul\":19790:19796   */\n      dup3\n        /* \"#utility.yul\":19786:19800   */\n      add\n        /* \"#utility.yul\":19779:19807   */\n      mstore\n        /* \"#utility.yul\":19662:19814   */\n      pop\n      jump\t// out\n        /* \"#utility.yul\":19820:20185   */\n    tag_192:\n        /* \"#utility.yul\":19962:19965   */\n      0x00\n        /* \"#utility.yul\":19983:20049   */\n      tag_367\n        /* \"#utility.yul\":20047:20048   */\n      0x02\n        /* \"#utility.yul\":20042:20045   */\n      dup4\n        /* \"#utility.yul\":19983:20049   */\n      tag_186\n      jump\t// in\n    tag_367:\n        /* \"#utility.yul\":19976:20049   */\n      swap2\n      pop\n        /* \"#utility.yul\":20058:20151   */\n      tag_368\n        /* \"#utility.yul\":20147:20150   */\n      dup3\n        /* \"#utility.yul\":20058:20151   */\n      tag_191\n      jump\t// in\n    tag_368:\n        /* \"#utility.yul\":20176:20178   */\n      0x20\n        /* \"#utility.yul\":20171:20174   */\n      dup3\n        /* \"#utility.yul\":20167:20179   */\n      add\n        /* \"#utility.yul\":20160:20179   */\n      swap1\n      pop\n        /* \"#utility.yul\":19820:20185   */\n      swap2\n      swap1\n      pop\n      jump\t// out\n        /* \"#utility.yul\":20191:20610   */\n    tag_141:\n        /* \"#utility.yul\":20357:20361   */\n      0x00\n        /* \"#utility.yul\":20395:20397   */\n      0x20\n        /* \"#utility.yul\":20384:20393   */\n      dup3\n        /* \"#utility.yul\":20380:20398   */\n      add\n        /* \"#utility.yul\":20372:20398   */\n      swap1\n      pop\n        /* \"#utility.yul\":20444:20453   */\n      dup2\n        /* \"#utility.yul\":20438:20442   */\n      dup2\n        /* \"#utility.yul\":20434:20454   */\n      sub\n        /* \"#utility.yul\":20430:20431   */\n      0x00\n        /* \"#utility.yul\":20419:20428   */\n      dup4\n        /* \"#utility.yul\":20415:20432   */\n      add\n        /* \"#utility.yul\":20408:20455   */\n      mstore\n        /* \"#utility.yul\":20472:20603   */\n      tag_370\n        /* \"#utility.yul\":20598:20602   */\n      dup2\n        /* \"#utility.yul\":20472:20603   */\n      tag_192\n      jump\t// in\n    tag_370:\n        /* \"#utility.yul\":20464:20603   */\n      swap1\n      pop\n        /* \"#utility.yul\":20191:20610   */\n      swap2\n      swap1\n      pop\n      jump\t// out\n\n    auxdata: 0xa26469706673582212203f217f4a40acc2b912045fb4f20721d20822bedb201e7b713c002c3943d0141564736f6c634300081a0033\n}\n",
				"bytecode": {
					"linkReferences": {},
					"object": "610100604052348015610010575f80fd5b50604051611b5a380380611b5a833981810160405281019061003291906101a4565b8373ffffffffffffffffffffffffffffffffffffffff1660808173ffffffffffffffffffffffffffffffffffffffff16815250508273ffffffffffffffffffffffffffffffffffffffff1660a08173ffffffffffffffffffffffffffffffffffffffff16815250508173ffffffffffffffffffffffffffffffffffffffff1660c08173ffffffffffffffffffffffffffffffffffffffff16815250508073ffffffffffffffffffffffffffffffffffffffff1660e08173ffffffffffffffffffffffffffffffffffffffff168152505050505050610208565b5f80fd5b5f73ffffffffffffffffffffffffffffffffffffffff82169050919050565b5f6101388261010f565b9050919050565b5f6101498261012e565b9050919050565b6101598161013f565b8114610163575f80fd5b50565b5f8151905061017481610150565b92915050565b6101838161012e565b811461018d575f80fd5b50565b5f8151905061019e8161017a565b92915050565b5f805f80608085870312156101bc576101bb61010b565b5b5f6101c987828801610166565b94505060206101da87828801610190565b93505060406101eb87828801610190565b92505060606101fc87828801610190565b91505092959194509250565b60805160a05160c05160e05161185b6102ff5f395f81816102b8015281816106810152610a2d01525f61093d01525f81816102200152818161024c015281816102dc015281816103f9015281816104440152818161049c015281816104c80152818161051d015281816106cd015281816106f90152818161074e015281816108b7015281816109020152818161096101528181610989015281816109b50152610a0901525f818161026d015281816103530152818161041a015281816104e9015281816105e0015281816106a50152818161071a01528181610811015281816108d8015281816109d60152610abc015261185b5ff3fe608060405234801561000f575f80fd5b506004361061009c575f3560e01c8063c31c9c0711610064578063c31c9c071461015a578063c4b69a1814610178578063c54e44eb146101a8578063e0bab4c4146101c6578063edd83557146101e45761009c565b8063089fe6aa146100a05780633b85cf6a146100be5780634aa4a4fc146100ee57806373bd43ad1461010c57806389a302711461013c575b5f80fd5b6100a8610214565b6040516100b59190610f68565b60405180910390f35b6100d860048036038101906100d39190610fb8565b61021a565b6040516100e59190611005565b60405180910390f35b6100f661047e565b604051610103919061105d565b60405180910390f35b61012660048036038101906101219190611076565b610496565b6040516101339190611005565b60405180910390f35b61014461067f565b604051610151919061105d565b60405180910390f35b6101626106a3565b60405161016f91906110fc565b60405180910390f35b610192600480360381019061018d9190610fb8565b6106c7565b60405161019f9190611005565b60405180910390f35b6101b061093b565b6040516101bd919061105d565b60405180910390f35b6101ce61095f565b6040516101db919061105d565b60405180910390f35b6101fe60048036038101906101f99190611076565b610983565b60405161020b9190611005565b60405180910390f35b610bb881565b5f6102477f0000000000000000000000000000000000000000000000000000000000000000333085610b5b565b6102927f00000000000000000000000000000000000000000000000000000000000000007f000000000000000000000000000000000000000000000000000000000000000084610cad565b5f6040518060a0016040528073c02aaa39b223fe8d0a0e5c4f27ead9083c756cc2610bb87f0000000000000000000000000000000000000000000000000000000000000000610bb87f000000000000000000000000000000000000000000000000000000000000000060405160200161030f95949392919061118e565b60405160208183030381529060405281526020013373ffffffffffffffffffffffffffffffffffffffff1681526020014281526020018581526020018481525090507f000000000000000000000000000000000000000000000000000000000000000073ffffffffffffffffffffffffffffffffffffffff1663f28c0498826040518263ffffffff1660e01b81526004016103aa91906112ed565b6020604051808303815f875af11580156103c6573d5f803e3d5ffd5b505050506040513d601f19601f820116820180604052508101906103ea9190611321565b9150828210156104775761043f7f00000000000000000000000000000000000000000000000000000000000000007f00000000000000000000000000000000000000000000000000000000000000005f610cad565b6104767f0000000000000000000000000000000000000000000000000000000000000000303385876104719190611379565b610b5b565b5b5092915050565b73c02aaa39b223fe8d0a0e5c4f27ead9083c756cc281565b5f6104c37f0000000000000000000000000000000000000000000000000000000000000000333085610b5b565b61050e7f00000000000000000000000000000000000000000000000000000000000000007f000000000000000000000000000000000000000000000000000000000000000084610cad565b5f6040518061010001604052807f000000000000000000000000000000000000000000000000000000000000000073ffffffffffffffffffffffffffffffffffffffff16815260200173c02aaa39b223fe8d0a0e5c4f27ead9083c756cc273ffffffffffffffffffffffffffffffffffffffff168152602001610bb862ffffff1681526020013373ffffffffffffffffffffffffffffffffffffffff1681526020014281526020018481526020015f81526020015f73ffffffffffffffffffffffffffffffffffffffff1681525090507f000000000000000000000000000000000000000000000000000000000000000073ffffffffffffffffffffffffffffffffffffffff1663414bf389826040518263ffffffff1660e01b8152600401610637919061146a565b6020604051808303815f875af1158015610653573d5f803e3d5ffd5b505050506040513d601f19601f820116820180604052508101906106779190611321565b915050919050565b7f000000000000000000000000000000000000000000000000000000000000000081565b7f000000000000000000000000000000000000000000000000000000000000000081565b5f6106f47f0000000000000000000000000000000000000000000000000000000000000000333085610b5b565b61073f7f00000000000000000000000000000000000000000000000000000000000000007f000000000000000000000000000000000000000000000000000000000000000084610cad565b5f6040518061010001604052807f000000000000000000000000000000000000000000000000000000000000000073ffffffffffffffffffffffffffffffffffffffff16815260200173c02aaa39b223fe8d0a0e5c4f27ead9083c756cc273ffffffffffffffffffffffffffffffffffffffff168152602001610bb862ffffff1681526020013373ffffffffffffffffffffffffffffffffffffffff1681526020014281526020018581526020018481526020015f73ffffffffffffffffffffffffffffffffffffffff1681525090507f000000000000000000000000000000000000000000000000000000000000000073ffffffffffffffffffffffffffffffffffffffff1663db3e2198826040518263ffffffff1660e01b81526004016108689190611524565b6020604051808303815f875af1158015610884573d5f803e3d5ffd5b505050506040513d601f19601f820116820180604052508101906108a89190611321565b915082821015610934576108fd7f00000000000000000000000000000000000000000000000000000000000000007f00000000000000000000000000000000000000000000000000000000000000005f610cad565b6109337f000000000000000000000000000000000000000000000000000000000000000033848661092e9190611379565b610dfc565b5b5092915050565b7f000000000000000000000000000000000000000000000000000000000000000081565b7f000000000000000000000000000000000000000000000000000000000000000081565b5f6109b07f0000000000000000000000000000000000000000000000000000000000000000333085610b5b565b6109fb7f00000000000000000000000000000000000000000000000000000000000000007f000000000000000000000000000000000000000000000000000000000000000084610cad565b5f6040518060a001604052807f0000000000000000000000000000000000000000000000000000000000000000610bb87f0000000000000000000000000000000000000000000000000000000000000000610bb873c02aaa39b223fe8d0a0e5c4f27ead9083c756cc2604051602001610a7895949392919061118e565b60405160208183030381529060405281526020013373ffffffffffffffffffffffffffffffffffffffff1681526020014281526020018481526020015f81525090507f000000000000000000000000000000000000000000000000000000000000000073ffffffffffffffffffffffffffffffffffffffff1663c04b8d59826040518263ffffffff1660e01b8152600401610b1391906115b1565b6020604051808303815f875af1158015610b2f573d5f803e3d5ffd5b505050506040513d601f19601f82011682018060405250810190610b539190611321565b915050919050565b5f808573ffffffffffffffffffffffffffffffffffffffff166323b872dd60e01b868686604051602401610b91939291906115d1565b604051602081830303815290604052907bffffffffffffffffffffffffffffffffffffffffffffffffffffffff19166020820180517bffffffffffffffffffffffffffffffffffffffffffffffffffffffff8381831617835250505050604051610bfb9190611640565b5f604051808303815f865af19150503d805f8114610c34576040519150601f19603f3d011682016040523d82523d5f602084013e610c39565b606091505b5091509150818015610c6657505f81511480610c65575080806020019051810190610c64919061168b565b5b5b610ca5576040517f08c379a0000000000000000000000000000000000000000000000000000000008152600401610c9c90611710565b60405180910390fd5b505050505050565b5f808473ffffffffffffffffffffffffffffffffffffffff1663095ea7b360e01b8585604051602401610ce192919061172e565b604051602081830303815290604052907bffffffffffffffffffffffffffffffffffffffffffffffffffffffff19166020820180517bffffffffffffffffffffffffffffffffffffffffffffffffffffffff8381831617835250505050604051610d4b9190611640565b5f604051808303815f865af19150503d805f8114610d84576040519150601f19603f3d011682016040523d82523d5f602084013e610d89565b606091505b5091509150818015610db657505f81511480610db5575080806020019051810190610db4919061168b565b5b5b610df5576040517f08c379a0000000000000000000000000000000000000000000000000000000008152600401610dec9061179f565b60405180910390fd5b5050505050565b5f808473ffffffffffffffffffffffffffffffffffffffff1663a9059cbb60e01b8585604051602401610e3092919061172e565b604051602081830303815290604052907bffffffffffffffffffffffffffffffffffffffffffffffffffffffff19166020820180517bffffffffffffffffffffffffffffffffffffffffffffffffffffffff8381831617835250505050604051610e9a9190611640565b5f604051808303815f865af19150503d805f8114610ed3576040519150601f19603f3d011682016040523d82523d5f602084013e610ed8565b606091505b5091509150818015610f0557505f81511480610f04575080806020019051810190610f03919061168b565b5b5b610f44576040517f08c379a0000000000000000000000000000000000000000000000000000000008152600401610f3b90611807565b60405180910390fd5b5050505050565b5f62ffffff82169050919050565b610f6281610f4b565b82525050565b5f602082019050610f7b5f830184610f59565b92915050565b5f80fd5b5f819050919050565b610f9781610f85565b8114610fa1575f80fd5b50565b5f81359050610fb281610f8e565b92915050565b5f8060408385031215610fce57610fcd610f81565b5b5f610fdb85828601610fa4565b9250506020610fec85828601610fa4565b9150509250929050565b610fff81610f85565b82525050565b5f6020820190506110185f830184610ff6565b92915050565b5f73ffffffffffffffffffffffffffffffffffffffff82169050919050565b5f6110478261101e565b9050919050565b6110578161103d565b82525050565b5f6020820190506110705f83018461104e565b92915050565b5f6020828403121561108b5761108a610f81565b5b5f61109884828501610fa4565b91505092915050565b5f819050919050565b5f6110c46110bf6110ba8461101e565b6110a1565b61101e565b9050919050565b5f6110d5826110aa565b9050919050565b5f6110e6826110cb565b9050919050565b6110f6816110dc565b82525050565b5f60208201905061110f5f8301846110ed565b92915050565b5f8160601b9050919050565b5f61112b82611115565b9050919050565b5f61113c82611121565b9050919050565b61115461114f8261103d565b611132565b82525050565b5f8160e81b9050919050565b5f6111708261115a565b9050919050565b61118861118382610f4b565b611166565b82525050565b5f6111998288611143565b6014820191506111a98287611177565b6003820191506111b98286611143565b6014820191506111c98285611177565b6003820191506111d98284611143565b6014820191508190509695505050505050565b5f81519050919050565b5f82825260208201905092915050565b8281835e5f83830152505050565b5f601f19601f8301169050919050565b5f61122e826111ec565b61123881856111f6565b9350611248818560208601611206565b61125181611214565b840191505092915050565b6112658161103d565b82525050565b61127481610f85565b82525050565b5f60a083015f8301518482035f8601526112948282611224565b91505060208301516112a9602086018261125c565b5060408301516112bc604086018261126b565b5060608301516112cf606086018261126b565b5060808301516112e2608086018261126b565b508091505092915050565b5f6020820190508181035f830152611305818461127a565b905092915050565b5f8151905061131b81610f8e565b92915050565b5f6020828403121561133657611335610f81565b5b5f6113438482850161130d565b91505092915050565b7f4e487b71000000000000000000000000000000000000000000000000000000005f52601160045260245ffd5b5f61138382610f85565b915061138e83610f85565b92508282039050818111156113a6576113a561134c565b5b92915050565b6113b581610f4b565b82525050565b6113c48161101e565b82525050565b61010082015f8201516113df5f85018261125c565b5060208201516113f2602085018261125c565b50604082015161140560408501826113ac565b506060820151611418606085018261125c565b50608082015161142b608085018261126b565b5060a082015161143e60a085018261126b565b5060c082015161145160c085018261126b565b5060e082015161146460e08501826113bb565b50505050565b5f6101008201905061147e5f8301846113ca565b92915050565b61010082015f8201516114995f85018261125c565b5060208201516114ac602085018261125c565b5060408201516114bf60408501826113ac565b5060608201516114d2606085018261125c565b5060808201516114e5608085018261126b565b5060a08201516114f860a085018261126b565b5060c082015161150b60c085018261126b565b5060e082015161151e60e08501826113bb565b50505050565b5f610100820190506115385f830184611484565b92915050565b5f60a083015f8301518482035f8601526115588282611224565b915050602083015161156d602086018261125c565b506040830151611580604086018261126b565b506060830151611593606086018261126b565b5060808301516115a6608086018261126b565b508091505092915050565b5f6020820190508181035f8301526115c9818461153e565b905092915050565b5f6060820190506115e45f83018661104e565b6115f1602083018561104e565b6115fe6040830184610ff6565b949350505050565b5f81905092915050565b5f61161a826111ec565b6116248185611606565b9350611634818560208601611206565b80840191505092915050565b5f61164b8284611610565b915081905092915050565b5f8115159050919050565b61166a81611656565b8114611674575f80fd5b50565b5f8151905061168581611661565b92915050565b5f602082840312156116a05761169f610f81565b5b5f6116ad84828501611677565b91505092915050565b5f82825260208201905092915050565b7f53544600000000000000000000000000000000000000000000000000000000005f82015250565b5f6116fa6003836116b6565b9150611705826116c6565b602082019050919050565b5f6020820190508181035f830152611727816116ee565b9050919050565b5f6040820190506117415f83018561104e565b61174e6020830184610ff6565b9392505050565b7f53410000000000000000000000000000000000000000000000000000000000005f82015250565b5f6117896002836116b6565b915061179482611755565b602082019050919050565b5f6020820190508181035f8301526117b68161177d565b9050919050565b7f53540000000000000000000000000000000000000000000000000000000000005f82015250565b5f6117f16002836116b6565b91506117fc826117bd565b602082019050919050565b5f6020820190508181035f83015261181e816117e5565b905091905056fea26469706673582212203f217f4a40acc2b912045fb4f20721d20822bedb201e7b713c002c3943d0141564736f6c634300081a0033",
					"opcodes": "PUSH2 0x100 PUSH1 0x40 MSTORE CALLVALUE DUP1 ISZERO PUSH2 0x10 JUMPI PUSH0 DUP1 REVERT JUMPDEST POP PUSH1 0x40 MLOAD PUSH2 0x1B5A CODESIZE SUB DUP1 PUSH2 0x1B5A DUP4 CODECOPY DUP2 DUP2 ADD PUSH1 0x40 MSTORE DUP2 ADD SWAP1 PUSH2 0x32 SWAP2 SWAP1 PUSH2 0x1A4 JUMP JUMPDEST DUP4 PUSH20 0xFFFFFFFFFFFFFFFFFFFFFFFFFFFFFFFFFFFFFFFF AND PUSH1 0x80 DUP2 PUSH20 0xFFFFFFFFFFFFFFFFFFFFFFFFFFFFFFFFFFFFFFFF AND DUP2 MSTORE POP POP DUP3 PUSH20 0xFFFFFFFFFFFFFFFFFFFFFFFFFFFFFFFFFFFFFFFF AND PUSH1 0xA0 DUP2 PUSH20 0xFFFFFFFFFFFFFFFFFFFFFFFFFFFFFFFFFFFFFFFF AND DUP2 MSTORE POP POP DUP2 PUSH20 0xFFFFFFFFFFFFFFFFFFFFFFFFFFFFFFFFFFFFFFFF AND PUSH1 0xC0 DUP2 PUSH20 0xFFFFFFFFFFFFFFFFFFFFFFFFFFFFFFFFFFFFFFFF AND DUP2 MSTORE POP POP DUP1 PUSH20 0xFFFFFFFFFFFFFFFFFFFFFFFFFFFFFFFFFFFFFFFF AND PUSH1 0xE0 DUP2 PUSH20 0xFFFFFFFFFFFFFFFFFFFFFFFFFFFFFFFFFFFFFFFF AND DUP2 MSTORE POP POP POP POP POP POP PUSH2 0x208 JUMP JUMPDEST PUSH0 DUP1 REVERT JUMPDEST PUSH0 PUSH20 0xFFFFFFFFFFFFFFFFFFFFFFFFFFFFFFFFFFFFFFFF DUP3 AND SWAP1 POP SWAP2 SWAP1 POP JUMP JUMPDEST PUSH0 PUSH2 0x138 DUP3 PUSH2 0x10F JUMP JUMPDEST SWAP1 POP SWAP2 SWAP1 POP JUMP JUMPDEST PUSH0 PUSH2 0x149 DUP3 PUSH2 0x12E JUMP JUMPDEST SWAP1 POP SWAP2 SWAP1 POP JUMP JUMPDEST PUSH2 0x159 DUP2 PUSH2 0x13F JUMP JUMPDEST DUP2 EQ PUSH2 0x163 JUMPI PUSH0 DUP1 REVERT JUMPDEST POP JUMP JUMPDEST PUSH0 DUP2 MLOAD SWAP1 POP PUSH2 0x174 DUP2 PUSH2 0x150 JUMP JUMPDEST SWAP3 SWAP2 POP POP JUMP JUMPDEST PUSH2 0x183 DUP2 PUSH2 0x12E JUMP JUMPDEST DUP2 EQ PUSH2 0x18D JUMPI PUSH0 DUP1 REVERT JUMPDEST POP JUMP JUMPDEST PUSH0 DUP2 MLOAD SWAP1 POP PUSH2 0x19E DUP2 PUSH2 0x17A JUMP JUMPDEST SWAP3 SWAP2 POP POP JUMP JUMPDEST PUSH0 DUP1 PUSH0 DUP1 PUSH1 0x80 DUP6 DUP8 SUB SLT ISZERO PUSH2 0x1BC JUMPI PUSH2 0x1BB PUSH2 0x10B JUMP JUMPDEST JUMPDEST PUSH0 PUSH2 0x1C9 DUP8 DUP3 DUP9 ADD PUSH2 0x166 JUMP JUMPDEST SWAP5 POP POP PUSH1 0x20 PUSH2 0x1DA DUP8 DUP3 DUP9 ADD PUSH2 0x190 JUMP JUMPDEST SWAP4 POP POP PUSH1 0x40 PUSH2 0x1EB DUP8 DUP3 DUP9 ADD PUSH2 0x190 JUMP JUMPDEST SWAP3 POP POP PUSH1 0x60 PUSH2 0x1FC DUP8 DUP3 DUP9 ADD PUSH2 0x190 JUMP JUMPDEST SWAP2 POP POP SWAP3 SWAP6 SWAP2 SWAP5 POP SWAP3 POP JUMP JUMPDEST PUSH1 0x80 MLOAD PUSH1 0xA0 MLOAD PUSH1 0xC0 MLOAD PUSH1 0xE0 MLOAD PUSH2 0x185B PUSH2 0x2FF PUSH0 CODECOPY PUSH0 DUP2 DUP2 PUSH2 0x2B8 ADD MSTORE DUP2 DUP2 PUSH2 0x681 ADD MSTORE PUSH2 0xA2D ADD MSTORE PUSH0 PUSH2 0x93D ADD MSTORE PUSH0 DUP2 DUP2 PUSH2 0x220 ADD MSTORE DUP2 DUP2 PUSH2 0x24C ADD MSTORE DUP2 DUP2 PUSH2 0x2DC ADD MSTORE DUP2 DUP2 PUSH2 0x3F9 ADD MSTORE DUP2 DUP2 PUSH2 0x444 ADD MSTORE DUP2 DUP2 PUSH2 0x49C ADD MSTORE DUP2 DUP2 PUSH2 0x4C8 ADD MSTORE DUP2 DUP2 PUSH2 0x51D ADD MSTORE DUP2 DUP2 PUSH2 0x6CD ADD MSTORE DUP2 DUP2 PUSH2 0x6F9 ADD MSTORE DUP2 DUP2 PUSH2 0x74E ADD MSTORE DUP2 DUP2 PUSH2 0x8B7 ADD MSTORE DUP2 DUP2 PUSH2 0x902 ADD MSTORE DUP2 DUP2 PUSH2 0x961 ADD MSTORE DUP2 DUP2 PUSH2 0x989 ADD MSTORE DUP2 DUP2 PUSH2 0x9B5 ADD MSTORE PUSH2 0xA09 ADD MSTORE PUSH0 DUP2 DUP2 PUSH2 0x26D ADD MSTORE DUP2 DUP2 PUSH2 0x353 ADD MSTORE DUP2 DUP2 PUSH2 0x41A ADD MSTORE DUP2 DUP2 PUSH2 0x4E9 ADD MSTORE DUP2 DUP2 PUSH2 0x5E0 ADD MSTORE DUP2 DUP2 PUSH2 0x6A5 ADD MSTORE DUP2 DUP2 PUSH2 0x71A ADD MSTORE DUP2 DUP2 PUSH2 0x811 ADD MSTORE DUP2 DUP2 PUSH2 0x8D8 ADD MSTORE DUP2 DUP2 PUSH2 0x9D6 ADD MSTORE PUSH2 0xABC ADD MSTORE PUSH2 0x185B PUSH0 RETURN INVALID PUSH1 0x80 PUSH1 0x40 MSTORE CALLVALUE DUP1 ISZERO PUSH2 0xF JUMPI PUSH0 DUP1 REVERT JUMPDEST POP PUSH1 0x4 CALLDATASIZE LT PUSH2 0x9C JUMPI PUSH0 CALLDATALOAD PUSH1 0xE0 SHR DUP1 PUSH4 0xC31C9C07 GT PUSH2 0x64 JUMPI DUP1 PUSH4 0xC31C9C07 EQ PUSH2 0x15A JUMPI DUP1 PUSH4 0xC4B69A18 EQ PUSH2 0x178 JUMPI DUP1 PUSH4 0xC54E44EB EQ PUSH2 0x1A8 JUMPI DUP1 PUSH4 0xE0BAB4C4 EQ PUSH2 0x1C6 JUMPI DUP1 PUSH4 0xEDD83557 EQ PUSH2 0x1E4 JUMPI PUSH2 0x9C JUMP JUMPDEST DUP1 PUSH4 0x89FE6AA EQ PUSH2 0xA0 JUMPI DUP1 PUSH4 0x3B85CF6A EQ PUSH2 0xBE JUMPI DUP1 PUSH4 0x4AA4A4FC EQ PUSH2 0xEE JUMPI DUP1 PUSH4 0x73BD43AD EQ PUSH2 0x10C JUMPI DUP1 PUSH4 0x89A30271 EQ PUSH2 0x13C JUMPI JUMPDEST PUSH0 DUP1 REVERT JUMPDEST PUSH2 0xA8 PUSH2 0x214 JUMP JUMPDEST PUSH1 0x40 MLOAD PUSH2 0xB5 SWAP2 SWAP1 PUSH2 0xF68 JUMP JUMPDEST PUSH1 0x40 MLOAD DUP1 SWAP2 SUB SWAP1 RETURN JUMPDEST PUSH2 0xD8 PUSH1 0x4 DUP1 CALLDATASIZE SUB DUP2 ADD SWAP1 PUSH2 0xD3 SWAP2 SWAP1 PUSH2 0xFB8 JUMP JUMPDEST PUSH2 0x21A JUMP JUMPDEST PUSH1 0x40 MLOAD PUSH2 0xE5 SWAP2 SWAP1 PUSH2 0x1005 JUMP JUMPDEST PUSH1 0x40 MLOAD DUP1 SWAP2 SUB SWAP1 RETURN JUMPDEST PUSH2 0xF6 PUSH2 0x47E JUMP JUMPDEST PUSH1 0x40 MLOAD PUSH2 0x103 SWAP2 SWAP1 PUSH2 0x105D JUMP JUMPDEST PUSH1 0x40 MLOAD DUP1 SWAP2 SUB SWAP1 RETURN JUMPDEST PUSH2 0x126 PUSH1 0x4 DUP1 CALLDATASIZE SUB DUP2 ADD SWAP1 PUSH2 0x121 SWAP2 SWAP1 PUSH2 0x1076 JUMP JUMPDEST PUSH2 0x496 JUMP JUMPDEST PUSH1 0x40 MLOAD PUSH2 0x133 SWAP2 SWAP1 PUSH2 0x1005 JUMP JUMPDEST PUSH1 0x40 MLOAD DUP1 SWAP2 SUB SWAP1 RETURN JUMPDEST PUSH2 0x144 PUSH2 0x67F JUMP JUMPDEST PUSH1 0x40 MLOAD PUSH2 0x151 SWAP2 SWAP1 PUSH2 0x105D JUMP JUMPDEST PUSH1 0x40 MLOAD DUP1 SWAP2 SUB SWAP1 RETURN JUMPDEST PUSH2 0x162 PUSH2 0x6A3 JUMP JUMPDEST PUSH1 0x40 MLOAD PUSH2 0x16F SWAP2 SWAP1 PUSH2 0x10FC JUMP JUMPDEST PUSH1 0x40 MLOAD DUP1 SWAP2 SUB SWAP1 RETURN JUMPDEST PUSH2 0x192 PUSH1 0x4 DUP1 CALLDATASIZE SUB DUP2 ADD SWAP1 PUSH2 0x18D SWAP2 SWAP1 PUSH2 0xFB8 JUMP JUMPDEST PUSH2 0x6C7 JUMP JUMPDEST PUSH1 0x40 MLOAD PUSH2 0x19F SWAP2 SWAP1 PUSH2 0x1005 JUMP JUMPDEST PUSH1 0x40 MLOAD DUP1 SWAP2 SUB SWAP1 RETURN JUMPDEST PUSH2 0x1B0 PUSH2 0x93B JUMP JUMPDEST PUSH1 0x40 MLOAD PUSH2 0x1BD SWAP2 SWAP1 PUSH2 0x105D JUMP JUMPDEST PUSH1 0x40 MLOAD DUP1 SWAP2 SUB SWAP1 RETURN JUMPDEST PUSH2 0x1CE PUSH2 0x95F JUMP JUMPDEST PUSH1 0x40 MLOAD PUSH2 0x1DB SWAP2 SWAP1 PUSH2 0x105D JUMP JUMPDEST PUSH1 0x40 MLOAD DUP1 SWAP2 SUB SWAP1 RETURN JUMPDEST PUSH2 0x1FE PUSH1 0x4 DUP1 CALLDATASIZE SUB DUP2 ADD SWAP1 PUSH2 0x1F9 SWAP2 SWAP1 PUSH2 0x1076 JUMP JUMPDEST PUSH2 0x983 JUMP JUMPDEST PUSH1 0x40 MLOAD PUSH2 0x20B SWAP2 SWAP1 PUSH2 0x1005 JUMP JUMPDEST PUSH1 0x40 MLOAD DUP1 SWAP2 SUB SWAP1 RETURN JUMPDEST PUSH2 0xBB8 DUP2 JUMP JUMPDEST PUSH0 PUSH2 0x247 PUSH32 0x0 CALLER ADDRESS DUP6 PUSH2 0xB5B JUMP JUMPDEST PUSH2 0x292 PUSH32 0x0 PUSH32 0x0 DUP5 PUSH2 0xCAD JUMP JUMPDEST PUSH0 PUSH1 0x40 MLOAD DUP1 PUSH1 0xA0 ADD PUSH1 0x40 MSTORE DUP1 PUSH20 0xC02AAA39B223FE8D0A0E5C4F27EAD9083C756CC2 PUSH2 0xBB8 PUSH32 0x0 PUSH2 0xBB8 PUSH32 0x0 PUSH1 0x40 MLOAD PUSH1 0x20 ADD PUSH2 0x30F SWAP6 SWAP5 SWAP4 SWAP3 SWAP2 SWAP1 PUSH2 0x118E JUMP JUMPDEST PUSH1 0x40 MLOAD PUSH1 0x20 DUP2 DUP4 SUB SUB DUP2 MSTORE SWAP1 PUSH1 0x40 MSTORE DUP2 MSTORE PUSH1 0x20 ADD CALLER PUSH20 0xFFFFFFFFFFFFFFFFFFFFFFFFFFFFFFFFFFFFFFFF AND DUP2 MSTORE PUSH1 0x20 ADD TIMESTAMP DUP2 MSTORE PUSH1 0x20 ADD DUP6 DUP2 MSTORE PUSH1 0x20 ADD DUP5 DUP2 MSTORE POP SWAP1 POP PUSH32 0x0 PUSH20 0xFFFFFFFFFFFFFFFFFFFFFFFFFFFFFFFFFFFFFFFF AND PUSH4 0xF28C0498 DUP3 PUSH1 0x40 MLOAD DUP3 PUSH4 0xFFFFFFFF AND PUSH1 0xE0 SHL DUP2 MSTORE PUSH1 0x4 ADD PUSH2 0x3AA SWAP2 SWAP1 PUSH2 0x12ED JUMP JUMPDEST PUSH1 0x20 PUSH1 0x40 MLOAD DUP1 DUP4 SUB DUP2 PUSH0 DUP8 GAS CALL ISZERO DUP1 ISZERO PUSH2 0x3C6 JUMPI RETURNDATASIZE PUSH0 DUP1 RETURNDATACOPY RETURNDATASIZE PUSH0 REVERT JUMPDEST POP POP POP POP PUSH1 0x40 MLOAD RETURNDATASIZE PUSH1 0x1F NOT PUSH1 0x1F DUP3 ADD AND DUP3 ADD DUP1 PUSH1 0x40 MSTORE POP DUP2 ADD SWAP1 PUSH2 0x3EA SWAP2 SWAP1 PUSH2 0x1321 JUMP JUMPDEST SWAP2 POP DUP3 DUP3 LT ISZERO PUSH2 0x477 JUMPI PUSH2 0x43F PUSH32 0x0 PUSH32 0x0 PUSH0 PUSH2 0xCAD JUMP JUMPDEST PUSH2 0x476 PUSH32 0x0 ADDRESS CALLER DUP6 DUP8 PUSH2 0x471 SWAP2 SWAP1 PUSH2 0x1379 JUMP JUMPDEST PUSH2 0xB5B JUMP JUMPDEST JUMPDEST POP SWAP3 SWAP2 POP POP JUMP JUMPDEST PUSH20 0xC02AAA39B223FE8D0A0E5C4F27EAD9083C756CC2 DUP2 JUMP JUMPDEST PUSH0 PUSH2 0x4C3 PUSH32 0x0 CALLER ADDRESS DUP6 PUSH2 0xB5B JUMP JUMPDEST PUSH2 0x50E PUSH32 0x0 PUSH32 0x0 DUP5 PUSH2 0xCAD JUMP JUMPDEST PUSH0 PUSH1 0x40 MLOAD DUP1 PUSH2 0x100 ADD PUSH1 0x40 MSTORE DUP1 PUSH32 0x0 PUSH20 0xFFFFFFFFFFFFFFFFFFFFFFFFFFFFFFFFFFFFFFFF AND DUP2 MSTORE PUSH1 0x20 ADD PUSH20 0xC02AAA39B223FE8D0A0E5C4F27EAD9083C756CC2 PUSH20 0xFFFFFFFFFFFFFFFFFFFFFFFFFFFFFFFFFFFFFFFF AND DUP2 MSTORE PUSH1 0x20 ADD PUSH2 0xBB8 PUSH3 0xFFFFFF AND DUP2 MSTORE PUSH1 0x20 ADD CALLER PUSH20 0xFFFFFFFFFFFFFFFFFFFFFFFFFFFFFFFFFFFFFFFF AND DUP2 MSTORE PUSH1 0x20 ADD TIMESTAMP DUP2 MSTORE PUSH1 0x20 ADD DUP5 DUP2 MSTORE PUSH1 0x20 ADD PUSH0 DUP2 MSTORE PUSH1 0x20 ADD PUSH0 PUSH20 0xFFFFFFFFFFFFFFFFFFFFFFFFFFFFFFFFFFFFFFFF AND DUP2 MSTORE POP SWAP1 POP PUSH32 0x0 PUSH20 0xFFFFFFFFFFFFFFFFFFFFFFFFFFFFFFFFFFFFFFFF AND PUSH4 0x414BF389 DUP3 PUSH1 0x40 MLOAD DUP3 PUSH4 0xFFFFFFFF AND PUSH1 0xE0 SHL DUP2 MSTORE PUSH1 0x4 ADD PUSH2 0x637 SWAP2 SWAP1 PUSH2 0x146A JUMP JUMPDEST PUSH1 0x20 PUSH1 0x40 MLOAD DUP1 DUP4 SUB DUP2 PUSH0 DUP8 GAS CALL ISZERO DUP1 ISZERO PUSH2 0x653 JUMPI RETURNDATASIZE PUSH0 DUP1 RETURNDATACOPY RETURNDATASIZE PUSH0 REVERT JUMPDEST POP POP POP POP PUSH1 0x40 MLOAD RETURNDATASIZE PUSH1 0x1F NOT PUSH1 0x1F DUP3 ADD AND DUP3 ADD DUP1 PUSH1 0x40 MSTORE POP DUP2 ADD SWAP1 PUSH2 0x677 SWAP2 SWAP1 PUSH2 0x1321 JUMP JUMPDEST SWAP2 POP POP SWAP2 SWAP1 POP JUMP JUMPDEST PUSH32 0x0 DUP2 JUMP JUMPDEST PUSH32 0x0 DUP2 JUMP JUMPDEST PUSH0 PUSH2 0x6F4 PUSH32 0x0 CALLER ADDRESS DUP6 PUSH2 0xB5B JUMP JUMPDEST PUSH2 0x73F PUSH32 0x0 PUSH32 0x0 DUP5 PUSH2 0xCAD JUMP JUMPDEST PUSH0 PUSH1 0x40 MLOAD DUP1 PUSH2 0x100 ADD PUSH1 0x40 MSTORE DUP1 PUSH32 0x0 PUSH20 0xFFFFFFFFFFFFFFFFFFFFFFFFFFFFFFFFFFFFFFFF AND DUP2 MSTORE PUSH1 0x20 ADD PUSH20 0xC02AAA39B223FE8D0A0E5C4F27EAD9083C756CC2 PUSH20 0xFFFFFFFFFFFFFFFFFFFFFFFFFFFFFFFFFFFFFFFF AND DUP2 MSTORE PUSH1 0x20 ADD PUSH2 0xBB8 PUSH3 0xFFFFFF AND DUP2 MSTORE PUSH1 0x20 ADD CALLER PUSH20 0xFFFFFFFFFFFFFFFFFFFFFFFFFFFFFFFFFFFFFFFF AND DUP2 MSTORE PUSH1 0x20 ADD TIMESTAMP DUP2 MSTORE PUSH1 0x20 ADD DUP6 DUP2 MSTORE PUSH1 0x20 ADD DUP5 DUP2 MSTORE PUSH1 0x20 ADD PUSH0 PUSH20 0xFFFFFFFFFFFFFFFFFFFFFFFFFFFFFFFFFFFFFFFF AND DUP2 MSTORE POP SWAP1 POP PUSH32 0x0 PUSH20 0xFFFFFFFFFFFFFFFFFFFFFFFFFFFFFFFFFFFFFFFF AND PUSH4 0xDB3E2198 DUP3 PUSH1 0x40 MLOAD DUP3 PUSH4 0xFFFFFFFF AND PUSH1 0xE0 SHL DUP2 MSTORE PUSH1 0x4 ADD PUSH2 0x868 SWAP2 SWAP1 PUSH2 0x1524 JUMP JUMPDEST PUSH1 0x20 PUSH1 0x40 MLOAD DUP1 DUP4 SUB DUP2 PUSH0 DUP8 GAS CALL ISZERO DUP1 ISZERO PUSH2 0x884 JUMPI RETURNDATASIZE PUSH0 DUP1 RETURNDATACOPY RETURNDATASIZE PUSH0 REVERT JUMPDEST POP POP POP POP PUSH1 0x40 MLOAD RETURNDATASIZE PUSH1 0x1F NOT PUSH1 0x1F DUP3 ADD AND DUP3 ADD DUP1 PUSH1 0x40 MSTORE POP DUP2 ADD SWAP1 PUSH2 0x8A8 SWAP2 SWAP1 PUSH2 0x1321 JUMP JUMPDEST SWAP2 POP DUP3 DUP3 LT ISZERO PUSH2 0x934 JUMPI PUSH2 0x8FD PUSH32 0x0 PUSH32 0x0 PUSH0 PUSH2 0xCAD JUMP JUMPDEST PUSH2 0x933 PUSH32 0x0 CALLER DUP5 DUP7 PUSH2 0x92E SWAP2 SWAP1 PUSH2 0x1379 JUMP JUMPDEST PUSH2 0xDFC JUMP JUMPDEST JUMPDEST POP SWAP3 SWAP2 POP POP JUMP JUMPDEST PUSH32 0x0 DUP2 JUMP JUMPDEST PUSH32 0x0 DUP2 JUMP JUMPDEST PUSH0 PUSH2 0x9B0 PUSH32 0x0 CALLER ADDRESS DUP6 PUSH2 0xB5B JUMP JUMPDEST PUSH2 0x9FB PUSH32 0x0 PUSH32 0x0 DUP5 PUSH2 0xCAD JUMP JUMPDEST PUSH0 PUSH1 0x40 MLOAD DUP1 PUSH1 0xA0 ADD PUSH1 0x40 MSTORE DUP1 PUSH32 0x0 PUSH2 0xBB8 PUSH32 0x0 PUSH2 0xBB8 PUSH20 0xC02AAA39B223FE8D0A0E5C4F27EAD9083C756CC2 PUSH1 0x40 MLOAD PUSH1 0x20 ADD PUSH2 0xA78 SWAP6 SWAP5 SWAP4 SWAP3 SWAP2 SWAP1 PUSH2 0x118E JUMP JUMPDEST PUSH1 0x40 MLOAD PUSH1 0x20 DUP2 DUP4 SUB SUB DUP2 MSTORE SWAP1 PUSH1 0x40 MSTORE DUP2 MSTORE PUSH1 0x20 ADD CALLER PUSH20 0xFFFFFFFFFFFFFFFFFFFFFFFFFFFFFFFFFFFFFFFF AND DUP2 MSTORE PUSH1 0x20 ADD TIMESTAMP DUP2 MSTORE PUSH1 0x20 ADD DUP5 DUP2 MSTORE PUSH1 0x20 ADD PUSH0 DUP2 MSTORE POP SWAP1 POP PUSH32 0x0 PUSH20 0xFFFFFFFFFFFFFFFFFFFFFFFFFFFFFFFFFFFFFFFF AND PUSH4 0xC04B8D59 DUP3 PUSH1 0x40 MLOAD DUP3 PUSH4 0xFFFFFFFF AND PUSH1 0xE0 SHL DUP2 MSTORE PUSH1 0x4 ADD PUSH2 0xB13 SWAP2 SWAP1 PUSH2 0x15B1 JUMP JUMPDEST PUSH1 0x20 PUSH1 0x40 MLOAD DUP1 DUP4 SUB DUP2 PUSH0 DUP8 GAS CALL ISZERO DUP1 ISZERO PUSH2 0xB2F JUMPI RETURNDATASIZE PUSH0 DUP1 RETURNDATACOPY RETURNDATASIZE PUSH0 REVERT JUMPDEST POP POP POP POP PUSH1 0x40 MLOAD RETURNDATASIZE PUSH1 0x1F NOT PUSH1 0x1F DUP3 ADD AND DUP3 ADD DUP1 PUSH1 0x40 MSTORE POP DUP2 ADD SWAP1 PUSH2 0xB53 SWAP2 SWAP1 PUSH2 0x1321 JUMP JUMPDEST SWAP2 POP POP SWAP2 SWAP1 POP JUMP JUMPDEST PUSH0 DUP1 DUP6 PUSH20 0xFFFFFFFFFFFFFFFFFFFFFFFFFFFFFFFFFFFFFFFF AND PUSH4 0x23B872DD PUSH1 0xE0 SHL DUP7 DUP7 DUP7 PUSH1 0x40 MLOAD PUSH1 0x24 ADD PUSH2 0xB91 SWAP4 SWAP3 SWAP2 SWAP1 PUSH2 0x15D1 JUMP JUMPDEST PUSH1 0x40 MLOAD PUSH1 0x20 DUP2 DUP4 SUB SUB DUP2 MSTORE SWAP1 PUSH1 0x40 MSTORE SWAP1 PUSH28 0xFFFFFFFFFFFFFFFFFFFFFFFFFFFFFFFFFFFFFFFFFFFFFFFFFFFFFFFF NOT AND PUSH1 0x20 DUP3 ADD DUP1 MLOAD PUSH28 0xFFFFFFFFFFFFFFFFFFFFFFFFFFFFFFFFFFFFFFFFFFFFFFFFFFFFFFFF DUP4 DUP2 DUP4 AND OR DUP4 MSTORE POP POP POP POP PUSH1 0x40 MLOAD PUSH2 0xBFB SWAP2 SWAP1 PUSH2 0x1640 JUMP JUMPDEST PUSH0 PUSH1 0x40 MLOAD DUP1 DUP4 SUB DUP2 PUSH0 DUP7 GAS CALL SWAP2 POP POP RETURNDATASIZE DUP1 PUSH0 DUP2 EQ PUSH2 0xC34 JUMPI PUSH1 0x40 MLOAD SWAP2 POP PUSH1 0x1F NOT PUSH1 0x3F RETURNDATASIZE ADD AND DUP3 ADD PUSH1 0x40 MSTORE RETURNDATASIZE DUP3 MSTORE RETURNDATASIZE PUSH0 PUSH1 0x20 DUP5 ADD RETURNDATACOPY PUSH2 0xC39 JUMP JUMPDEST PUSH1 0x60 SWAP2 POP JUMPDEST POP SWAP2 POP SWAP2 POP DUP2 DUP1 ISZERO PUSH2 0xC66 JUMPI POP PUSH0 DUP2 MLOAD EQ DUP1 PUSH2 0xC65 JUMPI POP DUP1 DUP1 PUSH1 0x20 ADD SWAP1 MLOAD DUP2 ADD SWAP1 PUSH2 0xC64 SWAP2 SWAP1 PUSH2 0x168B JUMP JUMPDEST JUMPDEST JUMPDEST PUSH2 0xCA5 JUMPI PUSH1 0x40 MLOAD PUSH32 0x8C379A000000000000000000000000000000000000000000000000000000000 DUP2 MSTORE PUSH1 0x4 ADD PUSH2 0xC9C SWAP1 PUSH2 0x1710 JUMP JUMPDEST PUSH1 0x40 MLOAD DUP1 SWAP2 SUB SWAP1 REVERT JUMPDEST POP POP POP POP POP POP JUMP JUMPDEST PUSH0 DUP1 DUP5 PUSH20 0xFFFFFFFFFFFFFFFFFFFFFFFFFFFFFFFFFFFFFFFF AND PUSH4 0x95EA7B3 PUSH1 0xE0 SHL DUP6 DUP6 PUSH1 0x40 MLOAD PUSH1 0x24 ADD PUSH2 0xCE1 SWAP3 SWAP2 SWAP1 PUSH2 0x172E JUMP JUMPDEST PUSH1 0x40 MLOAD PUSH1 0x20 DUP2 DUP4 SUB SUB DUP2 MSTORE SWAP1 PUSH1 0x40 MSTORE SWAP1 PUSH28 0xFFFFFFFFFFFFFFFFFFFFFFFFFFFFFFFFFFFFFFFFFFFFFFFFFFFFFFFF NOT AND PUSH1 0x20 DUP3 ADD DUP1 MLOAD PUSH28 0xFFFFFFFFFFFFFFFFFFFFFFFFFFFFFFFFFFFFFFFFFFFFFFFFFFFFFFFF DUP4 DUP2 DUP4 AND OR DUP4 MSTORE POP POP POP POP PUSH1 0x40 MLOAD PUSH2 0xD4B SWAP2 SWAP1 PUSH2 0x1640 JUMP JUMPDEST PUSH0 PUSH1 0x40 MLOAD DUP1 DUP4 SUB DUP2 PUSH0 DUP7 GAS CALL SWAP2 POP POP RETURNDATASIZE DUP1 PUSH0 DUP2 EQ PUSH2 0xD84 JUMPI PUSH1 0x40 MLOAD SWAP2 POP PUSH1 0x1F NOT PUSH1 0x3F RETURNDATASIZE ADD AND DUP3 ADD PUSH1 0x40 MSTORE RETURNDATASIZE DUP3 MSTORE RETURNDATASIZE PUSH0 PUSH1 0x20 DUP5 ADD RETURNDATACOPY PUSH2 0xD89 JUMP JUMPDEST PUSH1 0x60 SWAP2 POP JUMPDEST POP SWAP2 POP SWAP2 POP DUP2 DUP1 ISZERO PUSH2 0xDB6 JUMPI POP PUSH0 DUP2 MLOAD EQ DUP1 PUSH2 0xDB5 JUMPI POP DUP1 DUP1 PUSH1 0x20 ADD SWAP1 MLOAD DUP2 ADD SWAP1 PUSH2 0xDB4 SWAP2 SWAP1 PUSH2 0x168B JUMP JUMPDEST JUMPDEST JUMPDEST PUSH2 0xDF5 JUMPI PUSH1 0x40 MLOAD PUSH32 0x8C379A000000000000000000000000000000000000000000000000000000000 DUP2 MSTORE PUSH1 0x4 ADD PUSH2 0xDEC SWAP1 PUSH2 0x179F JUMP JUMPDEST PUSH1 0x40 MLOAD DUP1 SWAP2 SUB SWAP1 REVERT JUMPDEST POP POP POP POP POP JUMP JUMPDEST PUSH0 DUP1 DUP5 PUSH20 0xFFFFFFFFFFFFFFFFFFFFFFFFFFFFFFFFFFFFFFFF AND PUSH4 0xA9059CBB PUSH1 0xE0 SHL DUP6 DUP6 PUSH1 0x40 MLOAD PUSH1 0x24 ADD PUSH2 0xE30 SWAP3 SWAP2 SWAP1 PUSH2 0x172E JUMP JUMPDEST PUSH1 0x40 MLOAD PUSH1 0x20 DUP2 DUP4 SUB SUB DUP2 MSTORE SWAP1 PUSH1 0x40 MSTORE SWAP1 PUSH28 0xFFFFFFFFFFFFFFFFFFFFFFFFFFFFFFFFFFFFFFFFFFFFFFFFFFFFFFFF NOT AND PUSH1 0x20 DUP3 ADD DUP1 MLOAD PUSH28 0xFFFFFFFFFFFFFFFFFFFFFFFFFFFFFFFFFFFFFFFFFFFFFFFFFFFFFFFF DUP4 DUP2 DUP4 AND OR DUP4 MSTORE POP POP POP POP PUSH1 0x40 MLOAD PUSH2 0xE9A SWAP2 SWAP1 PUSH2 0x1640 JUMP JUMPDEST PUSH0 PUSH1 0x40 MLOAD DUP1 DUP4 SUB DUP2 PUSH0 DUP7 GAS CALL SWAP2 POP POP RETURNDATASIZE DUP1 PUSH0 DUP2 EQ PUSH2 0xED3 JUMPI PUSH1 0x40 MLOAD SWAP2 POP PUSH1 0x1F NOT PUSH1 0x3F RETURNDATASIZE ADD AND DUP3 ADD PUSH1 0x40 MSTORE RETURNDATASIZE DUP3 MSTORE RETURNDATASIZE PUSH0 PUSH1 0x20 DUP5 ADD RETURNDATACOPY PUSH2 0xED8 JUMP JUMPDEST PUSH1 0x60 SWAP2 POP JUMPDEST POP SWAP2 POP SWAP2 POP DUP2 DUP1 ISZERO PUSH2 0xF05 JUMPI POP PUSH0 DUP2 MLOAD EQ DUP1 PUSH2 0xF04 JUMPI POP DUP1 DUP1 PUSH1 0x20 ADD SWAP1 MLOAD DUP2 ADD SWAP1 PUSH2 0xF03 SWAP2 SWAP1 PUSH2 0x168B JUMP JUMPDEST JUMPDEST JUMPDEST PUSH2 0xF44 JUMPI PUSH1 0x40 MLOAD PUSH32 0x8C379A000000000000000000000000000000000000000000000000000000000 DUP2 MSTORE PUSH1 0x4 ADD PUSH2 0xF3B SWAP1 PUSH2 0x1807 JUMP JUMPDEST PUSH1 0x40 MLOAD DUP1 SWAP2 SUB SWAP1 REVERT JUMPDEST POP POP POP POP POP JUMP JUMPDEST PUSH0 PUSH3 0xFFFFFF DUP3 AND SWAP1 POP SWAP2 SWAP1 POP JUMP JUMPDEST PUSH2 0xF62 DUP2 PUSH2 0xF4B JUMP JUMPDEST DUP3 MSTORE POP POP JUMP JUMPDEST PUSH0 PUSH1 0x20 DUP3 ADD SWAP1 POP PUSH2 0xF7B PUSH0 DUP4 ADD DUP5 PUSH2 0xF59 JUMP JUMPDEST SWAP3 SWAP2 POP POP JUMP JUMPDEST PUSH0 DUP1 REVERT JUMPDEST PUSH0 DUP2 SWAP1 POP SWAP2 SWAP1 POP JUMP JUMPDEST PUSH2 0xF97 DUP2 PUSH2 0xF85 JUMP JUMPDEST DUP2 EQ PUSH2 0xFA1 JUMPI PUSH0 DUP1 REVERT JUMPDEST POP JUMP JUMPDEST PUSH0 DUP2 CALLDATALOAD SWAP1 POP PUSH2 0xFB2 DUP2 PUSH2 0xF8E JUMP JUMPDEST SWAP3 SWAP2 POP POP JUMP JUMPDEST PUSH0 DUP1 PUSH1 0x40 DUP4 DUP6 SUB SLT ISZERO PUSH2 0xFCE JUMPI PUSH2 0xFCD PUSH2 0xF81 JUMP JUMPDEST JUMPDEST PUSH0 PUSH2 0xFDB DUP6 DUP3 DUP7 ADD PUSH2 0xFA4 JUMP JUMPDEST SWAP3 POP POP PUSH1 0x20 PUSH2 0xFEC DUP6 DUP3 DUP7 ADD PUSH2 0xFA4 JUMP JUMPDEST SWAP2 POP POP SWAP3 POP SWAP3 SWAP1 POP JUMP JUMPDEST PUSH2 0xFFF DUP2 PUSH2 0xF85 JUMP JUMPDEST DUP3 MSTORE POP POP JUMP JUMPDEST PUSH0 PUSH1 0x20 DUP3 ADD SWAP1 POP PUSH2 0x1018 PUSH0 DUP4 ADD DUP5 PUSH2 0xFF6 JUMP JUMPDEST SWAP3 SWAP2 POP POP JUMP JUMPDEST PUSH0 PUSH20 0xFFFFFFFFFFFFFFFFFFFFFFFFFFFFFFFFFFFFFFFF DUP3 AND SWAP1 POP SWAP2 SWAP1 POP JUMP JUMPDEST PUSH0 PUSH2 0x1047 DUP3 PUSH2 0x101E JUMP JUMPDEST SWAP1 POP SWAP2 SWAP1 POP JUMP JUMPDEST PUSH2 0x1057 DUP2 PUSH2 0x103D JUMP JUMPDEST DUP3 MSTORE POP POP JUMP JUMPDEST PUSH0 PUSH1 0x20 DUP3 ADD SWAP1 POP PUSH2 0x1070 PUSH0 DUP4 ADD DUP5 PUSH2 0x104E JUMP JUMPDEST SWAP3 SWAP2 POP POP JUMP JUMPDEST PUSH0 PUSH1 0x20 DUP3 DUP5 SUB SLT ISZERO PUSH2 0x108B JUMPI PUSH2 0x108A PUSH2 0xF81 JUMP JUMPDEST JUMPDEST PUSH0 PUSH2 0x1098 DUP5 DUP3 DUP6 ADD PUSH2 0xFA4 JUMP JUMPDEST SWAP2 POP POP SWAP3 SWAP2 POP POP JUMP JUMPDEST PUSH0 DUP2 SWAP1 POP SWAP2 SWAP1 POP JUMP JUMPDEST PUSH0 PUSH2 0x10C4 PUSH2 0x10BF PUSH2 0x10BA DUP5 PUSH2 0x101E JUMP JUMPDEST PUSH2 0x10A1 JUMP JUMPDEST PUSH2 0x101E JUMP JUMPDEST SWAP1 POP SWAP2 SWAP1 POP JUMP JUMPDEST PUSH0 PUSH2 0x10D5 DUP3 PUSH2 0x10AA JUMP JUMPDEST SWAP1 POP SWAP2 SWAP1 POP JUMP JUMPDEST PUSH0 PUSH2 0x10E6 DUP3 PUSH2 0x10CB JUMP JUMPDEST SWAP1 POP SWAP2 SWAP1 POP JUMP JUMPDEST PUSH2 0x10F6 DUP2 PUSH2 0x10DC JUMP JUMPDEST DUP3 MSTORE POP POP JUMP JUMPDEST PUSH0 PUSH1 0x20 DUP3 ADD SWAP1 POP PUSH2 0x110F PUSH0 DUP4 ADD DUP5 PUSH2 0x10ED JUMP JUMPDEST SWAP3 SWAP2 POP POP JUMP JUMPDEST PUSH0 DUP2 PUSH1 0x60 SHL SWAP1 POP SWAP2 SWAP1 POP JUMP JUMPDEST PUSH0 PUSH2 0x112B DUP3 PUSH2 0x1115 JUMP JUMPDEST SWAP1 POP SWAP2 SWAP1 POP JUMP JUMPDEST PUSH0 PUSH2 0x113C DUP3 PUSH2 0x1121 JUMP JUMPDEST SWAP1 POP SWAP2 SWAP1 POP JUMP JUMPDEST PUSH2 0x1154 PUSH2 0x114F DUP3 PUSH2 0x103D JUMP JUMPDEST PUSH2 0x1132 JUMP JUMPDEST DUP3 MSTORE POP POP JUMP JUMPDEST PUSH0 DUP2 PUSH1 0xE8 SHL SWAP1 POP SWAP2 SWAP1 POP JUMP JUMPDEST PUSH0 PUSH2 0x1170 DUP3 PUSH2 0x115A JUMP JUMPDEST SWAP1 POP SWAP2 SWAP1 POP JUMP JUMPDEST PUSH2 0x1188 PUSH2 0x1183 DUP3 PUSH2 0xF4B JUMP JUMPDEST PUSH2 0x1166 JUMP JUMPDEST DUP3 MSTORE POP POP JUMP JUMPDEST PUSH0 PUSH2 0x1199 DUP3 DUP9 PUSH2 0x1143 JUMP JUMPDEST PUSH1 0x14 DUP3 ADD SWAP2 POP PUSH2 0x11A9 DUP3 DUP8 PUSH2 0x1177 JUMP JUMPDEST PUSH1 0x3 DUP3 ADD SWAP2 POP PUSH2 0x11B9 DUP3 DUP7 PUSH2 0x1143 JUMP JUMPDEST PUSH1 0x14 DUP3 ADD SWAP2 POP PUSH2 0x11C9 DUP3 DUP6 PUSH2 0x1177 JUMP JUMPDEST PUSH1 0x3 DUP3 ADD SWAP2 POP PUSH2 0x11D9 DUP3 DUP5 PUSH2 0x1143 JUMP JUMPDEST PUSH1 0x14 DUP3 ADD SWAP2 POP DUP2 SWAP1 POP SWAP7 SWAP6 POP POP POP POP POP POP JUMP JUMPDEST PUSH0 DUP2 MLOAD SWAP1 POP SWAP2 SWAP1 POP JUMP JUMPDEST PUSH0 DUP3 DUP3 MSTORE PUSH1 0x20 DUP3 ADD SWAP1 POP SWAP3 SWAP2 POP POP JUMP JUMPDEST DUP3 DUP2 DUP4 MCOPY PUSH0 DUP4 DUP4 ADD MSTORE POP POP POP JUMP JUMPDEST PUSH0 PUSH1 0x1F NOT PUSH1 0x1F DUP4 ADD AND SWAP1 POP SWAP2 SWAP1 POP JUMP JUMPDEST PUSH0 PUSH2 0x122E DUP3 PUSH2 0x11EC JUMP JUMPDEST PUSH2 0x1238 DUP2 DUP6 PUSH2 0x11F6 JUMP JUMPDEST SWAP4 POP PUSH2 0x1248 DUP2 DUP6 PUSH1 0x20 DUP7 ADD PUSH2 0x1206 JUMP JUMPDEST PUSH2 0x1251 DUP2 PUSH2 0x1214 JUMP JUMPDEST DUP5 ADD SWAP2 POP POP SWAP3 SWAP2 POP POP JUMP JUMPDEST PUSH2 0x1265 DUP2 PUSH2 0x103D JUMP JUMPDEST DUP3 MSTORE POP POP JUMP JUMPDEST PUSH2 0x1274 DUP2 PUSH2 0xF85 JUMP JUMPDEST DUP3 MSTORE POP POP JUMP JUMPDEST PUSH0 PUSH1 0xA0 DUP4 ADD PUSH0 DUP4 ADD MLOAD DUP5 DUP3 SUB PUSH0 DUP7 ADD MSTORE PUSH2 0x1294 DUP3 DUP3 PUSH2 0x1224 JUMP JUMPDEST SWAP2 POP POP PUSH1 0x20 DUP4 ADD MLOAD PUSH2 0x12A9 PUSH1 0x20 DUP7 ADD DUP3 PUSH2 0x125C JUMP JUMPDEST POP PUSH1 0x40 DUP4 ADD MLOAD PUSH2 0x12BC PUSH1 0x40 DUP7 ADD DUP3 PUSH2 0x126B JUMP JUMPDEST POP PUSH1 0x60 DUP4 ADD MLOAD PUSH2 0x12CF PUSH1 0x60 DUP7 ADD DUP3 PUSH2 0x126B JUMP JUMPDEST POP PUSH1 0x80 DUP4 ADD MLOAD PUSH2 0x12E2 PUSH1 0x80 DUP7 ADD DUP3 PUSH2 0x126B JUMP JUMPDEST POP DUP1 SWAP2 POP POP SWAP3 SWAP2 POP POP JUMP JUMPDEST PUSH0 PUSH1 0x20 DUP3 ADD SWAP1 POP DUP2 DUP2 SUB PUSH0 DUP4 ADD MSTORE PUSH2 0x1305 DUP2 DUP5 PUSH2 0x127A JUMP JUMPDEST SWAP1 POP SWAP3 SWAP2 POP POP JUMP JUMPDEST PUSH0 DUP2 MLOAD SWAP1 POP PUSH2 0x131B DUP2 PUSH2 0xF8E JUMP JUMPDEST SWAP3 SWAP2 POP POP JUMP JUMPDEST PUSH0 PUSH1 0x20 DUP3 DUP5 SUB SLT ISZERO PUSH2 0x1336 JUMPI PUSH2 0x1335 PUSH2 0xF81 JUMP JUMPDEST JUMPDEST PUSH0 PUSH2 0x1343 DUP5 DUP3 DUP6 ADD PUSH2 0x130D JUMP JUMPDEST SWAP2 POP POP SWAP3 SWAP2 POP POP JUMP JUMPDEST PUSH32 0x4E487B7100000000000000000000000000000000000000000000000000000000 PUSH0 MSTORE PUSH1 0x11 PUSH1 0x4 MSTORE PUSH1 0x24 PUSH0 REVERT JUMPDEST PUSH0 PUSH2 0x1383 DUP3 PUSH2 0xF85 JUMP JUMPDEST SWAP2 POP PUSH2 0x138E DUP4 PUSH2 0xF85 JUMP JUMPDEST SWAP3 POP DUP3 DUP3 SUB SWAP1 POP DUP2 DUP2 GT ISZERO PUSH2 0x13A6 JUMPI PUSH2 0x13A5 PUSH2 0x134C JUMP JUMPDEST JUMPDEST SWAP3 SWAP2 POP POP JUMP JUMPDEST PUSH2 0x13B5 DUP2 PUSH2 0xF4B JUMP JUMPDEST DUP3 MSTORE POP POP JUMP JUMPDEST PUSH2 0x13C4 DUP2 PUSH2 0x101E JUMP JUMPDEST DUP3 MSTORE POP POP JUMP JUMPDEST PUSH2 0x100 DUP3 ADD PUSH0 DUP3 ADD MLOAD PUSH2 0x13DF PUSH0 DUP6 ADD DUP3 PUSH2 0x125C JUMP JUMPDEST POP PUSH1 0x20 DUP3 ADD MLOAD PUSH2 0x13F2 PUSH1 0x20 DUP6 ADD DUP3 PUSH2 0x125C JUMP JUMPDEST POP PUSH1 0x40 DUP3 ADD MLOAD PUSH2 0x1405 PUSH1 0x40 DUP6 ADD DUP3 PUSH2 0x13AC JUMP JUMPDEST POP PUSH1 0x60 DUP3 ADD MLOAD PUSH2 0x1418 PUSH1 0x60 DUP6 ADD DUP3 PUSH2 0x125C JUMP JUMPDEST POP PUSH1 0x80 DUP3 ADD MLOAD PUSH2 0x142B PUSH1 0x80 DUP6 ADD DUP3 PUSH2 0x126B JUMP JUMPDEST POP PUSH1 0xA0 DUP3 ADD MLOAD PUSH2 0x143E PUSH1 0xA0 DUP6 ADD DUP3 PUSH2 0x126B JUMP JUMPDEST POP PUSH1 0xC0 DUP3 ADD MLOAD PUSH2 0x1451 PUSH1 0xC0 DUP6 ADD DUP3 PUSH2 0x126B JUMP JUMPDEST POP PUSH1 0xE0 DUP3 ADD MLOAD PUSH2 0x1464 PUSH1 0xE0 DUP6 ADD DUP3 PUSH2 0x13BB JUMP JUMPDEST POP POP POP POP JUMP JUMPDEST PUSH0 PUSH2 0x100 DUP3 ADD SWAP1 POP PUSH2 0x147E PUSH0 DUP4 ADD DUP5 PUSH2 0x13CA JUMP JUMPDEST SWAP3 SWAP2 POP POP JUMP JUMPDEST PUSH2 0x100 DUP3 ADD PUSH0 DUP3 ADD MLOAD PUSH2 0x1499 PUSH0 DUP6 ADD DUP3 PUSH2 0x125C JUMP JUMPDEST POP PUSH1 0x20 DUP3 ADD MLOAD PUSH2 0x14AC PUSH1 0x20 DUP6 ADD DUP3 PUSH2 0x125C JUMP JUMPDEST POP PUSH1 0x40 DUP3 ADD MLOAD PUSH2 0x14BF PUSH1 0x40 DUP6 ADD DUP3 PUSH2 0x13AC JUMP JUMPDEST POP PUSH1 0x60 DUP3 ADD MLOAD PUSH2 0x14D2 PUSH1 0x60 DUP6 ADD DUP3 PUSH2 0x125C JUMP JUMPDEST POP PUSH1 0x80 DUP3 ADD MLOAD PUSH2 0x14E5 PUSH1 0x80 DUP6 ADD DUP3 PUSH2 0x126B JUMP JUMPDEST POP PUSH1 0xA0 DUP3 ADD MLOAD PUSH2 0x14F8 PUSH1 0xA0 DUP6 ADD DUP3 PUSH2 0x126B JUMP JUMPDEST POP PUSH1 0xC0 DUP3 ADD MLOAD PUSH2 0x150B PUSH1 0xC0 DUP6 ADD DUP3 PUSH2 0x126B JUMP JUMPDEST POP PUSH1 0xE0 DUP3 ADD MLOAD PUSH2 0x151E PUSH1 0xE0 DUP6 ADD DUP3 PUSH2 0x13BB JUMP JUMPDEST POP POP POP POP JUMP JUMPDEST PUSH0 PUSH2 0x100 DUP3 ADD SWAP1 POP PUSH2 0x1538 PUSH0 DUP4 ADD DUP5 PUSH2 0x1484 JUMP JUMPDEST SWAP3 SWAP2 POP POP JUMP JUMPDEST PUSH0 PUSH1 0xA0 DUP4 ADD PUSH0 DUP4 ADD MLOAD DUP5 DUP3 SUB PUSH0 DUP7 ADD MSTORE PUSH2 0x1558 DUP3 DUP3 PUSH2 0x1224 JUMP JUMPDEST SWAP2 POP POP PUSH1 0x20 DUP4 ADD MLOAD PUSH2 0x156D PUSH1 0x20 DUP7 ADD DUP3 PUSH2 0x125C JUMP JUMPDEST POP PUSH1 0x40 DUP4 ADD MLOAD PUSH2 0x1580 PUSH1 0x40 DUP7 ADD DUP3 PUSH2 0x126B JUMP JUMPDEST POP PUSH1 0x60 DUP4 ADD MLOAD PUSH2 0x1593 PUSH1 0x60 DUP7 ADD DUP3 PUSH2 0x126B JUMP JUMPDEST POP PUSH1 0x80 DUP4 ADD MLOAD PUSH2 0x15A6 PUSH1 0x80 DUP7 ADD DUP3 PUSH2 0x126B JUMP JUMPDEST POP DUP1 SWAP2 POP POP SWAP3 SWAP2 POP POP JUMP JUMPDEST PUSH0 PUSH1 0x20 DUP3 ADD SWAP1 POP DUP2 DUP2 SUB PUSH0 DUP4 ADD MSTORE PUSH2 0x15C9 DUP2 DUP5 PUSH2 0x153E JUMP JUMPDEST SWAP1 POP SWAP3 SWAP2 POP POP JUMP JUMPDEST PUSH0 PUSH1 0x60 DUP3 ADD SWAP1 POP PUSH2 0x15E4 PUSH0 DUP4 ADD DUP7 PUSH2 0x104E JUMP JUMPDEST PUSH2 0x15F1 PUSH1 0x20 DUP4 ADD DUP6 PUSH2 0x104E JUMP JUMPDEST PUSH2 0x15FE PUSH1 0x40 DUP4 ADD DUP5 PUSH2 0xFF6 JUMP JUMPDEST SWAP5 SWAP4 POP POP POP POP JUMP JUMPDEST PUSH0 DUP2 SWAP1 POP SWAP3 SWAP2 POP POP JUMP JUMPDEST PUSH0 PUSH2 0x161A DUP3 PUSH2 0x11EC JUMP JUMPDEST PUSH2 0x1624 DUP2 DUP6 PUSH2 0x1606 JUMP JUMPDEST SWAP4 POP PUSH2 0x1634 DUP2 DUP6 PUSH1 0x20 DUP7 ADD PUSH2 0x1206 JUMP JUMPDEST DUP1 DUP5 ADD SWAP2 POP POP SWAP3 SWAP2 POP POP JUMP JUMPDEST PUSH0 PUSH2 0x164B DUP3 DUP5 PUSH2 0x1610 JUMP JUMPDEST SWAP2 POP DUP2 SWAP1 POP SWAP3 SWAP2 POP POP JUMP JUMPDEST PUSH0 DUP2 ISZERO ISZERO SWAP1 POP SWAP2 SWAP1 POP JUMP JUMPDEST PUSH2 0x166A DUP2 PUSH2 0x1656 JUMP JUMPDEST DUP2 EQ PUSH2 0x1674 JUMPI PUSH0 DUP1 REVERT JUMPDEST POP JUMP JUMPDEST PUSH0 DUP2 MLOAD SWAP1 POP PUSH2 0x1685 DUP2 PUSH2 0x1661 JUMP JUMPDEST SWAP3 SWAP2 POP POP JUMP JUMPDEST PUSH0 PUSH1 0x20 DUP3 DUP5 SUB SLT ISZERO PUSH2 0x16A0 JUMPI PUSH2 0x169F PUSH2 0xF81 JUMP JUMPDEST JUMPDEST PUSH0 PUSH2 0x16AD DUP5 DUP3 DUP6 ADD PUSH2 0x1677 JUMP JUMPDEST SWAP2 POP POP SWAP3 SWAP2 POP POP JUMP JUMPDEST PUSH0 DUP3 DUP3 MSTORE PUSH1 0x20 DUP3 ADD SWAP1 POP SWAP3 SWAP2 POP POP JUMP JUMPDEST PUSH32 0x5354460000000000000000000000000000000000000000000000000000000000 PUSH0 DUP3 ADD MSTORE POP JUMP JUMPDEST PUSH0 PUSH2 0x16FA PUSH1 0x3 DUP4 PUSH2 0x16B6 JUMP JUMPDEST SWAP2 POP PUSH2 0x1705 DUP3 PUSH2 0x16C6 JUMP JUMPDEST PUSH1 0x20 DUP3 ADD SWAP1 POP SWAP2 SWAP1 POP JUMP JUMPDEST PUSH0 PUSH1 0x20 DUP3 ADD SWAP1 POP DUP2 DUP2 SUB PUSH0 DUP4 ADD MSTORE PUSH2 0x1727 DUP2 PUSH2 0x16EE JUMP JUMPDEST SWAP1 POP SWAP2 SWAP1 POP JUMP JUMPDEST PUSH0 PUSH1 0x40 DUP3 ADD SWAP1 POP PUSH2 0x1741 PUSH0 DUP4 ADD DUP6 PUSH2 0x104E JUMP JUMPDEST PUSH2 0x174E PUSH1 0x20 DUP4 ADD DUP5 PUSH2 0xFF6 JUMP JUMPDEST SWAP4 SWAP3 POP POP POP JUMP JUMPDEST PUSH32 0x5341000000000000000000000000000000000000000000000000000000000000 PUSH0 DUP3 ADD MSTORE POP JUMP JUMPDEST PUSH0 PUSH2 0x1789 PUSH1 0x2 DUP4 PUSH2 0x16B6 JUMP JUMPDEST SWAP2 POP PUSH2 0x1794 DUP3 PUSH2 0x1755 JUMP JUMPDEST PUSH1 0x20 DUP3 ADD SWAP1 POP SWAP2 SWAP1 POP JUMP JUMPDEST PUSH0 PUSH1 0x20 DUP3 ADD SWAP1 POP DUP2 DUP2 SUB PUSH0 DUP4 ADD MSTORE PUSH2 0x17B6 DUP2 PUSH2 0x177D JUMP JUMPDEST SWAP1 POP SWAP2 SWAP1 POP JUMP JUMPDEST PUSH32 0x5354000000000000000000000000000000000000000000000000000000000000 PUSH0 DUP3 ADD MSTORE POP JUMP JUMPDEST PUSH0 PUSH2 0x17F1 PUSH1 0x2 DUP4 PUSH2 0x16B6 JUMP JUMPDEST SWAP2 POP PUSH2 0x17FC DUP3 PUSH2 0x17BD JUMP JUMPDEST PUSH1 0x20 DUP3 ADD SWAP1 POP SWAP2 SWAP1 POP JUMP JUMPDEST PUSH0 PUSH1 0x20 DUP3 ADD SWAP1 POP DUP2 DUP2 SUB PUSH0 DUP4 ADD MSTORE PUSH2 0x181E DUP2 PUSH2 0x17E5 JUMP JUMPDEST SWAP1 POP SWAP2 SWAP1 POP JUMP INVALID LOG2 PUSH5 0x6970667358 0x22 SLT KECCAK256 EXTCODEHASH 0x21 PUSH32 0x4A40ACC2B912045FB4F20721D20822BEDB201E7B713C002C3943D0141564736F PUSH13 0x634300081A0033000000000000 "
				},
				"gasEstimates": {
					"creation": {
						"codeDepositCost": "1247000",
						"executionCost": "infinite",
						"totalCost": "infinite"
					},
					"external": {
						"DAI()": "infinite",
						"USDC()": "infinite",
						"USDT()": "infinite",
						"WETH9()": "418",
						"poolFee()": "332",
						"swapExactInputMultihop(uint256)": "infinite",
						"swapExactInputSingle(uint256)": "infinite",
						"swapExactOutputMultihop(uint256,uint256)": "infinite",
						"swapExactOutputSingle(uint256,uint256)": "infinite",
						"swapRouter()": "infinite"
					}
				},
				"methodIdentifiers": {
					"DAI()": "e0bab4c4",
					"USDC()": "89a30271",
					"USDT()": "c54e44eb",
					"WETH9()": "4aa4a4fc",
					"poolFee()": "089fe6aa",
					"swapExactInputMultihop(uint256)": "edd83557",
					"swapExactInputSingle(uint256)": "73bd43ad",
					"swapExactOutputMultihop(uint256,uint256)": "3b85cf6a",
					"swapExactOutputSingle(uint256,uint256)": "c4b69a18",
					"swapRouter()": "c31c9c07"
				}
			},
			"storageLayout": {
				"storage": [],
				"types": null
			},
			"userdoc": {
				"kind": "user",
				"methods": {
					"swapExactInputMultihop(uint256)": {
						"notice": "swapInputMultiplePools swaps a fixed amount of DAI for a maximum possible amount of WETH9 through an intermediary pool. For this example, we will swap DAI to USDC, then USDC to WETH9 to achieve our desired output."
					},
					"swapExactInputSingle(uint256)": {
						"notice": "swapExactInputSingle swaps a fixed amount of DAI for a maximum possible amount of WETH9 using the DAI/WETH9 0.3% pool by calling `exactInputSingle` in the swap router."
					},
					"swapExactOutputMultihop(uint256,uint256)": {
						"notice": "swapExactOutputMultihop swaps a minimum possible amount of DAI for a fixed amount of WETH through an intermediary pool. For this example, we want to swap DAI for WETH9 through a USDC pool but we specify the desired amountOut of WETH9. Notice how the path encoding is slightly different in for exact output swaps."
					},
					"swapExactOutputSingle(uint256,uint256)": {
						"notice": "swapExactOutputSingle swaps a minimum possible amount of DAI for a fixed amount of WETH."
					}
				},
				"version": 1
			}
		}
	}
}