{
	"contracts/SwapUniswap.sol": {
		"SwapUniswap": {
			"abi": [
				{
					"inputs": [
						{
							"internalType": "contract ISwapRouter",
							"name": "_swapRouter",
							"type": "address"
						},
						{
							"internalType": "contract IQuoterV2",
							"name": "_quoterv2",
							"type": "address"
						},
						{
							"internalType": "contract IUniswapV3Factory",
							"name": "_uniswapV3Factory",
							"type": "address"
						},
						{
							"internalType": "address",
							"name": "_dai",
							"type": "address"
						},
						{
							"internalType": "address",
							"name": "_usdt",
							"type": "address"
						},
						{
							"internalType": "address",
							"name": "_usdc",
							"type": "address"
						},
						{
							"internalType": "address",
							"name": "_weth",
							"type": "address"
						}
					],
					"stateMutability": "nonpayable",
					"type": "constructor"
				},
				{
					"inputs": [],
					"name": "NoAvalibleFee",
					"type": "error"
				},
				{
					"inputs": [],
					"name": "DAI",
					"outputs": [
						{
							"internalType": "address",
							"name": "",
							"type": "address"
						}
					],
					"stateMutability": "view",
					"type": "function"
				},
				{
					"inputs": [],
					"name": "USDC",
					"outputs": [
						{
							"internalType": "address",
							"name": "",
							"type": "address"
						}
					],
					"stateMutability": "view",
					"type": "function"
				},
				{
					"inputs": [],
					"name": "USDT",
					"outputs": [
						{
							"internalType": "address",
							"name": "",
							"type": "address"
						}
					],
					"stateMutability": "view",
					"type": "function"
				},
				{
					"inputs": [],
					"name": "WETH",
					"outputs": [
						{
							"internalType": "address",
							"name": "",
							"type": "address"
						}
					],
					"stateMutability": "view",
					"type": "function"
				},
				{
					"inputs": [
						{
							"internalType": "uint256",
							"name": "",
							"type": "uint256"
						}
					],
					"name": "feeTiers",
					"outputs": [
						{
							"internalType": "uint24",
							"name": "",
							"type": "uint24"
						}
					],
					"stateMutability": "view",
					"type": "function"
				},
				{
					"inputs": [
						{
							"internalType": "address",
							"name": "tokenIn",
							"type": "address"
						},
						{
							"internalType": "address",
							"name": "tokenOut",
							"type": "address"
						},
						{
							"internalType": "uint256",
							"name": "amountIn",
							"type": "uint256"
						},
						{
							"internalType": "uint24",
							"name": "poolFee",
							"type": "uint24"
						}
					],
					"name": "getAmountOutMinimum",
					"outputs": [
						{
							"internalType": "uint256",
							"name": "amountOutMinimum",
							"type": "uint256"
						},
						{
							"internalType": "uint160",
							"name": "sqrtPriceX96After",
							"type": "uint160"
						}
					],
					"stateMutability": "nonpayable",
					"type": "function"
				},
				{
					"inputs": [],
					"name": "quoterV2",
					"outputs": [
						{
							"internalType": "contract IQuoterV2",
							"name": "",
							"type": "address"
						}
					],
					"stateMutability": "view",
					"type": "function"
				},
				{
					"inputs": [],
					"name": "swapRouter",
					"outputs": [
						{
							"internalType": "contract ISwapRouter",
							"name": "",
							"type": "address"
						}
					],
					"stateMutability": "view",
					"type": "function"
				},
				{
					"inputs": [],
					"name": "uniswapV3Factory",
					"outputs": [
						{
							"internalType": "contract IUniswapV3Factory",
							"name": "",
							"type": "address"
						}
					],
					"stateMutability": "view",
					"type": "function"
				}
			],
			"devdoc": {
				"kind": "dev",
				"methods": {},
				"version": 1
			},
			"evm": {
				"assembly": "    /* \"contracts/SwapUniswap.sol\":324:6255  contract SwapUniswap {... */\n  mstore(0x40, 0x0160)\n    /* \"contracts/SwapUniswap.sol\":500:545  uint24[] public feeTiers = [500, 3000, 10000] */\n  mload(0x40)\n  dup1\n  0x60\n  add\n  0x40\n  mstore\n  dup1\n    /* \"contracts/SwapUniswap.sol\":528:531  500 */\n  0x01f4\n    /* \"contracts/SwapUniswap.sol\":500:545  uint24[] public feeTiers = [500, 3000, 10000] */\n  0xffff\n  and\n  dup2\n  mstore\n  0x20\n  add\n    /* \"contracts/SwapUniswap.sol\":533:537  3000 */\n  0x0bb8\n    /* \"contracts/SwapUniswap.sol\":500:545  uint24[] public feeTiers = [500, 3000, 10000] */\n  0xffff\n  and\n  dup2\n  mstore\n  0x20\n  add\n    /* \"contracts/SwapUniswap.sol\":539:544  10000 */\n  0x2710\n    /* \"contracts/SwapUniswap.sol\":500:545  uint24[] public feeTiers = [500, 3000, 10000] */\n  0xffff\n  and\n  dup2\n  mstore\n  pop\n  0x00\n  swap1\n  0x03\n  tag_1\n  swap3\n  swap2\n  swap1\n  tag_2\n  jump\t// in\ntag_1:\n  pop\n    /* \"contracts/SwapUniswap.sol\":804:1239  constructor(... */\n  callvalue\n  dup1\n  iszero\n  tag_3\n  jumpi\n  0x00\n  dup1\n  revert\ntag_3:\n  pop\n  mload(0x40)\n  sub(codesize, bytecodeSize)\n  dup1\n  bytecodeSize\n  dup4\n  codecopy\n  dup2\n  dup2\n  add\n  0x40\n  mstore\n  dup2\n  add\n  swap1\n  tag_4\n  swap2\n  swap1\n  tag_5\n  jump\t// in\ntag_4:\n    /* \"contracts/SwapUniswap.sol\":1052:1063  _swapRouter */\n  dup7\n    /* \"contracts/SwapUniswap.sol\":1039:1063  swapRouter = _swapRouter */\n  0xffffffffffffffffffffffffffffffffffffffff\n  and\n  0x80\n  dup2\n  0xffffffffffffffffffffffffffffffffffffffff\n  and\n  dup2\n  mstore\n  pop\n  pop\n    /* \"contracts/SwapUniswap.sol\":1085:1094  _quoterv2 */\n  dup6\n    /* \"contracts/SwapUniswap.sol\":1074:1094  quoterV2 = _quoterv2 */\n  0xffffffffffffffffffffffffffffffffffffffff\n  and\n  0xa0\n  dup2\n  0xffffffffffffffffffffffffffffffffffffffff\n  and\n  dup2\n  mstore\n  pop\n  pop\n    /* \"contracts/SwapUniswap.sol\":1124:1141  _uniswapV3Factory */\n  dup5\n    /* \"contracts/SwapUniswap.sol\":1105:1141  uniswapV3Factory = _uniswapV3Factory */\n  0xffffffffffffffffffffffffffffffffffffffff\n  and\n  0xc0\n  dup2\n  0xffffffffffffffffffffffffffffffffffffffff\n  and\n  dup2\n  mstore\n  pop\n  pop\n    /* \"contracts/SwapUniswap.sol\":1158:1162  _dai */\n  dup4\n    /* \"contracts/SwapUniswap.sol\":1152:1162  DAI = _dai */\n  0xffffffffffffffffffffffffffffffffffffffff\n  and\n  0xe0\n  dup2\n  0xffffffffffffffffffffffffffffffffffffffff\n  and\n  dup2\n  mstore\n  pop\n  pop\n    /* \"contracts/SwapUniswap.sol\":1180:1185  _usdt */\n  dup3\n    /* \"contracts/SwapUniswap.sol\":1173:1185  USDT = _usdt */\n  0xffffffffffffffffffffffffffffffffffffffff\n  and\n  0x0100\n  dup2\n  0xffffffffffffffffffffffffffffffffffffffff\n  and\n  dup2\n  mstore\n  pop\n  pop\n    /* \"contracts/SwapUniswap.sol\":1203:1208  _usdc */\n  dup2\n    /* \"contracts/SwapUniswap.sol\":1196:1208  USDC = _usdc */\n  0xffffffffffffffffffffffffffffffffffffffff\n  and\n  0x0120\n  dup2\n  0xffffffffffffffffffffffffffffffffffffffff\n  and\n  dup2\n  mstore\n  pop\n  pop\n    /* \"contracts/SwapUniswap.sol\":1226:1231  _weth */\n  dup1\n    /* \"contracts/SwapUniswap.sol\":1219:1231  WETH = _weth */\n  0xffffffffffffffffffffffffffffffffffffffff\n  and\n  0x0140\n  dup2\n  0xffffffffffffffffffffffffffffffffffffffff\n  and\n  dup2\n  mstore\n  pop\n  pop\n    /* \"contracts/SwapUniswap.sol\":804:1239  constructor(... */\n  pop\n  pop\n  pop\n  pop\n  pop\n  pop\n  pop\n    /* \"contracts/SwapUniswap.sol\":324:6255  contract SwapUniswap {... */\n  jump(tag_8)\ntag_2:\n  dup3\n  dup1\n  sload\n  dup3\n  dup3\n  sstore\n  swap1\n  0x00\n  mstore\n  keccak256(0x00, 0x20)\n  swap1\n  0x09\n  add\n  0x0a\n  swap1\n  div\n  dup2\n  add\n  swap3\n  dup3\n  iszero\n  tag_9\n  jumpi\n  swap2\n  0x20\n  mul\n  dup3\n  add\n  0x00\ntag_10:\n  dup4\n  dup3\n  gt\n  iszero\n  tag_11\n  jumpi\n  dup4\n  mload\n  dup4\n  dup3\n  0x0100\n  exp\n  dup2\n  sload\n  dup2\n  0xffffff\n  mul\n  not\n  and\n  swap1\n  dup4\n  0xffff\n  and\n  mul\n  or\n  swap1\n  sstore\n  pop\n  swap3\n  0x20\n  add\n  swap3\n  0x03\n  add\n  0x20\n  dup2\n  0x02\n  add\n  div\n  swap3\n  dup4\n  add\n  swap3\n  0x01\n  sub\n  mul\n  jump(tag_10)\ntag_11:\n  dup1\n  iszero\n  tag_12\n  jumpi\n  dup3\n  dup2\n  0x0100\n  exp\n  dup2\n  sload\n  swap1\n  0xffffff\n  mul\n  not\n  and\n  swap1\n  sstore\n  0x03\n  add\n  0x20\n  dup2\n  0x02\n  add\n  div\n  swap3\n  dup4\n  add\n  swap3\n  0x01\n  sub\n  mul\n  jump(tag_11)\ntag_12:\n  pop\ntag_9:\n  pop\n  swap1\n  pop\n  tag_13\n  swap2\n  swap1\n  tag_14\n  jump\t// in\ntag_13:\n  pop\n  swap1\n  jump\t// out\ntag_14:\ntag_15:\n  dup1\n  dup3\n  gt\n  iszero\n  tag_16\n  jumpi\n  0x00\n  dup2\n  0x00\n  swap1\n  sstore\n  pop\n  0x01\n  add\n  jump(tag_15)\ntag_16:\n  pop\n  swap1\n  jump\t// out\n    /* \"#utility.yul\":88:205   */\ntag_18:\n    /* \"#utility.yul\":197:198   */\n  0x00\n    /* \"#utility.yul\":194:195   */\n  dup1\n    /* \"#utility.yul\":187:199   */\n  revert\n    /* \"#utility.yul\":334:460   */\ntag_20:\n    /* \"#utility.yul\":371:378   */\n  0x00\n    /* \"#utility.yul\":411:453   */\n  0xffffffffffffffffffffffffffffffffffffffff\n    /* \"#utility.yul\":404:409   */\n  dup3\n    /* \"#utility.yul\":400:454   */\n  and\n    /* \"#utility.yul\":389:454   */\n  swap1\n  pop\n    /* \"#utility.yul\":334:460   */\n  swap2\n  swap1\n  pop\n  jump\t// out\n    /* \"#utility.yul\":466:562   */\ntag_21:\n    /* \"#utility.yul\":503:510   */\n  0x00\n    /* \"#utility.yul\":532:556   */\n  tag_39\n    /* \"#utility.yul\":550:555   */\n  dup3\n    /* \"#utility.yul\":532:556   */\n  tag_20\n  jump\t// in\ntag_39:\n    /* \"#utility.yul\":521:556   */\n  swap1\n  pop\n    /* \"#utility.yul\":466:562   */\n  swap2\n  swap1\n  pop\n  jump\t// out\n    /* \"#utility.yul\":568:683   */\ntag_22:\n    /* \"#utility.yul\":624:631   */\n  0x00\n    /* \"#utility.yul\":653:677   */\n  tag_41\n    /* \"#utility.yul\":671:676   */\n  dup3\n    /* \"#utility.yul\":653:677   */\n  tag_21\n  jump\t// in\ntag_41:\n    /* \"#utility.yul\":642:677   */\n  swap1\n  pop\n    /* \"#utility.yul\":568:683   */\n  swap2\n  swap1\n  pop\n  jump\t// out\n    /* \"#utility.yul\":689:849   */\ntag_23:\n    /* \"#utility.yul\":781:824   */\n  tag_43\n    /* \"#utility.yul\":818:823   */\n  dup2\n    /* \"#utility.yul\":781:824   */\n  tag_22\n  jump\t// in\ntag_43:\n    /* \"#utility.yul\":774:779   */\n  dup2\n    /* \"#utility.yul\":771:825   */\n  eq\n    /* \"#utility.yul\":761:843   */\n  tag_44\n  jumpi\n    /* \"#utility.yul\":839:840   */\n  0x00\n    /* \"#utility.yul\":836:837   */\n  dup1\n    /* \"#utility.yul\":829:841   */\n  revert\n    /* \"#utility.yul\":761:843   */\ntag_44:\n    /* \"#utility.yul\":689:849   */\n  pop\n  jump\t// out\n    /* \"#utility.yul\":855:1036   */\ntag_24:\n    /* \"#utility.yul\":931:936   */\n  0x00\n    /* \"#utility.yul\":962:968   */\n  dup2\n    /* \"#utility.yul\":956:969   */\n  mload\n    /* \"#utility.yul\":947:969   */\n  swap1\n  pop\n    /* \"#utility.yul\":978:1030   */\n  tag_46\n    /* \"#utility.yul\":1024:1029   */\n  dup2\n    /* \"#utility.yul\":978:1030   */\n  tag_23\n  jump\t// in\ntag_46:\n    /* \"#utility.yul\":855:1036   */\n  swap3\n  swap2\n  pop\n  pop\n  jump\t// out\n    /* \"#utility.yul\":1042:1155   */\ntag_25:\n    /* \"#utility.yul\":1096:1103   */\n  0x00\n    /* \"#utility.yul\":1125:1149   */\n  tag_48\n    /* \"#utility.yul\":1143:1148   */\n  dup3\n    /* \"#utility.yul\":1125:1149   */\n  tag_21\n  jump\t// in\ntag_48:\n    /* \"#utility.yul\":1114:1149   */\n  swap1\n  pop\n    /* \"#utility.yul\":1042:1155   */\n  swap2\n  swap1\n  pop\n  jump\t// out\n    /* \"#utility.yul\":1161:1317   */\ntag_26:\n    /* \"#utility.yul\":1251:1292   */\n  tag_50\n    /* \"#utility.yul\":1286:1291   */\n  dup2\n    /* \"#utility.yul\":1251:1292   */\n  tag_25\n  jump\t// in\ntag_50:\n    /* \"#utility.yul\":1244:1249   */\n  dup2\n    /* \"#utility.yul\":1241:1293   */\n  eq\n    /* \"#utility.yul\":1231:1311   */\n  tag_51\n  jumpi\n    /* \"#utility.yul\":1307:1308   */\n  0x00\n    /* \"#utility.yul\":1304:1305   */\n  dup1\n    /* \"#utility.yul\":1297:1309   */\n  revert\n    /* \"#utility.yul\":1231:1311   */\ntag_51:\n    /* \"#utility.yul\":1161:1317   */\n  pop\n  jump\t// out\n    /* \"#utility.yul\":1323:1500   */\ntag_27:\n    /* \"#utility.yul\":1397:1402   */\n  0x00\n    /* \"#utility.yul\":1428:1434   */\n  dup2\n    /* \"#utility.yul\":1422:1435   */\n  mload\n    /* \"#utility.yul\":1413:1435   */\n  swap1\n  pop\n    /* \"#utility.yul\":1444:1494   */\n  tag_53\n    /* \"#utility.yul\":1488:1493   */\n  dup2\n    /* \"#utility.yul\":1444:1494   */\n  tag_26\n  jump\t// in\ntag_53:\n    /* \"#utility.yul\":1323:1500   */\n  swap3\n  swap2\n  pop\n  pop\n  jump\t// out\n    /* \"#utility.yul\":1506:1627   */\ntag_28:\n    /* \"#utility.yul\":1568:1575   */\n  0x00\n    /* \"#utility.yul\":1597:1621   */\n  tag_55\n    /* \"#utility.yul\":1615:1620   */\n  dup3\n    /* \"#utility.yul\":1597:1621   */\n  tag_21\n  jump\t// in\ntag_55:\n    /* \"#utility.yul\":1586:1621   */\n  swap1\n  pop\n    /* \"#utility.yul\":1506:1627   */\n  swap2\n  swap1\n  pop\n  jump\t// out\n    /* \"#utility.yul\":1633:1805   */\ntag_29:\n    /* \"#utility.yul\":1731:1780   */\n  tag_57\n    /* \"#utility.yul\":1774:1779   */\n  dup2\n    /* \"#utility.yul\":1731:1780   */\n  tag_28\n  jump\t// in\ntag_57:\n    /* \"#utility.yul\":1724:1729   */\n  dup2\n    /* \"#utility.yul\":1721:1781   */\n  eq\n    /* \"#utility.yul\":1711:1799   */\n  tag_58\n  jumpi\n    /* \"#utility.yul\":1795:1796   */\n  0x00\n    /* \"#utility.yul\":1792:1793   */\n  dup1\n    /* \"#utility.yul\":1785:1797   */\n  revert\n    /* \"#utility.yul\":1711:1799   */\ntag_58:\n    /* \"#utility.yul\":1633:1805   */\n  pop\n  jump\t// out\n    /* \"#utility.yul\":1811:2004   */\ntag_30:\n    /* \"#utility.yul\":1893:1898   */\n  0x00\n    /* \"#utility.yul\":1924:1930   */\n  dup2\n    /* \"#utility.yul\":1918:1931   */\n  mload\n    /* \"#utility.yul\":1909:1931   */\n  swap1\n  pop\n    /* \"#utility.yul\":1940:1998   */\n  tag_60\n    /* \"#utility.yul\":1992:1997   */\n  dup2\n    /* \"#utility.yul\":1940:1998   */\n  tag_29\n  jump\t// in\ntag_60:\n    /* \"#utility.yul\":1811:2004   */\n  swap3\n  swap2\n  pop\n  pop\n  jump\t// out\n    /* \"#utility.yul\":2010:2132   */\ntag_31:\n    /* \"#utility.yul\":2083:2107   */\n  tag_62\n    /* \"#utility.yul\":2101:2106   */\n  dup2\n    /* \"#utility.yul\":2083:2107   */\n  tag_21\n  jump\t// in\ntag_62:\n    /* \"#utility.yul\":2076:2081   */\n  dup2\n    /* \"#utility.yul\":2073:2108   */\n  eq\n    /* \"#utility.yul\":2063:2126   */\n  tag_63\n  jumpi\n    /* \"#utility.yul\":2122:2123   */\n  0x00\n    /* \"#utility.yul\":2119:2120   */\n  dup1\n    /* \"#utility.yul\":2112:2124   */\n  revert\n    /* \"#utility.yul\":2063:2126   */\ntag_63:\n    /* \"#utility.yul\":2010:2132   */\n  pop\n  jump\t// out\n    /* \"#utility.yul\":2138:2281   */\ntag_32:\n    /* \"#utility.yul\":2195:2200   */\n  0x00\n    /* \"#utility.yul\":2226:2232   */\n  dup2\n    /* \"#utility.yul\":2220:2233   */\n  mload\n    /* \"#utility.yul\":2211:2233   */\n  swap1\n  pop\n    /* \"#utility.yul\":2242:2275   */\n  tag_65\n    /* \"#utility.yul\":2269:2274   */\n  dup2\n    /* \"#utility.yul\":2242:2275   */\n  tag_31\n  jump\t// in\ntag_65:\n    /* \"#utility.yul\":2138:2281   */\n  swap3\n  swap2\n  pop\n  pop\n  jump\t// out\n    /* \"#utility.yul\":2287:3700   */\ntag_5:\n    /* \"#utility.yul\":2472:2478   */\n  0x00\n    /* \"#utility.yul\":2480:2486   */\n  dup1\n    /* \"#utility.yul\":2488:2494   */\n  0x00\n    /* \"#utility.yul\":2496:2502   */\n  dup1\n    /* \"#utility.yul\":2504:2510   */\n  0x00\n    /* \"#utility.yul\":2512:2518   */\n  dup1\n    /* \"#utility.yul\":2520:2526   */\n  0x00\n    /* \"#utility.yul\":2569:2572   */\n  0xe0\n    /* \"#utility.yul\":2557:2566   */\n  dup9\n    /* \"#utility.yul\":2548:2555   */\n  dup11\n    /* \"#utility.yul\":2544:2567   */\n  sub\n    /* \"#utility.yul\":2540:2573   */\n  slt\n    /* \"#utility.yul\":2537:2657   */\n  iszero\n  tag_67\n  jumpi\n    /* \"#utility.yul\":2576:2655   */\n  tag_68\n  tag_18\n  jump\t// in\ntag_68:\n    /* \"#utility.yul\":2537:2657   */\ntag_67:\n    /* \"#utility.yul\":2696:2697   */\n  0x00\n    /* \"#utility.yul\":2721:2804   */\n  tag_69\n    /* \"#utility.yul\":2796:2803   */\n  dup11\n    /* \"#utility.yul\":2787:2793   */\n  dup3\n    /* \"#utility.yul\":2776:2785   */\n  dup12\n    /* \"#utility.yul\":2772:2794   */\n  add\n    /* \"#utility.yul\":2721:2804   */\n  tag_24\n  jump\t// in\ntag_69:\n    /* \"#utility.yul\":2711:2804   */\n  swap8\n  pop\n    /* \"#utility.yul\":2667:2814   */\n  pop\n    /* \"#utility.yul\":2853:2855   */\n  0x20\n    /* \"#utility.yul\":2879:2960   */\n  tag_70\n    /* \"#utility.yul\":2952:2959   */\n  dup11\n    /* \"#utility.yul\":2943:2949   */\n  dup3\n    /* \"#utility.yul\":2932:2941   */\n  dup12\n    /* \"#utility.yul\":2928:2950   */\n  add\n    /* \"#utility.yul\":2879:2960   */\n  tag_27\n  jump\t// in\ntag_70:\n    /* \"#utility.yul\":2869:2960   */\n  swap7\n  pop\n    /* \"#utility.yul\":2824:2970   */\n  pop\n    /* \"#utility.yul\":3009:3011   */\n  0x40\n    /* \"#utility.yul\":3035:3124   */\n  tag_71\n    /* \"#utility.yul\":3116:3123   */\n  dup11\n    /* \"#utility.yul\":3107:3113   */\n  dup3\n    /* \"#utility.yul\":3096:3105   */\n  dup12\n    /* \"#utility.yul\":3092:3114   */\n  add\n    /* \"#utility.yul\":3035:3124   */\n  tag_30\n  jump\t// in\ntag_71:\n    /* \"#utility.yul\":3025:3124   */\n  swap6\n  pop\n    /* \"#utility.yul\":2980:3134   */\n  pop\n    /* \"#utility.yul\":3173:3175   */\n  0x60\n    /* \"#utility.yul\":3199:3263   */\n  tag_72\n    /* \"#utility.yul\":3255:3262   */\n  dup11\n    /* \"#utility.yul\":3246:3252   */\n  dup3\n    /* \"#utility.yul\":3235:3244   */\n  dup12\n    /* \"#utility.yul\":3231:3253   */\n  add\n    /* \"#utility.yul\":3199:3263   */\n  tag_32\n  jump\t// in\ntag_72:\n    /* \"#utility.yul\":3189:3263   */\n  swap5\n  pop\n    /* \"#utility.yul\":3144:3273   */\n  pop\n    /* \"#utility.yul\":3312:3315   */\n  0x80\n    /* \"#utility.yul\":3339:3403   */\n  tag_73\n    /* \"#utility.yul\":3395:3402   */\n  dup11\n    /* \"#utility.yul\":3386:3392   */\n  dup3\n    /* \"#utility.yul\":3375:3384   */\n  dup12\n    /* \"#utility.yul\":3371:3393   */\n  add\n    /* \"#utility.yul\":3339:3403   */\n  tag_32\n  jump\t// in\ntag_73:\n    /* \"#utility.yul\":3329:3403   */\n  swap4\n  pop\n    /* \"#utility.yul\":3283:3413   */\n  pop\n    /* \"#utility.yul\":3452:3455   */\n  0xa0\n    /* \"#utility.yul\":3479:3543   */\n  tag_74\n    /* \"#utility.yul\":3535:3542   */\n  dup11\n    /* \"#utility.yul\":3526:3532   */\n  dup3\n    /* \"#utility.yul\":3515:3524   */\n  dup12\n    /* \"#utility.yul\":3511:3533   */\n  add\n    /* \"#utility.yul\":3479:3543   */\n  tag_32\n  jump\t// in\ntag_74:\n    /* \"#utility.yul\":3469:3543   */\n  swap3\n  pop\n    /* \"#utility.yul\":3423:3553   */\n  pop\n    /* \"#utility.yul\":3592:3595   */\n  0xc0\n    /* \"#utility.yul\":3619:3683   */\n  tag_75\n    /* \"#utility.yul\":3675:3682   */\n  dup11\n    /* \"#utility.yul\":3666:3672   */\n  dup3\n    /* \"#utility.yul\":3655:3664   */\n  dup12\n    /* \"#utility.yul\":3651:3673   */\n  add\n    /* \"#utility.yul\":3619:3683   */\n  tag_32\n  jump\t// in\ntag_75:\n    /* \"#utility.yul\":3609:3683   */\n  swap2\n  pop\n    /* \"#utility.yul\":3563:3693   */\n  pop\n    /* \"#utility.yul\":2287:3700   */\n  swap3\n  swap6\n  swap9\n  swap2\n  swap5\n  swap8\n  pop\n  swap3\n  swap6\n  pop\n  jump\t// out\n    /* \"contracts/SwapUniswap.sol\":324:6255  contract SwapUniswap {... */\ntag_8:\n  mload(0x80)\n  mload(0xa0)\n  mload(0xc0)\n  mload(0xe0)\n  mload(0x0100)\n  mload(0x0120)\n  mload(0x0140)\n  codecopy(0x00, dataOffset(sub_0), dataSize(sub_0))\n  0x00\n  assignImmutable(\"0xc1e6997eca44a15ccfcac0425fb78f4c2bce7304b04a0a653c647091425cdc24\")\n  0x00\n  assignImmutable(\"0xa0ff41cdac9c80113ababc7450af718333bc6f6809ffa0d29bba7653607bd291\")\n  0x00\n  assignImmutable(\"0xaf9bc89f33715a84bb6f4b24beb007723f72d3094feea5ae0f74a20d5f321e33\")\n  0x00\n  assignImmutable(\"0x74af0cf009313e3c0d92464af6a8b6afccd4848a55d5ef8dac37109dbdba36ea\")\n  0x00\n  assignImmutable(\"0x81e684302dba258ad18c3b31de9ac01448b470fcf6136d2ace7eb5c581a909a4\")\n  0x00\n  assignImmutable(\"0x3a6b057b9d48186986616a0f5b0622760f50f4bcc4f1fc92ab446a90a1025914\")\n  0x00\n  assignImmutable(\"0xd667c05f4ea0c4d90d21d40bfcf145844cbad8a35a13308e33b3fcd34757a132\")\n  return(0x00, dataSize(sub_0))\nstop\n\nsub_0: assembly {\n        /* \"contracts/SwapUniswap.sol\":324:6255  contract SwapUniswap {... */\n      mstore(0x40, 0x80)\n      callvalue\n      dup1\n      iszero\n      tag_1\n      jumpi\n      0x00\n      dup1\n      revert\n    tag_1:\n      pop\n      jumpi(tag_2, lt(calldatasize, 0x04))\n      shr(0xe0, calldataload(0x00))\n      dup1\n      0xad5c4648\n      gt\n      tag_12\n      jumpi\n      dup1\n      0xad5c4648\n      eq\n      tag_7\n      jumpi\n      dup1\n      0xc31c9c07\n      eq\n      tag_8\n      jumpi\n      dup1\n      0xc54e44eb\n      eq\n      tag_9\n      jumpi\n      dup1\n      0xe0bab4c4\n      eq\n      tag_10\n      jumpi\n      dup1\n      0xe20dccb2\n      eq\n      tag_11\n      jumpi\n      jump(tag_2)\n    tag_12:\n      dup1\n      0x230ed44a\n      eq\n      tag_3\n      jumpi\n      dup1\n      0x5b549182\n      eq\n      tag_4\n      jumpi\n      dup1\n      0x89a30271\n      eq\n      tag_5\n      jumpi\n      dup1\n      0x9a90f2ec\n      eq\n      tag_6\n      jumpi\n    tag_2:\n      0x00\n      dup1\n      revert\n        /* \"contracts/SwapUniswap.sol\":500:545  uint24[] public feeTiers = [500, 3000, 10000] */\n    tag_3:\n      tag_13\n      0x04\n      dup1\n      calldatasize\n      sub\n      dup2\n      add\n      swap1\n      tag_14\n      swap2\n      swap1\n      tag_15\n      jump\t// in\n    tag_14:\n      tag_16\n      jump\t// in\n    tag_13:\n      mload(0x40)\n      tag_17\n      swap2\n      swap1\n      tag_18\n      jump\t// in\n    tag_17:\n      mload(0x40)\n      dup1\n      swap2\n      sub\n      swap1\n      return\n        /* \"contracts/SwapUniswap.sol\":440:491  IUniswapV3Factory public immutable uniswapV3Factory */\n    tag_4:\n      tag_19\n      tag_20\n      jump\t// in\n    tag_19:\n      mload(0x40)\n      tag_21\n      swap2\n      swap1\n      tag_22\n      jump\t// in\n    tag_21:\n      mload(0x40)\n      dup1\n      swap2\n      sub\n      swap1\n      return\n        /* \"contracts/SwapUniswap.sol\":700:729  address public immutable USDC */\n    tag_5:\n      tag_23\n      tag_24\n      jump\t// in\n    tag_23:\n      mload(0x40)\n      tag_25\n      swap2\n      swap1\n      tag_26\n      jump\t// in\n    tag_25:\n      mload(0x40)\n      dup1\n      swap2\n      sub\n      swap1\n      return\n        /* \"contracts/SwapUniswap.sol\":1247:1886  function getAmountOutMinimum(... */\n    tag_6:\n      tag_27\n      0x04\n      dup1\n      calldatasize\n      sub\n      dup2\n      add\n      swap1\n      tag_28\n      swap2\n      swap1\n      tag_29\n      jump\t// in\n    tag_28:\n      tag_30\n      jump\t// in\n    tag_27:\n      mload(0x40)\n      tag_31\n      swap3\n      swap2\n      swap1\n      tag_32\n      jump\t// in\n    tag_31:\n      mload(0x40)\n      dup1\n      swap2\n      sub\n      swap1\n      return\n        /* \"contracts/SwapUniswap.sol\":736:765  address public immutable WETH */\n    tag_7:\n      tag_33\n      tag_34\n      jump\t// in\n    tag_33:\n      mload(0x40)\n      tag_35\n      swap2\n      swap1\n      tag_26\n      jump\t// in\n    tag_35:\n      mload(0x40)\n      dup1\n      swap2\n      sub\n      swap1\n      return\n        /* \"contracts/SwapUniswap.sol\":352:391  ISwapRouter public immutable swapRouter */\n    tag_8:\n      tag_36\n      tag_37\n      jump\t// in\n    tag_36:\n      mload(0x40)\n      tag_38\n      swap2\n      swap1\n      tag_39\n      jump\t// in\n    tag_38:\n      mload(0x40)\n      dup1\n      swap2\n      sub\n      swap1\n      return\n        /* \"contracts/SwapUniswap.sol\":664:693  address public immutable USDT */\n    tag_9:\n      tag_40\n      tag_41\n      jump\t// in\n    tag_40:\n      mload(0x40)\n      tag_42\n      swap2\n      swap1\n      tag_26\n      jump\t// in\n    tag_42:\n      mload(0x40)\n      dup1\n      swap2\n      sub\n      swap1\n      return\n        /* \"contracts/SwapUniswap.sol\":629:657  address public immutable DAI */\n    tag_10:\n      tag_43\n      tag_44\n      jump\t// in\n    tag_43:\n      mload(0x40)\n      tag_45\n      swap2\n      swap1\n      tag_26\n      jump\t// in\n    tag_45:\n      mload(0x40)\n      dup1\n      swap2\n      sub\n      swap1\n      return\n        /* \"contracts/SwapUniswap.sol\":398:433  IQuoterV2 public immutable quoterV2 */\n    tag_11:\n      tag_46\n      tag_47\n      jump\t// in\n    tag_46:\n      mload(0x40)\n      tag_48\n      swap2\n      swap1\n      tag_49\n      jump\t// in\n    tag_48:\n      mload(0x40)\n      dup1\n      swap2\n      sub\n      swap1\n      return\n        /* \"contracts/SwapUniswap.sol\":500:545  uint24[] public feeTiers = [500, 3000, 10000] */\n    tag_16:\n      0x00\n      dup2\n      dup2\n      sload\n      dup2\n      lt\n      tag_50\n      jumpi\n      0x00\n      dup1\n      revert\n    tag_50:\n      swap1\n      0x00\n      mstore\n      keccak256(0x00, 0x20)\n      swap1\n      0x0a\n      swap2\n      dup3\n      dup3\n      div\n      add\n      swap2\n      swap1\n      mod\n      0x03\n      mul\n      swap2\n      pop\n      sload\n      swap1\n      0x0100\n      exp\n      swap1\n      div\n      0xffffff\n      and\n      dup2\n      jump\t// out\n        /* \"contracts/SwapUniswap.sol\":440:491  IUniswapV3Factory public immutable uniswapV3Factory */\n    tag_20:\n      immutable(\"0x81e684302dba258ad18c3b31de9ac01448b470fcf6136d2ace7eb5c581a909a4\")\n      dup2\n      jump\t// out\n        /* \"contracts/SwapUniswap.sol\":700:729  address public immutable USDC */\n    tag_24:\n      immutable(\"0xa0ff41cdac9c80113ababc7450af718333bc6f6809ffa0d29bba7653607bd291\")\n      dup2\n      jump\t// out\n        /* \"contracts/SwapUniswap.sol\":1247:1886  function getAmountOutMinimum(... */\n    tag_30:\n        /* \"contracts/SwapUniswap.sol\":1404:1428  uint256 amountOutMinimum */\n      0x00\n        /* \"contracts/SwapUniswap.sol\":1430:1455  uint160 sqrtPriceX96After */\n      dup1\n        /* \"contracts/SwapUniswap.sol\":1468:1519  IQuoterV2.QuoteExactInputSingleParams memory params */\n      0x00\n        /* \"contracts/SwapUniswap.sol\":1522:1769  IQuoterV2... */\n      mload(0x40)\n      dup1\n      0xa0\n      add\n      0x40\n      mstore\n      dup1\n        /* \"contracts/SwapUniswap.sol\":1602:1609  tokenIn */\n      dup9\n        /* \"contracts/SwapUniswap.sol\":1522:1769  IQuoterV2... */\n      0xffffffffffffffffffffffffffffffffffffffff\n      and\n      dup2\n      mstore\n      0x20\n      add\n        /* \"contracts/SwapUniswap.sol\":1638:1646  tokenOut */\n      dup8\n        /* \"contracts/SwapUniswap.sol\":1522:1769  IQuoterV2... */\n      0xffffffffffffffffffffffffffffffffffffffff\n      and\n      dup2\n      mstore\n      0x20\n      add\n        /* \"contracts/SwapUniswap.sol\":1675:1683  amountIn */\n      dup7\n        /* \"contracts/SwapUniswap.sol\":1522:1769  IQuoterV2... */\n      dup2\n      mstore\n      0x20\n      add\n        /* \"contracts/SwapUniswap.sol\":1707:1714  poolFee */\n      dup6\n        /* \"contracts/SwapUniswap.sol\":1522:1769  IQuoterV2... */\n      0xffffff\n      and\n      dup2\n      mstore\n      0x20\n      add\n        /* \"contracts/SwapUniswap.sol\":1752:1753  0 */\n      0x00\n        /* \"contracts/SwapUniswap.sol\":1522:1769  IQuoterV2... */\n      0xffffffffffffffffffffffffffffffffffffffff\n      and\n      dup2\n      mstore\n      pop\n        /* \"contracts/SwapUniswap.sol\":1468:1769  IQuoterV2.QuoteExactInputSingleParams memory params = IQuoterV2... */\n      swap1\n      pop\n        /* \"contracts/SwapUniswap.sol\":1826:1834  quoterV2 */\n      immutable(\"0x3a6b057b9d48186986616a0f5b0622760f50f4bcc4f1fc92ab446a90a1025914\")\n        /* \"contracts/SwapUniswap.sol\":1826:1870  quoterV2... */\n      0xffffffffffffffffffffffffffffffffffffffff\n      and\n      0xc6a5026a\n        /* \"contracts/SwapUniswap.sol\":1871:1877  params */\n      dup3\n        /* \"contracts/SwapUniswap.sol\":1826:1878  quoterV2... */\n      mload(0x40)\n      dup3\n      0xffffffff\n      and\n      0xe0\n      shl\n      dup2\n      mstore\n      0x04\n      add\n      tag_53\n      swap2\n      swap1\n      tag_54\n      jump\t// in\n    tag_53:\n      0x80\n      mload(0x40)\n      dup1\n      dup4\n      sub\n      dup2\n      0x00\n      dup8\n      gas\n      call\n      iszero\n      dup1\n      iszero\n      tag_56\n      jumpi\n      returndatasize\n      0x00\n      dup1\n      returndatacopy\n      revert(0x00, returndatasize)\n    tag_56:\n      pop\n      pop\n      pop\n      pop\n      mload(0x40)\n      returndatasize\n      not(0x1f)\n      0x1f\n      dup3\n      add\n      and\n      dup3\n      add\n      dup1\n      0x40\n      mstore\n      pop\n      dup2\n      add\n      swap1\n      tag_57\n      swap2\n      swap1\n      tag_58\n      jump\t// in\n    tag_57:\n        /* \"contracts/SwapUniswap.sol\":1782:1878  (amountOutMinimum, sqrtPriceX96After, , ) = quoterV2... */\n      swap1\n      pop\n      pop\n      dup1\n      swap4\n      pop\n      dup2\n      swap5\n      pop\n      pop\n      pop\n        /* \"contracts/SwapUniswap.sol\":1457:1886  {... */\n      pop\n        /* \"contracts/SwapUniswap.sol\":1247:1886  function getAmountOutMinimum(... */\n      swap5\n      pop\n      swap5\n      swap3\n      pop\n      pop\n      pop\n      jump\t// out\n        /* \"contracts/SwapUniswap.sol\":736:765  address public immutable WETH */\n    tag_34:\n      immutable(\"0xc1e6997eca44a15ccfcac0425fb78f4c2bce7304b04a0a653c647091425cdc24\")\n      dup2\n      jump\t// out\n        /* \"contracts/SwapUniswap.sol\":352:391  ISwapRouter public immutable swapRouter */\n    tag_37:\n      immutable(\"0xd667c05f4ea0c4d90d21d40bfcf145844cbad8a35a13308e33b3fcd34757a132\")\n      dup2\n      jump\t// out\n        /* \"contracts/SwapUniswap.sol\":664:693  address public immutable USDT */\n    tag_41:\n      immutable(\"0xaf9bc89f33715a84bb6f4b24beb007723f72d3094feea5ae0f74a20d5f321e33\")\n      dup2\n      jump\t// out\n        /* \"contracts/SwapUniswap.sol\":629:657  address public immutable DAI */\n    tag_44:\n      immutable(\"0x74af0cf009313e3c0d92464af6a8b6afccd4848a55d5ef8dac37109dbdba36ea\")\n      dup2\n      jump\t// out\n        /* \"contracts/SwapUniswap.sol\":398:433  IQuoterV2 public immutable quoterV2 */\n    tag_47:\n      immutable(\"0x3a6b057b9d48186986616a0f5b0622760f50f4bcc4f1fc92ab446a90a1025914\")\n      dup2\n      jump\t// out\n        /* \"#utility.yul\":88:205   */\n    tag_60:\n        /* \"#utility.yul\":197:198   */\n      0x00\n        /* \"#utility.yul\":194:195   */\n      dup1\n        /* \"#utility.yul\":187:199   */\n      revert\n        /* \"#utility.yul\":334:411   */\n    tag_62:\n        /* \"#utility.yul\":371:378   */\n      0x00\n        /* \"#utility.yul\":400:405   */\n      dup2\n        /* \"#utility.yul\":389:405   */\n      swap1\n      pop\n        /* \"#utility.yul\":334:411   */\n      swap2\n      swap1\n      pop\n      jump\t// out\n        /* \"#utility.yul\":417:539   */\n    tag_63:\n        /* \"#utility.yul\":490:514   */\n      tag_102\n        /* \"#utility.yul\":508:513   */\n      dup2\n        /* \"#utility.yul\":490:514   */\n      tag_62\n      jump\t// in\n    tag_102:\n        /* \"#utility.yul\":483:488   */\n      dup2\n        /* \"#utility.yul\":480:515   */\n      eq\n        /* \"#utility.yul\":470:533   */\n      tag_103\n      jumpi\n        /* \"#utility.yul\":529:530   */\n      0x00\n        /* \"#utility.yul\":526:527   */\n      dup1\n        /* \"#utility.yul\":519:531   */\n      revert\n        /* \"#utility.yul\":470:533   */\n    tag_103:\n        /* \"#utility.yul\":417:539   */\n      pop\n      jump\t// out\n        /* \"#utility.yul\":545:684   */\n    tag_64:\n        /* \"#utility.yul\":591:596   */\n      0x00\n        /* \"#utility.yul\":629:635   */\n      dup2\n        /* \"#utility.yul\":616:636   */\n      calldataload\n        /* \"#utility.yul\":607:636   */\n      swap1\n      pop\n        /* \"#utility.yul\":645:678   */\n      tag_105\n        /* \"#utility.yul\":672:677   */\n      dup2\n        /* \"#utility.yul\":645:678   */\n      tag_63\n      jump\t// in\n    tag_105:\n        /* \"#utility.yul\":545:684   */\n      swap3\n      swap2\n      pop\n      pop\n      jump\t// out\n        /* \"#utility.yul\":690:1019   */\n    tag_15:\n        /* \"#utility.yul\":749:755   */\n      0x00\n        /* \"#utility.yul\":798:800   */\n      0x20\n        /* \"#utility.yul\":786:795   */\n      dup3\n        /* \"#utility.yul\":777:784   */\n      dup5\n        /* \"#utility.yul\":773:796   */\n      sub\n        /* \"#utility.yul\":769:801   */\n      slt\n        /* \"#utility.yul\":766:885   */\n      iszero\n      tag_107\n      jumpi\n        /* \"#utility.yul\":804:883   */\n      tag_108\n      tag_60\n      jump\t// in\n    tag_108:\n        /* \"#utility.yul\":766:885   */\n    tag_107:\n        /* \"#utility.yul\":924:925   */\n      0x00\n        /* \"#utility.yul\":949:1002   */\n      tag_109\n        /* \"#utility.yul\":994:1001   */\n      dup5\n        /* \"#utility.yul\":985:991   */\n      dup3\n        /* \"#utility.yul\":974:983   */\n      dup6\n        /* \"#utility.yul\":970:992   */\n      add\n        /* \"#utility.yul\":949:1002   */\n      tag_64\n      jump\t// in\n    tag_109:\n        /* \"#utility.yul\":939:1002   */\n      swap2\n      pop\n        /* \"#utility.yul\":895:1012   */\n      pop\n        /* \"#utility.yul\":690:1019   */\n      swap3\n      swap2\n      pop\n      pop\n      jump\t// out\n        /* \"#utility.yul\":1025:1116   */\n    tag_65:\n        /* \"#utility.yul\":1061:1068   */\n      0x00\n        /* \"#utility.yul\":1101:1109   */\n      0xffffff\n        /* \"#utility.yul\":1094:1099   */\n      dup3\n        /* \"#utility.yul\":1090:1110   */\n      and\n        /* \"#utility.yul\":1079:1110   */\n      swap1\n      pop\n        /* \"#utility.yul\":1025:1116   */\n      swap2\n      swap1\n      pop\n      jump\t// out\n        /* \"#utility.yul\":1122:1237   */\n    tag_66:\n        /* \"#utility.yul\":1207:1230   */\n      tag_112\n        /* \"#utility.yul\":1224:1229   */\n      dup2\n        /* \"#utility.yul\":1207:1230   */\n      tag_65\n      jump\t// in\n    tag_112:\n        /* \"#utility.yul\":1202:1205   */\n      dup3\n        /* \"#utility.yul\":1195:1231   */\n      mstore\n        /* \"#utility.yul\":1122:1237   */\n      pop\n      pop\n      jump\t// out\n        /* \"#utility.yul\":1243:1461   */\n    tag_18:\n        /* \"#utility.yul\":1334:1338   */\n      0x00\n        /* \"#utility.yul\":1372:1374   */\n      0x20\n        /* \"#utility.yul\":1361:1370   */\n      dup3\n        /* \"#utility.yul\":1357:1375   */\n      add\n        /* \"#utility.yul\":1349:1375   */\n      swap1\n      pop\n        /* \"#utility.yul\":1385:1454   */\n      tag_114\n        /* \"#utility.yul\":1451:1452   */\n      0x00\n        /* \"#utility.yul\":1440:1449   */\n      dup4\n        /* \"#utility.yul\":1436:1453   */\n      add\n        /* \"#utility.yul\":1427:1433   */\n      dup5\n        /* \"#utility.yul\":1385:1454   */\n      tag_66\n      jump\t// in\n    tag_114:\n        /* \"#utility.yul\":1243:1461   */\n      swap3\n      swap2\n      pop\n      pop\n      jump\t// out\n        /* \"#utility.yul\":1467:1593   */\n    tag_67:\n        /* \"#utility.yul\":1504:1511   */\n      0x00\n        /* \"#utility.yul\":1544:1586   */\n      0xffffffffffffffffffffffffffffffffffffffff\n        /* \"#utility.yul\":1537:1542   */\n      dup3\n        /* \"#utility.yul\":1533:1587   */\n      and\n        /* \"#utility.yul\":1522:1587   */\n      swap1\n      pop\n        /* \"#utility.yul\":1467:1593   */\n      swap2\n      swap1\n      pop\n      jump\t// out\n        /* \"#utility.yul\":1599:1659   */\n    tag_68:\n        /* \"#utility.yul\":1627:1630   */\n      0x00\n        /* \"#utility.yul\":1648:1653   */\n      dup2\n        /* \"#utility.yul\":1641:1653   */\n      swap1\n      pop\n        /* \"#utility.yul\":1599:1659   */\n      swap2\n      swap1\n      pop\n      jump\t// out\n        /* \"#utility.yul\":1665:1807   */\n    tag_69:\n        /* \"#utility.yul\":1715:1724   */\n      0x00\n        /* \"#utility.yul\":1748:1801   */\n      tag_118\n        /* \"#utility.yul\":1766:1800   */\n      tag_119\n        /* \"#utility.yul\":1775:1799   */\n      tag_120\n        /* \"#utility.yul\":1793:1798   */\n      dup5\n        /* \"#utility.yul\":1775:1799   */\n      tag_67\n      jump\t// in\n    tag_120:\n        /* \"#utility.yul\":1766:1800   */\n      tag_68\n      jump\t// in\n    tag_119:\n        /* \"#utility.yul\":1748:1801   */\n      tag_67\n      jump\t// in\n    tag_118:\n        /* \"#utility.yul\":1735:1801   */\n      swap1\n      pop\n        /* \"#utility.yul\":1665:1807   */\n      swap2\n      swap1\n      pop\n      jump\t// out\n        /* \"#utility.yul\":1813:1939   */\n    tag_70:\n        /* \"#utility.yul\":1863:1872   */\n      0x00\n        /* \"#utility.yul\":1896:1933   */\n      tag_122\n        /* \"#utility.yul\":1927:1932   */\n      dup3\n        /* \"#utility.yul\":1896:1933   */\n      tag_69\n      jump\t// in\n    tag_122:\n        /* \"#utility.yul\":1883:1933   */\n      swap1\n      pop\n        /* \"#utility.yul\":1813:1939   */\n      swap2\n      swap1\n      pop\n      jump\t// out\n        /* \"#utility.yul\":1945:2096   */\n    tag_71:\n        /* \"#utility.yul\":2020:2029   */\n      0x00\n        /* \"#utility.yul\":2053:2090   */\n      tag_124\n        /* \"#utility.yul\":2084:2089   */\n      dup3\n        /* \"#utility.yul\":2053:2090   */\n      tag_70\n      jump\t// in\n    tag_124:\n        /* \"#utility.yul\":2040:2090   */\n      swap1\n      pop\n        /* \"#utility.yul\":1945:2096   */\n      swap2\n      swap1\n      pop\n      jump\t// out\n        /* \"#utility.yul\":2102:2283   */\n    tag_72:\n        /* \"#utility.yul\":2214:2276   */\n      tag_126\n        /* \"#utility.yul\":2270:2275   */\n      dup2\n        /* \"#utility.yul\":2214:2276   */\n      tag_71\n      jump\t// in\n    tag_126:\n        /* \"#utility.yul\":2209:2212   */\n      dup3\n        /* \"#utility.yul\":2202:2277   */\n      mstore\n        /* \"#utility.yul\":2102:2283   */\n      pop\n      pop\n      jump\t// out\n        /* \"#utility.yul\":2289:2561   */\n    tag_22:\n        /* \"#utility.yul\":2407:2411   */\n      0x00\n        /* \"#utility.yul\":2445:2447   */\n      0x20\n        /* \"#utility.yul\":2434:2443   */\n      dup3\n        /* \"#utility.yul\":2430:2448   */\n      add\n        /* \"#utility.yul\":2422:2448   */\n      swap1\n      pop\n        /* \"#utility.yul\":2458:2554   */\n      tag_128\n        /* \"#utility.yul\":2551:2552   */\n      0x00\n        /* \"#utility.yul\":2540:2549   */\n      dup4\n        /* \"#utility.yul\":2536:2553   */\n      add\n        /* \"#utility.yul\":2527:2533   */\n      dup5\n        /* \"#utility.yul\":2458:2554   */\n      tag_72\n      jump\t// in\n    tag_128:\n        /* \"#utility.yul\":2289:2561   */\n      swap3\n      swap2\n      pop\n      pop\n      jump\t// out\n        /* \"#utility.yul\":2567:2663   */\n    tag_73:\n        /* \"#utility.yul\":2604:2611   */\n      0x00\n        /* \"#utility.yul\":2633:2657   */\n      tag_130\n        /* \"#utility.yul\":2651:2656   */\n      dup3\n        /* \"#utility.yul\":2633:2657   */\n      tag_67\n      jump\t// in\n    tag_130:\n        /* \"#utility.yul\":2622:2657   */\n      swap1\n      pop\n        /* \"#utility.yul\":2567:2663   */\n      swap2\n      swap1\n      pop\n      jump\t// out\n        /* \"#utility.yul\":2669:2787   */\n    tag_74:\n        /* \"#utility.yul\":2756:2780   */\n      tag_132\n        /* \"#utility.yul\":2774:2779   */\n      dup2\n        /* \"#utility.yul\":2756:2780   */\n      tag_73\n      jump\t// in\n    tag_132:\n        /* \"#utility.yul\":2751:2754   */\n      dup3\n        /* \"#utility.yul\":2744:2781   */\n      mstore\n        /* \"#utility.yul\":2669:2787   */\n      pop\n      pop\n      jump\t// out\n        /* \"#utility.yul\":2793:3015   */\n    tag_26:\n        /* \"#utility.yul\":2886:2890   */\n      0x00\n        /* \"#utility.yul\":2924:2926   */\n      0x20\n        /* \"#utility.yul\":2913:2922   */\n      dup3\n        /* \"#utility.yul\":2909:2927   */\n      add\n        /* \"#utility.yul\":2901:2927   */\n      swap1\n      pop\n        /* \"#utility.yul\":2937:3008   */\n      tag_134\n        /* \"#utility.yul\":3005:3006   */\n      0x00\n        /* \"#utility.yul\":2994:3003   */\n      dup4\n        /* \"#utility.yul\":2990:3007   */\n      add\n        /* \"#utility.yul\":2981:2987   */\n      dup5\n        /* \"#utility.yul\":2937:3008   */\n      tag_74\n      jump\t// in\n    tag_134:\n        /* \"#utility.yul\":2793:3015   */\n      swap3\n      swap2\n      pop\n      pop\n      jump\t// out\n        /* \"#utility.yul\":3021:3143   */\n    tag_75:\n        /* \"#utility.yul\":3094:3118   */\n      tag_136\n        /* \"#utility.yul\":3112:3117   */\n      dup2\n        /* \"#utility.yul\":3094:3118   */\n      tag_73\n      jump\t// in\n    tag_136:\n        /* \"#utility.yul\":3087:3092   */\n      dup2\n        /* \"#utility.yul\":3084:3119   */\n      eq\n        /* \"#utility.yul\":3074:3137   */\n      tag_137\n      jumpi\n        /* \"#utility.yul\":3133:3134   */\n      0x00\n        /* \"#utility.yul\":3130:3131   */\n      dup1\n        /* \"#utility.yul\":3123:3135   */\n      revert\n        /* \"#utility.yul\":3074:3137   */\n    tag_137:\n        /* \"#utility.yul\":3021:3143   */\n      pop\n      jump\t// out\n        /* \"#utility.yul\":3149:3288   */\n    tag_76:\n        /* \"#utility.yul\":3195:3200   */\n      0x00\n        /* \"#utility.yul\":3233:3239   */\n      dup2\n        /* \"#utility.yul\":3220:3240   */\n      calldataload\n        /* \"#utility.yul\":3211:3240   */\n      swap1\n      pop\n        /* \"#utility.yul\":3249:3282   */\n      tag_139\n        /* \"#utility.yul\":3276:3281   */\n      dup2\n        /* \"#utility.yul\":3249:3282   */\n      tag_75\n      jump\t// in\n    tag_139:\n        /* \"#utility.yul\":3149:3288   */\n      swap3\n      swap2\n      pop\n      pop\n      jump\t// out\n        /* \"#utility.yul\":3294:3414   */\n    tag_77:\n        /* \"#utility.yul\":3366:3389   */\n      tag_141\n        /* \"#utility.yul\":3383:3388   */\n      dup2\n        /* \"#utility.yul\":3366:3389   */\n      tag_65\n      jump\t// in\n    tag_141:\n        /* \"#utility.yul\":3359:3364   */\n      dup2\n        /* \"#utility.yul\":3356:3390   */\n      eq\n        /* \"#utility.yul\":3346:3408   */\n      tag_142\n      jumpi\n        /* \"#utility.yul\":3404:3405   */\n      0x00\n        /* \"#utility.yul\":3401:3402   */\n      dup1\n        /* \"#utility.yul\":3394:3406   */\n      revert\n        /* \"#utility.yul\":3346:3408   */\n    tag_142:\n        /* \"#utility.yul\":3294:3414   */\n      pop\n      jump\t// out\n        /* \"#utility.yul\":3420:3557   */\n    tag_78:\n        /* \"#utility.yul\":3465:3470   */\n      0x00\n        /* \"#utility.yul\":3503:3509   */\n      dup2\n        /* \"#utility.yul\":3490:3510   */\n      calldataload\n        /* \"#utility.yul\":3481:3510   */\n      swap1\n      pop\n        /* \"#utility.yul\":3519:3551   */\n      tag_144\n        /* \"#utility.yul\":3545:3550   */\n      dup2\n        /* \"#utility.yul\":3519:3551   */\n      tag_77\n      jump\t// in\n    tag_144:\n        /* \"#utility.yul\":3420:3557   */\n      swap3\n      swap2\n      pop\n      pop\n      jump\t// out\n        /* \"#utility.yul\":3563:4326   */\n    tag_29:\n        /* \"#utility.yul\":3648:3654   */\n      0x00\n        /* \"#utility.yul\":3656:3662   */\n      dup1\n        /* \"#utility.yul\":3664:3670   */\n      0x00\n        /* \"#utility.yul\":3672:3678   */\n      dup1\n        /* \"#utility.yul\":3721:3724   */\n      0x80\n        /* \"#utility.yul\":3709:3718   */\n      dup6\n        /* \"#utility.yul\":3700:3707   */\n      dup8\n        /* \"#utility.yul\":3696:3719   */\n      sub\n        /* \"#utility.yul\":3692:3725   */\n      slt\n        /* \"#utility.yul\":3689:3809   */\n      iszero\n      tag_146\n      jumpi\n        /* \"#utility.yul\":3728:3807   */\n      tag_147\n      tag_60\n      jump\t// in\n    tag_147:\n        /* \"#utility.yul\":3689:3809   */\n    tag_146:\n        /* \"#utility.yul\":3848:3849   */\n      0x00\n        /* \"#utility.yul\":3873:3926   */\n      tag_148\n        /* \"#utility.yul\":3918:3925   */\n      dup8\n        /* \"#utility.yul\":3909:3915   */\n      dup3\n        /* \"#utility.yul\":3898:3907   */\n      dup9\n        /* \"#utility.yul\":3894:3916   */\n      add\n        /* \"#utility.yul\":3873:3926   */\n      tag_76\n      jump\t// in\n    tag_148:\n        /* \"#utility.yul\":3863:3926   */\n      swap5\n      pop\n        /* \"#utility.yul\":3819:3936   */\n      pop\n        /* \"#utility.yul\":3975:3977   */\n      0x20\n        /* \"#utility.yul\":4001:4054   */\n      tag_149\n        /* \"#utility.yul\":4046:4053   */\n      dup8\n        /* \"#utility.yul\":4037:4043   */\n      dup3\n        /* \"#utility.yul\":4026:4035   */\n      dup9\n        /* \"#utility.yul\":4022:4044   */\n      add\n        /* \"#utility.yul\":4001:4054   */\n      tag_76\n      jump\t// in\n    tag_149:\n        /* \"#utility.yul\":3991:4054   */\n      swap4\n      pop\n        /* \"#utility.yul\":3946:4064   */\n      pop\n        /* \"#utility.yul\":4103:4105   */\n      0x40\n        /* \"#utility.yul\":4129:4182   */\n      tag_150\n        /* \"#utility.yul\":4174:4181   */\n      dup8\n        /* \"#utility.yul\":4165:4171   */\n      dup3\n        /* \"#utility.yul\":4154:4163   */\n      dup9\n        /* \"#utility.yul\":4150:4172   */\n      add\n        /* \"#utility.yul\":4129:4182   */\n      tag_64\n      jump\t// in\n    tag_150:\n        /* \"#utility.yul\":4119:4182   */\n      swap3\n      pop\n        /* \"#utility.yul\":4074:4192   */\n      pop\n        /* \"#utility.yul\":4231:4233   */\n      0x60\n        /* \"#utility.yul\":4257:4309   */\n      tag_151\n        /* \"#utility.yul\":4301:4308   */\n      dup8\n        /* \"#utility.yul\":4292:4298   */\n      dup3\n        /* \"#utility.yul\":4281:4290   */\n      dup9\n        /* \"#utility.yul\":4277:4299   */\n      add\n        /* \"#utility.yul\":4257:4309   */\n      tag_78\n      jump\t// in\n    tag_151:\n        /* \"#utility.yul\":4247:4309   */\n      swap2\n      pop\n        /* \"#utility.yul\":4202:4319   */\n      pop\n        /* \"#utility.yul\":3563:4326   */\n      swap3\n      swap6\n      swap2\n      swap5\n      pop\n      swap3\n      pop\n      jump\t// out\n        /* \"#utility.yul\":4332:4450   */\n    tag_79:\n        /* \"#utility.yul\":4419:4443   */\n      tag_153\n        /* \"#utility.yul\":4437:4442   */\n      dup2\n        /* \"#utility.yul\":4419:4443   */\n      tag_62\n      jump\t// in\n    tag_153:\n        /* \"#utility.yul\":4414:4417   */\n      dup3\n        /* \"#utility.yul\":4407:4444   */\n      mstore\n        /* \"#utility.yul\":4332:4450   */\n      pop\n      pop\n      jump\t// out\n        /* \"#utility.yul\":4456:4574   */\n    tag_80:\n        /* \"#utility.yul\":4543:4567   */\n      tag_155\n        /* \"#utility.yul\":4561:4566   */\n      dup2\n        /* \"#utility.yul\":4543:4567   */\n      tag_67\n      jump\t// in\n    tag_155:\n        /* \"#utility.yul\":4538:4541   */\n      dup3\n        /* \"#utility.yul\":4531:4568   */\n      mstore\n        /* \"#utility.yul\":4456:4574   */\n      pop\n      pop\n      jump\t// out\n        /* \"#utility.yul\":4580:4912   */\n    tag_32:\n        /* \"#utility.yul\":4701:4705   */\n      0x00\n        /* \"#utility.yul\":4739:4741   */\n      0x40\n        /* \"#utility.yul\":4728:4737   */\n      dup3\n        /* \"#utility.yul\":4724:4742   */\n      add\n        /* \"#utility.yul\":4716:4742   */\n      swap1\n      pop\n        /* \"#utility.yul\":4752:4823   */\n      tag_157\n        /* \"#utility.yul\":4820:4821   */\n      0x00\n        /* \"#utility.yul\":4809:4818   */\n      dup4\n        /* \"#utility.yul\":4805:4822   */\n      add\n        /* \"#utility.yul\":4796:4802   */\n      dup6\n        /* \"#utility.yul\":4752:4823   */\n      tag_79\n      jump\t// in\n    tag_157:\n        /* \"#utility.yul\":4833:4905   */\n      tag_158\n        /* \"#utility.yul\":4901:4903   */\n      0x20\n        /* \"#utility.yul\":4890:4899   */\n      dup4\n        /* \"#utility.yul\":4886:4904   */\n      add\n        /* \"#utility.yul\":4877:4883   */\n      dup5\n        /* \"#utility.yul\":4833:4905   */\n      tag_80\n      jump\t// in\n    tag_158:\n        /* \"#utility.yul\":4580:4912   */\n      swap4\n      swap3\n      pop\n      pop\n      pop\n      jump\t// out\n        /* \"#utility.yul\":4918:5063   */\n    tag_81:\n        /* \"#utility.yul\":4987:4996   */\n      0x00\n        /* \"#utility.yul\":5020:5057   */\n      tag_160\n        /* \"#utility.yul\":5051:5056   */\n      dup3\n        /* \"#utility.yul\":5020:5057   */\n      tag_70\n      jump\t// in\n    tag_160:\n        /* \"#utility.yul\":5007:5057   */\n      swap1\n      pop\n        /* \"#utility.yul\":4918:5063   */\n      swap2\n      swap1\n      pop\n      jump\t// out\n        /* \"#utility.yul\":5069:5238   */\n    tag_82:\n        /* \"#utility.yul\":5175:5231   */\n      tag_162\n        /* \"#utility.yul\":5225:5230   */\n      dup2\n        /* \"#utility.yul\":5175:5231   */\n      tag_81\n      jump\t// in\n    tag_162:\n        /* \"#utility.yul\":5170:5173   */\n      dup3\n        /* \"#utility.yul\":5163:5232   */\n      mstore\n        /* \"#utility.yul\":5069:5238   */\n      pop\n      pop\n      jump\t// out\n        /* \"#utility.yul\":5244:5504   */\n    tag_39:\n        /* \"#utility.yul\":5356:5360   */\n      0x00\n        /* \"#utility.yul\":5394:5396   */\n      0x20\n        /* \"#utility.yul\":5383:5392   */\n      dup3\n        /* \"#utility.yul\":5379:5397   */\n      add\n        /* \"#utility.yul\":5371:5397   */\n      swap1\n      pop\n        /* \"#utility.yul\":5407:5497   */\n      tag_164\n        /* \"#utility.yul\":5494:5495   */\n      0x00\n        /* \"#utility.yul\":5483:5492   */\n      dup4\n        /* \"#utility.yul\":5479:5496   */\n      add\n        /* \"#utility.yul\":5470:5476   */\n      dup5\n        /* \"#utility.yul\":5407:5497   */\n      tag_82\n      jump\t// in\n    tag_164:\n        /* \"#utility.yul\":5244:5504   */\n      swap3\n      swap2\n      pop\n      pop\n      jump\t// out\n        /* \"#utility.yul\":5510:5653   */\n    tag_83:\n        /* \"#utility.yul\":5577:5586   */\n      0x00\n        /* \"#utility.yul\":5610:5647   */\n      tag_166\n        /* \"#utility.yul\":5641:5646   */\n      dup3\n        /* \"#utility.yul\":5610:5647   */\n      tag_70\n      jump\t// in\n    tag_166:\n        /* \"#utility.yul\":5597:5647   */\n      swap1\n      pop\n        /* \"#utility.yul\":5510:5653   */\n      swap2\n      swap1\n      pop\n      jump\t// out\n        /* \"#utility.yul\":5659:5824   */\n    tag_84:\n        /* \"#utility.yul\":5763:5817   */\n      tag_168\n        /* \"#utility.yul\":5811:5816   */\n      dup2\n        /* \"#utility.yul\":5763:5817   */\n      tag_83\n      jump\t// in\n    tag_168:\n        /* \"#utility.yul\":5758:5761   */\n      dup3\n        /* \"#utility.yul\":5751:5818   */\n      mstore\n        /* \"#utility.yul\":5659:5824   */\n      pop\n      pop\n      jump\t// out\n        /* \"#utility.yul\":5830:6086   */\n    tag_49:\n        /* \"#utility.yul\":5940:5944   */\n      0x00\n        /* \"#utility.yul\":5978:5980   */\n      0x20\n        /* \"#utility.yul\":5967:5976   */\n      dup3\n        /* \"#utility.yul\":5963:5981   */\n      add\n        /* \"#utility.yul\":5955:5981   */\n      swap1\n      pop\n        /* \"#utility.yul\":5991:6079   */\n      tag_170\n        /* \"#utility.yul\":6076:6077   */\n      0x00\n        /* \"#utility.yul\":6065:6074   */\n      dup4\n        /* \"#utility.yul\":6061:6078   */\n      add\n        /* \"#utility.yul\":6052:6058   */\n      dup5\n        /* \"#utility.yul\":5991:6079   */\n      tag_84\n      jump\t// in\n    tag_170:\n        /* \"#utility.yul\":5830:6086   */\n      swap3\n      swap2\n      pop\n      pop\n      jump\t// out\n        /* \"#utility.yul\":6092:6200   */\n    tag_85:\n        /* \"#utility.yul\":6169:6193   */\n      tag_172\n        /* \"#utility.yul\":6187:6192   */\n      dup2\n        /* \"#utility.yul\":6169:6193   */\n      tag_73\n      jump\t// in\n    tag_172:\n        /* \"#utility.yul\":6164:6167   */\n      dup3\n        /* \"#utility.yul\":6157:6194   */\n      mstore\n        /* \"#utility.yul\":6092:6200   */\n      pop\n      pop\n      jump\t// out\n        /* \"#utility.yul\":6206:6314   */\n    tag_86:\n        /* \"#utility.yul\":6283:6307   */\n      tag_174\n        /* \"#utility.yul\":6301:6306   */\n      dup2\n        /* \"#utility.yul\":6283:6307   */\n      tag_62\n      jump\t// in\n    tag_174:\n        /* \"#utility.yul\":6278:6281   */\n      dup3\n        /* \"#utility.yul\":6271:6308   */\n      mstore\n        /* \"#utility.yul\":6206:6314   */\n      pop\n      pop\n      jump\t// out\n        /* \"#utility.yul\":6320:6425   */\n    tag_87:\n        /* \"#utility.yul\":6395:6418   */\n      tag_176\n        /* \"#utility.yul\":6412:6417   */\n      dup2\n        /* \"#utility.yul\":6395:6418   */\n      tag_65\n      jump\t// in\n    tag_176:\n        /* \"#utility.yul\":6390:6393   */\n      dup3\n        /* \"#utility.yul\":6383:6419   */\n      mstore\n        /* \"#utility.yul\":6320:6425   */\n      pop\n      pop\n      jump\t// out\n        /* \"#utility.yul\":6431:6539   */\n    tag_88:\n        /* \"#utility.yul\":6508:6532   */\n      tag_178\n        /* \"#utility.yul\":6526:6531   */\n      dup2\n        /* \"#utility.yul\":6508:6532   */\n      tag_67\n      jump\t// in\n    tag_178:\n        /* \"#utility.yul\":6503:6506   */\n      dup3\n        /* \"#utility.yul\":6496:6533   */\n      mstore\n        /* \"#utility.yul\":6431:6539   */\n      pop\n      pop\n      jump\t// out\n        /* \"#utility.yul\":6645:7733   */\n    tag_89:\n        /* \"#utility.yul\":6830:6834   */\n      0xa0\n        /* \"#utility.yul\":6825:6828   */\n      dup3\n        /* \"#utility.yul\":6821:6835   */\n      add\n        /* \"#utility.yul\":6920:6924   */\n      0x00\n        /* \"#utility.yul\":6913:6918   */\n      dup3\n        /* \"#utility.yul\":6909:6925   */\n      add\n        /* \"#utility.yul\":6903:6926   */\n      mload\n        /* \"#utility.yul\":6939:7002   */\n      tag_180\n        /* \"#utility.yul\":6996:7000   */\n      0x00\n        /* \"#utility.yul\":6991:6994   */\n      dup6\n        /* \"#utility.yul\":6987:7001   */\n      add\n        /* \"#utility.yul\":6973:6985   */\n      dup3\n        /* \"#utility.yul\":6939:7002   */\n      tag_85\n      jump\t// in\n    tag_180:\n        /* \"#utility.yul\":6845:7012   */\n      pop\n        /* \"#utility.yul\":7098:7102   */\n      0x20\n        /* \"#utility.yul\":7091:7096   */\n      dup3\n        /* \"#utility.yul\":7087:7103   */\n      add\n        /* \"#utility.yul\":7081:7104   */\n      mload\n        /* \"#utility.yul\":7117:7180   */\n      tag_181\n        /* \"#utility.yul\":7174:7178   */\n      0x20\n        /* \"#utility.yul\":7169:7172   */\n      dup6\n        /* \"#utility.yul\":7165:7179   */\n      add\n        /* \"#utility.yul\":7151:7163   */\n      dup3\n        /* \"#utility.yul\":7117:7180   */\n      tag_85\n      jump\t// in\n    tag_181:\n        /* \"#utility.yul\":7022:7190   */\n      pop\n        /* \"#utility.yul\":7276:7280   */\n      0x40\n        /* \"#utility.yul\":7269:7274   */\n      dup3\n        /* \"#utility.yul\":7265:7281   */\n      add\n        /* \"#utility.yul\":7259:7282   */\n      mload\n        /* \"#utility.yul\":7295:7358   */\n      tag_182\n        /* \"#utility.yul\":7352:7356   */\n      0x40\n        /* \"#utility.yul\":7347:7350   */\n      dup6\n        /* \"#utility.yul\":7343:7357   */\n      add\n        /* \"#utility.yul\":7329:7341   */\n      dup3\n        /* \"#utility.yul\":7295:7358   */\n      tag_86\n      jump\t// in\n    tag_182:\n        /* \"#utility.yul\":7200:7368   */\n      pop\n        /* \"#utility.yul\":7449:7453   */\n      0x60\n        /* \"#utility.yul\":7442:7447   */\n      dup3\n        /* \"#utility.yul\":7438:7454   */\n      add\n        /* \"#utility.yul\":7432:7455   */\n      mload\n        /* \"#utility.yul\":7468:7529   */\n      tag_183\n        /* \"#utility.yul\":7523:7527   */\n      0x60\n        /* \"#utility.yul\":7518:7521   */\n      dup6\n        /* \"#utility.yul\":7514:7528   */\n      add\n        /* \"#utility.yul\":7500:7512   */\n      dup3\n        /* \"#utility.yul\":7468:7529   */\n      tag_87\n      jump\t// in\n    tag_183:\n        /* \"#utility.yul\":7378:7539   */\n      pop\n        /* \"#utility.yul\":7634:7638   */\n      0x80\n        /* \"#utility.yul\":7627:7632   */\n      dup3\n        /* \"#utility.yul\":7623:7639   */\n      add\n        /* \"#utility.yul\":7617:7640   */\n      mload\n        /* \"#utility.yul\":7653:7716   */\n      tag_184\n        /* \"#utility.yul\":7710:7714   */\n      0x80\n        /* \"#utility.yul\":7705:7708   */\n      dup6\n        /* \"#utility.yul\":7701:7715   */\n      add\n        /* \"#utility.yul\":7687:7699   */\n      dup3\n        /* \"#utility.yul\":7653:7716   */\n      tag_88\n      jump\t// in\n    tag_184:\n        /* \"#utility.yul\":7549:7726   */\n      pop\n        /* \"#utility.yul\":6799:7733   */\n      pop\n        /* \"#utility.yul\":6645:7733   */\n      pop\n      pop\n      jump\t// out\n        /* \"#utility.yul\":7739:8138   */\n    tag_54:\n        /* \"#utility.yul\":7920:7924   */\n      0x00\n        /* \"#utility.yul\":7958:7961   */\n      0xa0\n        /* \"#utility.yul\":7947:7956   */\n      dup3\n        /* \"#utility.yul\":7943:7962   */\n      add\n        /* \"#utility.yul\":7935:7962   */\n      swap1\n      pop\n        /* \"#utility.yul\":7972:8131   */\n      tag_186\n        /* \"#utility.yul\":8128:8129   */\n      0x00\n        /* \"#utility.yul\":8117:8126   */\n      dup4\n        /* \"#utility.yul\":8113:8130   */\n      add\n        /* \"#utility.yul\":8104:8110   */\n      dup5\n        /* \"#utility.yul\":7972:8131   */\n      tag_89\n      jump\t// in\n    tag_186:\n        /* \"#utility.yul\":7739:8138   */\n      swap3\n      swap2\n      pop\n      pop\n      jump\t// out\n        /* \"#utility.yul\":8144:8287   */\n    tag_90:\n        /* \"#utility.yul\":8201:8206   */\n      0x00\n        /* \"#utility.yul\":8232:8238   */\n      dup2\n        /* \"#utility.yul\":8226:8239   */\n      mload\n        /* \"#utility.yul\":8217:8239   */\n      swap1\n      pop\n        /* \"#utility.yul\":8248:8281   */\n      tag_188\n        /* \"#utility.yul\":8275:8280   */\n      dup2\n        /* \"#utility.yul\":8248:8281   */\n      tag_63\n      jump\t// in\n    tag_188:\n        /* \"#utility.yul\":8144:8287   */\n      swap3\n      swap2\n      pop\n      pop\n      jump\t// out\n        /* \"#utility.yul\":8293:8415   */\n    tag_91:\n        /* \"#utility.yul\":8366:8390   */\n      tag_190\n        /* \"#utility.yul\":8384:8389   */\n      dup2\n        /* \"#utility.yul\":8366:8390   */\n      tag_67\n      jump\t// in\n    tag_190:\n        /* \"#utility.yul\":8359:8364   */\n      dup2\n        /* \"#utility.yul\":8356:8391   */\n      eq\n        /* \"#utility.yul\":8346:8409   */\n      tag_191\n      jumpi\n        /* \"#utility.yul\":8405:8406   */\n      0x00\n        /* \"#utility.yul\":8402:8403   */\n      dup1\n        /* \"#utility.yul\":8395:8407   */\n      revert\n        /* \"#utility.yul\":8346:8409   */\n    tag_191:\n        /* \"#utility.yul\":8293:8415   */\n      pop\n      jump\t// out\n        /* \"#utility.yul\":8421:8564   */\n    tag_92:\n        /* \"#utility.yul\":8478:8483   */\n      0x00\n        /* \"#utility.yul\":8509:8515   */\n      dup2\n        /* \"#utility.yul\":8503:8516   */\n      mload\n        /* \"#utility.yul\":8494:8516   */\n      swap1\n      pop\n        /* \"#utility.yul\":8525:8558   */\n      tag_193\n        /* \"#utility.yul\":8552:8557   */\n      dup2\n        /* \"#utility.yul\":8525:8558   */\n      tag_91\n      jump\t// in\n    tag_193:\n        /* \"#utility.yul\":8421:8564   */\n      swap3\n      swap2\n      pop\n      pop\n      jump\t// out\n        /* \"#utility.yul\":8570:8663   */\n    tag_93:\n        /* \"#utility.yul\":8606:8613   */\n      0x00\n        /* \"#utility.yul\":8646:8656   */\n      0xffffffff\n        /* \"#utility.yul\":8639:8644   */\n      dup3\n        /* \"#utility.yul\":8635:8657   */\n      and\n        /* \"#utility.yul\":8624:8657   */\n      swap1\n      pop\n        /* \"#utility.yul\":8570:8663   */\n      swap2\n      swap1\n      pop\n      jump\t// out\n        /* \"#utility.yul\":8669:8789   */\n    tag_94:\n        /* \"#utility.yul\":8741:8764   */\n      tag_196\n        /* \"#utility.yul\":8758:8763   */\n      dup2\n        /* \"#utility.yul\":8741:8764   */\n      tag_93\n      jump\t// in\n    tag_196:\n        /* \"#utility.yul\":8734:8739   */\n      dup2\n        /* \"#utility.yul\":8731:8765   */\n      eq\n        /* \"#utility.yul\":8721:8783   */\n      tag_197\n      jumpi\n        /* \"#utility.yul\":8779:8780   */\n      0x00\n        /* \"#utility.yul\":8776:8777   */\n      dup1\n        /* \"#utility.yul\":8769:8781   */\n      revert\n        /* \"#utility.yul\":8721:8783   */\n    tag_197:\n        /* \"#utility.yul\":8669:8789   */\n      pop\n      jump\t// out\n        /* \"#utility.yul\":8795:8936   */\n    tag_95:\n        /* \"#utility.yul\":8851:8856   */\n      0x00\n        /* \"#utility.yul\":8882:8888   */\n      dup2\n        /* \"#utility.yul\":8876:8889   */\n      mload\n        /* \"#utility.yul\":8867:8889   */\n      swap1\n      pop\n        /* \"#utility.yul\":8898:8930   */\n      tag_199\n        /* \"#utility.yul\":8924:8929   */\n      dup2\n        /* \"#utility.yul\":8898:8930   */\n      tag_94\n      jump\t// in\n    tag_199:\n        /* \"#utility.yul\":8795:8936   */\n      swap3\n      swap2\n      pop\n      pop\n      jump\t// out\n        /* \"#utility.yul\":8942:9760   */\n    tag_58:\n        /* \"#utility.yul\":9038:9044   */\n      0x00\n        /* \"#utility.yul\":9046:9052   */\n      dup1\n        /* \"#utility.yul\":9054:9060   */\n      0x00\n        /* \"#utility.yul\":9062:9068   */\n      dup1\n        /* \"#utility.yul\":9111:9114   */\n      0x80\n        /* \"#utility.yul\":9099:9108   */\n      dup6\n        /* \"#utility.yul\":9090:9097   */\n      dup8\n        /* \"#utility.yul\":9086:9109   */\n      sub\n        /* \"#utility.yul\":9082:9115   */\n      slt\n        /* \"#utility.yul\":9079:9199   */\n      iszero\n      tag_201\n      jumpi\n        /* \"#utility.yul\":9118:9197   */\n      tag_202\n      tag_60\n      jump\t// in\n    tag_202:\n        /* \"#utility.yul\":9079:9199   */\n    tag_201:\n        /* \"#utility.yul\":9238:9239   */\n      0x00\n        /* \"#utility.yul\":9263:9327   */\n      tag_203\n        /* \"#utility.yul\":9319:9326   */\n      dup8\n        /* \"#utility.yul\":9310:9316   */\n      dup3\n        /* \"#utility.yul\":9299:9308   */\n      dup9\n        /* \"#utility.yul\":9295:9317   */\n      add\n        /* \"#utility.yul\":9263:9327   */\n      tag_90\n      jump\t// in\n    tag_203:\n        /* \"#utility.yul\":9253:9327   */\n      swap5\n      pop\n        /* \"#utility.yul\":9209:9337   */\n      pop\n        /* \"#utility.yul\":9376:9378   */\n      0x20\n        /* \"#utility.yul\":9402:9466   */\n      tag_204\n        /* \"#utility.yul\":9458:9465   */\n      dup8\n        /* \"#utility.yul\":9449:9455   */\n      dup3\n        /* \"#utility.yul\":9438:9447   */\n      dup9\n        /* \"#utility.yul\":9434:9456   */\n      add\n        /* \"#utility.yul\":9402:9466   */\n      tag_92\n      jump\t// in\n    tag_204:\n        /* \"#utility.yul\":9392:9466   */\n      swap4\n      pop\n        /* \"#utility.yul\":9347:9476   */\n      pop\n        /* \"#utility.yul\":9515:9517   */\n      0x40\n        /* \"#utility.yul\":9541:9604   */\n      tag_205\n        /* \"#utility.yul\":9596:9603   */\n      dup8\n        /* \"#utility.yul\":9587:9593   */\n      dup3\n        /* \"#utility.yul\":9576:9585   */\n      dup9\n        /* \"#utility.yul\":9572:9594   */\n      add\n        /* \"#utility.yul\":9541:9604   */\n      tag_95\n      jump\t// in\n    tag_205:\n        /* \"#utility.yul\":9531:9604   */\n      swap3\n      pop\n        /* \"#utility.yul\":9486:9614   */\n      pop\n        /* \"#utility.yul\":9653:9655   */\n      0x60\n        /* \"#utility.yul\":9679:9743   */\n      tag_206\n        /* \"#utility.yul\":9735:9742   */\n      dup8\n        /* \"#utility.yul\":9726:9732   */\n      dup3\n        /* \"#utility.yul\":9715:9724   */\n      dup9\n        /* \"#utility.yul\":9711:9733   */\n      add\n        /* \"#utility.yul\":9679:9743   */\n      tag_90\n      jump\t// in\n    tag_206:\n        /* \"#utility.yul\":9669:9743   */\n      swap2\n      pop\n        /* \"#utility.yul\":9624:9753   */\n      pop\n        /* \"#utility.yul\":8942:9760   */\n      swap3\n      swap6\n      swap2\n      swap5\n      pop\n      swap3\n      pop\n      jump\t// out\n\n    auxdata: 0xa2646970667358221220498b3a8689c99b7a627a6d8896234a0088fca93d551cd94313d359830f423f5964736f6c634300081a0033\n}\n",
				"bytecode": {
					"linkReferences": {},
					"object": "61016060405260405180606001604052806101f461ffff168152602001610bb861ffff16815260200161271061ffff168152505f9060036100419291906101ea565b5034801561004d575f80fd5b50604051610d6b380380610d6b833981810160405281019061006f91906103bd565b8673ffffffffffffffffffffffffffffffffffffffff1660808173ffffffffffffffffffffffffffffffffffffffff16815250508573ffffffffffffffffffffffffffffffffffffffff1660a08173ffffffffffffffffffffffffffffffffffffffff16815250508473ffffffffffffffffffffffffffffffffffffffff1660c08173ffffffffffffffffffffffffffffffffffffffff16815250508373ffffffffffffffffffffffffffffffffffffffff1660e08173ffffffffffffffffffffffffffffffffffffffff16815250508273ffffffffffffffffffffffffffffffffffffffff166101008173ffffffffffffffffffffffffffffffffffffffff16815250508173ffffffffffffffffffffffffffffffffffffffff166101208173ffffffffffffffffffffffffffffffffffffffff16815250508073ffffffffffffffffffffffffffffffffffffffff166101408173ffffffffffffffffffffffffffffffffffffffff16815250505050505050505061045a565b828054828255905f5260205f2090600901600a90048101928215610282579160200282015f5b8382111561025157835183826101000a81548162ffffff021916908361ffff1602179055509260200192600301602081600201049283019260010302610210565b80156102805782816101000a81549062ffffff0219169055600301602081600201049283019260010302610251565b505b50905061028f9190610293565b5090565b5b808211156102aa575f815f905550600101610294565b5090565b5f80fd5b5f73ffffffffffffffffffffffffffffffffffffffff82169050919050565b5f6102db826102b2565b9050919050565b5f6102ec826102d1565b9050919050565b6102fc816102e2565b8114610306575f80fd5b50565b5f81519050610317816102f3565b92915050565b5f610327826102d1565b9050919050565b6103378161031d565b8114610341575f80fd5b50565b5f815190506103528161032e565b92915050565b5f610362826102d1565b9050919050565b61037281610358565b811461037c575f80fd5b50565b5f8151905061038d81610369565b92915050565b61039c816102d1565b81146103a6575f80fd5b50565b5f815190506103b781610393565b92915050565b5f805f805f805f60e0888a0312156103d8576103d76102ae565b5b5f6103e58a828b01610309565b97505060206103f68a828b01610344565b96505060406104078a828b0161037f565b95505060606104188a828b016103a9565b94505060806104298a828b016103a9565b93505060a061043a8a828b016103a9565b92505060c061044b8a828b016103a9565b91505092959891949750929550565b60805160a05160c05160e0516101005161012051610140516108b96104b25f395f61036801525f61022301525f6103b001525f6103d401525f6101ff01525f81816102ba01526103f801525f61038c01526108b95ff3fe608060405234801561000f575f80fd5b5060043610610091575f3560e01c8063ad5c464811610064578063ad5c464814610132578063c31c9c0714610150578063c54e44eb1461016e578063e0bab4c41461018c578063e20dccb2146101aa57610091565b8063230ed44a146100955780635b549182146100c557806389a30271146100e35780639a90f2ec14610101575b5f80fd5b6100af60048036038101906100aa9190610451565b6101c8565b6040516100bc9190610499565b60405180910390f35b6100cd6101fd565b6040516100da919061052c565b60405180910390f35b6100eb610221565b6040516100f89190610565565b60405180910390f35b61011b600480360381019061011691906105d2565b610245565b604051610129929190610654565b60405180910390f35b61013a610366565b6040516101479190610565565b60405180910390f35b61015861038a565b604051610165919061069b565b60405180910390f35b6101766103ae565b6040516101839190610565565b60405180910390f35b6101946103d2565b6040516101a19190610565565b60405180910390f35b6101b26103f6565b6040516101bf91906106d4565b60405180910390f35b5f81815481106101d6575f80fd5b905f5260205f2090600a9182820401919006600302915054906101000a900462ffffff1681565b7f000000000000000000000000000000000000000000000000000000000000000081565b7f000000000000000000000000000000000000000000000000000000000000000081565b5f805f6040518060a001604052808873ffffffffffffffffffffffffffffffffffffffff1681526020018773ffffffffffffffffffffffffffffffffffffffff1681526020018681526020018562ffffff1681526020015f73ffffffffffffffffffffffffffffffffffffffff1681525090507f000000000000000000000000000000000000000000000000000000000000000073ffffffffffffffffffffffffffffffffffffffff1663c6a5026a826040518263ffffffff1660e01b8152600401610311919061078f565b6080604051808303815f875af115801561032d573d5f803e3d5ffd5b505050506040513d601f19601f82011682018060405250810190610351919061081f565b90505080935081945050505094509492505050565b7f000000000000000000000000000000000000000000000000000000000000000081565b7f000000000000000000000000000000000000000000000000000000000000000081565b7f000000000000000000000000000000000000000000000000000000000000000081565b7f000000000000000000000000000000000000000000000000000000000000000081565b7f000000000000000000000000000000000000000000000000000000000000000081565b5f80fd5b5f819050919050565b6104308161041e565b811461043a575f80fd5b50565b5f8135905061044b81610427565b92915050565b5f602082840312156104665761046561041a565b5b5f6104738482850161043d565b91505092915050565b5f62ffffff82169050919050565b6104938161047c565b82525050565b5f6020820190506104ac5f83018461048a565b92915050565b5f73ffffffffffffffffffffffffffffffffffffffff82169050919050565b5f819050919050565b5f6104f46104ef6104ea846104b2565b6104d1565b6104b2565b9050919050565b5f610505826104da565b9050919050565b5f610516826104fb565b9050919050565b6105268161050c565b82525050565b5f60208201905061053f5f83018461051d565b92915050565b5f61054f826104b2565b9050919050565b61055f81610545565b82525050565b5f6020820190506105785f830184610556565b92915050565b61058781610545565b8114610591575f80fd5b50565b5f813590506105a28161057e565b92915050565b6105b18161047c565b81146105bb575f80fd5b50565b5f813590506105cc816105a8565b92915050565b5f805f80608085870312156105ea576105e961041a565b5b5f6105f787828801610594565b945050602061060887828801610594565b93505060406106198782880161043d565b925050606061062a878288016105be565b91505092959194509250565b61063f8161041e565b82525050565b61064e816104b2565b82525050565b5f6040820190506106675f830185610636565b6106746020830184610645565b9392505050565b5f610685826104fb565b9050919050565b6106958161067b565b82525050565b5f6020820190506106ae5f83018461068c565b92915050565b5f6106be826104fb565b9050919050565b6106ce816106b4565b82525050565b5f6020820190506106e75f8301846106c5565b92915050565b6106f681610545565b82525050565b6107058161041e565b82525050565b6107148161047c565b82525050565b610723816104b2565b82525050565b60a082015f82015161073d5f8501826106ed565b50602082015161075060208501826106ed565b50604082015161076360408501826106fc565b506060820151610776606085018261070b565b506080820151610789608085018261071a565b50505050565b5f60a0820190506107a25f830184610729565b92915050565b5f815190506107b681610427565b92915050565b6107c5816104b2565b81146107cf575f80fd5b50565b5f815190506107e0816107bc565b92915050565b5f63ffffffff82169050919050565b6107fe816107e6565b8114610808575f80fd5b50565b5f81519050610819816107f5565b92915050565b5f805f80608085870312156108375761083661041a565b5b5f610844878288016107a8565b9450506020610855878288016107d2565b93505060406108668782880161080b565b9250506060610877878288016107a8565b9150509295919450925056fea2646970667358221220498b3a8689c99b7a627a6d8896234a0088fca93d551cd94313d359830f423f5964736f6c634300081a0033",
					"opcodes": "PUSH2 0x160 PUSH1 0x40 MSTORE PUSH1 0x40 MLOAD DUP1 PUSH1 0x60 ADD PUSH1 0x40 MSTORE DUP1 PUSH2 0x1F4 PUSH2 0xFFFF AND DUP2 MSTORE PUSH1 0x20 ADD PUSH2 0xBB8 PUSH2 0xFFFF AND DUP2 MSTORE PUSH1 0x20 ADD PUSH2 0x2710 PUSH2 0xFFFF AND DUP2 MSTORE POP PUSH0 SWAP1 PUSH1 0x3 PUSH2 0x41 SWAP3 SWAP2 SWAP1 PUSH2 0x1EA JUMP JUMPDEST POP CALLVALUE DUP1 ISZERO PUSH2 0x4D JUMPI PUSH0 DUP1 REVERT JUMPDEST POP PUSH1 0x40 MLOAD PUSH2 0xD6B CODESIZE SUB DUP1 PUSH2 0xD6B DUP4 CODECOPY DUP2 DUP2 ADD PUSH1 0x40 MSTORE DUP2 ADD SWAP1 PUSH2 0x6F SWAP2 SWAP1 PUSH2 0x3BD JUMP JUMPDEST DUP7 PUSH20 0xFFFFFFFFFFFFFFFFFFFFFFFFFFFFFFFFFFFFFFFF AND PUSH1 0x80 DUP2 PUSH20 0xFFFFFFFFFFFFFFFFFFFFFFFFFFFFFFFFFFFFFFFF AND DUP2 MSTORE POP POP DUP6 PUSH20 0xFFFFFFFFFFFFFFFFFFFFFFFFFFFFFFFFFFFFFFFF AND PUSH1 0xA0 DUP2 PUSH20 0xFFFFFFFFFFFFFFFFFFFFFFFFFFFFFFFFFFFFFFFF AND DUP2 MSTORE POP POP DUP5 PUSH20 0xFFFFFFFFFFFFFFFFFFFFFFFFFFFFFFFFFFFFFFFF AND PUSH1 0xC0 DUP2 PUSH20 0xFFFFFFFFFFFFFFFFFFFFFFFFFFFFFFFFFFFFFFFF AND DUP2 MSTORE POP POP DUP4 PUSH20 0xFFFFFFFFFFFFFFFFFFFFFFFFFFFFFFFFFFFFFFFF AND PUSH1 0xE0 DUP2 PUSH20 0xFFFFFFFFFFFFFFFFFFFFFFFFFFFFFFFFFFFFFFFF AND DUP2 MSTORE POP POP DUP3 PUSH20 0xFFFFFFFFFFFFFFFFFFFFFFFFFFFFFFFFFFFFFFFF AND PUSH2 0x100 DUP2 PUSH20 0xFFFFFFFFFFFFFFFFFFFFFFFFFFFFFFFFFFFFFFFF AND DUP2 MSTORE POP POP DUP2 PUSH20 0xFFFFFFFFFFFFFFFFFFFFFFFFFFFFFFFFFFFFFFFF AND PUSH2 0x120 DUP2 PUSH20 0xFFFFFFFFFFFFFFFFFFFFFFFFFFFFFFFFFFFFFFFF AND DUP2 MSTORE POP POP DUP1 PUSH20 0xFFFFFFFFFFFFFFFFFFFFFFFFFFFFFFFFFFFFFFFF AND PUSH2 0x140 DUP2 PUSH20 0xFFFFFFFFFFFFFFFFFFFFFFFFFFFFFFFFFFFFFFFF AND DUP2 MSTORE POP POP POP POP POP POP POP POP POP PUSH2 0x45A JUMP JUMPDEST DUP3 DUP1 SLOAD DUP3 DUP3 SSTORE SWAP1 PUSH0 MSTORE PUSH1 0x20 PUSH0 KECCAK256 SWAP1 PUSH1 0x9 ADD PUSH1 0xA SWAP1 DIV DUP2 ADD SWAP3 DUP3 ISZERO PUSH2 0x282 JUMPI SWAP2 PUSH1 0x20 MUL DUP3 ADD PUSH0 JUMPDEST DUP4 DUP3 GT ISZERO PUSH2 0x251 JUMPI DUP4 MLOAD DUP4 DUP3 PUSH2 0x100 EXP DUP2 SLOAD DUP2 PUSH3 0xFFFFFF MUL NOT AND SWAP1 DUP4 PUSH2 0xFFFF AND MUL OR SWAP1 SSTORE POP SWAP3 PUSH1 0x20 ADD SWAP3 PUSH1 0x3 ADD PUSH1 0x20 DUP2 PUSH1 0x2 ADD DIV SWAP3 DUP4 ADD SWAP3 PUSH1 0x1 SUB MUL PUSH2 0x210 JUMP JUMPDEST DUP1 ISZERO PUSH2 0x280 JUMPI DUP3 DUP2 PUSH2 0x100 EXP DUP2 SLOAD SWAP1 PUSH3 0xFFFFFF MUL NOT AND SWAP1 SSTORE PUSH1 0x3 ADD PUSH1 0x20 DUP2 PUSH1 0x2 ADD DIV SWAP3 DUP4 ADD SWAP3 PUSH1 0x1 SUB MUL PUSH2 0x251 JUMP JUMPDEST POP JUMPDEST POP SWAP1 POP PUSH2 0x28F SWAP2 SWAP1 PUSH2 0x293 JUMP JUMPDEST POP SWAP1 JUMP JUMPDEST JUMPDEST DUP1 DUP3 GT ISZERO PUSH2 0x2AA JUMPI PUSH0 DUP2 PUSH0 SWAP1 SSTORE POP PUSH1 0x1 ADD PUSH2 0x294 JUMP JUMPDEST POP SWAP1 JUMP JUMPDEST PUSH0 DUP1 REVERT JUMPDEST PUSH0 PUSH20 0xFFFFFFFFFFFFFFFFFFFFFFFFFFFFFFFFFFFFFFFF DUP3 AND SWAP1 POP SWAP2 SWAP1 POP JUMP JUMPDEST PUSH0 PUSH2 0x2DB DUP3 PUSH2 0x2B2 JUMP JUMPDEST SWAP1 POP SWAP2 SWAP1 POP JUMP JUMPDEST PUSH0 PUSH2 0x2EC DUP3 PUSH2 0x2D1 JUMP JUMPDEST SWAP1 POP SWAP2 SWAP1 POP JUMP JUMPDEST PUSH2 0x2FC DUP2 PUSH2 0x2E2 JUMP JUMPDEST DUP2 EQ PUSH2 0x306 JUMPI PUSH0 DUP1 REVERT JUMPDEST POP JUMP JUMPDEST PUSH0 DUP2 MLOAD SWAP1 POP PUSH2 0x317 DUP2 PUSH2 0x2F3 JUMP JUMPDEST SWAP3 SWAP2 POP POP JUMP JUMPDEST PUSH0 PUSH2 0x327 DUP3 PUSH2 0x2D1 JUMP JUMPDEST SWAP1 POP SWAP2 SWAP1 POP JUMP JUMPDEST PUSH2 0x337 DUP2 PUSH2 0x31D JUMP JUMPDEST DUP2 EQ PUSH2 0x341 JUMPI PUSH0 DUP1 REVERT JUMPDEST POP JUMP JUMPDEST PUSH0 DUP2 MLOAD SWAP1 POP PUSH2 0x352 DUP2 PUSH2 0x32E JUMP JUMPDEST SWAP3 SWAP2 POP POP JUMP JUMPDEST PUSH0 PUSH2 0x362 DUP3 PUSH2 0x2D1 JUMP JUMPDEST SWAP1 POP SWAP2 SWAP1 POP JUMP JUMPDEST PUSH2 0x372 DUP2 PUSH2 0x358 JUMP JUMPDEST DUP2 EQ PUSH2 0x37C JUMPI PUSH0 DUP1 REVERT JUMPDEST POP JUMP JUMPDEST PUSH0 DUP2 MLOAD SWAP1 POP PUSH2 0x38D DUP2 PUSH2 0x369 JUMP JUMPDEST SWAP3 SWAP2 POP POP JUMP JUMPDEST PUSH2 0x39C DUP2 PUSH2 0x2D1 JUMP JUMPDEST DUP2 EQ PUSH2 0x3A6 JUMPI PUSH0 DUP1 REVERT JUMPDEST POP JUMP JUMPDEST PUSH0 DUP2 MLOAD SWAP1 POP PUSH2 0x3B7 DUP2 PUSH2 0x393 JUMP JUMPDEST SWAP3 SWAP2 POP POP JUMP JUMPDEST PUSH0 DUP1 PUSH0 DUP1 PUSH0 DUP1 PUSH0 PUSH1 0xE0 DUP9 DUP11 SUB SLT ISZERO PUSH2 0x3D8 JUMPI PUSH2 0x3D7 PUSH2 0x2AE JUMP JUMPDEST JUMPDEST PUSH0 PUSH2 0x3E5 DUP11 DUP3 DUP12 ADD PUSH2 0x309 JUMP JUMPDEST SWAP8 POP POP PUSH1 0x20 PUSH2 0x3F6 DUP11 DUP3 DUP12 ADD PUSH2 0x344 JUMP JUMPDEST SWAP7 POP POP PUSH1 0x40 PUSH2 0x407 DUP11 DUP3 DUP12 ADD PUSH2 0x37F JUMP JUMPDEST SWAP6 POP POP PUSH1 0x60 PUSH2 0x418 DUP11 DUP3 DUP12 ADD PUSH2 0x3A9 JUMP JUMPDEST SWAP5 POP POP PUSH1 0x80 PUSH2 0x429 DUP11 DUP3 DUP12 ADD PUSH2 0x3A9 JUMP JUMPDEST SWAP4 POP POP PUSH1 0xA0 PUSH2 0x43A DUP11 DUP3 DUP12 ADD PUSH2 0x3A9 JUMP JUMPDEST SWAP3 POP POP PUSH1 0xC0 PUSH2 0x44B DUP11 DUP3 DUP12 ADD PUSH2 0x3A9 JUMP JUMPDEST SWAP2 POP POP SWAP3 SWAP6 SWAP9 SWAP2 SWAP5 SWAP8 POP SWAP3 SWAP6 POP JUMP JUMPDEST PUSH1 0x80 MLOAD PUSH1 0xA0 MLOAD PUSH1 0xC0 MLOAD PUSH1 0xE0 MLOAD PUSH2 0x100 MLOAD PUSH2 0x120 MLOAD PUSH2 0x140 MLOAD PUSH2 0x8B9 PUSH2 0x4B2 PUSH0 CODECOPY PUSH0 PUSH2 0x368 ADD MSTORE PUSH0 PUSH2 0x223 ADD MSTORE PUSH0 PUSH2 0x3B0 ADD MSTORE PUSH0 PUSH2 0x3D4 ADD MSTORE PUSH0 PUSH2 0x1FF ADD MSTORE PUSH0 DUP2 DUP2 PUSH2 0x2BA ADD MSTORE PUSH2 0x3F8 ADD MSTORE PUSH0 PUSH2 0x38C ADD MSTORE PUSH2 0x8B9 PUSH0 RETURN INVALID PUSH1 0x80 PUSH1 0x40 MSTORE CALLVALUE DUP1 ISZERO PUSH2 0xF JUMPI PUSH0 DUP1 REVERT JUMPDEST POP PUSH1 0x4 CALLDATASIZE LT PUSH2 0x91 JUMPI PUSH0 CALLDATALOAD PUSH1 0xE0 SHR DUP1 PUSH4 0xAD5C4648 GT PUSH2 0x64 JUMPI DUP1 PUSH4 0xAD5C4648 EQ PUSH2 0x132 JUMPI DUP1 PUSH4 0xC31C9C07 EQ PUSH2 0x150 JUMPI DUP1 PUSH4 0xC54E44EB EQ PUSH2 0x16E JUMPI DUP1 PUSH4 0xE0BAB4C4 EQ PUSH2 0x18C JUMPI DUP1 PUSH4 0xE20DCCB2 EQ PUSH2 0x1AA JUMPI PUSH2 0x91 JUMP JUMPDEST DUP1 PUSH4 0x230ED44A EQ PUSH2 0x95 JUMPI DUP1 PUSH4 0x5B549182 EQ PUSH2 0xC5 JUMPI DUP1 PUSH4 0x89A30271 EQ PUSH2 0xE3 JUMPI DUP1 PUSH4 0x9A90F2EC EQ PUSH2 0x101 JUMPI JUMPDEST PUSH0 DUP1 REVERT JUMPDEST PUSH2 0xAF PUSH1 0x4 DUP1 CALLDATASIZE SUB DUP2 ADD SWAP1 PUSH2 0xAA SWAP2 SWAP1 PUSH2 0x451 JUMP JUMPDEST PUSH2 0x1C8 JUMP JUMPDEST PUSH1 0x40 MLOAD PUSH2 0xBC SWAP2 SWAP1 PUSH2 0x499 JUMP JUMPDEST PUSH1 0x40 MLOAD DUP1 SWAP2 SUB SWAP1 RETURN JUMPDEST PUSH2 0xCD PUSH2 0x1FD JUMP JUMPDEST PUSH1 0x40 MLOAD PUSH2 0xDA SWAP2 SWAP1 PUSH2 0x52C JUMP JUMPDEST PUSH1 0x40 MLOAD DUP1 SWAP2 SUB SWAP1 RETURN JUMPDEST PUSH2 0xEB PUSH2 0x221 JUMP JUMPDEST PUSH1 0x40 MLOAD PUSH2 0xF8 SWAP2 SWAP1 PUSH2 0x565 JUMP JUMPDEST PUSH1 0x40 MLOAD DUP1 SWAP2 SUB SWAP1 RETURN JUMPDEST PUSH2 0x11B PUSH1 0x4 DUP1 CALLDATASIZE SUB DUP2 ADD SWAP1 PUSH2 0x116 SWAP2 SWAP1 PUSH2 0x5D2 JUMP JUMPDEST PUSH2 0x245 JUMP JUMPDEST PUSH1 0x40 MLOAD PUSH2 0x129 SWAP3 SWAP2 SWAP1 PUSH2 0x654 JUMP JUMPDEST PUSH1 0x40 MLOAD DUP1 SWAP2 SUB SWAP1 RETURN JUMPDEST PUSH2 0x13A PUSH2 0x366 JUMP JUMPDEST PUSH1 0x40 MLOAD PUSH2 0x147 SWAP2 SWAP1 PUSH2 0x565 JUMP JUMPDEST PUSH1 0x40 MLOAD DUP1 SWAP2 SUB SWAP1 RETURN JUMPDEST PUSH2 0x158 PUSH2 0x38A JUMP JUMPDEST PUSH1 0x40 MLOAD PUSH2 0x165 SWAP2 SWAP1 PUSH2 0x69B JUMP JUMPDEST PUSH1 0x40 MLOAD DUP1 SWAP2 SUB SWAP1 RETURN JUMPDEST PUSH2 0x176 PUSH2 0x3AE JUMP JUMPDEST PUSH1 0x40 MLOAD PUSH2 0x183 SWAP2 SWAP1 PUSH2 0x565 JUMP JUMPDEST PUSH1 0x40 MLOAD DUP1 SWAP2 SUB SWAP1 RETURN JUMPDEST PUSH2 0x194 PUSH2 0x3D2 JUMP JUMPDEST PUSH1 0x40 MLOAD PUSH2 0x1A1 SWAP2 SWAP1 PUSH2 0x565 JUMP JUMPDEST PUSH1 0x40 MLOAD DUP1 SWAP2 SUB SWAP1 RETURN JUMPDEST PUSH2 0x1B2 PUSH2 0x3F6 JUMP JUMPDEST PUSH1 0x40 MLOAD PUSH2 0x1BF SWAP2 SWAP1 PUSH2 0x6D4 JUMP JUMPDEST PUSH1 0x40 MLOAD DUP1 SWAP2 SUB SWAP1 RETURN JUMPDEST PUSH0 DUP2 DUP2 SLOAD DUP2 LT PUSH2 0x1D6 JUMPI PUSH0 DUP1 REVERT JUMPDEST SWAP1 PUSH0 MSTORE PUSH1 0x20 PUSH0 KECCAK256 SWAP1 PUSH1 0xA SWAP2 DUP3 DUP3 DIV ADD SWAP2 SWAP1 MOD PUSH1 0x3 MUL SWAP2 POP SLOAD SWAP1 PUSH2 0x100 EXP SWAP1 DIV PUSH3 0xFFFFFF AND DUP2 JUMP JUMPDEST PUSH32 0x0 DUP2 JUMP JUMPDEST PUSH32 0x0 DUP2 JUMP JUMPDEST PUSH0 DUP1 PUSH0 PUSH1 0x40 MLOAD DUP1 PUSH1 0xA0 ADD PUSH1 0x40 MSTORE DUP1 DUP9 PUSH20 0xFFFFFFFFFFFFFFFFFFFFFFFFFFFFFFFFFFFFFFFF AND DUP2 MSTORE PUSH1 0x20 ADD DUP8 PUSH20 0xFFFFFFFFFFFFFFFFFFFFFFFFFFFFFFFFFFFFFFFF AND DUP2 MSTORE PUSH1 0x20 ADD DUP7 DUP2 MSTORE PUSH1 0x20 ADD DUP6 PUSH3 0xFFFFFF AND DUP2 MSTORE PUSH1 0x20 ADD PUSH0 PUSH20 0xFFFFFFFFFFFFFFFFFFFFFFFFFFFFFFFFFFFFFFFF AND DUP2 MSTORE POP SWAP1 POP PUSH32 0x0 PUSH20 0xFFFFFFFFFFFFFFFFFFFFFFFFFFFFFFFFFFFFFFFF AND PUSH4 0xC6A5026A DUP3 PUSH1 0x40 MLOAD DUP3 PUSH4 0xFFFFFFFF AND PUSH1 0xE0 SHL DUP2 MSTORE PUSH1 0x4 ADD PUSH2 0x311 SWAP2 SWAP1 PUSH2 0x78F JUMP JUMPDEST PUSH1 0x80 PUSH1 0x40 MLOAD DUP1 DUP4 SUB DUP2 PUSH0 DUP8 GAS CALL ISZERO DUP1 ISZERO PUSH2 0x32D JUMPI RETURNDATASIZE PUSH0 DUP1 RETURNDATACOPY RETURNDATASIZE PUSH0 REVERT JUMPDEST POP POP POP POP PUSH1 0x40 MLOAD RETURNDATASIZE PUSH1 0x1F NOT PUSH1 0x1F DUP3 ADD AND DUP3 ADD DUP1 PUSH1 0x40 MSTORE POP DUP2 ADD SWAP1 PUSH2 0x351 SWAP2 SWAP1 PUSH2 0x81F JUMP JUMPDEST SWAP1 POP POP DUP1 SWAP4 POP DUP2 SWAP5 POP POP POP POP SWAP5 POP SWAP5 SWAP3 POP POP POP JUMP JUMPDEST PUSH32 0x0 DUP2 JUMP JUMPDEST PUSH32 0x0 DUP2 JUMP JUMPDEST PUSH32 0x0 DUP2 JUMP JUMPDEST PUSH32 0x0 DUP2 JUMP JUMPDEST PUSH32 0x0 DUP2 JUMP JUMPDEST PUSH0 DUP1 REVERT JUMPDEST PUSH0 DUP2 SWAP1 POP SWAP2 SWAP1 POP JUMP JUMPDEST PUSH2 0x430 DUP2 PUSH2 0x41E JUMP JUMPDEST DUP2 EQ PUSH2 0x43A JUMPI PUSH0 DUP1 REVERT JUMPDEST POP JUMP JUMPDEST PUSH0 DUP2 CALLDATALOAD SWAP1 POP PUSH2 0x44B DUP2 PUSH2 0x427 JUMP JUMPDEST SWAP3 SWAP2 POP POP JUMP JUMPDEST PUSH0 PUSH1 0x20 DUP3 DUP5 SUB SLT ISZERO PUSH2 0x466 JUMPI PUSH2 0x465 PUSH2 0x41A JUMP JUMPDEST JUMPDEST PUSH0 PUSH2 0x473 DUP5 DUP3 DUP6 ADD PUSH2 0x43D JUMP JUMPDEST SWAP2 POP POP SWAP3 SWAP2 POP POP JUMP JUMPDEST PUSH0 PUSH3 0xFFFFFF DUP3 AND SWAP1 POP SWAP2 SWAP1 POP JUMP JUMPDEST PUSH2 0x493 DUP2 PUSH2 0x47C JUMP JUMPDEST DUP3 MSTORE POP POP JUMP JUMPDEST PUSH0 PUSH1 0x20 DUP3 ADD SWAP1 POP PUSH2 0x4AC PUSH0 DUP4 ADD DUP5 PUSH2 0x48A JUMP JUMPDEST SWAP3 SWAP2 POP POP JUMP JUMPDEST PUSH0 PUSH20 0xFFFFFFFFFFFFFFFFFFFFFFFFFFFFFFFFFFFFFFFF DUP3 AND SWAP1 POP SWAP2 SWAP1 POP JUMP JUMPDEST PUSH0 DUP2 SWAP1 POP SWAP2 SWAP1 POP JUMP JUMPDEST PUSH0 PUSH2 0x4F4 PUSH2 0x4EF PUSH2 0x4EA DUP5 PUSH2 0x4B2 JUMP JUMPDEST PUSH2 0x4D1 JUMP JUMPDEST PUSH2 0x4B2 JUMP JUMPDEST SWAP1 POP SWAP2 SWAP1 POP JUMP JUMPDEST PUSH0 PUSH2 0x505 DUP3 PUSH2 0x4DA JUMP JUMPDEST SWAP1 POP SWAP2 SWAP1 POP JUMP JUMPDEST PUSH0 PUSH2 0x516 DUP3 PUSH2 0x4FB JUMP JUMPDEST SWAP1 POP SWAP2 SWAP1 POP JUMP JUMPDEST PUSH2 0x526 DUP2 PUSH2 0x50C JUMP JUMPDEST DUP3 MSTORE POP POP JUMP JUMPDEST PUSH0 PUSH1 0x20 DUP3 ADD SWAP1 POP PUSH2 0x53F PUSH0 DUP4 ADD DUP5 PUSH2 0x51D JUMP JUMPDEST SWAP3 SWAP2 POP POP JUMP JUMPDEST PUSH0 PUSH2 0x54F DUP3 PUSH2 0x4B2 JUMP JUMPDEST SWAP1 POP SWAP2 SWAP1 POP JUMP JUMPDEST PUSH2 0x55F DUP2 PUSH2 0x545 JUMP JUMPDEST DUP3 MSTORE POP POP JUMP JUMPDEST PUSH0 PUSH1 0x20 DUP3 ADD SWAP1 POP PUSH2 0x578 PUSH0 DUP4 ADD DUP5 PUSH2 0x556 JUMP JUMPDEST SWAP3 SWAP2 POP POP JUMP JUMPDEST PUSH2 0x587 DUP2 PUSH2 0x545 JUMP JUMPDEST DUP2 EQ PUSH2 0x591 JUMPI PUSH0 DUP1 REVERT JUMPDEST POP JUMP JUMPDEST PUSH0 DUP2 CALLDATALOAD SWAP1 POP PUSH2 0x5A2 DUP2 PUSH2 0x57E JUMP JUMPDEST SWAP3 SWAP2 POP POP JUMP JUMPDEST PUSH2 0x5B1 DUP2 PUSH2 0x47C JUMP JUMPDEST DUP2 EQ PUSH2 0x5BB JUMPI PUSH0 DUP1 REVERT JUMPDEST POP JUMP JUMPDEST PUSH0 DUP2 CALLDATALOAD SWAP1 POP PUSH2 0x5CC DUP2 PUSH2 0x5A8 JUMP JUMPDEST SWAP3 SWAP2 POP POP JUMP JUMPDEST PUSH0 DUP1 PUSH0 DUP1 PUSH1 0x80 DUP6 DUP8 SUB SLT ISZERO PUSH2 0x5EA JUMPI PUSH2 0x5E9 PUSH2 0x41A JUMP JUMPDEST JUMPDEST PUSH0 PUSH2 0x5F7 DUP8 DUP3 DUP9 ADD PUSH2 0x594 JUMP JUMPDEST SWAP5 POP POP PUSH1 0x20 PUSH2 0x608 DUP8 DUP3 DUP9 ADD PUSH2 0x594 JUMP JUMPDEST SWAP4 POP POP PUSH1 0x40 PUSH2 0x619 DUP8 DUP3 DUP9 ADD PUSH2 0x43D JUMP JUMPDEST SWAP3 POP POP PUSH1 0x60 PUSH2 0x62A DUP8 DUP3 DUP9 ADD PUSH2 0x5BE JUMP JUMPDEST SWAP2 POP POP SWAP3 SWAP6 SWAP2 SWAP5 POP SWAP3 POP JUMP JUMPDEST PUSH2 0x63F DUP2 PUSH2 0x41E JUMP JUMPDEST DUP3 MSTORE POP POP JUMP JUMPDEST PUSH2 0x64E DUP2 PUSH2 0x4B2 JUMP JUMPDEST DUP3 MSTORE POP POP JUMP JUMPDEST PUSH0 PUSH1 0x40 DUP3 ADD SWAP1 POP PUSH2 0x667 PUSH0 DUP4 ADD DUP6 PUSH2 0x636 JUMP JUMPDEST PUSH2 0x674 PUSH1 0x20 DUP4 ADD DUP5 PUSH2 0x645 JUMP JUMPDEST SWAP4 SWAP3 POP POP POP JUMP JUMPDEST PUSH0 PUSH2 0x685 DUP3 PUSH2 0x4FB JUMP JUMPDEST SWAP1 POP SWAP2 SWAP1 POP JUMP JUMPDEST PUSH2 0x695 DUP2 PUSH2 0x67B JUMP JUMPDEST DUP3 MSTORE POP POP JUMP JUMPDEST PUSH0 PUSH1 0x20 DUP3 ADD SWAP1 POP PUSH2 0x6AE PUSH0 DUP4 ADD DUP5 PUSH2 0x68C JUMP JUMPDEST SWAP3 SWAP2 POP POP JUMP JUMPDEST PUSH0 PUSH2 0x6BE DUP3 PUSH2 0x4FB JUMP JUMPDEST SWAP1 POP SWAP2 SWAP1 POP JUMP JUMPDEST PUSH2 0x6CE DUP2 PUSH2 0x6B4 JUMP JUMPDEST DUP3 MSTORE POP POP JUMP JUMPDEST PUSH0 PUSH1 0x20 DUP3 ADD SWAP1 POP PUSH2 0x6E7 PUSH0 DUP4 ADD DUP5 PUSH2 0x6C5 JUMP JUMPDEST SWAP3 SWAP2 POP POP JUMP JUMPDEST PUSH2 0x6F6 DUP2 PUSH2 0x545 JUMP JUMPDEST DUP3 MSTORE POP POP JUMP JUMPDEST PUSH2 0x705 DUP2 PUSH2 0x41E JUMP JUMPDEST DUP3 MSTORE POP POP JUMP JUMPDEST PUSH2 0x714 DUP2 PUSH2 0x47C JUMP JUMPDEST DUP3 MSTORE POP POP JUMP JUMPDEST PUSH2 0x723 DUP2 PUSH2 0x4B2 JUMP JUMPDEST DUP3 MSTORE POP POP JUMP JUMPDEST PUSH1 0xA0 DUP3 ADD PUSH0 DUP3 ADD MLOAD PUSH2 0x73D PUSH0 DUP6 ADD DUP3 PUSH2 0x6ED JUMP JUMPDEST POP PUSH1 0x20 DUP3 ADD MLOAD PUSH2 0x750 PUSH1 0x20 DUP6 ADD DUP3 PUSH2 0x6ED JUMP JUMPDEST POP PUSH1 0x40 DUP3 ADD MLOAD PUSH2 0x763 PUSH1 0x40 DUP6 ADD DUP3 PUSH2 0x6FC JUMP JUMPDEST POP PUSH1 0x60 DUP3 ADD MLOAD PUSH2 0x776 PUSH1 0x60 DUP6 ADD DUP3 PUSH2 0x70B JUMP JUMPDEST POP PUSH1 0x80 DUP3 ADD MLOAD PUSH2 0x789 PUSH1 0x80 DUP6 ADD DUP3 PUSH2 0x71A JUMP JUMPDEST POP POP POP POP JUMP JUMPDEST PUSH0 PUSH1 0xA0 DUP3 ADD SWAP1 POP PUSH2 0x7A2 PUSH0 DUP4 ADD DUP5 PUSH2 0x729 JUMP JUMPDEST SWAP3 SWAP2 POP POP JUMP JUMPDEST PUSH0 DUP2 MLOAD SWAP1 POP PUSH2 0x7B6 DUP2 PUSH2 0x427 JUMP JUMPDEST SWAP3 SWAP2 POP POP JUMP JUMPDEST PUSH2 0x7C5 DUP2 PUSH2 0x4B2 JUMP JUMPDEST DUP2 EQ PUSH2 0x7CF JUMPI PUSH0 DUP1 REVERT JUMPDEST POP JUMP JUMPDEST PUSH0 DUP2 MLOAD SWAP1 POP PUSH2 0x7E0 DUP2 PUSH2 0x7BC JUMP JUMPDEST SWAP3 SWAP2 POP POP JUMP JUMPDEST PUSH0 PUSH4 0xFFFFFFFF DUP3 AND SWAP1 POP SWAP2 SWAP1 POP JUMP JUMPDEST PUSH2 0x7FE DUP2 PUSH2 0x7E6 JUMP JUMPDEST DUP2 EQ PUSH2 0x808 JUMPI PUSH0 DUP1 REVERT JUMPDEST POP JUMP JUMPDEST PUSH0 DUP2 MLOAD SWAP1 POP PUSH2 0x819 DUP2 PUSH2 0x7F5 JUMP JUMPDEST SWAP3 SWAP2 POP POP JUMP JUMPDEST PUSH0 DUP1 PUSH0 DUP1 PUSH1 0x80 DUP6 DUP8 SUB SLT ISZERO PUSH2 0x837 JUMPI PUSH2 0x836 PUSH2 0x41A JUMP JUMPDEST JUMPDEST PUSH0 PUSH2 0x844 DUP8 DUP3 DUP9 ADD PUSH2 0x7A8 JUMP JUMPDEST SWAP5 POP POP PUSH1 0x20 PUSH2 0x855 DUP8 DUP3 DUP9 ADD PUSH2 0x7D2 JUMP JUMPDEST SWAP4 POP POP PUSH1 0x40 PUSH2 0x866 DUP8 DUP3 DUP9 ADD PUSH2 0x80B JUMP JUMPDEST SWAP3 POP POP PUSH1 0x60 PUSH2 0x877 DUP8 DUP3 DUP9 ADD PUSH2 0x7A8 JUMP JUMPDEST SWAP2 POP POP SWAP3 SWAP6 SWAP2 SWAP5 POP SWAP3 POP JUMP INVALID LOG2 PUSH5 0x6970667358 0x22 SLT KECCAK256 BLOBHASH DUP12 GASPRICE DUP7 DUP10 0xC9 SWAP12 PUSH27 0x627A6D8896234A0088FCA93D551CD94313D359830F423F5964736F PUSH13 0x634300081A0033000000000000 "
				},
				"gasEstimates": {
					"creation": {
						"codeDepositCost": "446600",
						"executionCost": "infinite",
						"totalCost": "infinite"
					},
					"external": {
						"DAI()": "infinite",
						"USDC()": "infinite",
						"USDT()": "infinite",
						"WETH()": "infinite",
						"feeTiers(uint256)": "6539",
						"getAmountOutMinimum(address,address,uint256,uint24)": "infinite",
						"quoterV2()": "infinite",
						"swapRouter()": "infinite",
						"uniswapV3Factory()": "infinite"
					},
					"internal": {
						"findAvailableFeeTiers(address,address)": "infinite",
						"findMinimumFeeTier(address,address)": "infinite",
						"swapExactInputMultihop(uint256,address,address)": "infinite",
						"swapExactInputSingle(uint256,address,address)": "infinite"
					}
				},
				"methodIdentifiers": {
					"DAI()": "e0bab4c4",
					"USDC()": "89a30271",
					"USDT()": "c54e44eb",
					"WETH()": "ad5c4648",
					"feeTiers(uint256)": "230ed44a",
					"getAmountOutMinimum(address,address,uint256,uint24)": "9a90f2ec",
					"quoterV2()": "e20dccb2",
					"swapRouter()": "c31c9c07",
					"uniswapV3Factory()": "5b549182"
				}
			},
			"storageLayout": {
				"storage": [
					{
						"astId": 498,
						"contract": "contracts/SwapUniswap.sol:SwapUniswap",
						"label": "feeTiers",
						"offset": 0,
						"slot": "0",
						"type": "t_array(t_uint24)dyn_storage"
					}
				],
				"types": {
					"t_array(t_uint24)dyn_storage": {
						"base": "t_uint24",
						"encoding": "dynamic_array",
						"label": "uint24[]",
						"numberOfBytes": "32"
					},
					"t_uint24": {
						"encoding": "inplace",
						"label": "uint24",
						"numberOfBytes": "3"
					}
				}
			},
			"userdoc": {
				"kind": "user",
				"methods": {},
				"version": 1
			}
		}
	}
}